:020000040800F2
:10000000E00E0020A90100082D3100080D25000890
:1000100029310008C1020008A935000800000000CD
:100020000000000000000000000000003531000862
:10003000E9020008000000003131000839310008F1
:10004000C3010008C3010008C3010008C301000880
:10005000C3010008C3010008C3010008C301000870
:10006000C3010008C3010008C3010008C301000860
:10007000C3010008C3010008C3010008C301000850
:10008000C5020008D1020008C301000800000000FA
:10009000000000000000000000000000C301000894
:1000A000C3010008C3010008C3010008C301000820
:1000B000C3010008C3010008C3010008112500089E
:1000C000C3010008C3010008C3010008C301000800
:1000D000C3010008913500089D35000800000000AC
:1000E000C3010008C3010008C301000800000000AC
:1000F000000000000000000000000000C301000834
:1001000000000000C3010008C3010008C30100088B
:1001100000000000000000000000000000000000DF
:10012000C3010008C3010008C3010008C30100089F
:10013000C3010008000000000000000000000000F3
:10014000000000000000000000000000C3010008E3
:10015000C3010008C3010008DD020008C301000854
:10016000C3010008C30100080000000000000000F7
:10017000000000000000000000000000000000007F
:1001800000000000C30100080000000000000000A3
:10019000C3010008DFF80CD000F07AF800480047EF
:1001A000DD350008E00E002006488047064800477D
:1001B000FEE7FEE7FEE7FEE7FEE7FEE7FEE7FEE717
:1001C000FEE7FEE7E1310008950100082DE9F05F48
:1001D0000546002092469B468846064681464024B6
:1001E0001BE0284641464746224600F041F8534668
:1001F0005A46C01A914110D311461846224600F0C3
:1002000028F82D1A67EB01084F46224601200021ED
:1002100000F01FF817EB00094E41201EA4F1010465
:10022000DFDC484631462A464346BDE8F09FD2B25D
:1002300001E000F8012B491EFBD270470022F6E7CF
:1002400010B513460A4604461946FFF7F0FF20464C
:1002500010BD202A04DB203A00FA02F1002070478A
:100260009140C2F1200320FA03F3194390407047F4
:10027000202A04DB203A21FA02F00021704721FAFB
:1002800002F3D040C2F12002914008431946704762
:100290001CB509480090094801900546009C06E0FD
:1002A000E06840F0010394E8070098471034AC423E
:1002B000F6D3FFF773FF00002452000844520008F1
:1002C000FEE7000040F2E440C2F2000000F06AB82D
:1002D00040F22440C2F2000000F064B840F28440D2
:1002E000C2F2000000F05EB87047000072B600BFB6
:1002F000FEE7000070B5866D044600F0F7FA94F84A
:100300003510022925D105462068216C026822F0AB
:1003100016020260426922F08002426109B9A16CB2
:1003200019B1016821F008010160016821F00101A3
:10033000016000BF20680068C0070ED000F0D6FA48
:10034000401B0628F6D320206065032084F8350082
:100350000CE080206065012008E0E06D3F2101FA9B
:1003600000F0B060012084F835000020002184F8FE
:10037000341070BD90F83510022909D1052180F89C
:1003800035100068016821F001010160002070470C
:100390008021416501207047406D704790F835001D
:1003A00070470000F0B581B004460020009040F294
:1003B0000800C2F200000268D4E9166048F2B513E2
:1003C00037680821C1F64E3381403942A2FB03252C
:1003D0000CD0226813685B0708D5136823F0040368
:1003E0001360B160616D41F00101616501218140DF
:1003F000394208D022685269120604D5B160616D95
:1004000041F00201616504218140394208D022682F
:100410001268920704D5B160616D41F00401616515
:1004200010218140394215D020680268120711D589
:10043000B16002680168520306D4C90506D4016898
:1004400021F00801016001E008033ED4216C09B1EC
:1004500020468847E16D202000FA01F23A4240D060
:1004600020680368DB063CD5B26094F8353002683A
:10047000052B1AD122F016020260426922F0800296
:100480004261226C0AB9A26C1AB1026822F0080219
:1004900002603F208840B060012084F83500216D63
:1004A000002084F83400D9BB3FE00168520310D427
:1004B000C90512D4016821F010010160012084F8FF
:1004C0003500002084F8340007E0A16C0029BFD17A
:1004D000C0E7080301D4616C00E0E16B09B120467C
:1004E0008847606D08B3606DC00717D0052084F899
:1004F00035002068A90A026822F00102026000BFEC
:10050000009A01328A42009202D80268D207F7D1DB
:10051000012084F83500002084F83400E16C21B11A
:10052000204601B0BDE8F040084701B0F0BD000032
:100530002DE9F041044600F0D9F9C4B10546022086
:1005400084F835000020216884F83400086820F021
:100550000100086020680168C9070BD000F0C6F9E7
:10056000401B0528F6D90321202203207AE0012030
:10057000BDE8F081016848F23F02CFF21002D4E9F1
:10058000013501EA020ED4E9032143EA0E032B43AD
:10059000D4E9056C1A43D4E907781143314341EAA1
:1005A0000702616A42EA0802042942EA0C0303D105
:1005B000D4E90B273A43134303604269042922F02C
:1005C000070241EA02012DD1D4E90A5341EA0501AB
:1005D00043B3BCF5005F08D0BCF1000F12D1022D6F
:1005E00016D0012D07D09DB119E0032D17D8DFE8F3
:1005F00005F00B0F0B02A3F1C072B2FA82F252099E
:100600004AB90FE0032D02D2012222B90AE006D135
:10061000C3F3006232B101214022012022E0002216
:10062000002AF8D100F0F8024AF6AB23103ACAF6D5
:10063000AA23A2FB033745F21A2341613909C0F608
:100640000003595C40F2FF3398435F2A4FF03F02AA
:1006500088BF0430C4E9160102FA01F1816000226A
:1006600001210020626584F83510BDE8F0810000AA
:1006700090F834C0BCF1010F04BF0220704770B580
:100680004FF0010C80F834C0D0F858E090F835C035
:10069000BCF1010F37D14FF0020C80F835C04FF09C
:1006A000000CC0F854C0D0F800C08468056CC06D60
:1006B000DCF80060402C26F48026CCF80060CCF8F2
:1006C00004300B4604BF13460A463F2101FA00F0EE
:1006D000CCF80830CCF80C20CEF80800DCF800008C
:1006E00040F01600CCF800002DB1DCF8000040F01E
:1006F0000800CCF80000DCF8000040F00100CCF865
:100700000000002070BD002180F83410022070BD70
:10071000B0B5044600F0EAF8054640F20C00C2F21B
:1007200000000078611C18BF044400BF00F0DEF830
:10073000401BA042FAD3B0BD2DE9F04F82B000F1CA
:100740003E4707F1FF77860546EA972741F2000604
:10075000C4F202060722B04208BF0422042F38BFA9
:100760003A46002400274FF00009009209E000BF3C
:1007700009F101090237B9F1100F04F1040400F086
:10078000A4800D68012202FA09FC15EA0C08EFD0DA
:10079000D1F804B00BF0030AAAF10105012D12D81B
:1007A0000322856802FA07FECA6825EA0E05BA40E8
:1007B0002A4382604268CBF3001522EA0C0205FA54
:1007C00009F52A434260BAF1030F1CD0C268032323
:1007D0008E6803FA07F5AA43BE403243BAF1020F0E
:1007E000C26010D16FF0030202EA59020244D2F84B
:1007F00020C004F01C050F230E69AB402CEA030354
:10080000AE4033431362026803234E68BB409A43F1
:1008100006F00303BB401A4316F4403F0260A7D022
:10082000002243F644030192C4F202031A6843F61D
:10083000004E42F480421A601A68C4F2010E02F4BB
:1008400080420192019A29F003024FF6084C72444B
:10085000CFF6FF7C52F80C3004F00C060F25B540A3
:10086000AB43009D05FA06F6334342F80C30DEF840
:1008700008204B6842EA080643F60C4CDD0258BFDC
:1008800022EA0806CEF80860C4F2010CDCF8002069
:100890009D0242EA080658BF22EA0806CCF800602A
:1008A000DEF804209D0342EA080658BF22EA080643
:1008B000CEF80460DEF80020DB0342EA080658BFE9
:1008C00022EA0806CEF8006052E702B0BDE8F08FD9
:1008D000426902EA0103914341EA034181617047A1
:1008E000002A08BF090481617047000040F6D82043
:1008F000C2F20000006870477047000070470000B7
:10090000F0B581B0076804467868E26A94F83E3032
:1009100094F83DE0402B01D0102B0BD1BD697E69CE
:10092000F10735D1B2F12A4F02D0B2F52A0F31D1F9
:1009300001B0F0BD216C00F4007300290CBFBD694B
:1009400000257E69B10734D59BB3206C002818BF01
:10095000BD6994F83D0000F02800282840F086800A
:100960007868012120F48060786005F0040081EA55
:10097000900128064FF0180058BF0C20225A00237F
:10098000204684F83C3001B0BDE8F040FFF7B6BF28
:10099000810538D4310700F4007C3AD5BCF1000F52
:1009A00037D0606B616C0028C9B2396140F0BD80FE
:1009B000BDE0F10665D5002B63D094F83D50786812
:1009C00020F4E0607860002000907869009038683A
:1009D00040F0010038600098386820F4806038608A
:1009E0007868000540F13A8105F0F7002646222894
:1009F00040F0138156F8380F0168496826F80E1C3C
:100A000036F80E1C11E1E06AB0F52A0F69D1012019
:100A10006CE0B10740F19980BCF1000F00F09580C7
:100A200094F83E30E06A226B94F83D10222940F0A1
:100A3000A180216D002908BF402B00F09B80216D13
:100A4000002940F091812169B1F5404F40F08C813F
:100A50000020009078690090B8690090009838688C
:100A600040F480703860206D013014E20020009066
:100A700079690091B9690091009984F83C0001B04E
:100A8000F0BD0EF0F70121297DD106F08401802907
:100A900040F02D8110F4806000F0298194F83D0031
:100AA000618D00293FF444AF616A11F8012B3A616E
:100AB0006162618D01396185618D002908BF292836
:100AC0007FF436AF7868282120F480607860212098
:100AD0002063204684F83D1001B0BDE8F04000F0EE
:100AE0003BBDE06AB0F12A4F01D10820E06294F8E2
:100AF0003E0040280AD1206D616C002801F0FE0004
:100B000018BF40F00100386101B0F0BD2069B0F5B8
:100B1000804F62D194F83D00616C212801F0FE0104
:100B200018BF01313961606B08B1C06B38B9A06B77
:100B300000283FF4FDAEC06B00283FF4F9AE7868A2
:100B400040F40060786001B0F0BD79686A0752D463
:100B500009053FF5EDAE06F04401402940F01D8146
:100B600010F4806000F01981204601B0BDE8F0402B
:100B700001F02ABF0020009078690090B8690090C9
:100B8000009801B0F0BD06F04401402940F0BE805D
:100B900010F4806000F0BA8094F83D00618D002967
:100BA0003FF4C6AE3969626A1170616A01316162EF
:100BB000618D01396185618D002908BF2A287FF484
:100BC000B7AE2068416821F480614160222028216D
:100BD0002063204684F83D10C1E0206D002800F01D
:100BE000AA80206D01287FF4A3AE606C062101EA83
:100BF000D010F13087E709053FF59AAE06F0840181
:100C0000802940F0D78010F4806000F0D380204627
:100C100001B0BDE8F04001F09FBF56F8340F016805
:100C2000496826F80A1C36F80A1C19B1216C41F0F3
:100C300004012164796821F400617960FFF7AEFB5B
:100C400001280BD0306842F21D51C0F60001016549
:100C5000FFF790FB10B13068016D8847608DF8B1E7
:100C600020684169490708D50069616A0870606AAF
:100C700001306062608D01386085206841694906F5
:100C800008D50069616A0870606A01306062608D31
:100C900001386085608D18B1206C40F0040020643C
:100CA000206C28B1204601B0BDE8F04001F064BDE1
:100CB0002A2D07D100202063282084F83D002046FB
:100CC00000F048FC94F83D0028283AD10020CFF6E7
:100CD000FF70E06200212020216384F83D0020465F
:100CE00084F83E1001B0BDE8F04000F0F3BA7007A0
:100CF0007FF51EAE002B3FF41BAE608D00283FF445
:100D000017AE606A10F8011B39610EE070077FF5BD
:100D10000FAE002B3FF40CAE608D00283FF408AE00
:100D20003869616A0870606A01306062608D0138FC
:100D3000608501B0F0BD606C062101EAD010F03092
:100D4000E1E6206B222818BF222D7FF4F1AD0021AF
:100D50002020216384F83D00204684F83E1001B035
:100D6000BDE8F04000F0F6BB618D51B1618D012905
:100D700030D1202818BF082848D1386820F4806076
:100D800038600020009078690090B8690090009861
:100D9000386840F4007038607CE070077FF5C8ADBB
:100DA000BCF1000F3FF4C4AD204601B0BDE8F040F7
:100DB00001F090BD70077FF5BBADBCF1000F3FF4B3
:100DC000B7ADBEF1210F14D1204601B0BDE8F0400F
:100DD00001F082BE618D022914D1102838D801217A
:100DE00014228140C0F20102114231D04FF48062DE
:100DF00034E0402B7FF49CAD204601B0BDE8F040CC
:100E000001F002BF396841F4806129E010F5803FAC
:100E10000BD1386820F48060386078680005B0D560
:100E2000386820F4806038602DE0122A01D1012852
:100E3000A3D11028F4D8012101FA00F01421C0F246
:100E400001010842ECD0386840F4806038601AE054
:100E500039684FF4006221F48061396039681143C8
:100E60003960796809050ED5421E1F2A16D801215E
:100E7000914048F28102C8F2000211420ED0786817
:100E800040F4805078600020009078690090B86944
:100E9000009000980020206501B0F0BD10F5803F63
:100EA000EDD0F0E77047000090F83D00704700007B
:100EB000002804BF01207047F0B581B0044690F8C7
:100EC0003D0028B9002084F83C00204600F0E2FAFA
:100ED000242084F83D002068016821F001010160B0
:100EE000016841F400410160016821F400410160A2
:100EF00000F09EFC636848F2A16CC0F2010C40F661
:100F00000011C0F23D0163453CBF48F28041C0F290
:100F10001E01884202D2012001B0F0BD4DF683616E
:100F2000C4F21B31A0FB01122168970CD1F804E038
:100F30004FF496762EF03F0545EA92454D60774393
:100F400048F638160D6AC0F24106A7FB067625F072
:100F50003F07634538BF960C721C3A430A62CA6960
:100F600048F2A0664CF6FF77C0F20106B34222EACF
:100F7000070C0AD801385A00B0FBF2F001306FF3C9
:100F80001F30042898BF042020E0A2681927002AF7
:100F900008BF032701385F43B0FBF7F701373F0570
:100FA00009D052B119225A43B0FBF2F004220130A9
:100FB00062F31F3008E0012008E003EB4302B0FBBE
:100FC000F2F001306FF31F3040F4004040EA0C00B3
:100FD000C8610868D4E9072320F0C0001043184313
:100FE0000860886848F2FF3204F10C0790438CCF08
:100FF00018431043A6698860C86820F0FF00384392
:101000003043C860086840F00100086000202021DB
:10101000206484F83D10206384F83E0001B0F0BDE8
:101020002DE9F04F83B01E46924688460446FFF7EE
:101030005DFC94F83D10202909D10546206880699F
:1010400010F0020008D194F83C0001282AD10226B1
:10105000304603B0BDE8F08F4FF0010989EA500730
:1010600007E000BF2068806910F0020089EA50079D
:10107000E9D0FFF73BFC401B1A28F3D320688069B6
:101080008007EFD500202021206384F83D1084F8EC
:101090003E00216C41F020012164F90784F83C00F6
:1010A000D1D1D4E74FF0010B206884F83CB001683F
:1010B000C90703D1016841F0010101600168BAF17B
:1010C000010F21F4006101604FF0240084F83D001D
:1010D0004FF00000206440F20000CFF6FF70E062A5
:1010E00008F0FE00019098BFDA46CDF800A006F1A6
:1010F000010AA0274FF0000808E000BF009808F19F
:10110000010880454FF0A00700F0AC80206801681E
:1011100041F480710160406910F001002AD180F033
:1011200001090AE020684069C00711D020684069C1
:1011300010F0010080F001091CD1BAF1000FF5D0C8
:10114000FFF7D4FB002EEDD0401BB042EED9E9E70B
:1011500000212020216384F83D0084F83E10206C9B
:1011600040F0200020645FEAC97084F83C1040F031
:10117000A78000BF206801990161FFF7B7FB2168D4
:1011800005464A69496994F83D30A02B1FD012F0FA
:10119000020008BF11F4806019D100BFFFF7A6FB61
:1011A00036B1401BB04288BF84F83D7002E000BFFA
:1011B00084F83D7020684169406994F83D20A02A78
:1011C00005D011F0020108BF10F48060E6D02020A5
:1011D00084F83D00206841690268890742F4007282
:1011E00002602DD46FF4806141612068806910F045
:1011F00002003FF483AF8BEA500707E02068806964
:1012000010F002008BEA50073FF478AFFFF76EFB57
:10121000401B1A28F2D3206880698007EED5002190
:101220002020216384F83D0084F83E10206C40F0BB
:1012300020002064F80784F83C107FF45FAF17E0CB
:101240000026029641690291806902900298206806
:10125000806910F002000DD1202084F83D0084F850
:101260003C60F5E6202084F83D00002084F83C0036
:101270000126EDE64FF0010888EA500707E000BFBD
:101280002068806910F0020088EA5007E4D0FFF778
:101290002DFB401B1A28F3D3206880698007EFD507
:1012A00000202021206384F83D1084F83E00216C4A
:1012B00041F020012164F90784F83C00CCD1D7E744
:1012C000206803260068C00544BF4FF40070206406
:1012D000BEE6000070470000704700007047000045
:1012E00070470000704700002DE9F04385B00446C8
:1012F00000201D4616460F460490FFF7F7FA94F8B3
:101300003D10202973D1804640F20800C2F200004F
:1013100000684BF28951C008C1F2F841A0FB0102FC
:10132000DDE90C13100A1922504304900498013887
:101330000490049800284FD0226890698007F5D463
:1013400094F83C00012852D0012084F83C00106839
:10135000C00703D1106840F00100106010684FF022
:10136000000C20F400601060212084F83D00402033
:1013700084F83E00C4F840C061626385638D00203C
:10138000CFF6FF702385E0626764A664E564C4F865
:1013900050C083B3606BD0B342F24D6C42F2016E29
:1013A000C0F6000CC0F6000E4FF000091032C0E984
:1013B0000FC9C0E91199C0E913E9FFF759F998B3CA
:1013C000202084F83D0084F83E90206C40F010000E
:1013D000206484F83C9043E000202021206384F8BE
:1013E0003D1084F83E00206C40F020002064022074
:1013F00005B0BDE8F083202084F83D0084F83EC0AD
:10140000206C40F04000206484F83CC028E020209C
:1014100084F83D00002084F83E00216C41F08001FA
:10142000216484F83C001BE04FF0230C2046394631
:1014300032462B46CDE900C801F03CFCA0B1606B00
:10144000FEF798FF616B20680022CA63016821F4EF
:101450008061016022856285016821F001010160DF
:10146000012005B0BDE8F0830020039021684A699F
:1014700003928A690392039A84F83C004A6842F412
:1014800080724A604A6842F400624A6005B0BDE872
:10149000F083000070B586B0044645F20040216834
:1014A000C4F20000002681420596CDE9036602964B
:1014B000019601D006B070BD43F630050096C4F227
:1014C0000205296800F5D83041F002012960296839
:1014D00001F0020100910099C02101911221CDE992
:1014E0000216032104910421059101A9FFF724F9B3
:1014F000009628694FF0007140F4001028612869B7
:1015000040F2244500F400100090009846F2A0003C
:10151000C2F20005C4F2020040224FF4806385E865
:1015200047002846C5E90436C5E90666C5E90866E8
:10153000FEF7FEFF002818BFFEF7D8FE1F2000218F
:1015400000226563AC6300F087F81F2000F074F898
:1015500006B070BD704700007047000040F20C00FC
:1015600040F6D821C2F20000C2F2000100780A68F9
:10157000104408607047000080B543F60040C4F294
:101580000200016841F400710160016841F480616A
:101590000160016841F480710160032000F088F867
:1015A0000F2000F005F800F02BF8002080BD0000AF
:1015B000B0B540F20C02C2F2000240F2080112780B
:1015C000C2F200014FF47A730968B3FBF2F20446E9
:1015D000B1FBF2F1084600F00DFC0F2C4FF00105B5
:1015E0000CD858B94FF0FF3021460022002500F0FA
:1015F00033F840F21000C2F2000004602846B0BD8B
:1016000082B0002043F640010190C4F202014A6812
:1016100042F480424A604A6802F480420192019A90
:101620000090086840F080500860086800F0805022
:101630000090009802B07047002848BF704700F043
:101640001F01012202FA01F14EF200124009CEF20E
:10165000000242F82010704710B54EF60C5CCEF236
:10166000000CDCF80030C3F3022E8EF00704042CCB
:1016700028BF0424BEF103034FF0FF3E0EFA04F42A
:1016800038BF0023A14399400EFA03F39A43114354
:1016900000F1604200F00F03090102F56442043BCF
:1016A0006344002848BF03F10C02117010BD000014
:1016B0004EF60C51CEF200010A684FF6FF031A40B5
:1016C00060F30A2242F0806040F0FD7008607047CD
:1016D000002804BF012070472DE9F04143F60808B7
:1016E000C4F202080446D8F8F8030D4600F00700DB
:1016F000884207D288F8F853D8F8F80300F00700BA
:10170000A84276D12068810717D5410705D5D8F8BA
:10171000001041F4E051C8F80010010705D5D8F8D1
:10172000001041F46041C8F80010D8F80010A26819
:1017300021F0F0011143C8F80010C0073FD1D8F8DC
:10174000F80300F00700A84207D988F8F853D8F842
:10175000F80300F00700A8424BD12068410707D5E5
:10176000D8F80010E26821F4E0511143C8F80010E5
:10177000000708D5D8F80000216920F4604040EA4D
:10178000C100C8F8000000F07BF8D8F8001043F65C
:10179000B662C1F30311C0F60002515C40F20802C8
:1017A00020FA01F140F21000C2F200000068C2F21B
:1017B00000021160FFF7FCFE0020BDE8F0816068C8
:1017C000811E022907D258F8081C89015CBF01203C
:1017D000BDE8F08110E0012807D158F8081C890302
:1017E0005CBF0120BDE8F08106E058F8081C8907BD
:1017F00002D40120BDE8F081D8F8001021F00301E7
:101800000843C8F80000FFF771F8064641F2883730
:10181000D8F80000616800F00C00B0EB810F8ED0AA
:10182000FFF764F8801BB842F2D90320BDE8F081CD
:1018300040F2080043F60801C2F20000C4F20201BF
:101840000068096843F6C662C1F38221C0F600024F
:10185000515CC8407047000040F2080043F60801A0
:10186000C2F20000C4F202010068096843F6C662D1
:10187000C1F34231C0F60002515CC840704700001D
:1018800010B543F60404C4F20204606800F00C00D2
:1018900008280AD0042819BF42F20040C0F2F40020
:1018A00047F64000C0F27D1010BD20682168236813
:1018B000490247F64001C0F27D1100F03F02C3F338
:1018C00088105CBF42F20041C0F2F401A1FB0001AC
:1018D0000023FEF77BFC21680222C1F3014102EBE9
:1018E0004101B0FBF1F010BD002804BF012070479A
:1018F0002DE9F04182B00446007843F60006C007A7
:10190000C4F2020647D0B06800F00C00042808D1E9
:10191000306880033FD56068E8BB012002B0BDE8B5
:10192000F081B06800F00C00082802D17068400215
:10193000EED46568B5F5A02F0AD0B5F5803F0BD081
:10194000306820F480303060306820F4802006E079
:10195000306840F480203060306840F4803030607F
:10196000FEF7C4FF002D054612D000BF306880038B
:1019700011D4FEF7BBFF401B6428F7D926E100BF56
:10198000FEF7B4FF401B64284FF0030000F2E28032
:1019900030688003F4D4207880071BD5B06810F03D
:1019A0000C0F09D0B06800F00C00082840F08780C8
:1019B0007068400200F183803068800703D5E068DA
:1019C000012840F09E803068216920F0F80040EA4C
:1019D000C10030602078000735D42078400748D413
:1019E000A56965B3B06800F00C00082840F09E803F
:1019F000012D00F086807068E16900F480028A425F
:101A000040F07F80216A00F03F028A4279D147F698
:101A1000C071626A0140B1EB821F72D1A16A4FF6B8
:101A2000FF73C903994300F44032A1F580318A4223
:101A300067D1E16A00F07060B0EB016F61D1002006
:101A400002B0BDE8F0816069002840F20000C4F2F5
:101A500047205AD00121C0F8801EFEF747FF0546F7
:101A6000706F8007B9D4FEF741FF401B0228F7D9F9
:101A7000ACE0306C5FEAC0080AD400200190306C02
:101A800040F080503064306C00F08050019001983C
:101A900047F20007C4F200073868C00524D438684C
:101AA00040F480703860FEF721FF05463868C005B5
:101AB0001AD4FEF71BFF401B0228F7D986E0E06826
:101AC000002857D00020C4F2472001210160FEF712
:101AD0000DFF0546306880073FF575AFFEF706FF3E
:101AE000401B0228F6D971E0A568052D56D0012DBE
:101AF00058D0306F20F001003067306F20F00400C4
:101B000053E0012002B0BDE8F0810021C0F8801E42
:101B1000FEF7ECFE054600BF706F80077FF55DAFF6
:101B2000FEF7E4FE401B0228F6D94FE00027C4F27E
:101B3000472700203866FEF7D9FE022D05460DD155
:101B40003068800159D5FEF7D1FE401B02284FF0C6
:101B50000300F5D902B0BDE8F08100BF3068800114
:101B60007FF56DAFFEF7C2FE401B02284FF0030069
:101B7000F4D9EFE70020C4F2472000210160FEF70E
:101B8000B5FE0546306880077FF524AFFEF7AEFE50
:101B9000401B02284FF00300F4D9DBE7306F40F020
:101BA00004003067306F40F001003067FEF79EFEA2
:101BB000002D054641F2883713D000BF306F8007F3
:101BC00012D4FEF793FE401BB842F7D9032002B0AF
:101BD000BDE8F081FEF78AFE401BB8424FF00300DB
:101BE000B8D8306F8007F5D4B8F1000F3FF5F8AEE4
:101BF000306C20F080503064F2E604F11C052FCDEB
:101C0000084340EA8210D9034FF6FF729143A1F5D1
:101C1000803140EA05600843706001203866FEF7B5
:101C200065FE0446306880013FF509AFFEF75EFEB1
:101C3000001B02284FF00300F4D98BE770B538B1D0
:101C40000446406A30B10020206104F1140007E02E
:101C5000012070BD6068B0F5827F03D004F11C00E4
:101C6000002101600026A66294F8510020B92046A8
:101C700084F8506000F03CF8022084F8510094E8A9
:101C80000F0001F48271056802F4044225F040055A
:101C90000560114403F400622369114403F0020259
:101CA0006369114403F00102A369E569114403F477
:101CB0000072114405F03802256A114405F08002D3
:101CC000A56A114305F4005211430160626A0421C0
:101CD00001EA134102F0100211444160C16921F48C
:101CE0000061C1610120666584F85100304670BD15
:101CF0002DE9F04186B0006843F60042C4F20002CC
:101D000000219042CDE90411CDE90211019144D0A6
:101D100043F60001C4F20001884267D1002543F672
:101D200030000095C4F20200016940F6000441F45D
:101D3000804101610169C4F2020401F48041009113
:101D40000099009501684FF0020841F0040101601C
:101D50000168032701F004010091009900950168D2
:101D6000052641F002010160006801A900F00200AF
:101D7000009000980C2001902046CDE90285049740
:101D80000596FEF7D9FC4FF48060CDE90108CDE956
:101D900003570596A4F5806025E043F630000091D6
:101DA000C4F20200026942F400420261026902F4D4
:101DB00000420092009A0091026842F00402026020
:101DC000006800F00400009000984FF4E05001908B
:101DD0000220CDE90201032004900620059040F680
:101DE0000000C4F2020001A9FEF7A6FC06B0BDE89F
:101DF000F0810000411E0020B0EB116F1CBF0120DC
:101E000070474EF21002CEF2000251604EF623519E
:101E1000CEF20001F0230B70072190601160704733
:101E200070B582B0044690F84200202822D10029E3
:101E30004FF0010518BF002A1DD00026204625635B
:101E4000666301F04FFB216B012914D101962168D3
:101E50000A68019249680191019900BF216851E81F
:101E6000031F226841F0100142E80313002BF5D153
:101E7000054600E00225284602B070BD006844F225
:101E80000042C4F20002904218BF7047B0B540F261
:101E9000D86540F29060C2F200050C46C2F2000024
:101EA00029464FF48062FFF7BBFF40F24860C2F260
:101EB0000000294622464FF6FF7300F0ADFA40F2CB
:101EC000E440C2F200000068016821F008010160EE
:101ED00028464FF48061FEF7B1F9B0BD006844F2C6
:101EE0000041C4F20001884218BF704710B540F2AB
:101EF000D86440F29060C2F20004C2F200002146B1
:101F00004FF48062FFF78CFF40F2E440C2F2000021
:101F10000068016821F00801016020464FF48061EB
:101F2000FEF78CF910BD0000B0B582B00446006821
:101F30000168C368426901F02F05202D03F02005D8
:101F400006D12DB1204602B0BDE8B04001F0F6B98F
:101F50005FEA017C1EBF02F0010E03F4907212EBE7
:101F60000E0240D1226BCD0618D5012A16D113F0EE
:101F7000100213D000210191016801914168019183
:101F800001994069400636D4A08DE18DE28D002A8A
:101F900018BF884240F01A8102B0B0BD0A0672D55F
:101FA00013F080026FD094F841102129F4D1A16878
:101FB000B1F5805F03D12169002900F03C81216ADD
:101FC0004A1C226209784160E18C01390A04E184EB
:101FD000E2D1C16821F08001C160C16841F04001D7
:101FE000C16002B0B0BDC80718BF13F4807069D1DA
:101FF00048076DD473E0E06B016849688AB2002A33
:1020000055D0A38D9A4252D2E185C069B0F5807F48
:1020100031D000BF206850E8030F216820F48070A1
:1020200041E80302002AF5D1206850E8050F216835
:1020300020F0010041E80502002AF5D1206850E8AF
:10204000050F216820F0400041E80502002AF5D183
:10205000202084F842000020206300BF206850E860
:10206000030F216820F0100041E80302002AF5D197
:10207000E06BFEF73FF902206063A08DE18D401A0E
:1020800081B22046CCE049067FF586AF13F04001CF
:102090003FF482AFC16821F04001C1602021204699
:1020A00084F8411002B0BDE8B04000F02DBAA18D17
:1020B00091427FF471AFC069B0F5807F7FF46CAF5F
:1020C0000222ABE0606C40F001006064480706D576
:1020D000BEF1000F03D0606C40F00200606488071E
:1020E00006D5BEF1000F03D0606C40F004006064C0
:1020F000BCF1000F06D55EEA050003D0606C40F02D
:1021000008006064606C00283FF446AF880603D581
:1021100015B1204601F012F920684069616C00F0A9
:10212000400001F00801401849D000BF206850E885
:10213000030F216820F4907041E80302002AF5D1D2
:10214000206850E8050F216820F0010041E80502F1
:10215000002AF5D1206B01280AD100BF206850E881
:10216000030F216820F0100041E80302002AF5D196
:10217000202084F842000020206320684069400647
:1021800053D500BF206850E8050F216820F04000BB
:1021900041E80502002AF5D1E06B002845D043F262
:1021A000F511C0F600010165FEF7E4F800283FF4E0
:1021B000F3AEE06B016D02B0BDE8B04008472046C9
:1021C000FFF78CFE0020606402B0B0BD401A00BF73
:1021D000216851E8031F226821F4907142E803133B
:1021E000002BF5D1216851E8051F226821F001017B
:1021F00042E80513002BF5D1202184F8421000217C
:10220000216300BF216851E8031F226821F01001FB
:1022100042E80313002BF5D1022281B2204662630B
:1022200002B0BDE8B040FFF729BE204602B0BDE8CD
:10223000B040FFF753BE216A31F8022B6FF35F22E3
:1022400042602162C0E60000002804BF0120704700
:1022500010B5044690F8410028B9002084F84000E9
:10226000204600F021F8242084F841002068C1684D
:1022700021F40051C160204601F0C0F820680169D6
:1022800021F490410161416921F02A014161C16855
:1022900041F40051C16000202021606484F84110A5
:1022A00084F84210606310BD70B586B004460068C3
:1022B00044F20041C4F2000100268842CDE90466E0
:1022C000CDE90266019653D041F20001C4F201014A
:1022D000884240F09B8043F630000096C4F2020032
:1022E000416941F010014161416901F01001009123
:1022F00000990096016841F001010160006801A9A0
:1023000000F00100009000984FF4C060019002209E
:10231000CDE9020603200490072005900020C4F2B6
:102320000200FEF709FA46F28800C4F2020040F209
:10233000844500F58660C2F200054FF0006140223E
:102340004FF4806385E847002846C5E90436C5E9AF
:102350000666C5E90866FEF7EBF8002818BFFDF72A
:10236000C5FFA563AC63252001210022252448E098
:1023700043F630000096C4F20200016941F40031D6
:102380000161016901F40031009100990096016832
:1023900041F001010160006801A900F00100009016
:1023A00000980C2001900220CDE902060320049041
:1023B000072005900020C4F20200FEF7BDF940F2AC
:1023C000E44546F28800C2F20005C4F202004FF074
:1023D00000614FF4806285E843002846C5E9036246
:1023E000C5E90566C5E907666E62FEF7A1F8002833
:1023F00018BFFDF77BFFE563AC63262000210022B8
:102400002624FFF729F92046FFF716F906B070BD1C
:1024100070470000704700002DE9F04381B004468A
:1024200090F8410020281CD1884600294FF0010077
:1024300066D01646002A63D00020606421201D4625
:1024400084F84100FEF752FAA684E684A1680646A5
:10245000B1F5805F01D1206938B1C1464FF0000865
:1024600005E0022001B0BDE8F0834FF00009E08CE8
:1024700048B36F1C0CE0B9F1000F1BD019F8010B29
:1024800021684860E08C0138E084E08CD8B100BF5E
:10249000206800680006EED4002FF9D0FEF726FA77
:1024A00001464FF0030045B3891BA94225D8206897
:1024B000C068EDE738F8020B21686FF35F204860D1
:1024C0004FF00009DEE720680068400614D46F1C56
:1024D00004E000BF2068006840060DD4002FF9D04A
:1024E000FEF704FA01464FF0030035B1891BA942FB
:1024F00003D82068C068EDE70020202184F841104F
:1025000001B0BDE8F083000070470000FEE7000066
:1025100040F24450C2F20000FEF7F2B910B581B0AB
:1025200000210091806B40F20801C2F2000190F896
:102530003DC009684BF28952C908C1F2F842A1FBBB
:102540000212110A23225143009100BF009939B1B0
:10255000009901390091016809688905F6D403E002
:10256000016C41F020010164446B4FF0000E002C1F
:102570001CBF0021E163816B00291CBF0022CA63DC
:102580000268002C136823F480631360A0F82AE02B
:1025900018BFC4F850E000291CBF00230B65116868
:1025A00021F00101116090F83D1060290BD120212C
:1025B00080F83D10002180F83E10016401B0BDE8B4
:1025C0001040FEF799B90CF0280128290DD11168A7
:1025D00041F001011160116841F480611160002136
:1025E0000163282180F83D1005E0202180F83D108E
:1025F000002180F83E1001B0BDE81040FEF752BC4B
:1026000010B5846B616B00291CBF0022CA63A16BEB
:1026100000291CBF0022CA63FDF7BEFE022808BFC6
:1026200010BD2068016821F4806101600020202134
:10263000608584F83D1084F83E00206C40F0100165
:1026400020462164BDE81040FEF72CBC10B5846B19
:1026500094F83D2094F83EE0D4F82CC02168606BDB
:102660004B68002823F440734B601CBF0023C363F6
:10267000A06B00281CBF0023C36302F021002128A7
:1026800020D002F02200222808BFBEF1200F19D06E
:1026900094F83E00002808BF10BD608D012803D1CA
:1026A000086820F4806008604868BCF1070F20F4D7
:1026B0004070486028DCBCF12A4F2BD01CF5803FCD
:1026C00028D02BE048682A2A20F4006048604FF0A8
:1026D000000060850AD0292A10D1212020632820FB
:1026E00084F83D002046FEF737FF07E022202063F4
:1026F000282084F83D002046FEF72CFF2068416822
:1027000041F44071416010BDBCF1200F02D0BCF11A
:10271000080F03D1086840F400700860486820F48E
:1027200080504860486820F400604860002161855E
:10273000206C20B12046BDE81040FEF7B3BB20203E
:1027400084F83D0094F83E0084F83E10402805D1FE
:1027500020462163BDE81040FEF7C2BDBCF1080071
:1027600018BF1220BCF1200118BF0146204621638A
:10277000BDE81040FEF7B0BD10B5044690F83D002E
:1027800094F83E10B1F1100218BF0122403918BF71
:1027900001210A4208BF222804D121680A6822F4D4
:1027A00000620A6000F02801282905D1002020637A
:1027B000282084F83D000DE021684968090507D408
:1027C000602805D0202084F83D00002084F83E00D9
:1027D000002020632068416809051AD494F83D1050
:1027E000602935D1202184F83D1000212164416900
:1027F000490605D50069616A0870606A0130606247
:102800002068016821F0010101602046FEF774F89C
:102810003EE0416821F400614160606B90F8351042
:10282000012922D1A06B42F21D51C0F600010165C1
:10283000FDF7A0FD60B320684169490605D5006930
:10284000616A0870606A013060622168A06B16E0FE
:102850004169490605D50069616A0870606A0130FE
:1028600060622046FEF71EFB12E042F21D51C0F6E8
:1028700000010165FDF77EFD50B12168606B0A68BB
:1028800022F001020A60202184F83D10016D884782
:10289000206C000704D02068416821F4E0614160A9
:1028A00094F83D00216C490758BF10BD28280FD16E
:1028B0000020CFF6FF70E06200212020216384F821
:1028C0003D00204684F83E10BDE81040FEF702BDF2
:1028D00010BD0000C16A428D042A07D10168426A16
:1028E0004B6823F480634B60096911E0428D032A31
:1028F00016D102680229536823F48063536005D01F
:10290000042903D0116821F4806111601169426AC1
:102910001170416A01314162418D01394185704731
:10292000428D022A11D14A1E0F2A16D8DFE802F082
:10293000081015101515151515151515151515086B
:102940000268136823F480630BE00168426ACBE7F6
:102950000268136843F4806303E00268136843F479
:10296000007313600268436A12691A70426AD0F8F1
:1029700000C0531C4362438D013B4385DCF810309B
:102980005370426A036801324262428D013A4285C5
:102990005A6822F440725A60202280F83D2090F854
:1029A0003E300022402B80F83E2002D10263FEF729
:1029B00097BCB1F1080218BF1222203918BF114686
:1029C0000163FEF789BC000081B090F83D10222918
:1029D00010D1C16A428D042A0ED30168426A096986
:1029E0001170416A01314162418D01394185418D4A
:1029F000032923D001B07047C36A012A1ED8022BD5
:102A00001CD00022009240F20802C2F200021268BA
:102A10004BF28953D208C1F2F843A2FB03231A0AEE
:102A200002EB8202009200BF009A013A0092009AE3
:102A30005AB103681B689B05F6D40AE00068416838
:102A400021F48061416001B07047036C43F02003C2
:102A500003640368F2B11A6822F480621A605A684B
:102A600022F4E0625A601A69436A1A70426A0132BB
:102A70004262428D013A4285202280F83D2090F842
:102A80003E300022402B80F83E2019D1026301B075
:102A9000FEF726BC596821F4E06159601969426A61
:102AA0001170416A01314162418D01394185202116
:102AB00080F83D10002180F83E1001B0FEF7F2B919
:102AC000B1F1080218BF1222203918BF1146016364
:102AD00001B0FEF701BC0000C16A90F83D20212A38
:102AE00018BF7047428D4AB1416A026811F8013B34
:102AF00013614162418D01394185704711F5803F75
:102B000018BF082917D101684A6822F4E0624A60B8
:102B10000A6842F400720A6000212022016380F8F2
:102B20003D2090F83E2080F83E10402A08BFFEF776
:102B3000D9BBFEF7D3BB2029E5D001684A6822F44F
:102B4000E0624A6011210163002180F83E102021DB
:102B500080F83D10FEF7C2BB90F83D1090F83EC0E3
:102B6000C26A038D002B08BF212919D0212905D065
:102B7000BCF1400F08BF222900D07047418D61B3DE
:102B800090F83E10402908BF00F03EB8416A026844
:102B900011F8013B13614162418D01394185704754
:102BA00012F5803F18BF082A1DD101684A6822F437
:102BB000E0624A600A6842F400720A600021202242
:102BC000016380F83D2090F83E2080F83E10402AB6
:102BD00008BFFEF787BBFEF781BB0068416821F4A0
:102BE000806141607047202ADFD001684A6822F482
:102BF000E0624A6011210163002180F83E1020212B
:102C000080F83D10FEF76ABB90F83D10026D3AB1B6
:102C1000026D012A0FD10168826CD2B20A6119E0FB
:102C2000C26C816C012A11D10268C9B21161016DB7
:102C3000023101657047026D022A0FD1222914D199
:102C400001680A6842F480720A6003E00268C1F316
:102C500007211161016D013101657047006841690B
:102C6000090644BF002101617047428D5AB12129F4
:102C700009D1416A026811F8013B13614162418D3B
:102C8000013941857047428D002A08BF2129EBD1C7
:102C900001684A6822F4E0624A600A6842F40072FD
:102CA0000A6000212022016380F83D2080F83E1058
:102CB000FEF718BB2DE9F04F81B00446006890463E
:102CC0000268DDF82CA042F48072026040690A9E1E
:102CD000994610F001008B4634D180F00105771C35
:102CE0000BE000BF20684069C00711D02068406930
:102CF00010F0010080F0010524D1002FF6D0FDF77F
:102D0000F5FD002EEED0A0EB0A00B042EED9E9E7C7
:102D100000202021206384F83D1084F83E00216CBF
:102D200041F020012164E90784F83C000AD02068C2
:102D30000068C00544BF4FF400702064032001B058
:102D4000BDE8F08F20680BF0FE0101614169890741
:102D50002DD44169490515D4751C00BF5DB1FDF73F
:102D6000C5FD1EB1A0EB0A00B04204D9206840693D
:102D7000800740F18C8020684169890717D4416938
:102D80004905EBD5016841F4007101606FF4806181
:102D9000416100202021206384F83D1084F83E002A
:102DA000216C41F00401216484F83C006BE00020B8
:102DB0000090206850F8141F00914168009100991C
:102DC0000168090619D4751C09E000BF2068406934
:102DD000000643D5206850F8141F09060DD4016879
:102DE00049052ED4002DF5D0FDF780FD002EEDD045
:102DF000A0EB0A00B042EDD9E8E72068B9F1010F75
:102E000025D04FEA1821016150F8141F09061DD47E
:102E1000751C08E02068406900061FD5206850F83E
:102E2000141F090612D4016849050AD4002DF5D0F3
:102E3000FDF75CFD002EEDD0A0EB0A00B042EDD90D
:102E4000E8E76FF480610160042008E020685FFA21
:102E500088F10161002001B0BDE8F08F2020002141
:102E60002022216384F83D2084F83E10226C104318
:102E7000206484F83C10206C042804D12068016888
:102E800041F400710160012001B0BDE8F08F002025
:102E90002021206384F83D1084F83E00216C41F02D
:102EA000200180E780B582B0002043F63001019018
:102EB000C4F202010A6842F400120A600A6802F4CD
:102EC00000120192019A00900868002240F48000EC
:102ED00008600868002100F480000090009810202D
:102EE000FEF7BAFB1020FEF7A7FB112000210022FD
:102EF000FEF7B2FB1120FEF79FFB462000210022C7
:102F0000FEF7AAFB462002B0BDE88040FEF794BB66
:102F10002DE9F04F87B0002643F630000696CDE944
:102F20000466CDE902660196C4F20200016840F62B
:102F3000000B41F0040101600168C4F2020B01F0D2
:102F400004010191019901960168002241F00101FB
:102F5000016001684FF4804801F00101019101997D
:102F60000196016841F00201016000684FF4804160
:102F700000F00200019001985846FDF7B1FCABF556
:102F800080652846042101224FF004090127FDF73E
:102F9000A7FC58464FF4007101224FF4007AFDF768
:102FA0009FFCCDE9047602AE58463146CDE9028752
:102FB000FDF7C2FB022428463146CDE9029704976B
:102FC0000594FDF7B9FB58463146CDE902A7CDE996
:102FD0000474FDF7B1FB07B0BDE8F08F80B540F297
:102FE000445045F20041C2F20000C4F2000148F230
:102FF000A06200234FF4804CC0F2010280E80E0072
:10300000C0E9033CC0E90533C0E90733FDF750FFD1
:10301000002808BF80BDBDE88040FDF767B900000B
:1030200080B540F2985043F60001C2F20000C4F2AD
:1030300000014FF4827200234FF4007C80E80E0000
:103040000A21C0E90333C0E9053CC361C0E9083384
:10305000C0E90A31FEF7F2FD002808BF80BDBDE8D7
:103060008040FDF743B9000080B540F2F05043F6D0
:103070000041C2F20000C4F200014FF4827200234A
:103080004FF4007C80E80E000A21C0E90333C0E958
:10309000053CC361C0E90833C0E90A31FEF7CEFD43
:1030A000002808BF80BDBDE88040FDF71FB90000C3
:1030B00080B540F2486041F20001C2F20000C4F263
:1030C000010100234FF00C0C4FF4E13280E80E00B8
:1030D000C0E90333C0E905C3C361FFF7B5F80028B1
:1030E00008BF80BDBDE88040FDF700B980B540F263
:1030F000906044F20041C2F20000C4F200010023DB
:103100004FF00C0C4FF4E13280E80E00C0E90333BD
:10311000C0E905C3C361FFF797F8002808BF80BD69
:10312000BDE88040FDF7E2B8FEE70000FEE70000E2
:103130007047000070470000FEF710BA70B592B0FB
:1031400006AC20463021FDF779F8002543F6400013
:103150000595CDE90355CDE901550095C4F202006E
:103160000168022641F080510160006800F0805043
:103170000090009847F200000095C4F2000001683A
:1031800066F38F310160006800F4404000900098C1
:103190000120099010200A9008200E905420CDE9BB
:1031A0000F060420119020460696CDE90C65FEF727
:1031B0009BFB10B172B600BFFEE70F20CDE9010600
:1031C0004FF48050CDE9040501A802210395FEF7D4
:1031D0007FFA10B172B600BFFEE712B070BD0000FA
:1031E0004EF68850CEF20000016841F47001016093
:1031F00070470000806B0021C185FEF76FBE0000A4
:10320000806B0168496990F84120212A11D111F0A1
:1032100080010ED00021C184016851E8031F0268BB
:1032200021F0C00142E80313002BF5D1202180F8E2
:1032300041100168496990F84220222A2BD111F0EF
:10324000400128D00021C185016851E8031F0268B0
:1032500021F4907142E80313002BF5D1016851E885
:10326000051F026821F0010142E80513002BF5D18A
:10327000016B01290AD100BF016851E8031F0268F0
:1032800021F0100142E80313002BF5D1202180F832
:10329000421000210163416C41F010014164FEF7CE
:1032A0001DBE00000168806B0968C90530D400218B
:1032B000C18500BF016851E8031F026821F48071D5
:1032C00042E80313002BF5D1016851E8051F02689D
:1032D00021F0010142E80513002BF5D1016851E806
:1032E000051F026821F0400142E80513002BF5D1CB
:1032F000202180F84210016B012909D1016851E8B1
:10330000031F026821F0100142E80313002BF5D1DE
:1033100000214163016B012918BFFFF779B8818D46
:10332000FEF7ACBD806B01214163016B012918BF21
:10333000FFF770B8818D4908FEF7A0BD90F84210E4
:10334000222918BF70478268B2F5805F01D10169F8
:1033500091B1816AB2F5805F07D00AB9026922B1E2
:103360000268526802F07F0201E0026852680A7047
:10337000816A0131816207E00168826A49686FF3FE
:103380005F2122F8021B8262C18D01390A04C185C6
:1033900000D070470168CA6822F02002CA60CA687B
:1033A00022F48072CA604A6922F001024A61202137
:1033B00080F8421000214163026B012A18BFFFF719
:1033C00027B881B0016300BF016851E8031F02689C
:1033D00021F0100142E80313002BF5D101680A68BF
:1033E000D20606D5002200920A6800924968009130
:1033F0000099818D01B0FEF741BD000010B5044673
:103400000068D4E902C22369016921F440511143E3
:103410000161626943EA0C01E3691143C26819431F
:1034200049F20C639A431143C1604169A26921F4D6
:10343000407141F20043114340F48062C4F2010341
:103440009A42416102D1FEF707FA01E0FEF7F0F976
:10345000E16963681922B1F5004FA0FB020120D198
:103460005A00DB0FFCF7B2FE48F21F51C5F2EB1118
:10347000A0FB01235A094FF69C73C0F6FF7303F1BA
:10348000805302FB0300322303EBC000A0FB0101C9
:103490004FF4F87000EA111000EB0210C1F3421172
:1034A0001CE09A009B0FFCF791FE48F21F51C5F2F9
:1034B000EB11A0FB01235A094FF69C73C0F6FF7372
:1034C00002FB0300322303EB0010A0FB0101F020FC
:1034D00000EA511000EB0210C1F3431108442168C7
:1034E000886010BDF0B581B01346002704468162A4
:1034F00083854764222084F84200E06B43F2A525CF
:1035000043F225360A462168C0F60005C0F60006DB
:10351000C0E90F5643F20126C0F600060431C0E9A7
:103520001367FDF7A5F838B110206064202084F8F7
:103530004200012001B0F0BD0097206801680091B1
:10354000406800900098206950B100BF206850E8A2
:10355000030F216840F4807041E80302002AF5D18E
:10356000206850E8050F216840F0010041E805029D
:10357000002AF5D1206850E8050F216840F040008E
:1035800041E80502002AF5D1002001B0F0BD00009D
:1035900040F24860C2F20000FEF7C6BC40F2906004
:1035A000C2F20000FEF7C0BCFEE7000080B540F2AA
:1035B000906040F2D861C2F20000C2F200014FF404
:1035C0008062FEF72DFC40F2E440C2F20000006889
:1035D000016821F00801016080BD0000FDF7CCFF0B
:1035E000FFF7ACFDFFF794FCFFF75CFCFFF760FD15
:1035F000FFF77CFDFFF7F2FCFFF712FDFFF734FD4C
:10360000FFF7D4FF00F06AF800F030F800F024F87B
:10361000012000F003FB0020002100F005FB40F238
:103620000000C2F20000D0E9001209A000F018FC6E
:1036300000F006FB40F60004C4F2020420464FF4FA
:103640008041FDF745F9C820FDF762F8F6E700BFB5
:1036500048454C4C4F00000080B540F22000C2F2BB
:1036600000004FF48061FCF7E9FD80BD10B584B027
:1036700040F24454A120C2F200048DF80E0000BFB5
:103680002046FDF711FC2028FAD140F24454C2F242
:1036900000044FF0010C0DF10E0E2046782100229F
:1036A0000123CDE900ECFDF71FFEC8208DF80F00C7
:1036B0002046FDF7F9FB2028FAD140F244504FF0A4
:1036C000010C0DF10F04C2F2000078210022012349
:1036D000CDE9004CFDF708FE04B010BD70B584B014
:1036E00040F24450C2F20000782105224FF47A7370
:1036F000FDF796FC08B100248DE26420FDF708F880
:1037000040F24454AE20C2F200048DF80F0000BF16
:103710002046FDF7C9FB2028FAD140F24454C2F2FA
:10372000000401260DF10F05204678210022012317
:10373000CDE90056FDF7D8FDD5208DF80F0000BF6C
:103740002046FDF7B1FB2028FAD140F24454C2F2E2
:10375000000401262046782100220123CDE90056ED
:10376000FDF7C2FDF0208DF80F0000BF2046FDF7E9
:103770009BFB2028FAD140F24454C2F200040126F7
:103780002046782100220123CDE90056FDF7ACFD4B
:10379000A8208DF80F0000BF2046FDF785FB2028EC
:1037A000FAD140F24454C2F20004012620467821A6
:1037B00000220123CDE90056FDF796FD3F208DF84C
:1037C0000F0000BF2046FDF76FFB2028FAD140F222
:1037D0004454C2F20004012620467821002201232D
:1037E000CDE90056FDF780FDD3208DF80F0000BF16
:1037F0002046FDF759FB2028FAD140F2445401201D
:10380000C2F20004CDE900502046782100220123B5
:103810000026FDF769FD8DF80F6000BF2046FDF71B
:1038200043FB2028FAD140F24454C2F2000401269E
:103830002046782100220123CDE90056FDF754FDF2
:1038400040208DF80F0000BF2046FDF72DFB2028FB
:10385000FAD140F24454C2F20004012620467821F5
:1038600000220123CDE90056FDF73EFD8D208DF8A5
:103870000F0000BF2046FDF717FB2028FAD140F2C9
:103880004454C2F20004012620467821002201237C
:10389000CDE90056FDF728FD14208DF80F0000BF7C
:1038A0002046FDF701FB2028FAD140F24454C2F231
:1038B000000401262046782100220123CDE900568C
:1038C000FDF712FD20208DF80F0000BF2046FDF708
:1038D000EBFA2028FAD140F244540120C2F200044D
:1038E000CDE9005020467821002201230026FDF773
:1038F000FBFC8DF80F6000BF2046FDF7D5FA2028AD
:10390000FAD140F24454C2F2000401262046782144
:1039100000220123CDE90056FDF7E6FCA0208DF83A
:103920000F0000BF2046FDF7BFFA2028FAD140F271
:103930004454C2F2000401262046782100220123CB
:10394000CDE90056FDF7D0FCC0208DF80F0000BF78
:103950002046FDF7A9FA2028FAD140F24454C2F2D9
:10396000000401262046782100220123CDE90056DB
:10397000FDF7BAFCDA208DF80F0000BF2046FDF7F6
:1039800093FA2028FAD140F244500126C2F20000F6
:10399000782100220123CDE90056FDF7A5FC40F275
:1039A0002046C2F20006307801280DD028BB40F234
:1039B00044541220C2F200048DF80F002046FDF797
:1039C00073FA2028FAD10CE040F244540220C2F2EB
:1039D00000048DF80F0000BF2046FDF765FA20288F
:1039E000FAD140F244500124C2F2000078210022B2
:1039F0000123CDE90054FDF777FC40F244548120C7
:103A0000C2F200048DF80F002046FDF74DFA202881
:103A1000FAD140F244500124C2F200007821002281
:103A20000123CDE90054FDF75FFC307801280DD06B
:103A300028BB40F24454CF20C2F200048DF80F009E
:103A40002046FDF731FA2028FAD10CE040F2445428
:103A50008F20C2F200048DF80F0000BF2046FDF752
:103A600023FA2028FAD140F244500126C2F2000085
:103A7000782100220123CDE90056FDF735FC40F204
:103A80004454D920C2F200048DF80F002046FDF7FF
:103A90000BFA2028FAD140F24454C2F20004012665
:103AA0002046782100220123CDE90056FDF71CFCB9
:103AB000F1208DF80F0000BF2046FDF7F5F9202812
:103AC000FAD140F24454C2F2000401262046782183
:103AD00000220123CDE90056FDF706FCDB208DF81E
:103AE0000F0000BF2046FDF7DFF92028FAD140F291
:103AF0004454C2F20004012620467821002201230A
:103B0000CDE90056FDF7F0FB40208DF80F0000BF17
:103B10002046FDF7C9F92028FAD140F24454C2F2F8
:103B2000000401262046782100220123CDE9005619
:103B3000FDF7DAFBA4208DF80F0000BF2046FDF74B
:103B4000B3F92028FAD140F24454C2F2000401260D
:103B50002046782100220123CDE90056FDF7C4FB61
:103B6000A6208DF80F0000BF2046FDF79DF9202804
:103B7000FAD140F24454C2F20004012620467821D2
:103B800000220123CDE90056FDF7AEFB2E208DF873
:103B90000F0000BF2046FDF787F92028FAD140F238
:103BA0004454C2F200040126204678210022012359
:103BB000CDE90056FDF798FBAF208DF80F0000BF50
:103BC0002046FDF771F92028FAD140F24450012433
:103BD000C2F20000782100220123CDE90054002523
:103BE000FDF782FB40F21800C2F20000058040F2AF
:103BF0001A00C2F20000058040F21C00C2F2000070
:103C0000057040F22000C2F200004FF48061FCF722
:103C100015FB00F015F8204604B070BD40F21C0101
:103C2000C2F200010870704740F21802C2F20002AE
:103C3000108040F21A00C2F20000018070470000BC
:103C40002DE9F04F83B040F2445440F22007C2F215
:103C5000000401260DF10B0BC2F200074FF08008A3
:103C60004FF00009A9F150008DF809002046FDF73A
:103C70001BF92028FAD120467821002201230DF1DA
:103C80000905CDE90056FDF72FFB00208DF80A004D
:103C90002046FDF709F92028FAD120467821002294
:103CA00001230DF10A05CDE90056FDF71DFB10209B
:103CB0008DF80B002046FDF7F7F82028FAD12046B2
:103CC000782100220123CDE900B6FDF70DFB4FEA74
:103CD000C91A00BF2046FDF7E7F82028FAD107EB04
:103CE0000A052046782140220123CDE90058FDF73E
:103CF000FBFA09F10109B9F1080FB3D103B0BDE82E
:103D0000F08F00002DE9F04F87B040F21803C2F2A7
:103D100000031B8853FA81F77F2F08D840F21A0757
:103D2000C2F200073E8856FA91F73F2F03D90020D0
:103D300007B0BDE8F08F0090C1F307200028C9B29A
:103D4000CDE90262049000F0808040F21C00C2F2D3
:103D5000000006780098049A203840F2200850436A
:103D60004FF0000AC2F20008019004E004980AF142
:103D7000010A824569D00029F8D00198039A50447D
:103D800032F810C002980127504400F0070207FAE9
:103D900002F2059282F0FF0206924FF478625FFA17
:103DA00080F902EA00104FF0000E324612E018F8D7
:103DB0000250069C254008F8025040F21C02C2F254
:103DC0000002002E18BF0126167032460EF1010EB9
:103DD0007145CBD00CFA0EF52D0413D503EB0E056F
:103DE0002F06F3D4B9F13F0FF0D8D7B2EDB2012FBF
:103DF000054423D118F80570059C274308F8057081
:103E0000E4E700BF03EB0E0BD6B25FEA0B67B6FA2E
:103E100086F540F21C074FEA5515C2F200073D70C7
:103E2000CBD4B9F13F0FC8D812065FFA8BF2024427
:103E3000BDD118F80250059C2543BCE718F8057061
:103E4000069C274008F80570C0E7581840F2180192
:103E5000C2F2000108805DF81C0BBDE8F08F000085
:103E60000378002B04BF0020704770B514460D4640
:103E7000461C00BFD8B229462246FFF743FF16F87A
:103E8000011C884204D116F8013B002BF2D100211D
:103E9000BDE870400846704702E008C8121F08C11C
:103EA000002AFAD170477047002001E001C1121FBB
:103EB000002AFBD170470000000000000000010252
:103EC00003040607080900000000010203040000C3
:103ED00000000000000000000000000000000000E2
:103EE00000000000000000000000000000000000D2
:103EF00000000000000000000000000000000000C2
:103F00000000E003E003E003E003E003E003E0037C
:103F1000E003C003C003C001C001C001C001C00173
:103F2000000000000000E003E003E00300000000E8
:103F30000000000000003C1E3C1E3C1E3C1E3C1EBF
:103F40003C1E3C1E000000000000000000000000BD
:103F50000000000000000000000000000000000061
:103F600000000000000000000000CE01CE03DE03D0
:103F70009E039C039C07FF3FFF7F3807380F780F95
:103F8000780F780EFFFFFFFFF01EF01CE01CE03CF6
:103F9000E03DE03900000000000000000000FC03EC
:103FA000FE0FEE1FE01EE01EE01EE01EE01FE00F11
:103FB000E007F003FC01FE01FE01FE01FE01FE012F
:103FC000FE01FE3DFC3FF00FE001E00100000000BB
:103FD0000000033E07F78FE78EE79EE3BCE3B8E7F8
:103FE000F8E7F0F7E03FC001FF03FF07F307F30F27
:103FF000F31EF33CF338F3787FF03FE0000000005D
:10400000000000000000E007F80F780F781F781F0D
:10401000781F780FF00FE00F801FC37FC3FBE7F31B
:10402000F7F1F7F0FFF07FF03EF87F7CFF3FEF1FE6
:1040300000000000000000000000E003E003E003D7
:10404000E003E003C003C001000000000000000026
:104050000000000000000000000000000000000060
:1040600000000000000000000000000000003F0011
:104070007C00F001E001C003C00780078007800FCB
:10408000000F000F000F000F000F000F800F8007C0
:104090008007C007C003E001F0017C003F000F0073
:1040A0000000007E001FC007C003E001F001F00027
:1040B000F000F80078007800780078007800780048
:1040C000F800F000F000F001E001C003C007001F9D
:1040D000007E00780000E003C003C001CE39FF3F3E
:1040E0007F3F20037003F807780F3C1F380600005D
:1040F00000000000000000000000000000000000C0
:1041000000000000000000000000000000000000AF
:10411000000000000000C001C001C001C001C001DA
:10412000C001C001FFFFFFFFC001C001C001C0010D
:10413000C001C001000000000000000000000000FD
:10414000000000000000000000000000000000006F
:10415000000000000000000000000000000000005F
:10416000E003E003E003E003E001E001E001C0015F
:1041700080030000000000000000000000000000BC
:104180000000000000000000FE3FFE3F00000000B5
:10419000000000000000000000000000000000001F
:1041A000000000000000000000000000000000000F
:1041B00000000000000000000000000000000000FF
:1041C0000000000000000000E003E003E003E00363
:1041D000000000000000000000000F000F001E00A3
:1041E0001E003C003C0078007800F000F000E00188
:1041F000E001C003C00380078007000F000F001E0E
:10420000001E003C003C0078007800F00000F00741
:10421000F80F7C1F3E3E1E3C1F7C1F7C0F780F78E2
:104220000F780F780F780F780F781F7C1F7C1E3C5B
:104230003E3E7C1FF80FF007000000000000000069
:104240000000F000F007F03FF03FF001F001F00156
:10425000F001F001F001F001F001F001F001F001D6
:10426000F001F001F001F001FF3FFF3F000000000E
:10427000000000000000E00FF83F7C3C3C003E00E6
:104280003E003E003C003C007C00F800F001E003F2
:10429000C0078007000F001E003E003CFE3FFE3FAF
:1042A00000000000000000000000F00FF81F7C1C60
:1042B0003E003E003E003C003C00F800F00FF80FCE
:1042C0007C003E001E001E001E001E003E007C1CE6
:1042D000F81FE01F00000000000000000000780050
:1042E000F800F800F801F803F807F807780F781ECF
:1042F000781E783C78787878FFFFFFFF78007800A8
:1043000078007800780078000000000000000000CD
:104310000000FC1FFC1FFC1F001E001E001E001ED4
:10432000001EE01FF81FFC007C003E003E001E0047
:104330003E003E003C007C1CF81FE01F0000000017
:10434000000000000000FC01FE078E0F001F001E91
:10435000003E003C003CF83DFC3F3E7F1F7E0F3C92
:104360000F3C0F3C0F3C0F3E1F1E3E1FFC0FF00387
:1043700000000000000000000000FF3FFF3FFF3F83
:104380000F001E001E003C0038007800F000F00016
:10439000E001E001C003C0038007800F800F000F21
:1043A000001F001F00000000000000000000F807D0
:1043B000FC0F3E1F1E1E1E3E1E3E1E1E3C1FF80F03
:1043C000F007F80FFC1E3E3E1F3C1F7C0F7C0F7C4D
:1043D0001F3C3E3FFC1FF0070000000000000000F3
:1043E0000000F007F80F7C1E3E3C1E3C1F7C1F7C2B
:1043F0001F7C1F7C1F3C3F3EFF1FEF071F001E005E
:104400001E003E003C00F838F03FE01F00000000B6
:10441000000000000000000000000000000000009C
:104420000000E003E003E003E00300000000000000
:104430000000000000000000E003E003E003E003F0
:10444000000000000000000000000000000000006C
:10445000000000000000E003E003E003E0030000D0
:10446000000000000000000000000000E003E00386
:10447000E003E003E001E001E001C003800300008D
:104480000000000000000000000003000F003F00DB
:10449000FC00F003C00F003F00FE003FC00FF00320
:1044A000FC003F000F0003000000000000000000BF
:1044B00000000000000000000000000000000000FC
:1044C000000000000000FFFFFFFF000000000000F0
:1044D000FFFFFFFF000000000000000000000000E0
:1044E00000000000000000000000000000000000CC
:1044F000000000E000F8007E801FE007F8017E0069
:104500001F007E00F801E007801F007E00F800E039
:1045100000000000000000000000F01FFC3F3E38DB
:104520001F381F381E001E003C007800F000E0011C
:10453000C003C003C007C007000000000000C007A0
:10454000C007C00700000000000000000000F803E2
:10455000FE0F1E1F0F3E7F3CFF78EF79C773C7F336
:104560008FF38FF38FF39FF39FF3FF73FF7BF77945
:10457000003C1C1FFC0FF8030000000000000000BE
:104580000000000000000000E003E003F007F00777
:10459000F007780F780F7C0E3C1E3C1E3E3CFE3F21
:1045A000FF3F1F780F780FF007F007F000000000C2
:1045B000000000000000000000000000F83FFC3F89
:1045C0003E3C1E3C1E3C1E3C3E3C7C3CF03FF83FCB
:1045D0007E3C1F3C1F3C0F3C0F3C1F3CFE3FF83F06
:1045E00000000000000000000000000000000000CB
:1045F000FF01FF07871F003E003C007C0078007829
:10460000007800780078007C007C003E003F831F2B
:10461000FF07FF0100000000000000000000000094
:1046200000000000F07FFC7F7E781F781F780F78F5
:104630000F780F780F780F780F780F780F781F7832
:104640001E787E78F87FE07F000000000000000008
:104650000000000000000000FF3FFF3F003E003E62
:10466000003E003E003E003EFE3FFE3F003E003E5C
:10467000003E003E003E003EFF3FFF3F00000000C6
:10468000000000000000000000000000FF1FFF1FEE
:10469000001E001E001E001E001E001EFF1FFF1F2A
:1046A000001E001E001E001E001E001E001E001E1A
:1046B00000000000000000000000000000000000FA
:1046C000FE03FF0F871F003E007C007C007800F88F
:1046D00000F87FF87FF80F780F7C0F7C0F3E8F1F5C
:1046E000FF0FFE03000000000000000000000000BB
:1046F000000000001F7C1F7C1F7C1F7C1F7C1F7C18
:104700001F7C1F7CFF7FFF7F1F7C1F7C1F7C1F7C0B
:104710001F7C1F7C1F7C1F7C00000000000000002D
:104720000000000000000000FF3FFF3FE003E00347
:10473000E003E003E003E003E003E003E003E00361
:10474000E003E003E003E003FF3FFF3F0000000061
:10475000000000000000000000000000FC1FFC1F23
:104760007C007C007C007C007C007C007C007C0069
:104770007C007C007C0078007800F838F03FC03F77
:104780000000000000000000000000000000000029
:104790001F3C1E3C3C3C783CF03CE03DE03FC03FD1
:1047A000803FC03FE03FF03DF03C783C7C3C3E3CED
:1047B0001F3C0F3C00000000000000000000000053
:1047C00000000000003E003E003E003E003E003E75
:1047D000003E003E003E003E003E003E003E003EE9
:1047E000003E003EFF3FFF3F0000000000000000D1
:1047F00000000000000000001FF81FFC1FFC3FFE2F
:104800003FFE3FFE7FFF77FF77FFF7F7E7F7E7F31E
:10481000E7F3C7F307F007F007F007F00000000028
:104820000000000000000000000000000F7C0F7C72
:104830000F7E0F7F0F7F8F7F8F7FCF7FEF7BEF7993
:10484000FF79FF78FF787F783F783F781F781F786F
:104850000000000000000000000000000000000058
:10486000F007FC1F3E3E1F7C0F780F780FF80FF803
:104870000FF80FF80FF80FF80F780F781F7C3E3EF7
:10488000FC1FF00700000000000000000000000016
:1048900000000000FC3FFF3F1F3E0F3E0F3E0F3E5B
:1048A0000F3E1F3E3F3EFC3FF03F003E003E003EBD
:1048B000003E003E003E003E000000000000000000
:1048C0000000000000000000F007FC1F3E3E1F7CBF
:1048D0000F780F780FF80FF80FF80FF80FF80FF8A0
:1048E0000F780F781F7C3E3EFC1FF8077C003F00CE
:1048F0000F0003000000000000000000F03FFC3F3C
:104900007E3C3E3C1E3C1E3C3E3C3C3CFC3CF03F66
:10491000E03FF03DF83C7C3C3E3C1E3C1F3C0F3CE5
:104920000000000000000000000000000000000087
:10493000FC07FE1F0E3E003C003C003C003EC01F3A
:10494000F80FFE037F001F000F000F001F203E3CEA
:10495000FC3FF01F0000000000000000000000000D
:1049600000000000FFFFFFFFE003E003E003E003BF
:10497000E003E003E003E003E003E003E003E0031F
:10498000E003E003E003E00300000000000000009B
:1049900000000000000000000F7C0F7C0F7C0F7CEB
:1049A0000F7C0F7C0F7C0F7C0F7C0F7C0F7C0F7CAF
:1049B0000F7C1E3C1E3C3E3EFC1FF007000000002A
:1049C00000000000000000000000000007F007F0F9
:1049D00007F80F780F7C1E3C1E3C1E3E3C1E3C1F01
:1049E000781F780FF80FF007F007F007E003E003F7
:1049F00000000000000000000000000000000000B7
:104A000003E003F003F007F0E7F3E7F3E7F3E773FE
:104A1000F77BF77FFF7F7F7F7F7F7E7F7E3F3E3EFE
:104A20003E3E3E3E0000000000000000000000008E
:104A30000000000007F80F7C1E3E3E3E3C1FF80FB2
:104A4000F007E007E003E003F007F80F7C0F7C1E9F
:104A50003E3C1F780F780FF00000000000000000BF
:104A6000000000000000000007F807780F7C1E3CE3
:104A70001E3E3C1F780FF80FF007E003E003E00351
:104A8000E003E003E003E003E003E00300000000D4
:104A9000000000000000000000000000FF7FFF7F1A
:104AA0000F001F003E007C00F800F000E001E00372
:104AB000C007800F000F001E003E007CFF7FFF7FBD
:104AC00000000000000000000000FF0780078007D2
:104AD000800780078007800780078007800780079E
:104AE000800780078007800780078007800780078E
:104AF0008007800780078007FF07FF070000007816
:104B00000078003C003C001E001E000F000F8007D4
:104B10008007C003C003E001E001F000F00078006E
:104B200078003C003C001E001E000F000F00070034
:104B30000000F07FF000F000F000F000F000F00066
:104B4000F000F000F000F000F000F000F000F000E5
:104B5000F000F000F000F000F000F000F000F000D5
:104B6000F07FF07F0000C000C001C001E003E0035F
:104B7000F007F0077807780F380F3C1E3C1E1E3CEC
:104B80001E3C0F380F78077800000000000000007E
:104B90000000000000000000000000000000000015
:104BA0000000000000000000000000000000000005
:104BB00000000000000000000000000000000000F5
:104BC00000000000FFFFFFFF000000000000F000F9
:104BD00000000000000000000000000000000000D5
:104BE00000000000000000000000000000000000C5
:104BF00000000000000000000000000000000000B5
:104C00000000000000000000000000000000F80F9D
:104C1000FC3F7C3C3E003E003E00FE07FE1F3E3E49
:104C20003E7C3E783E7C7E7CFF3FCF1F0000000034
:104C3000000000000000003C003C003C003C003C48
:104C4000003CF83DFE3F3E3F1F3E0F3C0F3C0F3CFB
:104C50000F3C0F3C0F3C1F3C1E3C3E3FFC3FF03BDB
:104C60000000000000000000000000000000000044
:104C7000000000000000FE03FF0F871F003E003E03
:104C8000003C007C007C007C003C003E003E871F16
:104C9000FF0FFE03000000000000000000001F00E6
:104CA0001F001F001F001F001F00FF07FF1F3F3EC8
:104CB0001F3C1F7C1F7C1F7C1F781F781F7C1F7C64
:104CC0003F3C7F3EFF1FDF0F0000000000000000A0
:104CD0000000000000000000000000000000F803D9
:104CE000FC0F3E1F1E3E1F3C1F7CFF7FFF7F007C92
:104CF000007C003C003E071FFF0FFE030000000089
:104D0000000000000000FF01E103C003C007C0076E
:104D1000C007FF7FFF7FC007C007C007C007C007ED
:104D2000C007C007C007C007C007C007C007C0074B
:104D30000000000000000000000000000000000073
:104D4000000000000000EF07FF1F7F3E1F3C1F7C9C
:104D50001F7C1F781F781F781F7C1F7C3F3C7F3E85
:104D6000FF1FDF0F1E001E001E007C38F83F003CB6
:104D7000003C003C003C003C003CFC3DFE3F9E3FB4
:104D80001F3F1F3E1F3C1F3C1F3C1F3C1F3C1F3C46
:104D90001F3C1F3C1F3C1F3C0000000000000000A7
:104DA0000000F001F0010000000000000000E07FC2
:104DB000E07FE001E001E001E001E001E001E0016D
:104DC000E001E001E001E001E001E001000000009D
:104DD000000000000000F800F800000000000000E3
:104DE0000000F83FF83FF800F800F800F800F8007D
:104DF000F800F800F800F800F800F800F800F800F3
:104E0000F800F800F000F071E07F003C003C003C4E
:104E1000003C003C003C1F3C3E3C7C3CF83CF03DF0
:104E2000E03DC03FC03FE03FF03DF83C7C3C3E3CB5
:104E30001F3C1F3C00000000000000000000F07F4D
:104E4000F001F001F001F001F001F001F001F001DA
:104E5000F001F001F001F001F001F001F001F001CA
:104E6000F001F001F001F00100000000000000007E
:104E700000000000000000000000000000009EF79D
:104E8000FFFFFFFFFFFFE7FBE7F9C7F1C7F1C7F13E
:104E9000C7F1C7F1C7F1C7F1C7F1C7F100000000C2
:104EA0000000000000000000000000000000000002
:104EB0000000FC3DFE3F9E3F1F3F1F3E1F3C1F3C2E
:104EC0001F3C1F3C1F3C1F3C1F3C1F3C1F3C1F3C0A
:104ED00000000000000000000000000000000000D2
:104EE000000000000000F007FC1F3E3E1F3C1F7C3E
:104EF0000F780F780F780F780F781F7C1F3C3E3E9D
:104F0000FC1FF0070000000000000000000000008F
:104F100000000000000000000000F83DFE3F3E3FA2
:104F20001F3E0F3C0F3C0F3C0F3C0F3C0F3C1F3C07
:104F30001E3E3E3FFC3FF83F003C003C003C003C36
:104F4000003C000000000000000000000000EE0730
:104F5000FE1F7E3E1E3C1E7C1E781E781E781E782C
:104F60001E781E7C3E7C7E3EFE1FDE0F1E001E0055
:104F70001E001E001E0000000000000000000000D7
:104F800000007F1FFF1FE71FC71F871F001F001F95
:104F9000001F001F001F001F001F001F001F001F19
:104FA0000000000000000000000000000000000001
:104FB000000000000000FC07FE1F0E1E003E003E29
:104FC000003FE01FFC07FE003E001E001E003E3CAE
:104FD000FC3FF01F00000000000000000000000087
:104FE00000000000800780078007FF7FFF7F8007A9
:104FF0008007800780078007800780078007800779
:105000008007C007FF03FF01000000000000000050
:1050100000000000000000000000000000001E3C36
:105020001E3C1E3C1E3C1E3C1E3C1E3C1E3C1E3CB0
:105030001E3C3E3C7E3CFE3EFE1FDE0F000000009C
:105040000000000000000000000000000000000060
:10505000000007F00F780F781E3C1E3C1E3E3C1EE1
:105060003C1E780F780FF00FF007F007E003E00325
:105070000000000000000000000000000000000030
:1050800000000000000003F0E3F1E3F3E7F3F7F3BF
:10509000F7F3F77F777F7F7F7F7F7F7F3E3E3E3EC8
:1050A0003E3E3E3E00000000000000000000000008
:1050B000000000000000000000000F7C1E3E3C3E8F
:1050C0003C1FF80FF007F007E003F007F807F80FB0
:1050D0007C1E3E3E1F3C1F780000000000000000C8
:1050E000000000000000000000000000000007F8C1
:1050F0000F780F7C1E3C1E3C3C1E3C1E3C1F780F54
:10510000F80FF007F007E003E003C003C003C0039B
:105110008007800F007F00000000000000000000FA
:105120000000FF3FFF3F1F003E007C00F800F00141
:10513000E003C007800F001F001E003CFF7FFF7FC1
:1051400000000000000000000000FE01E003C003BA
:10515000C003C003C003E001E001E001C001C003DF
:10516000803F803FC003C001E001E001E001C003D7
:10517000C003C003C003E003FE017E000000C001C5
:10518000C001C001C001C001C001C001C001C00117
:10519000C001C001C001C001C001C001C001C00107
:1051A000C001C001C001C001C001C001C001C001F7
:1051B0000000C03FE003E001E001E001E001C001C8
:1051C000C003C003C001E001FE00FE00E001C00119
:1051D000C003C003C001E001E001E001E001E00321
:1051E000C03F003F00000000000000000000000081
:1051F000000000000000000000000000073FC77F23
:10520000E773FFF17EF000000000000000000000E6
:10521000000000000000000000000006101600065C
:10522000101600004852000800000020180000007E
:10523000983E00086052000818000020C80E0000C8
:10524000A83E000800000000101A0000CE3E000832
:105250000024F40001000000100000000000000025
:040000050800019559
:00000001FF
