:020000040800F2
:10000000881200200D030008A1480008FD3E0008EA
:100010009D48000805170008F55C00080000000076
:100020000000000000000000000000004957000828
:100030005117000800000000A54800084D570008AF
:1000400027030008270300082703000827030008E8
:1000500027030008270300082703000827030008D8
:1000600027030008270300082703000809170008D2
:1000700027030008270300082703000827030008B8
:1000800015170008211700082703000800000000CA
:10009000000000000000000000000000270300082E
:1000A0002703000827030008095800082703000851
:1000B000270300082703000827030008013F000862
:1000C000270300082703000827030008A9480008A1
:1000D00027030008DD5C0008E95C00080000000060
:1000E000270300082703000827030008000000007A
:1000F0000000000000000000000000002D170008B4
:10010000000000002703000827030008B548000886
:1001100000000000000000000000000000000000DF
:1001200027030008270300082703000839170008E1
:10013000270300080000000000000000000000008D
:10014000000000000000000000000000270300087D
:1001500027030008270300084517000827030008A5
:10016000270300082703000800000000000000002B
:10017000000000000000000000000000000000007F
:10018000000000002703000800000000000000003D
:100190002703000800F002F800F0A8F814A696E87B
:1001A000000CB244B344DA4501D100F09FF8BAE83C
:1001B0000F000FA696E83000A5EB040504EB060738
:1001C000AAEB0704A7F101074FEA15154FEA34140B
:1001D000A4F10104AC4201D300F088F813F0010F40
:1001E00018BFFB1A43F0010300F001F8DBE71847E2
:1001F000D0660000F0660000103A24BF78C878C1CD
:10020000FAD8520724BF30C830C144BF04680C601C
:1002100070470000704700000023002400250026DE
:10022000103A28BF78C1FBD8520728BF30C148BF59
:100230000B6070476E2900F0F583702900F0838110
:10024000662906F0AA82652906F0A782672906F0CA
:10025000A482612906F0A38203681B0A28BF41F02B
:100260008001692900F0A283642900F09F83752929
:1002700000F09C836F2900F0C784782900F04F813B
:10028000E92900F06184E42900F05E84F52900F09A
:100290005B84EF2900F0C484F82900F04E810368E4
:1002A000DB0928BF41F08001632901F0AD8073298B
:1002B00001F0B280E32901F0BD80F32901F0C28092
:1002C000002070471FB506F05BFA01F011F9040039
:1002D0000020002106F03EFA401C60600020002152
:1002E00006F022FAE0601FBD10B510BD01F0D2F893
:1002F0001146FFF7E7FF05F0A1FD01F0AFF903B4E8
:10030000FFF7F2FF03BC01F0F5F900000948804750
:1003100009480047FEE7FEE7FEE7FEE7FEE7FEE7E7
:10032000FEE7FEE7FEE7FEE704480549054A064BFF
:1003300070470000F557000895010008880C002060
:1003400088120020880E0020880E002053EA020C3C
:1003500000F069802DE9F04B4FF00006002B1FBF25
:10036000B3FA83F503FA05F424FA05F65E4012BFEA
:100370001643B2FA82F502FA05F4C5F120051EBF54
:1003800022FA05FC44EA0C04203556EA044C4FEAF4
:10039000144418BF641C4FF000084FF0000990424D
:1003A00071EB030C39D3002919BFB1FA81F701FAB7
:1003B00007F6B0FA80F700FA07F6C7F120071EBF6C
:1003C00020FA07FC46EA0C062037B6FBF4FCA7EB44
:1003D0000507103F07F01F0BCBF120062CFA06F69D
:1003E0000CFA0BFB44BFB3460026202FA4BF5E4689
:1003F0004FF0000B5BEA060C08BF4FF0010B19EB46
:100400000B0948EB0608ABFB027C06FB02CC0BFB9E
:1004100003CCC01B71EB0C01C1E70B460246414601
:100420004846BDE8F08B13B5084318BF4FF0FF30C6
:100430000146AFF30080BDE81C4070477CB51D4607
:1004400016460C00009007D04142A14202D320443E
:10045000401E01E04FF0FF30064B7B442A466946C0
:100460000190304600F0F7FA002C02D0009A0021EB
:1004700011707CBD1F06000070B5044685690068D8
:10048000C10601D5302600E02026C00707D070BD88
:10049000D4E9012130469047206A401C20626D1E3D
:1004A000F6D570BD70B5044685690078C00707D1E0
:1004B00070BDD4E9012120209047206A401C2062B1
:1004C0006D1EF6D570BD0000F0B40D46018809051B
:1004D00002D5214C7C4402E01F4C7C440E340021A8
:1004E00000F1240608E002F00F071209E75D42EA76
:1004F00003721B097754491C52EA0307F3D10278AF
:100500000023120704D5702D06D009B1022311343F
:100510002246F0BC00F0F1B901231034F8E770B5C1
:1005200004460D462146106800F0B5F902462946FA
:100530002046BDE870400023C6E7D21D22F0070325
:10054000D3E90023C0E70368126843F02003036087
:100550000823C3610023B7E7CA6200002DE9F05FFA
:10056000894604464FF0000ADFF874B1FB44C0F836
:1005700020A02046E1688847002874D0252806D0AE
:10058000D4E901219047206A401C2062F1E700264F
:100590005F462046E16888472028054607DB312D65
:1005A00005D2781910F8200C08B10643F1E7B0071E
:1005B00001D526F00406C4F81CA00027C4F818A032
:1005C0002A2D09D0284606F0A7F838B304EB87088F
:1005D000303DC8F8185019E059F8041B204604EBC8
:1005E00087029161E1688847012F054618D1E069CB
:1005F000002820DA26F020061DE0D8F8180000EBCD
:10060000800005EB40003038C8F818002046E1684B
:100610008847054606F080F80028EED1012F0AD061
:100620002E2D08D12046E16888477F1C0546022F01
:1006300046F02006C4DBA069002803DA404246F0F9
:100640000106A061F00701D026F010066C2D0BD03A
:10065000682D09D04C2D39D06A2D35D0742D35D068
:100660007A2D33D016E038E0E1682F4620468847DF
:10067000B842054609D16C2F26D04FF48060E1685E
:10068000064320468847054604E06C2F1AD04FF4F5
:10069000807006430DB3A5F14100192802D820351A
:1006A00046F400664A462946204626604E46FFF735
:1006B000C1FD80B101280BD0F61D26F0070000F126
:1006C000080956E74020E4E78020D8E70020D6E775
:1006D00006F104094DE7284652E7206ABDE8F09F7D
:1006E0005A6200002DE9FF5F1D464FF0FF3B914627
:1006F0004FF000085F46D5E90146A96901987F1CC3
:100700008847296A824688470028F6D1BAF1FF3F18
:100710000CD0002E24F4C06419DD600614D5BAF1A3
:100720002B0F09D0BAF12D0F0ED103E0584604B0BB
:10073000BDE8F09F44F48064A96901987F1C884754
:10074000761E8246002E02DDBAF1300F03D0B9F1D9
:10075000000F26D032E0A969761E01987F1C44F470
:1007600000748847002E824605DDBAF1780F06D066
:10077000BAF1580F03D0B9F1000F10D01EE0B9F153
:10078000000F02D0B9F1100F18D1A969761E019897
:100790007F1C24F4007488478246102002E0082061
:1007A00000E00A20814609E0A96908FB0908761ED5
:1007B00001987F1C44F4007488478246002E05DDB2
:1007C0004946504600F036FA0028EDDAE96901980A
:1007D0008847A00502D46FF00100A8E7E00725D103
:1007E000600613D5600502D5C8F1000000E0404660
:1007F00029680A1D2A600968220501D5087015E0DC
:10080000220701D5088011E008600FE02868011D6B
:1008100029600068210502D580F8008006E02107E4
:1008200002D5A0F8008001E0C0F8008038467EE7DD
:100830004FF0000200B5134694469646203922BF79
:10084000A0E80C50A0E80C50B1F12001BFF4F7AFC4
:10085000090728BFA0E80C5048BF0CC05DF804EBA6
:10086000890028BF40F8042B08BF704748BF20F814
:10087000022B11F0804F18BF00F8012B7047704712
:100880007047704709684A0501D540B27047C905ED
:10089000FCD500B2704709684A0501D5C0B270475F
:1008A000C905FCD580B2704770B50C460546012AD3
:1008B00005D02878800600D5EA69002302E00123EC
:1008C00005E05B1C934202D2E05C0028F9D1A869E4
:1008D000E618C01AA861286A184428622846FFF75B
:1008E000CBFD04E0D5E9012114F8010B9047B44297
:1008F000F8D32846FFF7D6FD70BD2DE9F0470D4629
:1009000099469246044600F124080168880604D5F9
:10091000E06921F01001216000E00120A84201DD22
:10092000471B00E00027A1697A1902EB0900081AA9
:10093000A0612078C00602D42046FFF79DFD002666
:1009400008E0D4E901211AF806009047206A401C0B
:10095000761C20624E45F4DB2078C0060AD520467E
:10096000FFF78AFD06E0D4E9012130209047206A94
:10097000401C2062381EA7F10107F4DC07E0D4E92F
:10098000012118F805009047206A401C2062281EAB
:10099000A5F10105F3DC2046FFF784FD2078000671
:1009A00002D50220BDE8F0870120FBE72DE9F041E8
:1009B0000646002410687529314616A510D0FFF7A9
:1009C00061FF002802DA404213A507E031688A0778
:1009D00001D512A502E0490704D511A5012401E0C3
:1009E000FFF759FF00210A2206F1240709E0B0FBB6
:1009F000F2FCB0FBF2F302FB1C00303078541846D6
:100A0000491C0028F3D123462A463046BDE8F04170
:100A1000FFF773BF000000002D0000002B00000056
:100A20002000000011680268006A530501D50870B3
:100A30000AE0D30501D5088006E0130603D5C217E6
:100A4000C1E9000200E008600120704701694A1C0A
:100A500002610878704700B58FB0CDE901310021FF
:100A6000059105497944CDE9031011466846FFF721
:100A700075FD0FB000BD0000E5FFFFFFD1E90023C9
:100A80009A4202D2531C0B60107070472DE9FF5F31
:100A900015468A460446DFF8AC80F8440027D8E9BA
:100AA00000103E46CDE9001010E03AF816106A46F4
:100AB00002A800F0CBFC411C07D02178890603D5A1
:100AC000E269391891420DD80744761C20788006D7
:100AD00002D5E069B84205DDAE42E6DB3AF8160021
:100AE0000028E2D1A069C01BA0612046FFF7C4FC2A
:100AF000D8E90010CDE90010002017E03AF81810EE
:100B00006A4602A800F0A2FCB0F1FF3F81460BD07C
:100B100000250DF1080B05E0D4E901211BF80500C3
:100B200090476D1C4D45F7D308F10100B042804657
:100B3000E4DB206A384420622046FFF7B3FCBDE8BE
:100B4000FF9F00003E5D00002DE9F0418046D21D70
:100B500022F007020025D2E90002F52915A614D0DB
:100B6000011E72F1000106DA0023D0EB030063EBF3
:100B7000020211A608E0D8F800108B0701D50FA6D5
:100B800002E0490701D50EA601251146002408F10F
:100B9000240704E000F05CF830323A55641C50EA57
:100BA0000102F7D12B46324621464046BDE8F041CE
:100BB000FFF7A3BE000000002D0000002B00000086
:100BC0002000000030B4002100F1240408E002F00D
:100BD0000705D208303542EA4372DB086554491CE8
:100BE00052EA0305F3D10468002310A2250708D5B3
:100BF00004F020040C4304D0C46901230CA2641E39
:100C0000C46130BCFFF779BE10B5044621461068B8
:100C1000FFF741FE02462046BDE810400023D1E721
:100C2000D21D22F00701D1E90023CBE7000000002C
:100C3000300000003A2800D2303820F02002412A4B
:100C400001D3A2F13700884201D34FF0FF30704743
:100C500030B5B0F10A0271F100034FEA900E4EEA8E
:100C6000817EB0EB0E0061EB91014FEA101E4EEA5F
:100C7000017E10EB0E0041EB11114FEA102E4EEAEF
:100C8000016E10EB0E0041EB11214FEA104E4EEABF
:100C9000014E10EB0E0041EB1141401841F10001F3
:100CA0004FEAD00040EA41704FEAD1014FEA810497
:100CB00044EA907410EB800544EB01046D1944EB99
:100CC0000404521BA3414FF0000348BF0A3200D571
:100CD00030BD401C41F1000130BD2DE9FF4F0C46F5
:100CE0001E464FF0FF378BB0D2E90001DDF860807F
:100CF0000A908A46C1F30A5505B93D4600210846C7
:100D00004FF00000BAF1000F00F4400005DA00EBEC
:100D100080004FF4400101EA50004FEA9059B9F1C8
:100D2000010F00DDB9460A9850EA4A000ED044F699
:100D30001050A5F2FF3545432F14B8F1000F1ED017
:100D40007542291E1EDDC9F100021CE0B8F1010F39
:100D50004FF0000001D0302103E0F24305E02154C0
:100D6000401CB042FBDB30460022002121540B998D
:100D7000C1F80880C1E900200FB0BDE8F08FBD1BAD
:100D80006D1CDEE74A4600DA694206A800F0F4FB73
:100D900006AB93E8070003AB83E8070050460A99C7
:100DA00005F0DAF88DE80700A0F500501F38009034
:100DB0000398002D0ADD42F21F014A460844002331
:100DC00003A90390684605F043FB09E0A0F5005035
:100DD0004A461F38002303A90390684605F04DFBDF
:100DE0008DE807000004000C03D04FF0FF304108ED
:100DF00000E01046B8F1000F03D000220092154623
:100E00001EE0751E05D4FFF723FF303262556D1EBC
:100E1000F9D5B3460122084302D000227F1C04E02A
:100E20002078302801D100227F1E002A099784D023
:100E30001DE0112D07DAFFF70BFF303262556D1CF4
:100E400050EA0102F5D1084302D00098C8B10EE083
:100E50000021681E05E0235C625C63542254401E3E
:100E6000491C8142F7DBAB46A81B401E09900020BD
:100E700004F80B000B98099AC0F80880C0E9002B11
:100E80007AE711264FF0000857E72DE9F04F884622
:100E90000446D21D22F0070191B0D1E90001CDE94D
:100EA0000A0105F021FC02460B98C00F01D02D204D
:100EB00007E02068810701D52B2002E0202101EA0C
:100EC000C000032A099001D0072A05DB03464146EA
:100ED000204600F011FB0BE12078800601D5E06987
:100EE00000E00620B8F1650F814606D0B8F1660F24
:100EF00018D0B8F1670F70D131E00020B9F1110FAF
:100F0000009001DB112301E009F101030AAA01A904
:100F10000CA8FFF7E2FEDDE90C70002609F10105DF
:100F2000834647E001204B4600904FF000470AAA55
:100F300001A90CA8FFF7D1FEDDE90DB00C995D46C3
:100F4000002610B909F101000D18B9EB050003D412
:100F5000C0F1FF3609F10105A5EB09002BE0B9F15D
:100F6000010F01DA4FF001090020B9F1110F0090D3
:100F7000484601DD112300E003460AAA01A90CA896
:100F8000FFF7ABFEDDE90C704D4600268346207866
:100F900000070AD4AB4500DA5D4601A8012D04DD47
:100FA000411911F8011C302907D04F4502DA17F119
:100FB000040F04DA012082460FE06D1EEEE7002FD9
:100FC00002DCED1B3E4403E0781CA84200DD7D1CE2
:100FD000B81B00F1010A4FF000472078000703D446
:100FE000AA4501DB4FF0FF3A0021B7F1004F0DF1A8
:100FF00043088DF8431024D002202B23002F01DA60
:101000007F422D230A21021EA0F1010000DC5FB106
:1010100097FBF1FC97FBF1F201FB1C7C17460CF1EE
:10102000300C08F801CDEEE7A8F10100037021882B
:10103000090501D5452100E06521A0F1010800F86E
:10104000011C09980FA9A1EB0807FF1D00B10120A1
:10105000411901EBEA70A1693844081A401EA061E9
:101060002078C00602D42046FFF706FA099828B176
:10107000D4E901219047206A401C20622078C006F4
:1010800022D52046FFF7F8F91EE0002E04DBB34519
:1010900002DD01A8805D00E03020D4E90121904705
:1010A000206A401C2062761CAAF101005FEA000A57
:1010B0000AD100F01DFAC0680168405CD4E9012142
:1010C0009047206A401C2062281EA5F10105DCDC47
:1010D00007E0D4E9012118F8010B9047206A401C71
:1010E0002062381EA7F10107F3DC2046FFF7DAF98A
:1010F000032011B041E600002DE9F04F04460D46F3
:10110000D21D22F0070089B0D0E900974846394641
:1011100005F0EAFA0246F80F01D02D2307E0206817
:10112000810701D52B2302E0202101EAC0038DF8BD
:1011300020300BB1012000E00020032A824601D0BC
:10114000072A04DB2946204600F0D6F93FE1207843
:10115000800601D40D2500E0E569C7F30A560D2D80
:1011600049DA00214FEA175B08464FF00000002FD4
:1011700000F4400007DA00EB80004FF4400100EB80
:10118000D07001EA60008115012901DD4FF0FF31C7
:1011900000224FEA850CBCF1180F06D31346ACF1C0
:1011A00018004FF08052C24003E04FF4801323FA3E
:1011B0000CF30CF10C0CBCF1200F04D3ACF1200C9F
:1011C00009FA0CF001E007FA0CF000294FF0004892
:1011D00001DD18B90FE00ED140450CD319EB02091F
:1011E0005F4121B9404502D19F4329EA0209BBEB87
:1011F000175F00D0761C2088000502D57B48784414
:1012000002E07A487844193808AA302302F80A30F4
:10121000037C0AF10101002E0AF1020A53546A46C6
:1012200002DC4FF0300101E04FF031014FF00108D6
:101230008DF8001002D0A6F2FF3603E059EA47010C
:1012400000D06B4E002D02DC2178090704D54FF049
:1012500002082E218DF80110C44600210BE0C7F3CF
:1012600003433F01C35C491C6D1E02F80830052989
:1012700008F1010801DA002DF1DC00210CE000EB9F
:101280001973491C1B786D1E082902F808304FEAB3
:10129000091908F1010801DA002DF0DC21688B063C
:1012A00002D516E0A8F10108E04505DD02EB0803D0
:1012B00013F8013C302BF5D0B8F1000F09DD02EB3B
:1012C000080313F8013C2E2B03D1090701D4A8F120
:1012D0000108002D05DD3E2102F808106D1E08F101
:1012E0000108407C002E02F8080008F1010804DA29
:1012F0002D20764202F8080002E02B2002F80800B8
:101300000A214FF47A70864208F101080BDB96FB44
:10131000F0F3303302F8083096FBF0F308F10108DF
:1013200000FB136601E0642E0CDB642096FBF0F3F7
:10133000303302F8083096FBF0F308F1010800FBA7
:10134000136601E00A2E06DB96FBF1F0303002F85E
:10135000080008F1010896FBF1F001FB1060303045
:1013600002F80800A16908F1010808EB050202EB88
:101370000A00081AA0612078C00602D42046FFF7B0
:101380007BF8216A08AE01EB0A00206204E0D4E990
:10139000012116F8010B9047BAF1010AF7D2207823
:1013A000C00602D52046FFF767F86E4609E016F83A
:1013B000010B3E280FD0D4E901219047206A401C40
:1013C0002062B8F10108F2D22046FFF76BF809B0AD
:1013D0000320BDE8F08F206A2844206203E0D4E9AE
:1013E0000121302090476D1EEBD3F8E7F555000042
:1013F00002FCFFFF10B5436913B1AFF3008001E0B9
:10140000FFF752FA012010BD127800F124010A7092
:1014100000224A700122EDE711684FF0FF32E9E740
:1014200010B5436913B1AFF3008001E0FFF72EFB65
:10143000012010BD128800F1240182840022C284A0
:101440000122EDE711684FF0FF32E9E72DE9F041A5
:1014500016460C46054600F043F8036893F8010170
:10146000012807D0FF2C12D8185D80B101202C7004
:10147000BDE8F081D3F807013246214603F2071395
:10148000C7182846BC46BDE8F041002360474FF02E
:10149000FF30EDE7754600F0EBF8AE460500694613
:1014A000534620F00700854618B020B5FEF73CFFF4
:1014B000BDE820404FF000064FF000074FF0000855
:1014C0004FF0000BAC46ACE8C009ACE8C009ACE892
:1014D000C009ACE8C00921F007018D467047000043
:1014E00010B500F005F8001D10BD00BF69520000E6
:1014F00000487047300000202DE9F0411F460446A7
:1015000003260168072A01F4006004DB08B116A570
:1015100005E016A503E008B115A500E015A521F02A
:1015200010002060A069C01EA0610FB1401EA06124
:101530002046FEF7A1FF4FB1D4E90121384690477C
:10154000206A401C2062C01C206206E0206AFAE784
:10155000D4E9012115F8010B9047761EF8D22046F8
:10156000FEF7A0FFBDE8F0814E414E006E616E00B7
:10157000494E4600696E66002DE9F04781461646E1
:101580008AB0354878440DC88DE80D00324878445B
:10159000801C03AC0DC884E80D0041F69B30084464
:1015A000372190FBF1F290FBF1F5A5F1800501FBED
:1015B00012041B3C02D56442012000E00020DFF849
:1015C00098A080460027FA44AAF1BE0A0EE0E00780
:1015D0000AD03246684607EB470101230AEB810136
:1015E00004F04BFF8DE8070064107F1C002CEED147
:1015F000194F7F44AE3F19E0E80715D007EB041000
:101600000DF1180A90E80E008AE80E00C068F0425A
:1016100001D1981908903246012306A903A804F0C5
:101620002CFF03AB83E807006D10641C002DE3D191
:101630004FF0010332466946B8F1000F03A802D00B
:1016400004F006FF01E004F018FFC9E90001C9F841
:1016500008200AB0BDE8F0870053000010B504462A
:10166000AFF300802046BDE81040FEF748BE000002
:10167000004870471000002030B44FF0013C50F893
:10168000042B51F8043BCCFA52F4D51A20D1FCB902
:1016900050F8042B51F8043BCCFA52F4D51A17D168
:1016A000B4B950F8042B51F8043BCCFA52F4D51AD3
:1016B0000ED16CB950F8042B51F8043BCCFA52F41B
:1016C000D51A05D1002CDAD030BC4FF0000070479D
:1016D00029BAB1FA81F111F01801D1F1200084404A
:1016E000F2D1CA40CB4012F0FF0213F0FF0330BC2E
:1016F000D01A704701491820ABBEFEE72600020051
:1017000070470000FEE7000040F2CC20C2F200006B
:1017100000F07AB840F2EC30C2F2000000F074B889
:1017200040F20C20C2F2000000F06EB840F22C3003
:10173000C2F2000000F068B840F26C20C2F2000073
:1017400000F062B840F28C30C2F2000000F05CB8E9
:101750007047000072B600BFFEE7000070B5866DEE
:10176000044600F0F5FA94F83510022925D1054613
:101770002068216C026822F016020260426922F0A1
:101780008002426109B9A16C19B1016821F0080118
:101790000160016821F00101016000BF206800685C
:1017A000C0070ED000F0D4FA401B0628F6D3202044
:1017B0006065032084F835000CE08020606501201E
:1017C00008E0E06D3F2101FA00F0B060012084F8EC
:1017D00035000020002184F8341070BD90F83510D9
:1017E000022909D1052180F835100068016821F02F
:1017F0000101016000207047802141650120704790
:1018000090F8350070470000F0B581B00446002024
:10181000009040F20000C2F200000268D4E91660B5
:1018200048F2B51337680821C1F64E33814039427A
:10183000A2FB03250CD0226813685B0708D5136848
:1018400023F004031360B160616D41F00101616533
:1018500001218140394208D022685269120604D51C
:10186000B160616D41F0020161650421814039423E
:1018700008D022681268920704D5B160616D41F00A
:101880000401616510218140394215D02068026849
:10189000120711D5B16002680168520306D4C90568
:1018A00006D4016821F00801016001E008033ED47C
:1018B000216C09B120468847E16D202000FA01F231
:1018C0003A4240D020680368DB063CD5B26094F809
:1018D00035300268052B1AD122F0160202604269E7
:1018E00022F080024261226C0AB9A26C1AB102682D
:1018F00022F0080202603F208840B060012084F896
:101900003500216D002084F83400D9BB3FE0016828
:10191000520310D4C90512D4016821F010010160EE
:10192000012084F83500002084F8340007E0A16C21
:101930000029BFD1C0E7080301D4616C00E0E16B6E
:1019400009B120468847606D08B3606DC00717D0A5
:10195000052084F835002068A90A026822F00102F7
:10196000026000BF009A01328A42009202D80268E7
:10197000D207F7D1012084F83500002084F8340024
:10198000E16C21B1204601B0BDE8F040084701B04C
:10199000F0BD00002DE9F041044600F0D9F9C4B1D2
:1019A0000546022084F835000020216884F83400C0
:1019B000086820F00100086020680168C9070BD0A2
:1019C00000F0C6F9401B0528F6D903212022032088
:1019D0007AE00120BDE8F081016848F23F02CFF2D1
:1019E0001002D4E9013501EA020ED4E9032143EAE9
:1019F0000E032B43D4E9056C1A43D4E9077811434D
:101A0000314341EA0702616A42EA0802042942EAD4
:101A10000C0303D1D4E90B273A4313430360426913
:101A2000042922F0070241EA02012DD1D4E90A5328
:101A300041EA050143B3BCF5005F08D0BCF1000FDB
:101A400012D1022D16D0012D07D09DB119E0032D22
:101A500017D8DFE805F00B0F0B02A3F1C072B2FA42
:101A600082F252094AB90FE0032D02D2012222B9B3
:101A70000AE006D1C3F3006232B101214022012005
:101A800022E00022002AF8D100F0F8024AF6AB2347
:101A9000103ACAF6AA23A2FB033746F6B8034161FF
:101AA0003909C0F60003595C40F2FF3398435F2ABE
:101AB0004FF03F0288BF0430C4E9160102FA01F179
:101AC0008160002201210020626584F83510BDE8A4
:101AD000F081000090F834C0BCF1010F04BF022077
:101AE000704770B54FF0010C80F834C0D0F858E062
:101AF00090F835C0BCF1010F37D14FF0020C80F8DF
:101B000035C04FF0000CC0F854C0D0F800C0846855
:101B1000056CC06DDCF80060402C26F48026CCF803
:101B20000060CCF804300B4604BF13460A463F2140
:101B300001FA00F0CCF80830CCF80C20CEF8080000
:101B4000DCF8000040F01600CCF800002DB1DCF805
:101B5000000040F00800CCF80000DCF8000040F085
:101B60000100CCF80000002070BD002180F8341086
:101B7000022070BDB0B5044600F0EAF8054640F218
:101B80000500C2F200000078611C18BF044400BFC9
:101B900000F0DEF8401BA042FAD3B0BD2DE9F04FB3
:101BA00082B000F13E4707F1FF77860546EA9727A6
:101BB00041F20006C4F202060722B04208BF042226
:101BC000042F38BF3A46002400274FF00009009246
:101BD00009E000BF09F101090237B9F1100F04F162
:101BE000040400F0A4800D68012202FA09FC15EA41
:101BF0000C08EFD0D1F804B00BF0030AAAF10105EC
:101C0000012D12D80322856802FA07FECA6825EA68
:101C10000E05BA402A4382604268CBF3001522EADF
:101C20000C0205FA09F52A434260BAF1030F1CD0F1
:101C3000C26803238E6803FA07F5AA43BE40324305
:101C4000BAF1020FC26010D16FF0030202EA59022A
:101C50000244D2F820C004F01C050F230E69AB40EB
:101C60002CEA0303AE4033431362026803234E6839
:101C7000BB409A4306F00303BB401A4316F4403FAF
:101C80000260A7D0002243F644030192C4F202038B
:101C90001A6843F6004E42F480421A601A68C4F291
:101CA000010E02F480420192019A29F003024FF6DC
:101CB000084C7244CFF6FF7C52F80C3004F00C064E
:101CC0000F25B540AB43009D05FA06F6334342F8B5
:101CD0000C30DEF808204B6842EA080643F60C4C4C
:101CE000DD0258BF22EA0806CEF80860C4F2010CF3
:101CF000DCF800209D0242EA080658BF22EA0806E6
:101D0000CCF80060DEF804209D0342EA080658BFC4
:101D100022EA0806CEF80460DEF80020DB0342EA7F
:101D2000080658BF22EA0806CEF8006052E702B063
:101D3000BDE8F08F426902EA0103914341EA0341A1
:101D400081617047002A08BF090481617047000063
:101D500040F68040C2F20000006870477047000003
:101D600070470000F0B581B0076804467868E26A01
:101D700094F83E3094F83DE0402B01D0102B0BD16D
:101D8000BD697E69F10735D1B2F12A4F02D0B2F5B3
:101D90002A0F31D101B0F0BD216C00F4007300298D
:101DA0000CBFBD6900257E69B10734D59BB3206C9B
:101DB000002818BFBD6994F83D0000F028002828CD
:101DC00040F086807868012120F48060786005F01A
:101DD000040081EA900128064FF0180058BF0C203B
:101DE000225A0023204684F83C3001B0BDE8F04080
:101DF000FFF7B6BF810538D4310700F4007C3AD52F
:101E0000BCF1000F37D0606B616C0028C9B239613A
:101E100040F0BD80BDE0F10665D5002B63D094F89D
:101E20003D50786820F4E060786000200090786988
:101E30000090386840F0010038600098386820F45D
:101E4000806038607868000540F13A8105F0F7005D
:101E50002646222840F0138156F8380F0168496859
:101E600026F80E1C36F80E1C11E1E06AB0F52A0FB8
:101E700069D101206CE0B10740F19980BCF1000FFD
:101E800000F0958094F83E30E06A226B94F83D10A3
:101E9000222940F0A180216D002908BF402B00F0CD
:101EA0009B80216D002940F091812169B1F5404F5F
:101EB00040F08C810020009078690090B869009013
:101EC0000098386840F480703860206D013014E26A
:101ED0000020009079690091B9690091009984F817
:101EE0003C0001B0F0BD0EF0F70121297DD106F0D4
:101EF0008401802940F02D8110F4806000F0298158
:101F000094F83D00618D00293FF444AF616A11F8F7
:101F1000012B3A616162618D01396185618D002912
:101F200008BF29287FF436AF7868282120F4806024
:101F3000786021202063204684F83D1001B0BDE880
:101F4000F04000F007BBE06AB0F12A4F01D1082051
:101F5000E06294F83E0040280AD1206D616C0028B0
:101F600001F0FE0018BF40F00100386101B0F0BD83
:101F70002069B0F5804F62D194F83D00616C212852
:101F800001F0FE0118BF01313961606B08B1C06B0F
:101F900038B9A06B00283FF4FDAEC06B00283FF4B9
:101FA000F9AE786840F40060786001B0F0BD7968FF
:101FB0006A0752D409053FF5EDAE06F04401402909
:101FC00040F01D8110F4806000F01981204601B0BE
:101FD000BDE8F04002F034B900200090786900902C
:101FE000B8690090009801B0F0BD06F044014029A6
:101FF00040F0BE8010F4806000F0BA8094F83D009C
:10200000618D00293FF4C6AE3969626A1170616A58
:1020100001316162618D01396185618D002908BFDF
:102020002A287FF4B7AE2068416821F480614160BE
:10203000222028212063204684F83D10C1E0206D35
:10204000002800F0AA80206D01287FF4A3AE606C08
:10205000062101EAD010F13087E709053FF59AAE75
:1020600006F08401802940F0D78010F4806000F0F1
:10207000D380204601B0BDE8F04002F0A9B956F87F
:10208000340F0168496826F80A1C36F80A1C19B191
:10209000216C41F004012164796821F400617960C8
:1020A000FFF7AEFB01280BD0306843F60D71C0F688
:1020B00000010165FFF792FB10B13068016D8847A0
:1020C000608DF8B120684169490708D50069616AE7
:1020D0000870606A01306062608D01386085206838
:1020E0004169490608D50069616A0870606A013073
:1020F0006062608D01386085608D18B1206C40F0A1
:1021000004002064206C28B1204601B0BDE8F040F6
:1021100001F06EBF2A2D07D100202063282084F80B
:102120003D00204600F014FA94F83D0028283AD1EA
:102130000020CFF6FF70E06200212020216384F8A8
:102140003D00204684F83E1001B0BDE8F04000F0AC
:1021500095B970077FF51EAE002B3FF41BAE608D66
:1021600000283FF417AE606A10F8011B39610EE0D9
:1021700070077FF50FAE002B3FF40CAE608D00288A
:102180003FF408AE3869616A0870606A01306062C5
:10219000608D0138608501B0F0BD606C062101EAF8
:1021A000D010F030E1E6206B222818BF222D7FF4FA
:1021B000F1AD00212020216384F83D00204684F801
:1021C0003E1001B0BDE8F04000F0C2B9618D51B1E0
:1021D000618D012930D1202818BF082848D13868DE
:1021E00020F4806038600020009078690090B86921
:1021F00000900098386840F4007038607CE0700708
:102200007FF5C8ADBCF1000F3FF4C4AD204601B06E
:10221000BDE8F04001F09ABF70077FF5BBADBCF19F
:10222000000F3FF4B7ADBEF1210F14D1204601B02D
:10223000BDE8F04002F08CB8618D022914D110285D
:1022400038D8012114228140C0F20102114231D05C
:102250004FF4806234E0402B7FF49CAD204601B007
:10226000BDE8F04002F00CB9396841F4806129E022
:1022700010F5803F0BD1386820F4806038607868B2
:102280000005B0D5386820F4806038602DE0122A4F
:1022900001D10128A3D11028F4D8012101FA00F0BE
:1022A0001421C0F201010842ECD0386840F480608B
:1022B00038601AE039684FF4006221F480613960B7
:1022C000396811433960796809050ED5421E1F2A05
:1022D00016D80121914048F28102C8F20002114251
:1022E0000ED0786840F480507860002000907869C3
:1022F0000090B869009000980020206501B0F0BD02
:1023000010F5803FEDD0F0E770470000002804BFD3
:1023100001207047F0B581B0044690F83D0028B91F
:10232000002084F83C00204600F0B2F8242084F815
:102330003D002068016821F001010160016841F45D
:1023400000410160016821F40041016000F06EFA73
:10235000636848F2A16CC0F2010C40F60011C0F2B3
:102360003D0163453CBF48F28041C0F21E018842F6
:1023700002D2012001B0F0BD4DF68361C4F21B31E1
:10238000A0FB01122168970CD1F804E04FF4967677
:102390002EF03F0545EA92454D60774348F63816E2
:1023A0000D6AC0F24106A7FB067625F03F0763459C
:1023B00038BF960C721C3A430A62CA6948F2A0669A
:1023C0004CF6FF77C0F20106B34222EA070C0AD8A6
:1023D00001385A00B0FBF2F001306FF31F300428CF
:1023E00098BF042020E0A2681927002A08BF03270D
:1023F00001385F43B0FBF7F701373F0509D052B111
:1024000019225A43B0FBF2F00422013062F31F306C
:1024100008E0012008E003EB4302B0FBF2F00130DA
:102420006FF31F3040F4004040EA0C00C8610868B8
:10243000D4E9072320F0C0001043184308608868DF
:1024400048F2FF3204F10C0790438CCF184310433D
:10245000A6698860C86820F0FF0038433043C86030
:10246000086840F00100086000202021206484F802
:102470003D10206384F83E0001B0F0BD70470000BD
:102480007047000070470000704700007047000070
:1024900070B586B0044645F200402168C4F20000E1
:1024A000002681420596CDE903660296019601D089
:1024B00006B070BD43F630050096C4F202052968E7
:1024C00000F5D83041F002012960296801F00201CD
:1024D00000910099C02101911221CDE9021603213A
:1024E00004910421059101A9FFF758FB0096286982
:1024F0004FF0007140F400102861286940F20C256B
:1025000000F400100090009846F2A000C2F200050E
:10251000C4F2020040224FF4806385E84700284659
:10252000C5E90436C5E90666C5E90866FFF732FA6B
:10253000002818BFFFF70EF91F2000210022656355
:10254000AC6300F087F81F2000F074F806B070BD8F
:10255000704700007047000040F2050040F68041DF
:10256000C2F20000C2F2000100780A68104408605C
:102570007047000080B543F60040C4F202000168D5
:1025800041F400710160016841F4806101600168FB
:1025900041F480710160032000F088F80F2000F002
:1025A00005F800F02BF8002080BD0000B0B540F227
:1025B0000502C2F2000240F200011278C2F20001EC
:1025C0004FF47A730968B3FBF2F20446B1FBF2F1FF
:1025D000084600F0F7FF0F2C4FF001050CD858B952
:1025E0004FF0FF3021460022002500F033F840F282
:1025F0000800C2F2000004602846B0BD82B000208E
:1026000043F640010190C4F202014A6842F480425C
:102610004A604A6802F480420192019A0090086878
:1026200040F080500860086800F0805000900098EA
:1026300002B07047002848BF704700F01F01012218
:1026400002FA01F14EF200124009CEF2000242F805
:102650002010704710B54EF60C5CCEF2000CDCF882
:102660000030C3F3022E8EF00704042C28BF04248C
:10267000BEF103034FF0FF3E0EFA04F438BF00230F
:10268000A14399400EFA03F39A43114300F16042CB
:1026900000F00F03090102F56442043B6344002883
:1026A00048BF03F10C02117010BD00004EF60C5132
:1026B000CEF200010A684FF6FF031A4060F30A22C7
:1026C00042F0806040F0FD7008607047002804BF51
:1026D000012070472DE9F04143F60808C4F20208D2
:1026E0000446D8F8F8030D4600F00700884207D2E8
:1026F00088F8F853D8F8F80300F00700A84276D11C
:102700002068810717D5410705D5D8F8001041F496
:10271000E051C8F80010010705D5D8F8001041F4C1
:102720006041C8F80010D8F80010A26821F0F0014C
:102730001143C8F80010C0073FD1D8F8F80300F0E3
:102740000700A84207D988F8F853D8F8F80300F032
:102750000700A8424BD12068410707D5D8F80010E0
:10276000E26821F4E0511143C8F80010000708D5D1
:10277000D8F80000216920F4604040EAC100C8F8A0
:10278000000000F07BF8D8F8001046F6A002C1F374
:102790000311C0F60002515C40F2000220FA01F180
:1027A00040F20800C2F200000068C2F200021160AC
:1027B000FFF7FCFE0020BDE8F0816068811E022961
:1027C00007D258F8081C89015CBF0120BDE8F081E0
:1027D00010E0012807D158F8081C89035CBF0120CC
:1027E000BDE8F08106E058F8081C890702D40120F2
:1027F000BDE8F081D8F8001021F003010843C8F8C3
:102800000000FFF7A5FA064641F28837D8F8000025
:10281000616800F00C00B0EB810F8ED0FFF798FAE2
:10282000801BB842F2D90320BDE8F08140F20000DD
:1028300043F60801C2F20000C4F202010068096810
:1028400046F6B002C1F38221C0F60002515CC840D6
:102850007047000040F2000043F60801C2F2000099
:10286000C4F202010068096846F6B002C1F34231C1
:10287000C0F60002515CC8407047000010B543F636
:102880000404C4F20204606800F00C0008280AD0B6
:10289000042819BF42F20040C0F2F40047F640009D
:1028A000C0F27D1010BD206821682368490247F6F8
:1028B0004001C0F27D1100F03F02C3F388105CBFFD
:1028C00042F20041C0F2F401A1FB00010023FDF738
:1028D0003DFD21680222C1F3014102EB4101B0FB41
:1028E000F1F010BD002804BF012070472DE9F04130
:1028F00082B00446007843F60006C007C4F2020620
:1029000047D0B06800F00C00042808D1306880037C
:102910003FD56068E8BB012002B0BDE8F081B06837
:1029200000F00C00082802D170684002EED46568FF
:10293000B5F5A02F0AD0B5F5803F0BD0306820F454
:1029400080303060306820F4802006E0306840F449
:1029500080203060306840F480303060FFF7F8F954
:10296000002D054612D000BF3068800311D4FFF758
:10297000EFF9401B6428F7D926E100BFFFF7E8F91B
:10298000401B64284FF0030000F2E28030688003AF
:10299000F4D4207880071BD5B06810F00C0F09D054
:1029A000B06800F00C00082840F087807068400292
:1029B00000F183803068800703D5E068012840F08B
:1029C0009E803068216920F0F80040EAC100306044
:1029D0002078000735D42078400748D4A56965B32E
:1029E000B06800F00C00082840F09E80012D00F037
:1029F00086807068E16900F480028A4240F07F803E
:102A0000216A00F03F028A4279D147F6C071626ABA
:102A10000140B1EB821F72D1A16A4FF6FF73C90367
:102A2000994300F44032A1F580318A4267D1E16ACE
:102A300000F07060B0EB016F61D1002002B0BDE822
:102A4000F0816069002840F20000C4F247205AD0AB
:102A50000121C0F8801EFFF77BF90546706F8007E3
:102A6000B9D4FFF775F9401B0228F7D9ACE0306CF8
:102A70005FEAC0080AD400200190306C40F080501A
:102A80003064306C00F080500190019847F20007EC
:102A9000C4F200073868C00524D4386840F4807058
:102AA0003860FFF755F905463868C0051AD4FFF7B6
:102AB0004FF9401B0228F7D986E0E068002857D07C
:102AC0000020C4F2472001210160FFF741F90546CB
:102AD000306880073FF575AFFFF73AF9401B0228D1
:102AE000F6D971E0A568052D56D0012D58D0306F6C
:102AF00020F001003067306F20F0040053E0012027
:102B000002B0BDE8F0810021C0F8801EFFF720F977
:102B1000054600BF706F80077FF55DAFFFF718F9BE
:102B2000401B0228F6D94FE00027C4F247270020B7
:102B30003866FFF70DF9022D05460DD1306880018A
:102B400059D5FFF705F9401B02284FF00300F5D9CE
:102B500002B0BDE8F08100BF306880017FF56DAF45
:102B6000FFF7F6F8401B02284FF00300F4D9EFE717
:102B70000020C4F2472000210160FFF7E9F8054674
:102B8000306880077FF524AFFFF7E2F8401B02288A
:102B90004FF00300F4D9DBE7306F40F004003067FA
:102BA000306F40F001003067FFF7D2F8002D054686
:102BB00041F2883713D000BF306F800712D4FFF77F
:102BC000C7F8401BB842F7D9032002B0BDE8F08136
:102BD000FFF7BEF8401BB8424FF00300B8D8306F83
:102BE0008007F5D4B8F1000F3FF5F8AE306C20F057
:102BF00080503064F2E604F11C052FCD084340EA12
:102C00008210D9034FF6FF729143A1F5803140EA5B
:102C100005600843706001203866FFF799F80446A4
:102C2000306880013FF509AFFFF792F8001B0228DA
:102C30004FF00300F4D98BE770470000B0B582B0C5
:102C4000044600684168826802F04103012B04D108
:102C500011F0400301D0216C05E0930708D511F075
:102C6000800305D0616C204602B0BDE8B040084743
:102C700012F4B07F18BF11F0200301D102B0B0BD33
:102C8000530617D594F85130032B08D10021019138
:102C9000C168019180680190019802B0B0BD636D78
:102CA00043F00403636500230193C36801938368C1
:102CB0000193019B93060CD5636D43F0010363659B
:102CC0000023019383680193036823F040030360AA
:102CD000019BD20508D5626D42F0080262650022B0
:102CE000019282680192019A626D002AC6D0426800
:102CF000890722F0E00242604FF0010284F851207F
:102D00001FD0416844F6C10521F003014160E06C29
:102D1000C0F6000538B10565FEF760FD18B1606DBD
:102D200040F040006065A06C0028A7D00565FEF764
:102D300055FD0028A2D0606D40F04000606502B0F3
:102D4000B0BD204602B0BDE8B040FFF775BF00003F
:102D500070B538B10446406A30B10020206104F1FA
:102D6000140007E0012070BD6068B0F5827F03D0D9
:102D700004F11C00002101600026A66294F85100B5
:102D800020B9204684F8506000F03CF8022084F816
:102D9000510094E80F0001F48271056802F40442C6
:102DA00025F040050560114403F4006223691144D5
:102DB00003F002026369114403F00102A369E569AB
:102DC000114403F40072114405F03802256A1144DD
:102DD00005F08002A56A114305F400521143016019
:102DE000626A042101EA134102F0100211444160B9
:102DF000C16921F40061C1610120666584F8510058
:102E0000304670BD2DE9F04387B00446006843F6B4
:102E10000001C4F2000100268842CDE90566CDE933
:102E2000036602965ED043F60041C4F20001884278
:102E300000F09E8043F20001C4F20101884240F09C
:102E4000FF8043F630000196C4F20200416941F46C
:102E500080514161416901F48051019101990196CC
:102E6000016841F001010160006802A900F0010061
:102E700001900198A02002900220CDE903060320D2
:102E800005900520069040F60000C4F20200A0F56F
:102E90000060FEF783FE46F21000C4F2020040F22A
:102EA0006C2500F58960C2F200054FF0C061402238
:102EB0004FF4806385E847002846C5E90436C5E934
:102EC0000666C5E90866FEF765FD002818BFFEF72F
:102ED00041FC232000210022A564AC63FFF7BAFB6C
:102EE0002320ABE043F630000196C4F202000169F2
:102EF00040F6000441F4804101610169C4F202041A
:102F000001F48041019101990196016802AD41F0FF
:102F10000401016001684FF0020801F00401019111
:102F20000199019601684FF0030941F00201016027
:102F30000068052700F00200019001980C20029023
:102F400020462946CDE90386CDF814900697FEF772
:102F500025FE4FF48060CDE90208A4F58060294683
:102F6000CDE904690697FEF719FE07B0BDE8F083C6
:102F700043F630000196C4F20200016946F21008DF
:102F800041F4004101610169C4F2020801F4004109
:102F9000019101990196016841F004010160006806
:102FA00002A900F00400019001984FF4E050029053
:102FB0000220CDE90306032005900620069040F686
:102FC0000000C4F20200FEF7E9FD40F2CC25C2F297
:102FD00000054FF480672846C5E90086C5E902660A
:102FE000C5E90476C5E90666C5E90866FEF7D2FCC0
:102FF000002818BFFEF7AEFBE564AC6340F22C3549
:1030000008F1A800C2F200054021C5E9000605F15B
:103010000800C2C02846C5E90566C5E907666E62B4
:10302000FEF7B8FC002818BFFEF794FB3320002100
:103030000022A564AC63FFF70DFB3320FFF7FAFA1B
:1030400007B0BDE8F083000010B5044690F85100C9
:1030500001281CD113460A4600294FF0010018BF71
:10306000002B00D110BDA06868B96168B1F5827FFE
:1030700009D14FF0040C2046114684F851C0BDE838
:10308000104000F093B994F85010012901D10220AA
:1030900010BD012184F85010042184F85110002142
:1030A000B0F5004F6165A263A387E387C4E91011FF
:1030B000A186E18608D12068036823F040030360FD
:1030C000036823F480430360E06C44F6ED0E44F69D
:1030D0000513C0F6000EC0F60003C0E90F3E44F62B
:1030E000CD03C0F60003D4F800C0C0E91331E38F6C
:1030F0000CF10C01FEF7EEFC40B1606D40F01000E9
:103100006065002084F85000012010BD2168086827
:10311000400603D4086840F040000860002084F8AE
:1031200050004A6842F020024A604A6842F00102B8
:103130004A6010BD40F25051C2F20001884218BFEF
:10314000704740F20710C2F2000001210170704781
:10315000704700002DE9F04383B01E4615460F4628
:103160000446FEF7F5FD94F851108146012908D177
:10317000002F4FF0010018BF002D0ED103B0BDE8A5
:10318000F0836068B0F5827F0DD104294FF0020012
:10319000F4D1A1680029EBD0F0E7002EEED094F82E
:1031A0005000012803D1022003B0BDE8F0830120C4
:1031B00084F8500094F85100002104281CBF052019
:1031C00084F851006165A563E687A6872763E686D4
:1031D0002068A686216461640168490603D40168F9
:1031E00041F0400101606168731EE268B1FA81F14B
:1031F000B3FA83F3DDF8288049095B09B2F5006F63
:1032000041EA030137D131B137F8021BC1602763AE
:10321000E08E0138E086012608F10105E08E10B944
:10322000E08F00286CD02068816889070CD5E18E7A
:1032300051B1012E08D1216B002631F8022BC2605A
:103240002163E18E0139E1868168C9070AD0E18FE7
:1032500041B1C068A16B012621F8020BA163E08F88
:103260000138E087FEF774FD002DD7D0A0EB0900F0
:103270004045D3D33AE039B139780173206B01303E
:103280002063E08E0138E086012608F1010500BFC9
:10329000E08E08B9E08F98B32068816889070DD562
:1032A000E18E59B1012E09D1216B002609780173F5
:1032B000206B01302063E08E0138E0862068816851
:1032C000C9070BD0E18F49B1C068A16B0126087016
:1032D000A06B0130A063E08F0138E087FEF738FD76
:1032E000002DD5D0A0EB09004045D1D3012084F8B2
:1032F0005100002084F85000032003B0BDE8F083A3
:103300002046022101224346CDF8009001F030FC16
:1033100060B1606D40F02000606520206065002095
:1033200084F85000012003B0BDE8F08340F20000B3
:10333000C2F20000006849F68171C1F25E61A0FB33
:103340000101480D4FF47A71484302906068B0F56E
:10335000827F0AD12046802100224346CDF800908A
:1033600001F006FC0028D4D108E0029830B10298A0
:1033700001380290206880680006F6D4A06838B949
:10338000002001902068C168019180680190019837
:10339000012084F85100002084F85000606D00285E
:1033A00018BF012003B0BDE8F083000070B50446EB
:1033B00090F85100012806D100294FF0010018BFF4
:1033C000002A0CD170BD6568B5F5827F0ED1042846
:1033D0004FF00200F6D1A568002DEDD0F2E7002BEA
:1033E00008BF70BD94F85000012801D1022070BDC3
:1033F000012084F8500094F85100002604281CBFD6
:10340000052084F8510066652163A386E386A263E4
:10341000A387E387C4E9106694F8510044F6ED01F0
:1034200044F6FD03C0F60001C0F60003042808BFFF
:103430000B4644F6051044F64921C0F60000C0F6DC
:10344000000108BF0146E06C2568C0E90F1344F68F
:10345000CD01C0F60001C0E91316E38F05F10C01A0
:10346000FEF738FB38B1606D40F010006065012058
:1034700084F8506070BD2268216BA06C536843F0E3
:1034800001035360C0E90F66C0E91366E38E0C3296
:10349000FEF720FB40B1606D40F010006065002039
:1034A00084F85000012070BD21680868400603D4EC
:1034B000086840F040000860002084F850004A6826
:1034C00042F020024A604A6842F002024A6070BD3F
:1034D00010B5044690F8510001280AD100294FF098
:1034E000010018BF002A00D110BD94F85000012837
:1034F00001D1022010BD012084F8500003200023D8
:1035000084F8510063652163A286E286A363C4E95F
:103510001033A387E387A068B0F5004F08D1206877
:10352000026822F040020260026842F480420260B7
:10353000A06C44F6F50C44F67112C0F6000CC0F60F
:103540000002C0E90F2C44F6CD02C0F60002D4F808
:1035500000E0C0E91323E38E0EF10C02FEF7BAFA85
:1035600040B1606D40F010006065002084F85000AC
:10357000012010BD21680868400603D4086840F0A7
:1035800040000860002084F850004A6842F02002A1
:103590004A604A6842F002024A6010BD40F2A0410F
:1035A000C2F20001884218BF704740F20810C2F210
:1035B0000000012101707047704700007047000053
:1035C00070470000411E0020B0EB116F1CBF0120AE
:1035D00070474EF21002CEF2000251604EF62351B7
:1035E000CEF20001F0230B7007219060116070474C
:1035F0007047000070470000002804BF012070479A
:1036000010B5044690F83D0028B9002084F83C002D
:10361000204600F01FF8022084F83D002068211D9C
:1036200002F0F8F8012084F8460084F83E0084F89F
:103630003F0084F8400084F8410084F8420084F898
:10364000430084F8440084F8450084F83D000020DD
:1036500010BD0000006844F60001C4F20101884278
:1036600018BF704780B582B00020019043F6440037
:10367000C4F202000168002241F480210160006868
:10368000002100F48020019001981A20FEF7E2FF4B
:103690001A2002B0BDE88040FEF7CCBF90F83D1084
:1036A00001291CBF01207047022180F83D100068ED
:1036B00040F6FF32C168C4F20002904241F00101BD
:1036C000C1600FDCB0F1804F1DD040F20041C4F268
:1036D0000001884217D040F60001C4F20001884280
:1036E00011D017E040F60041C4F2000188420AD030
:1036F00044F20001C4F20101884204D00021C4F266
:103700000101884206D1816801F00701062904BF42
:1037100000207047016841F00101016000207047FE
:103720007047000070B504460068C5680669B107B7
:1037300016D515F0020113D06FF0020101610121CD
:1037400021778069800703D02046FFF7E9FF05E075
:10375000204600F08DF8204600F08CF800202077FD
:10376000700718D515F0040015D020686FF004011B
:10377000016102212177806910F4407F03D0204647
:10378000FFF7CEFF05E0204600F072F8204600F07B
:1037900071F800202077300717D515F0080014D0F5
:1037A00020686FF00801016104212177C06980075A
:1037B00003D02046FFF7B4FF05E0204600F058F89C
:1037C000204600F057F800202077F00618D515F0B5
:1037D000100015D020686FF01001016108212177D9
:1037E000C06910F4407F03D02046FFF799FF05E041
:1037F000204600F03DF8204600F03CF800202077FD
:10380000F00718BF15F0010002D1300609D412E00C
:1038100020686FF001010161204600F02DF83006AC
:1038200009D515F0800006D020686FF08001016195
:103830002046FFF7DDFE700609D515F0400006D0E2
:1038400020686FF040010161204600F017F8B006D3
:1038500058BF70BD15F0200008D021686FF020021D
:1038600020460A61BDE87040FFF7C4BE70BD00008D
:10387000704700007047000070470000704700006C
:1038800070B582B0044690F84200202822D1002969
:103890004FF0010518BF002A1DD0002620462563E1
:1038A000666302F0C5F9216B012914D101962168E4
:1038B0000A68019249680191019900BF216851E8A5
:1038C000031F226841F0100142E80313002BF5D1D9
:1038D000054600E00225284602B070BD006844F2AB
:1038E0000041C4F20001884218BF704780B540F221
:1038F000386040F28061C2F20000C2F200014FF471
:103900008062FFF7BDFF40F27000C2F200000121AB
:10391000017040F2EC30C2F200000068016821F052
:1039200008010160BDE8804070470000006844F273
:103930000041C4F20001884218BF704710B540F240
:10394000806440F23860C2F20004C2F200002146F6
:103950004FF48062FFF794FF40F2EC30C2F20000B7
:103960000068016821F00801016020464FF4806181
:10397000FCF75EFF10BD0000B0B582B004460068E1
:103980000168C368426901F02F05202D03F020056E
:1039900006D12DB1204602B0BDE8B04002F074B8A7
:1039A0005FEA017C1EBF02F0010E03F4907212EB7D
:1039B0000E0240D1226BCD0618D5012A16D113F084
:1039C000100213D000210191016801914168019119
:1039D00001994069400636D4A08DE18DE28D002A20
:1039E00018BF884240F01A8102B0B0BD0A0672D5F5
:1039F00013F080026FD094F841102129F4D1A1680E
:103A0000B1F5805F03D12169002900F03C81216A72
:103A10004A1C226209784160E18C01390A04E18480
:103A2000E2D1C16821F08001C160C16841F040016C
:103A3000C16002B0B0BDC80718BF13F4807069D16F
:103A400048076DD473E0E06B016849688AB2002AC8
:103A500055D0A38D9A4252D2E185C069B0F5807FDE
:103A600031D000BF206850E8030F216820F4807037
:103A700041E80302002AF5D1206850E8050F2168CB
:103A800020F0010041E80502002AF5D1206850E845
:103A9000050F216820F0400041E80502002AF5D119
:103AA000202084F842000020206300BF206850E8F6
:103AB000030F216820F0100041E80302002AF5D12D
:103AC000E06BFDF74BFE02206063A08DE18D401A94
:103AD00081B22046CCE049067FF586AF13F0400165
:103AE0003FF482AFC16821F04001C160202120462F
:103AF00084F8411002B0BDE8B04000F0FBB9A18DE0
:103B000091427FF471AFC069B0F5807F7FF46CAFF4
:103B10000222ABE0606C40F001006064480706D50B
:103B2000BEF1000F03D0606C40F0020060648807B3
:103B300006D5BEF1000F03D0606C40F00400606455
:103B4000BCF1000F06D55EEA050003D0606C40F0C2
:103B500008006064606C00283FF446AF880603D517
:103B600015B1204601F090FF20684069616C00F0BB
:103B7000400001F00801401849D000BF206850E81B
:103B8000030F216820F4907041E80302002AF5D168
:103B9000206850E8050F216820F0010041E8050287
:103BA000002AF5D1206B01280AD100BF206850E817
:103BB000030F216820F0100041E80302002AF5D12C
:103BC000202084F8420000202063206840694006DD
:103BD00053D500BF206850E8050F216820F0400051
:103BE00041E80502002AF5D1E06B002845D045F6F2
:103BF000F901C0F600010165FDF7F0FD00283FF472
:103C0000F3AEE06B016D02B0BDE8B040084720465E
:103C1000FFF78CFE0020606402B0B0BD401A00BF08
:103C2000216851E8031F226821F4907142E80313D0
:103C3000002BF5D1216851E8051F226821F0010110
:103C400042E80513002BF5D1202184F84210002111
:103C5000216300BF216851E8031F226821F0100191
:103C600042E80313002BF5D1022281B220466263A1
:103C700002B0BDE8B040FFF731BE204602B0BDE85B
:103C8000B040FFF753BE216A31F8022B6FF35F2279
:103C900042602162C0E60000002804BF0120704796
:103CA00010B5044690F8410028B9002084F840007F
:103CB000204600F021F8242084F841002068C168E3
:103CC00021F40051C160204601F03EFF20680169E7
:103CD00021F490410161416921F02A014161C168EB
:103CE00041F40051C16000202021606484F841103B
:103CF00084F84210606310BD70B586B00446006859
:103D000044F20041C4F2000100268842CDE9046675
:103D1000CDE90266019653D041F20001C4F20101DF
:103D2000884240F09B8043F630000096C4F20200C7
:103D3000416941F010014161416901F010010091B8
:103D400000990096016841F001010160006801A935
:103D500000F00100009000984FF4C0600190022034
:103D6000CDE9020603200490072005900020C4F24C
:103D70000200FDF713FF46F28800C4F2020040F291
:103D80008C3500F58660C2F200054FF000614022DC
:103D90004FF4806385E847002846C5E90436C5E945
:103DA0000666C5E90866FDF7F5FD002818BFFDF7B2
:103DB000D1FCA563AC63252001210022252448E025
:103DC00043F630000096C4F20200016941F400316C
:103DD0000161016901F400310091009900960168C8
:103DE00041F001010160006801A900F001000090AC
:103DF00000980C2001900220CDE9020603200490D7
:103E0000072005900020C4F20200FDF7C7FE40F233
:103E1000EC3546F28800C2F20005C4F202004FF011
:103E200000614FF4806285E843002846C5E90362DB
:103E3000C5E90566C5E907666E62FDF7ABFD0028BA
:103E400018BFFDF787FCE563AC6326200021002244
:103E50002624FEF7FFFB2046FEF7ECFB06B070BD04
:103E60007047000070470000B0B5044690F841006C
:103E700020281CBF0220B0BD4FF00100C9B3002AAA
:103E8000134608BFB0BD4FF0000C21202162A3846F
:103E9000E384C4F844C084F84100A06B45F6412E89
:103EA00045F681252268C0F6000EC0F60005C0E97F
:103EB0000FE545F60515C0F600050432C0E9135CB0
:103EC000FDF708FE30B110206064202084F8410026
:103ED0000120B0BD20686FF040010160206850E80B
:103EE000050F216840F0800041E80502002AF5D165
:103EF0000020B0BD7047000070470000FEE70000E2
:103F000040F24C40C2F20000FDF72CBF10B581B06A
:103F100000210091806B40F20001C2F2000190F894
:103F20003DC009684BF28952C908C1F2F842A1FBB1
:103F30000212110A23225143009100BF009939B1A6
:103F4000009901390091016809688905F6D403E0F8
:103F5000016C41F020010164446B4FF0000E002C15
:103F60001CBF0021E163816B00291CBF0022CA63D2
:103F70000268002C136823F480631360A0F82AE021
:103F800018BFC4F850E000291CBF00230B6511685E
:103F900021F00101116090F83D1060290BD1202122
:103FA00080F83D10002180F83E10016401B0BDE8AA
:103FB0001040FDF7D3BE0CF0280128290DD111685F
:103FC00041F001011160116841F48061116000212C
:103FD0000163282180F83D1005E0202180F83D1084
:103FE000002180F83E1001B0BDE81040FEF78CB90A
:103FF00010B5044690F83D0094F83E10B1F110025F
:1040000018BF0122403918BF01210A4208BF2228E7
:1040100004D121680A6822F400620A6000F02801D5
:10402000282905D100202063282084F83D000DE0D8
:1040300021684968090507D4602805D0202084F844
:104040003D00002084F83E00002020632068416885
:1040500009051AD494F83D10602935D1202184F83F
:104060003D10002121644169490605D50069616A56
:104070000870606A013060622068016821F0010107
:1040800001602046FDF76AFE3EE0416821F40061D0
:104090004160606B90F83510012922D1A06B43F686
:1040A0000D71C0F600010165FDF798FB60B3206853
:1040B0004169490605D50069616A0870606A013086
:1040C00060622168A06B16E04169490605D5006968
:1040D000616A0870606A013060622046FEF714F978
:1040E00012E043F60D71C0F600010165FDF776FBA5
:1040F00050B12168606B0A6822F001020A60202139
:1041000084F83D10016D8847206C000704D02068BA
:10411000416821F4E061416094F83D00216C490759
:1041200058BF10BD28280FD10020CFF6FF70E062E5
:1041300000212020216384F83D00204684F83E10B1
:10414000BDE81040FEF79AB910BD0000C16A428D6B
:10415000042A07D10168426A4B6823F480634B60EC
:10416000096911E0428D032A16D1026802295368B9
:1041700023F48063536005D0042903D0116821F42F
:10418000806111601169426A1170416A01314162B6
:10419000418D013941857047428D022A11D14A1E55
:1041A0000F2A16D8DFE802F008101510151515159E
:1041B00015151515151515080268136823F4806385
:1041C0000BE00168426ACBE70268136843F480633E
:1041D00003E00268136843F4007313600268436AE3
:1041E00012691A70426AD0F800C0531C4362438DB2
:1041F000013B4385DCF810305370426A036801329A
:104200004262428D013A42855A6822F440725A60F5
:10421000202280F83D2090F83E300022402B80F88C
:104220003E2002D10263FEF72FB9B1F1080218BF98
:104230001222203918BF11460163FEF721B9000090
:1042400081B090F83D10222910D1C16A428D042A14
:104250000ED30168426A09691170416A01314162F5
:10426000418D01394185418D032923D001B070472B
:10427000C36A012A1ED8022B1CD00022009240F2F1
:104280000002C2F2000212684BF28953D208C1F256
:10429000F843A2FB03231A0A02EB8202009200BF3A
:1042A000009A013A0092009A5AB103681B689B0574
:1042B000F6D40AE00068416821F48061416001B0F1
:1042C0007047036C43F0200303640368F2B11A687B
:1042D00022F480621A605A6822F4E0625A601A6915
:1042E000436A1A70426A01324262428D013A428543
:1042F000202280F83D2090F83E300022402B80F8AC
:104300003E2019D1026301B0FEF7BEB8596821F40E
:10431000E06159601969426A1170416A0131416274
:10432000418D01394185202180F83D10002180F820
:104330003E1001B0FDF7E8BFB1F1080218BF12222C
:10434000203918BF1146016301B0FEF799B800008B
:10435000C16A90F83D20212A18BF7047428D4AB1AA
:10436000416A026811F8013B13614162418D0139D4
:104370004185704711F5803F18BF082917D10168A2
:104380004A6822F4E0624A600A6842F400720A60F5
:1043900000212022016380F83D2090F83E2080F823
:1043A0003E10402A08BFFEF771B8FEF76BB820290F
:1043B000E5D001684A6822F4E0624A601121016395
:1043C000002180F83E10202180F83D10FEF75AB8F9
:1043D00090F83D1090F83EC0C26A038D002B08BFD4
:1043E000212919D0212905D0BCF1400F08BF22296D
:1043F00000D07047418D61B390F83E10402908BF4E
:1044000000F03EB8416A026811F8013B1361416255
:10441000418D01394185704712F5803F18BF082A48
:104420001DD101684A6822F4E0624A600A6842F4D9
:1044300000720A6000212022016380F83D2090F87C
:104440003E2080F83E10402A08BFFEF71FB8FEF756
:1044500019B80068416821F4806141607047202AE2
:10446000DFD001684A6822F4E0624A6011210163EA
:10447000002180F83E10202180F83D10FEF702B8A0
:1044800090F83D10026D3AB1026D012A0FD101681A
:10449000826CD2B20A6119E0C26C816C012A11D11E
:1044A0000268C9B21161016D023101657047026D88
:1044B000022A0FD1222914D101680A6842F48072BD
:1044C0000A6003E00268C1F307211161016D013147
:1044D0000165704700684169090644BF0021016118
:1044E0007047428D5AB1212909D1416A026811F8F9
:1044F000013B13614162418D013941857047428D15
:10450000002A08BF2129EBD101684A6822F4E06241
:104510004A600A6842F400720A60002120220163A6
:1045200080F83D2080F83E10FDF7B0BF80B582B026
:10453000002043F630010190C4F202010A6842F4FF
:1045400000120A600A6802F400120192019A0090B7
:104550000868002240F4800008600868002100F428
:104560008000009000980B20FEF774F80B20FEF7F7
:1045700061F8102000210022FEF76CF81020FEF7F1
:1045800059F8112000210022FEF764F81120FEF7EF
:1045900051F82F2000210022FEF75CF82F20FEF7B3
:1045A00049F83B2000210022FEF754F83B20FEF79B
:1045B00041F8462000210022FEF74CF8462002B0C8
:1045C000BDE88040FEF736B82DE9F04F87B00026F1
:1045D00043F630000696CDE90466CDE90266019601
:1045E000C4F20200016840F6000841F004010160D5
:1045F0000168C4F2020801F00401019101990196D9
:104600000168002241F00101016001684FF4804B14
:1046100001F00101019101990196016841F0020147
:10462000016000684FF4804100F0020001900198A1
:104630004046FDF787FBA8F5006738465021012268
:104640004FF0500A0124FDF77DFB40464FF4047102
:104650000122FDF777FBA8F5806528460421012299
:104660004FF00409FDF76EFBCDE9044602AE40466B
:104670003146CDE902B4FDF791FACDE902A44FF03D
:10468000030A384631460494CDF814A0FDF786FAA3
:104690001020CDE9020440463146CDE9044AFDF739
:1046A0007DFA022728463146CDE902940494059705
:1046B000FDF774FA4FF40070CDE90204404631462C
:1046C000CDE90447FDF76AFA07B0BDE8F08F0000B6
:1046D00080B540F24C4045F20041C2F20000C4F205
:1046E000000148F2A06200234FF4804CC0F20102A6
:1046F00080E80E00C0E9033CC0E90533C0E9073398
:10470000FDF704FE002808BF80BDBDE88040FDF72E
:1047100021B8000080B540F2A04043F20001C2F28F
:104720000000C4F201014FF4827200234FF4007CB8
:1047300080E80E000A21C0E90333C0E9053CC361EB
:10474000C0E90833C0E90A31FEF702FB002808BFC0
:1047500080BDBDE88040FCF7FDBF000080B540F2A1
:10476000F84043F60001C2F20000C4F200014FF429
:10477000827200234FF4007C80E80E000A21C0E919
:104780000333C0E9053CC361C0E90833C0E90A311D
:10479000FEF7DEFA002808BF80BDBDE88040FCF7C8
:1047A000D9BF000080B540F2505043F60041C2F23C
:1047B0000000C4F200014FF4827200234FF4007C29
:1047C00080E80E000A21C0E90333C0E9053CC3615B
:1047D000C0E90833C0E90A31FEF7BAFA002808BF79
:1047E00080BDBDE88040FCF7B5BF000080B540F259
:1047F000A85044F60001C2F20000C4F2010142F2E6
:10480000CF0200234FF0090C80E80E1080210361D5
:104810008161FEF7F1FE002808BF80BDBDE8804041
:10482000FCF798BF80B540F2F05041F20001C2F2AF
:104830000000C4F2010100234FF00C0C4FF4E132F0
:1048400080E80E00C0E90333C0E905C3C361FFF788
:1048500023FA002808BF80BDBDE88040FCF77ABF7E
:1048600080B540F2386044F20041C2F20000C4F268
:10487000000100234FF00C0C4FF4E13280E80E00F1
:10488000C0E90333C0E905C3C361FFF705FA002897
:1048900008BF80BDBDE88040FCF75CBFFEE70000BC
:1048A000FEE700007047000040F2A040C2F20000A6
:1048B000FEF7C4B940F25050C2F20000FEF7BEB994
:1048C000806B0021C187C186FEF7B6B9806B016895
:1048D0004A6822F003024A60416D41F010014165CF
:1048E000012180F85110FEF7A7B90000806BFEF798
:1048F0002FBC0000806BFEF75FBE0000806BFEF7F0
:104900005FBE0000B0B5846B0546FDF721FA29684B
:104910000968C90527D402462068A168436823F0C6
:104920002003436031B96168B1F5827F02D16FF035
:10493000030101E06FF00101436819404160204626
:10494000642100F0E5F800281CBF202060650020ED
:10495000E087012084F85100606D20B12046BDE859
:10496000B040FEF769B92046BDE8B040FEF7E2BBB3
:10497000B0B584B0846B0546FDF7EAF9296809688B
:10498000C90530D40546206801224168642321F01E
:1049900020014160416821F002014160204602216E
:1049A000009500F0E5F820B3606D40F020006065F0
:1049B000606D40F020006065A06838B9002002906A
:1049C0002068C16802918068029002980020E08609
:1049D000012084F85100606D28B1204604B0BDE884
:1049E000B040FEF729B9204604B0BDE8B040FEF75C
:1049F000D5BD40F20000C2F20000006849F68171A6
:104A0000C1F25E61A0FB0101480D4FF47A71484389
:104A100003906068B0F5827F0AD120468021002291
:104A20006423009500F0A4F80028BDD1C4E700BFBE
:104A300003980028C0D0039801380390206880684C
:104A40000006F5D4B8E70000B0B582B0846B054627
:104A5000FDF77EF929680968C90528D4054620684C
:104A600001224168642321F0200141602046022197
:104A7000009500F07DF800B3606D40F020006065A7
:104A8000606D40F0200060652068416821F00301FE
:104A900041600020E086E087012084F85100606DCD
:104AA00028B1204602B0BDE8B040FEF7C5B82046A8
:104AB00002B0BDE8B040FEF781BD40F20000C2F296
:104AC0000000006849F68171C1F25E61A0FB01013E
:104AD000480D4FF47A71484301906068B0F5827FC9
:104AE0000AD12046802100226423009500F040F87E
:104AF0000028C1D1C8E700BF01980028C4D00198A0
:104B000001380190206880680006F5D4BCE70000F9
:104B1000B0B582B0044640680B46B0F5827F12D132
:104B2000A168B1F5004F02D0B1F5806F04D12168C2
:104B30000D6825F040050D60B0F5827F03D1A068B7
:104B4000B0F5806F0FD12046012100920022002590
:104B500000F00EF820B1606D032540F02000606584
:104B6000284602B0B0BD009220468021EEE700004A
:104B70002DE9F04782B00A9C984615460E468146BC
:104B8000FDF7E6F8201A00EB0804FDF7E1F840F223
:104B90000001C2F200010968C1F3CB316143019108
:104BA000D9F8001089683140891BB1FA81F14909AF
:104BB000A94203D1002002B0BDE8F087824608F187
:104BC00001070CE0019801380190D9F800008068D5
:104BD0003040801BB0FA80F04009A842EAD0002F94
:104BE000F3D0FDF7B5F8A0EB0A00A04204D201987B
:104BF0000028E7D10024E8E7D9E900014268B1F5CF
:104C0000827F22F0E00242600BD1D9F80810B1F5A2
:104C1000004F02D0B1F5806F03D1016821F040014F
:104C20000160D9F82810B1F5005F07D1016821F4BF
:104C300000510160016841F400510160012089F8D0
:104C40005100002089F85000032002B0BDE8F08731
:104C50002DE9F04740F20913010A6FF00102C2F298
:104C6000000300BF9F180232FE2AB970F870F9D312
:104C700040F200080020002140F23F12EF23C4F26E
:104C800002084FF0000900F065FC404610210022A8
:104C9000FDF758F8404640210122FDF753F840F255
:104CA000081540F2A04A40F209164FF41637C2F236
:104CB0000005C2F2000AC2F2000600BF3C46B7F58A
:104CC000807F28BF4FF4807450463146224685F8D5
:104CD0000090FEF7FDFB00BF28780028FCD03F1BAA
:104CE000ECD1404610210122BDE8F047FDF72AB87B
:104CF00070B584B000240A20C4F20204FCF73AFF25
:104D000036208DF80000204610210022FDF71AF809
:104D1000204640210022FDF715F840F2A040C2F2E3
:104D2000000069460122FEF7D3FB002818BFFCF7FC
:104D300011FD204610210122FDF704F8A0208DF876
:104D40000000204610210022FCF7FCFF20464021F5
:104D50000122FCF7F7FF40F2A040C2F200006946D2
:104D60000122FEF7B5FB002818BFFCF7F3FC204634
:104D700010210122FCF7E6FF3A208DF800002046C2
:104D800010210022FCF7DEFF204640210022FCF724
:104D9000D9FF40F2A040C2F2000069460122FEF7AE
:104DA00097FB002818BFFCF7D5FC204610210122F4
:104DB000FCF7C8FF05208DF80000204610210022D6
:104DC000FCF7C0FF204640210122FCF7BBFF40F268
:104DD000A040C2F2000069460122FEF779FB0028DC
:104DE00018BFFCF7B7FC204610210122FCF7AAFFF0
:104DF000B2208DF80000204610210022FCF7A2FF0F
:104E0000204640210022FCF79DFF40F2A040C2F264
:104E1000000069460122FEF75BFB002818BFFCF783
:104E200099FC204610210122FCF78CFF0C2520461E
:104E3000102100228DF80050FCF784FF204640210D
:104E40000122FCF77FFF40F2A040C2F20000694659
:104E50000122FEF73DFB002818BFFCF77BFC204633
:104E600010210122FCF76EFF2046102100228DF850
:104E700000500025FCF766FF204640210122FCF788
:104E800061FF40F2A040C2F2000069460122FEF735
:104E90001FFB002818BFFCF75DFC204610210122F3
:104EA000FCF750FF2046102100228DF80050FCF73F
:104EB00049FF204640210122FCF744FF40F2A04078
:104EC000C2F2000069460122FEF702FB002818BF6B
:104ED000FCF740FC204610210122FCF733FF33256C
:104EE0002046102100228DF80050FCF72BFF2046B1
:104EF00040210122FCF726FF40F2A040C2F2000050
:104F000069460122FEF7E4FA002818BFFCF722FCEC
:104F1000204610210122FCF715FF20461021002217
:104F20008DF80050FCF70EFF204640210122FCF7CF
:104F300009FF40F2A040C2F2000069460122FEF7DC
:104F4000C7FA002818BFFCF705FC204610210122F3
:104F5000FCF7F8FEB7208DF8000020461021002253
:104F6000FCF7F0FE204640210022FCF7EBFE40F269
:104F7000A040C2F2000069460122FEF7A9FA00280B
:104F800018BFFCF7E7FB204610210122FCF7DAFEF0
:104F900035208DF80000204610210022FCF7D2FEBB
:104FA000204640210122FCF7CDFE40F2A040C2F293
:104FB000000069460122FEF78BFA002818BFFCF7B3
:104FC000C9FB204610210122FCF7BCFEBB208DF856
:104FD0000000204610210022FCF7B4FE20464021AC
:104FE0000022FCF7AFFE40F2A040C2F2000069468A
:104FF0000122FEF76DFA002818BFFCF7ABFB204634
:1050000010210122FCF79EFE19208DF80000204699
:1050100010210022FCF796FE204640210122FCF7D9
:1050200091FE40F2A040C2F2000069460122FEF764
:105030004FFA002818BFFCF78DFB204610210122F3
:10504000FCF780FEC0208DF80000204610210022D1
:10505000FCF778FE204640210022FCF773FE40F268
:10506000A040C2F2000069460122FEF731FA002892
:1050700018BFFCF76FFB204610210122FCF762FEEF
:105080002C208DF80000204610210022FCF75AFE4B
:10509000204640210122FCF755FE40F2A040C2F21A
:1050A000000069460122FEF713FA002818BFFCF73A
:1050B00051FB2046102101220125FCF743FEC220AE
:1050C0008DF80000204610210022FCF73BFE204610
:1050D00040210022FCF736FE40F2A040C2F2000060
:1050E00069460122FEF7F4F9002818BFFCF732FBED
:1050F000204610210122FCF725FE20461021002227
:105100008DF80050FCF71EFE204640210122FCF7DE
:1051100019FE40F2A040C2F2000069460122FEF7EB
:10512000D7F9002818BFFCF715FB204610210122F3
:10513000FCF708FEC3208DF8000020461021002255
:10514000FCF700FE204640210022FCF7FBFD40F268
:10515000A040C2F2000069460122FEF7B9F900281A
:1051600018BFFCF7F7FA204610210122FCF7EAFDF0
:1051700012208DF80000204610210022FCF7E2FDED
:10518000204640210122FCF7DDFD40F2A040C2F2A2
:10519000000069460122FEF79BF9002818BFFCF7C2
:1051A000D9FA204610210122FCF7CCFDC4208DF84D
:1051B0000000204610210022FCF7C4FD20464021BB
:1051C0000022FCF7BFFD40F2A040C2F20000694699
:1051D0000122FEF77DF9002818BFFCF7BBFA204634
:1051E00010210122FCF7AEFD20208DF800002046A2
:1051F00010210022FCF7A6FD204640210122FCF7E9
:10520000A1FD40F2A040C2F2000069460122FEF773
:105210005FF9002818BFFCF79DFA204610210122F3
:10522000FCF790FDC6208DF80000204610210022DA
:10523000FCF788FD204640210022FCF783FD40F268
:10524000A040C2F2000069460122FEF741F90028A1
:1052500018BFFCF77FFA204610210122FCF772FDEF
:105260000F208DF80000204610210022FCF76AFD77
:10527000204640210122FCF765FD40F2A040C2F229
:10528000000069460122FEF723F9002818BFFCF749
:1052900061FA204610210122FCF754FDD0208DF840
:1052A0000000204610210022FCF74CFD2046402142
:1052B0000022FCF747FD40F2A040C2F20000694620
:1052C0000122FEF705F9002818BFFCF743FA204633
:1052D00010210122FCF736FDA4208DF800002046A5
:1052E00010210022FCF72EFD204640210122FCF770
:1052F00029FD40F2A040C2F2000069460122FEF7FB
:10530000E7F8002818BFFCF725FA204610210122F3
:10531000FCF718FDA1208DF8000020461021002286
:10532000FCF710FD204640210122FCF70BFD40F266
:10533000A040C2F2000069460122FEF7C9F8002829
:1053400018BFFCF707FA204610210122FCF7FAFCEF
:10535000E0208DF800002046102100220026FCF7F6
:10536000F1FC204640210022FCF7ECFC40F2A0407A
:10537000C2F2000069460122FEF7AAF8002818BF11
:10538000FCF7E8F9204610210122FCF7DBFC42F291
:105390001F30ADF80C0041F64C00C0F60D30029005
:1053A00042F61330C5F23F40019040F2D040C1F2C6
:1053B0000D100090204610210022FCF7C3FC20466F
:1053C00040210122FCF7BEFC40F2081540F2A0404B
:1053D000C2F20005C2F2000069460E222E70FEF7EE
:1053E00077F800BF28780028FCD020461021012241
:1053F000FCF7A8FCE1208DF80000204610210022D7
:105400000026FCF79FFC204640210022FCF79AFC76
:1054100040F2A040C2F2000069460122FEF758F8AF
:10542000002818BFFCF796F9204610210122FCF74E
:1054300089FC42F22030ADF80C0042F65170C1F602
:105440001F70029042F61340C4F23F40019040F2B8
:10545000D040C1F20C100090204610210022FCF731
:1054600071FC204640210122FCF76CFC40F2A04078
:10547000C2F2000069460E222E70FEF729F800BF26
:1054800028780028FCD0204610210122FCF75AFC85
:1054900021208DF80000204610210022FCF752FC4C
:1054A000204640210022FCF74DFC40F2A040C2F211
:1054B000000069460122FEF70BF8002818BFFCF730
:1054C00049F9204610210122FCF73CFC11208DF8FF
:1054D0000000204610210022FCF734FC2046402129
:1054E0000022FCF72FFC40F2A040C2F20000694607
:1054F0000122FDF7EDFF002818BFFCF72BF920462D
:1055000010210122FCF71EFC29208DF80000204606
:1055100010210022FCF716FC204640210022FCF757
:1055200011FC40F2A040C2F2000069460122FDF7E2
:10553000CFFF002818BFFCF70DF9204610210122EB
:10554000FCF700FC3220FCF715FB0020FFF780FB86
:1055500004B070BD2DE9F04383B000240546C4F2C9
:1055600002042A2017460E468DF809002046102115
:10557000002298464FF00009FCF7E4FB204640214A
:105580000022FCF7DFFB40F2A040C2F200000DF168
:1055900009010122FDF79CFF002818BFFCF7DAF88B
:1055A000204610210122FCF7CDFB280A8DF80500CA
:1055B000380A8DF807002046102100228DF8065089
:1055C0008DF80870FCF7BEFB204640210122FCF755
:1055D000B9FB40F2081540F2A040C2F20005C2F249
:1055E00000000DF10501042285F80090FDF770FF21
:1055F00028780028FCD0204610210122FCF7A2FBCD
:105600002B208DF80A002046102100220027FCF7ED
:1056100099FB204640210022FCF794FB40F2A04079
:10562000C2F200000DF10A010122FDF751FF00282E
:1056300018BFFCF78FF8204610210122FCF782FBEF
:10564000300A8DF801004FEA18208DF8030020463B
:10565000102100228DF802608DF80480FCF772FBA7
:10566000204640210122FCF76DFB40F2A040C2F22F
:1056700000000DF1010104222F70FDF729FF00BF8A
:1056800028780028FCD0204610210122FCF75AFB84
:105690002C208DF80B00204610210022FCF752FB35
:1056A000204640210022FCF74DFB40F2A040C2F210
:1056B00000000DF10B010122FDF70AFF002818BFC1
:1056C000FCF748F8204610210122FCF73BFB03B011
:1056D000BDE8F0832DE9F04F81B040F20008C4F23C
:1056E00002080D4606464046102100224FF00009F0
:1056F000FCF728FB404640210122FCF723FBDDB1EB
:1057000040F2081740F2A04B4FF6FF7AC2F20007B2
:10571000C2F2000B4FF6FF74554538BF2C46584671
:105720003146224687F80090FDF7D2FE38780028EF
:10573000FCD02D1B2644EDD140461021012201B0A2
:10574000BDE8F04FFCF7FEBA70470000FCF704BF5D
:1057500070B592B006AC20463021FBF769F8002501
:1057600043F640000595CDE90355CDE90155009577
:10577000C4F202000168022641F080510160006815
:1057800000F080500090009847F200000095C4F2AD
:105790000000016866F38F310160006800F440404A
:1057A000009000980120099010200A9008200E9087
:1057B0005420CDE90F060420119020460696CDE92D
:1057C0000C65FDF78FF810B172B600BFFEE70F2031
:1057D000CDE901064FF48050CDE9040501A802216E
:1057E0000395FCF773FF10B172B600BFFEE712B06D
:1057F00070BD00004EF68850CEF20000016841F402
:10580000700101607047000040F2A850C2F2000031
:10581000FDF788BFB0B540F2FF7E0568C4F2000E08
:1058200040F2000C7045C4F2010C0ADD40F60003A2
:10583000C4F2000398420DD060450BD040F60043FF
:1058400004E0B0F1804F05D040F20043C4F2000301
:10585000984204D14B6825F0700243EA02054FF6E6
:10586000FF73C4F20003984209DC704512DCB0F10A
:10587000804F26D040F20043C4F200031FE044F200
:10588000FF33C4F2010398420FDC604519D044F2A3
:10589000000312E040F60003C4F20003984210D067
:1058A00040F60043C4F2000309E044F60003C4F2EA
:1058B0000103984205D044F20043C4F20103984228
:1058C00004D1CB6825F4407243EA02050A688C686B
:1058D0004B696045C462826202D10969CCF830101C
:1058E000026825F0800142F004021943026001229F
:1058F00042610160B0BD0000806B0021C185FEF7F0
:1059000015B80000806B0168496990F84120212A90
:1059100011D111F080010ED00021C184016851E83D
:10592000031F026821F0C00142E80313002BF5D1E8
:10593000202180F841100168496990F84220222A0C
:105940002BD111F0400128D00021C185016851E818
:10595000031F026821F4907142E80313002BF5D174
:10596000016851E8051F026821F0010142E80513B2
:10597000002BF5D1016B01290AD100BF016851E864
:10598000031F026821F0100142E80313002BF5D138
:10599000202180F8421000210163416C41F0100188
:1059A0004164FDF7C3BF00000168806B0968C90549
:1059B00030D40021C18500BF016851E8031F02688F
:1059C00021F4807142E80313002BF5D1016851E8FE
:1059D000051F026821F0010142E80513002BF5D1F3
:1059E000016851E8051F026821F0400142E80513F3
:1059F000002BF5D1202180F84210016B012909D13B
:105A0000016851E8031F026821F0100142E8031306
:105A1000002BF5D100214163016B012918BFFEF76E
:105A20001FBA818DFDF75ABF806B01214163016B65
:105A3000012918BFFEF716BA818D4908FDF74EBF40
:105A40000168806B0968C90548BFFEF753BA002199
:105A5000C18400BF016851E8051F026821F0800180
:105A600042E80513002BF5D1016851E8031F0268D5
:105A700041F0400142E80313002BF5D170470000CC
:105A8000806BFEF739BA000090F84210222918BF47
:105A900070478268B2F5805F01D1016991B1816A76
:105AA000B2F5805F07D00AB9026922B10268526874
:105AB00002F07F0201E0026852680A70816A0131D7
:105AC000816207E00168826A49686FF35F2122F80A
:105AD000021B8262C18D01390A04C18500D0704762
