:020000040800F2
:1000000088130020A9010008BD2C000871230008F6
:10001000B92C0008C1020008BD3D00080000000026
:100020000000000000000000000000004939000846
:10003000F502000800000000C12C00084D3900083E
:10004000C3010008C3010008C3010008C301000880
:10005000C3010008C3010008C3010008C301000870
:10006000C3010008C3010008C3010008C301000860
:10007000C3010008C3010008C3010008C301000850
:10008000C5020008D1020008C301000800000000FA
:10009000000000000000000000000000C301000894
:1000A000C3010008C3010008C3010008C301000820
:1000B000C3010008C3010008C3010008752300083C
:1000C000C3010008C3010008C3010008C52C0008D3
:1000D000C3010008A53D0008B13D00080000000074
:1000E000C3010008C3010008C301000800000000AC
:1000F000000000000000000000000000C301000834
:1001000000000000C3010008C3010008C30100088B
:1001100000000000000000000000000000000000DF
:10012000C3010008C3010008C3010008DD02000884
:10013000C3010008000000000000000000000000F3
:10014000000000000000000000000000C3010008E3
:10015000C3010008C3010008E9020008C301000848
:10016000C3010008C30100080000000000000000F7
:10017000000000000000000000000000000000007F
:1001800000000000C30100080000000000000000A3
:10019000C3010008DFF80CD000F07AF800480047EF
:1001A000F13D0008881300200648804706480047B4
:1001B000FEE7FEE7FEE7FEE7FEE7FEE7FEE7FEE717
:1001C000FEE7FEE7F5390008950100082DE9F05F2C
:1001D0000546002092469B468846064681464024B6
:1001E0001BE0284641464746224600F041F8534668
:1001F0005A46C01A914110D311461846224600F0C3
:1002000028F82D1A67EB01084F46224601200021ED
:1002100000F01FF817EB00094E41201EA4F1010465
:10022000DFDC484631462A464346BDE8F09FD2B25D
:1002300001E000F8012B491EFBD270470022F6E7CF
:1002400010B513460A4604461946FFF7F0FF20464C
:1002500010BD202A04DB203A00FA02F1002070478A
:100260009140C2F1200320FA03F3194390407047F4
:10027000202A04DB203A21FA02F00021704721FAFB
:1002800002F3D040C2F12002914008431946704762
:100290001CB509480090094801900546009C06E0FD
:1002A000E06840F0010394E8070098471034AC423E
:1002B000F6D3FFF773FF0000C83E0008E83E0008D1
:1002C000FEE7000040F63410C2F2000000F06EB805
:1002D00040F61400C2F2000000F068B840F6740066
:1002E000C2F2000000F062B840F6D400C2F2000092
:1002F00000F05CB87047000072B600BFFEE7000077
:1003000070B5866D044600F0F5FA94F835100229B0
:1003100025D105462068216C026822F01602026091
:10032000426922F08002426109B9A16C19B10168E9
:1003300021F008010160016821F00101016000BFA6
:1003400020680068C0070ED000F0D4FA401B0628D1
:10035000F6D320206065032084F835000CE080206F
:100360006065012008E0E06D3F2101FA00F0B06017
:10037000012084F835000020002184F8341070BD7D
:1003800090F83510022909D1052180F83510006850
:10039000016821F001010160002070478021416562
:1003A0000120704790F8350070470000F0B581B02B
:1003B00004460020009040F20000C2F200000268F3
:1003C000D4E9166048F2B51337680821C1F64E33F8
:1003D00081403942A2FB03250CD0226813685B07D9
:1003E00008D5136823F004031360B160616D41F018
:1003F0000101616501218140394208D022685269BA
:10040000120604D5B160616D41F0020161650421FD
:100410008140394208D022681268920704D5B16041
:10042000616D41F00401616510218140394215D0B0
:1004300020680268120711D5B16002680168520392
:1004400006D4C90506D4016821F00801016001E065
:1004500008033ED4216C09B120468847E16D202075
:1004600000FA01F23A4240D020680368DB063CD52E
:10047000B26094F835300268052B1AD122F01602CA
:100480000260426922F080024261226C0AB9A26CC9
:100490001AB1026822F0080202603F208840B06072
:1004A000012084F83500216D002084F83400D9BB88
:1004B0003FE00168520310D4C90512D4016821F04D
:1004C00010010160012084F83500002084F8340018
:1004D00007E0A16C0029BFD1C0E7080301D4616C1B
:1004E00000E0E16B09B120468847606D08B3606D9C
:1004F000C00717D0052084F835002068A90A0268D3
:1005000022F00102026000BF009A01328A4200928A
:1005100002D80268D207F7D1012084F83500002004
:1005200084F83400E16C21B1204601B0BDE8F04010
:10053000084701B0F0BD00002DE9F041044600F08D
:10054000D9F9C4B10546022084F83500002021689D
:1005500084F83400086820F0010008602068016811
:10056000C9070BD000F0C6F9401B0528F6D90321B6
:10057000202203207AE00120BDE8F081016848F2E2
:100580003F02CFF21002D4E9013501EA020ED4E9AC
:10059000032143EA0E032B43D4E9056C1A43D4E943
:1005A00007781143314341EA0702616A42EA0802CF
:1005B000042942EA0C0303D1D4E90B273A4313433D
:1005C00003604269042922F0070241EA02012DD1A9
:1005D000D4E90A5341EA050143B3BCF5005F08D0F2
:1005E000BCF1000F12D1022D16D0012D07D09DB104
:1005F00019E0032D17D8DFE805F00B0F0B02A3F16C
:10060000C072B2FA82F252094AB90FE0032D02D247
:10061000012222B90AE006D1C3F3006232B10121FE
:100620004022012022E00022002AF8D100F0F80246
:100630004AF6AB23103ACAF6AA23A2FB033743F6C5
:10064000C06341613909C0F60003595C40F2FF33D1
:1006500098435F2A4FF03F0288BF0430C4E9160177
:1006600002FA01F18160002201210020626584F814
:100670003510BDE8F081000090F834C0BCF1010FE6
:1006800004BF0220704770B54FF0010C80F834C0F1
:10069000D0F858E090F835C0BCF1010F37D14FF0D9
:1006A000020C80F835C04FF0000CC0F854C0D0F8F0
:1006B00000C08468056CC06DDCF80060402C26F436
:1006C0008026CCF80060CCF804300B4604BF1346FB
:1006D0000A463F2101FA00F0CCF80830CCF80C2093
:1006E000CEF80800DCF8000040F01600CCF800005E
:1006F0002DB1DCF8000040F00800CCF80000DCF878
:10070000000040F00100CCF80000002070BD002186
:1007100080F83410022070BDB0B5044600F0EAF84D
:10072000054640F20400C2F200000078611C18BFC8
:10073000044400BF00F0DEF8401BA042FAD3B0BD75
:100740002DE9F04F82B000F13E4707F1FF778605B3
:1007500046EA972741F20006C4F202060722B04299
:1007600008BF0422042F38BF3A46002400274FF068
:100770000009009209E000BF09F101090237B9F14F
:10078000100F04F1040400F0A4800D68012202FAA5
:1007900009FC15EA0C08EFD0D1F804B00BF0030AFD
:1007A000AAF10105012D12D80322856802FA07FE7D
:1007B000CA6825EA0E05BA402A4382604268CBF334
:1007C000001522EA0C0205FA09F52A434260BAF143
:1007D000030F1CD0C26803238E6803FA07F5AA43EF
:1007E000BE403243BAF1020FC26010D16FF0030273
:1007F00002EA59020244D2F820C004F01C050F237B
:100800000E69AB402CEA0303AE4033431362026827
:1008100003234E68BB409A4306F00303BB401A43D0
:1008200016F4403F0260A7D0002243F64403019231
:10083000C4F202031A6843F6004E42F480421A6082
:100840001A68C4F2010E02F480420192019A29F062
:1008500003024FF6084C7244CFF6FF7C52F80C307E
:1008600004F00C060F25B540AB43009D05FA06F6D3
:10087000334342F80C30DEF808204B6842EA0806A1
:1008800043F60C4CDD0258BF22EA0806CEF8086099
:10089000C4F2010CDCF800209D0242EA080658BFB1
:1008A00022EA0806CCF80060DEF804209D0342EA44
:1008B000080658BF22EA0806CEF80460DEF80020D9
:1008C000DB0342EA080658BF22EA0806CEF80060B9
:1008D00052E702B0BDE8F08F426902EA010391439A
:1008E00041EA034181617047002A08BF0904816120
:1008F0007047000040F68070C2F200000068704748
:100900007047000070470000F0B581B007680446EA
:100910007868E26A94F83E3094F83DE0402B01D0CC
:10092000102B0BD1BD697E69F10735D1B2F12A4F89
:1009300002D0B2F52A0F31D101B0F0BD216C00F424
:10094000007300290CBFBD6900257E69B10734D54D
:100950009BB3206C002818BFBD6994F83D0000F0DF
:100960002800282840F086807868012120F48060E3
:10097000786005F0040081EA900128064FF0180025
:1009800058BF0C20225A0023204684F83C3001B086
:10099000BDE8F040FFF7B6BF810538D4310700F459
:1009A000007C3AD5BCF1000F37D0606B616C002839
:1009B000C9B2396140F0BD80BDE0F10665D5002BBC
:1009C00063D094F83D50786820F4E06078600020AF
:1009D000009078690090386840F001003860009815
:1009E000386820F4806038607868000540F13A810A
:1009F00005F0F7002646222840F0138156F8380FFC
:100A00000168496826F80E1C36F80E1C11E1E06AF0
:100A1000B0F52A0F69D101206CE0B10740F199804F
:100A2000BCF1000F00F0958094F83E30E06A226B34
:100A300094F83D10222940F0A180216D002908BFC3
:100A4000402B00F09B80216D002940F091812169AD
:100A5000B1F5404F40F08C81002000907869009003
:100A6000B86900900098386840F480703860206D54
:100A7000013014E20020009079690091B969009179
:100A8000009984F83C0001B0F0BD0EF0F701212977
:100A90007DD106F08401802940F02D8110F4806022
:100AA00000F0298194F83D00618D00293FF444AFA6
:100AB000616A11F8012B3A616162618D01396185CA
:100AC000618D002908BF29287FF436AF7868282176
:100AD00020F48060786021202063204684F83D1057
:100AE00001B0BDE8F04000F007BBE06AB0F12A4F6A
:100AF00001D10820E06294F83E0040280AD1206D20
:100B0000616C002801F0FE0018BF40F00100386160
:100B100001B0F0BD2069B0F5804F62D194F83D007E
:100B2000616C212801F0FE0118BF01313961606B51
:100B300008B1C06B38B9A06B00283FF4FDAEC06BA4
:100B400000283FF4F9AE786840F40060786001B0A6
:100B5000F0BD79686A0752D409053FF5EDAE06F09D
:100B60004401402940F01D8110F4806000F019819B
:100B7000204601B0BDE8F04001F09CBD002000908F
:100B800078690090B8690090009801B0F0BD06F057
:100B90004401402940F0BE8010F4806000F0BA802B
:100BA00094F83D00618D00293FF4C6AE3969626A50
:100BB0001170616A01316162618D01396185618DF8
:100BC000002908BF2A287FF4B7AE2068416821F4C5
:100BD00080614160222028212063204684F83D1056
:100BE000C1E0206D002800F0AA80206D01287FF46C
:100BF000A3AE606C062101EAD010F13087E7090549
:100C00003FF59AAE06F08401802940F0D78010F4B9
:100C1000806000F0D380204601B0BDE8F04001F0D4
:100C200011BE56F8340F0168496826F80A1C36F8D8
:100C30000A1C19B1216C41F004012164796821F486
:100C400000617960FFF7AEFB01280BD0306842F2FB
:100C50008131C0F600010165FFF792FB10B13068E9
:100C6000016D8847608DF8B120684169490708D552
:100C70000069616A0870606A01306062608D0138E5
:100C8000608520684169490608D50069616A087075
:100C9000606A01306062608D01386085608D18B1D6
:100CA000206C40F004002064206C28B1204601B084
:100CB000BDE8F04001F0D6BB2A2D07D1002020630B
:100CC000282084F83D00204600F014FA94F83D00F6
:100CD00028283AD10020CFF6FF70E06200212020C2
:100CE000216384F83D00204684F83E1001B0BDE841
:100CF000F04000F095B970077FF51EAE002B3FF471
:100D00001BAE608D00283FF417AE606A10F8011B1F
:100D100039610EE070077FF50FAE002B3FF40CAE8B
:100D2000608D00283FF408AE3869616A0870606A17
:100D300001306062608D0138608501B0F0BD606C8B
:100D4000062101EAD010F030E1E6206B222818BF1E
:100D5000222D7FF4F1AD00212020216384F83D0095
:100D6000204684F83E1001B0BDE8F04000F0C2B962
:100D7000618D51B1618D012930D1202818BF08281B
:100D800048D1386820F4806038600020009078698D
:100D90000090B86900900098386840F4007038609E
:100DA0007CE070077FF5C8ADBCF1000F3FF4C4AD27
:100DB000204601B0BDE8F04001F002BC70077FF5AD
:100DC000BBADBCF1000F3FF4B7ADBEF1210F14D1A4
:100DD000204601B0BDE8F04001F0F4BC618D02296D
:100DE00014D1102838D8012114228140C0F2010208
:100DF000114231D04FF4806234E0402B7FF49CAD3F
:100E0000204601B0BDE8F04001F074BD396841F4FE
:100E1000806129E010F5803F0BD1386820F48060B4
:100E2000386078680005B0D5386820F48060386094
:100E30002DE0122A01D10128A3D11028F4D80121D4
:100E400001FA00F01421C0F201010842ECD0386828
:100E500040F4806038601AE039684FF4006221F491
:100E600080613960396811433960796809050ED5A8
:100E7000421E1F2A16D80121914048F28102C8F271
:100E8000000211420ED0786840F480507860002053
:100E9000009078690090B869009000980020206563
:100EA00001B0F0BD10F5803FEDD0F0E770470000D5
:100EB000002804BF01207047F0B581B0044690F8C7
:100EC0003D0028B9002084F83C00204600F0B2F82C
:100ED000242084F83D002068016821F001010160B0
:100EE000016841F400410160016821F400410160A2
:100EF00000F06EFA636848F2A16CC0F2010C40F693
:100F00000011C0F23D0163453CBF48F28041C0F290
:100F10001E01884202D2012001B0F0BD4DF683616E
:100F2000C4F21B31A0FB01122168970CD1F804E038
:100F30004FF496762EF03F0545EA92454D60774393
:100F400048F638160D6AC0F24106A7FB067625F072
:100F50003F07634538BF960C721C3A430A62CA6960
:100F600048F2A0664CF6FF77C0F20106B34222EACF
:100F7000070C0AD801385A00B0FBF2F001306FF3C9
:100F80001F30042898BF042020E0A2681927002AF7
:100F900008BF032701385F43B0FBF7F701373F0570
:100FA00009D052B119225A43B0FBF2F004220130A9
:100FB00062F31F3008E0012008E003EB4302B0FBBE
:100FC000F2F001306FF31F3040F4004040EA0C00B3
:100FD000C8610868D4E9072320F0C0001043184313
:100FE0000860886848F2FF3204F10C0790438CCF08
:100FF00018431043A6698860C86820F0FF00384392
:101000003043C860086840F00100086000202021DB
:10101000206484F83D10206384F83E0001B0F0BDE8
:1010200070470000704700007047000070470000E4
:101030007047000070B586B0044645F20040216854
:10104000C4F20000002681420596CDE903660296AF
:10105000019601D006B070BD43F630050096C4F28B
:101060000205296800F5D83041F00201296029689D
:1010700001F0020100910099C02101911221CDE9F6
:101080000216032104910421059101A9FFF758FBE1
:10109000009628694FF0007140F40010286128691B
:1010A00040F6140500F400100090009846F2A000ED
:1010B000C2F20005C4F2020040224FF4806385E8CA
:1010C00047002846C5E90436C5E90666C5E908664D
:1010D000FFF732FA002818BFFFF70EF91F20002192
:1010E00000226563AC6300F087F81F2000F074F8FD
:1010F00006B070BD704700007047000040F2040069
:1011000040F68071C2F20000C2F2000100780A6865
:10111000104408607047000080B543F60040C4F2F8
:101120000200016841F400710160016841F48061CE
:101130000160016841F480710160032000F088F8CB
:101140000F2000F005F800F02BF8002080BD000013
:10115000B0B540F20402C2F2000240F2000112787F
:10116000C2F200014FF47A730968B3FBF2F204464D
:10117000B1FBF2F1084600F06FFD0F2C4FF00105B6
:101180000CD858B94FF0FF3021460022002500F05E
:1011900033F840F20800C2F2000004602846B0BDF7
:1011A00082B0002043F640010190C4F202014A6877
:1011B00042F480424A604A6802F480420192019AF5
:1011C0000090086840F080500860086800F0805087
:1011D0000090009802B07047002848BF704700F0A8
:1011E0001F01012202FA01F14EF200124009CEF273
:1011F000000242F82010704710B54EF60C5CCEF29B
:10120000000CDCF80030C3F3022E8EF00704042C2F
:1012100028BF0424BEF103034FF0FF3E0EFA04F48E
:1012200038BF0023A14399400EFA03F39A431143B8
:1012300000F1604200F00F03090102F56442043B33
:101240006344002848BF03F10C02117010BD000078
:101250004EF60C51CEF200010A684FF6FF031A4019
:1012600060F30A2242F0806040F0FD700860704731
:10127000002804BF012070472DE9F04143F608081B
:10128000C4F202080446D8F8F8030D4600F007003F
:10129000884207D288F8F853D8F8F80300F007001E
:1012A000A84276D12068810717D5410705D5D8F81F
:1012B000001041F4E051C8F80010010705D5D8F836
:1012C000001041F46041C8F80010D8F80010A2687E
:1012D00021F0F0011143C8F80010C0073FD1D8F841
:1012E000F80300F00700A84207D988F8F853D8F8A7
:1012F000F80300F00700A8424BD12068410707D54A
:10130000D8F80010E26821F4E0511143C8F8001049
:10131000000708D5D8F80000216920F4604040EAB1
:10132000C100C8F8000000F07BF8D8F8001043F6C0
:10133000A862C1F30311C0F60002515C40F2000242
:1013400020FA01F140F20800C2F200000068C2F287
:1013500000021160FFF7FCFE0020BDE8F08160682C
:10136000811E022907D258F8081C89015CBF0120A0
:10137000BDE8F08110E0012807D158F8081C890366
:101380005CBF0120BDE8F08106E058F8081C890721
:1013900002D40120BDE8F081D8F8001021F003014B
:1013A0000843C8F80000FFF7A5FA064641F288375F
:1013B000D8F80000616800F00C00B0EB810F8ED00F
:1013C000FFF798FA801BB842F2D90320BDE8F081FC
:1013D00040F2000043F60801C2F20000C4F202012C
:1013E0000068096843F6B862C1F38221C0F60002C2
:1013F000515CC8407047000040F2000043F608010D
:10140000C2F20000C4F202010068096843F6B86243
:10141000C1F34231C0F60002515CC8407047000081
:1014200010B543F60404C4F20204606800F00C0036
:1014300008280AD0042819BF42F20040C0F2F40084
:1014400047F64000C0F27D1010BD20682168236877
:10145000490247F64001C0F27D1100F03F02C3F39C
:1014600088105CBF42F20041C0F2F401A1FB000110
:101470000023FEF7ABFE21680222C1F3014102EB1B
:101480004101B0FBF1F010BD002804BF01207047FE
:101490002DE9F04182B00446007843F60006C0070B
:1014A000C4F2020647D0B06800F00C00042808D14E
:1014B000306880033FD56068E8BB012002B0BDE81A
:1014C000F081B06800F00C00082802D1706840027A
:1014D000EED46568B5F5A02F0AD0B5F5803F0BD0E6
:1014E000306820F480303060306820F4802006E0DE
:1014F000306840F480203060306840F480303060E4
:10150000FFF7F8F9002D054612D000BF30688003C0
:1015100011D4FFF7EFF9401B6428F7D926E100BF8B
:10152000FFF7E8F9401B64284FF0030000F2E28067
:1015300030688003F4D4207880071BD5B06810F0A1
:101540000C0F09D0B06800F00C00082840F087802C
:101550007068400200F183803068800703D5E0683E
:10156000012840F09E803068216920F0F80040EAB0
:10157000C10030602078000735D42078400748D477
:10158000A56965B3B06800F00C00082840F09E80A3
:10159000012D00F086807068E16900F480028A42C3
:1015A00040F07F80216A00F03F028A4279D147F6FD
:1015B000C071626A0140B1EB821F72D1A16A4FF61D
:1015C000FF73C903994300F44032A1F580318A4288
:1015D00067D1E16A00F07060B0EB016F61D100206B
:1015E00002B0BDE8F0816069002840F20000C4F25A
:1015F00047205AD00121C0F8801EFFF77BF905462D
:10160000706F8007B9D4FFF775F9401B0228F7D92E
:10161000ACE0306C5FEAC0080AD400200190306C66
:1016200040F080503064306C00F0805001900198A0
:1016300047F20007C4F200073868C00524D43868B0
:1016400040F480703860FFF755F905463868C005EA
:101650001AD4FFF74FF9401B0228F7D986E0E0685B
:10166000002857D00020C4F2472001210160FFF775
:1016700041F90546306880073FF575AFFFF73AF945
:10168000401B0228F6D971E0A568052D56D0012D22
:1016900058D0306F20F001003067306F20F0040028
:1016A00053E0012002B0BDE8F0810021C0F8801EA7
:1016B000FFF720F9054600BF706F80077FF55DAF2B
:1016C000FFF718F9401B0228F6D94FE00027C4F2B3
:1016D000472700203866FFF70DF9022D05460DD18A
:1016E0003068800159D5FFF705F9401B02284FF0FB
:1016F0000300F5D902B0BDE8F08100BF3068800179
:101700007FF56DAFFFF7F6F8401B02284FF003009E
:10171000F4D9EFE70020C4F2472000210160FFF771
:10172000E9F80546306880077FF524AFFFF7E2F857
:10173000401B02284FF00300F4D9DBE7306F40F084
:1017400004003067306F40F001003067FFF7D2F8D7
:10175000002D054641F2883713D000BF306F800757
:1017600012D4FFF7C7F8401BB842F7D9032002B0E4
:10177000BDE8F081FFF7BEF8401BB8424FF0030010
:10178000B8D8306F8007F5D4B8F1000F3FF5F8AE48
:10179000306C20F080503064F2E604F11C052FCD4F
:1017A000084340EA8210D9034FF6FF729143A1F536
:1017B000803140EA05600843706001203866FFF719
:1017C00099F80446306880013FF509AFFFF792F8B9
:1017D000001B02284FF00300F4D98BE7704700008C
:1017E000B0B582B0044600684168826802F04103E7
:1017F000012B04D111F0400301D0216C05E09307C7
:1018000008D511F0800305D0616C204602B0BDE818
:10181000B040084712F4B07F18BF11F0200301D187
:1018200002B0B0BD530617D594F85130032B08D140
:1018300000210191C168019180680190019802B076
:10184000B0BD636D43F00403636500230193C36877
:10185000019383680193019B93060CD5636D43F05C
:10186000010363650023019383680193036823F0F8
:1018700040030360019BD20508D5626D42F0080267
:1018800062650022019282680192019A626D002ACB
:10189000C6D04268890722F0E00242604FF00102A0
:1018A00084F851201FD0416842F6D14521F0030150
:1018B0004160E06CC0F6000538B10565FEF760FDDB
:1018C00018B1606D40F040006065A06C0028A7D0A2
:1018D0000565FEF755FD0028A2D0606D40F0400080
:1018E000606502B0B0BD204602B0BDE8B040FFF771
:1018F00075BF000070B538B10446406A30B10020B1
:10190000206104F1140007E0012070BD6068B0F5AB
:10191000827F03D004F11C00002101600026A66232
:1019200094F8510020B9204684F8506000F03CF84B
:10193000022084F8510094E80F0001F482710568D8
:1019400002F4044225F040050560114403F40062EE
:101950002369114403F002026369114403F0010298
:10196000A369E569114403F40072114405F03802DB
:10197000256A114405F08002A56A114305F400525E
:1019800011430160626A042101EA134102F010026E
:1019900011444160C16921F40061C16101206665A3
:1019A00084F85100304670BD2DE9F04387B00446FD
:1019B000006843F60001C4F2000100268842CDE928
:1019C0000566CDE90366029660D043F60041C4F295
:1019D0000001884200F09C8043F20001C4F2010142
:1019E000884240F0BF8043F630000196C4F2020006
:1019F000416941F480514161416901F48051019193
:101A000001990196016841F001010160006802A995
:101A100000F0010001900198A02002900220CDE981
:101A20000306032005900520069040F60000C4F24E
:101A30000200A0F50060FEF783FE40F6740546F252
:101A40005840C2F20005C4F202004FF0C0614022CB
:101A50004FF4806385E847002846C5E90436C5E9A8
:101A60000666C5E90866FEF767FD002818BFFEF7A1
:101A700043FC232000210022A564AC63FFF7BCFBDC
:101A80002320FFF7A9FB07B0BDE8F08343F6300041
:101A90000196C4F20200016940F6000441F480415D
:101AA00001610169C4F2020401F4804101910199CC
:101AB0000196016802AD41F00401016001684FF038
:101AC000020801F0040101910199019601684FF0AB
:101AD000030941F0020101600068052700F00200DF
:101AE000019001980C20029020462946CDE90386FA
:101AF000CDF814900697FEF723FE4FF48060CDE9F1
:101B00000208CDE904690697A4F58060294627E01C
:101B1000002043F630010190C4F202010A6942F448
:101B200000420A610A6902F400420192019A01909E
:101B30000A6842F004020A60096801F00401019198
:101B400001994FF4E05102910221CDE903100320E5
:101B500005900620069040F60000C4F2020002A99B
:101B6000FEF7EEFD07B0BDE8F083000010B50446B7
:101B700090F8510001280AD100294FF0010018BF48
:101B8000002A00D110BD94F85000012801D1022094
:101B900010BD012084F850000320002384F8510078
:101BA00063652163A286E286A363C4E91033A38739
:101BB000E387A068B0F5004F08D12068026822F0E2
:101BC00040020260026842F480420260A06C42F669
:101BD000FD4C42F60552C0F6000CC0F60002C0E90A
:101BE0000F2C42F6DD42C0F60002D4F800E0C0E956
:101BF0001323E38E0EF10C02FEF73EFD40B1606D43
:101C000040F010006065002084F85000012010BDF5
:101C100021680868400603D4086840F04000086066
:101C2000002084F850004A6842F020024A604A6866
:101C300042F002024A6010BD40F6E811C2F2000113
:101C4000884218BF704740F21000C2F20000012124
:101C50000170704770470000411E0020B0EB116F0B
:101C60001CBF012070474EF21002CEF200025160FC
:101C70004EF62351CEF20001F0230B700721906045
:101C80001160704770B582B0044690F84200202879
:101C900022D100294FF0010518BF002A1DD00026CF
:101CA00020462563666302F027F8216B012914D1D1
:101CB000019621680A68019249680191019900BF63
:101CC000216851E8031F226841F0100142E8031324
:101CD000002BF5D1054600E00225284602B070BD74
:101CE000006844F20042C4F20002904218BF7047FC
:101CF000B0B540F6803540F63830C2F200050C46EB
:101D0000C2F2000029464FF48062FFF7BBFF40F6A5
:101D1000F020C2F20000294622464FF6FF7300F081
:101D2000ADFA40F63410C2F200000068016821F0FC
:101D30000801016028464FF48061FEF77FFAB0BDCC
:101D4000006844F20041C4F20001884218BF7047A5
:101D500010B540F6803440F63830C2F20004C2F2CA
:101D6000000021464FF48062FFF78CFF40F63410EC
:101D7000C2F200000068016821F0080101602046FD
:101D80004FF48061FEF75AFA10BD0000B0B582B082
:101D9000044600680168C368426901F02F05202DE0
:101DA00003F0200506D12DB1204602B0BDE8B040B9
:101DB00001F0CEBE5FEA017C1EBF02F0010E03F40B
:101DC000907212EB0E0240D1226BCD0618D5012A7B
:101DD00016D113F0100213D0002101910168019176
:101DE0004168019101994069400636D4A08DE18D8A
:101DF000E28D002A18BF884240F01A8102B0B0BDBF
:101E00000A0672D513F080026FD094F84110212990
:101E1000F4D1A168B1F5805F03D12169002900F0F8
:101E20003C81216A4A1C226209784160E18C0139B7
:101E30000A04E184E2D1C16821F08001C160C16877
:101E400041F04001C16002B0B0BDC80718BF13F433
:101E5000807069D148076DD473E0E06B0168496810
:101E60008AB2002A55D0A38D9A4252D2E185C06928
:101E7000B0F5807F31D000BF206850E8030F2168A3
:101E800020F4807041E80302002AF5D1206850E870
:101E9000050F216820F0010041E80502002AF5D174
:101EA000206850E8050F216820F0400041E8050255
:101EB000002AF5D1202084F842000020206300BFD2
:101EC000206850E8030F216820F0100041E8030269
:101ED000002AF5D1E06BFEF713FA02206063A08DB3
:101EE000E18D401A81B22046CCE049067FF586AFED
:101EF00013F040013FF482AFC16821F04001C1609E
:101F00002021204684F8411002B0BDE8B04000F026
:101F10002DBAA18D91427FF471AFC069B0F5807F79
:101F20007FF46CAF0222ABE0606C40F001006064B3
:101F3000480706D5BEF1000F03D0606C40F00200E8
:101F40006064880706D5BEF1000F03D0606C40F0D6
:101F500004006064BCF1000F06D55EEA050003D002
:101F6000606C40F008006064606C00283FF446AF8D
:101F7000880603D515B1204601F0EAFD20684069C6
:101F8000616C00F0400001F00801401849D000BF2A
:101F9000206850E8030F216820F4907041E80302A4
:101FA000002AF5D1206850E8050F216820F00100D3
:101FB00041E80502002AF5D1206B01280AD100BFB3
:101FC000206850E8030F216820F0100041E8030268
:101FD000002AF5D1202084F84200002020632068E8
:101FE0004069400653D500BF206850E8050F2168BE
:101FF00020F0400041E80502002AF5D1E06B0028FE
:1020000045D043F60921C0F600010165FEF7B8F995
:1020100000283FF4F3AEE06B016D02B0BDE8B040C4
:1020200008472046FFF78CFE0020606402B0B0BD78
:10203000401A00BF216851E8031F226821F4907103
:1020400042E80313002BF5D1216851E8051F2268EF
:1020500021F0010142E80513002BF5D1202184F87D
:1020600042100021216300BF216851E8031F22684C
:1020700021F0100142E80313002BF5D1022281B2B6
:102080002046626302B0BDE8B040FFF729BE20469B
:1020900002B0BDE8B040FFF753BE216A31F8022B11
:1020A0006FF35F2242602162C0E60000002804BF97
:1020B0000120704710B5044690F8410028B900206F
:1020C00084F84000204600F021F8242084F84100E4
:1020D0002068C16821F40051C160204601F098FDDC
:1020E0002068016921F490410161416921F02A01D0
:1020F0004161C16841F40051C16000202021606449
:1021000084F8411084F84210606310BD70B586B049
:102110000446006844F20041C4F2000100268842EF
:10212000CDE90466CDE90266019653D041F2000183
:10213000C4F20101884240F09B8043F630000096D3
:10214000C4F20200416941F010014161416901F0AE
:102150001001009100990096016841F001010160B1
:10216000006801A900F00100009000984FF4C060E1
:1021700001900220CDE9020603200490072005907B
:102180000020C4F20200FEF7DBFA46F28800C4F237
:10219000020040F6D40500F58660C2F200054FF05B
:1021A000006140224FF4806385E847002846C5E976
:1021B0000436C5E90666C5E90866FEF7BDF90028DC
:1021C00018BFFEF799F8A563AC6325200121002212
:1021D000252448E043F630000096C4F2020001696D
:1021E00041F400310161016901F40031009100996D
:1021F0000096016841F001010160006801A900F04A
:102200000100009000980C2001900220CDE9020608
:1022100003200490072005900020C4F20200FEF77E
:102220008FFA40F6341546F28800C2F20005C4F277
:1022300002004FF000614FF4806285E843002846B9
:10224000C5E90362C5E90566C5E907666E62FEF782
:1022500073F9002818BFFEF74FF8E563AC6326203A
:10226000002100222624FEF7C7FF2046FEF7B4FF18
:1022700006B070BD70470000704700002DE9F043C4
:1022800081B0044690F8410020281CD188460029DE
:102290004FF0010066D01646002A63D0002060642B
:1022A00021201D4684F84100FEF724FBA684E68425
:1022B000A1680646B1F5805F01D1206938B1C146F9
:1022C0004FF0000805E0022001B0BDE8F0834FF0B8
:1022D0000009E08C48B36F1C0CE0B9F1000F1BD073
:1022E00019F8010B21684860E08C0138E084E08C2B
:1022F000D8B100BF206800680006EED4002FF9D0E6
:10230000FEF7F8FA01464FF0030045B3891BA942D6
:1023100025D82068C068EDE738F8020B21686FF314
:102320005F2048604FF00009DEE720680068400643
:1023300014D46F1C04E000BF2068006840060DD470
:10234000002FF9D0FEF7D6FA01464FF0030035B161
:10235000891BA94203D82068C068EDE7002020212E
:1023600084F8411001B0BDE8F08300007047000020
:10237000FEE7000040F69410C2F20000FEF7C4BA77
:1023800010B581B000210091806B40F20001C2F2D3
:10239000000190F83DC009684BF28952C908C1F2AA
:1023A000F842A1FB0212110A23225143009100BFFF
:1023B000009939B1009901390091016809688905CE
:1023C000F6D403E0016C41F020010164446B4FF04E
:1023D000000E002C1CBF0021E163816B00291CBF93
:1023E0000022CA630268002C136823F48063136020
:1023F000A0F82AE018BFC4F850E000291CBF002351
:102400000B65116821F00101116090F83D10602901
:102410000BD1202180F83D10002180F83E1001648E
:1024200001B0BDE81040FEF76BBA0CF02801282976
:102430000DD1116841F001011160116841F4806112
:10244000116000210163282180F83D1005E0202162
:1024500080F83D10002180F83E1001B0BDE810402A
:10246000FEF724BD10B5044690F83D0094F83E10E8
:10247000B1F1100218BF0122403918BF01210A42F0
:1024800008BF222804D121680A6822F400620A6089
:1024900000F02801282905D100202063282084F895
:1024A0003D000DE021684968090507D4602805D082
:1024B000202084F83D00002084F83E0000202063A6
:1024C0002068416809051AD494F83D10602935D177
:1024D000202184F83D10002121644169490605D579
:1024E0000069616A0870606A013060622068016892
:1024F00021F0010101602046FEF702FA3EE041684A
:1025000021F400614160606B90F83510012922D1FF
:10251000A06B42F28131C0F600010165FDF730FF8A
:1025200060B320684169490605D50069616A087091
:10253000606A013060622168A06B16E0416949065B
:1025400005D50069616A0870606A013060622046E2
:10255000FEF7ACFC12E042F28131C0F600010165E9
:10256000FDF70EFF50B12168606B0A6822F001028E
:102570000A60202184F83D10016D8847206C000717
:1025800004D02068416821F4E061416094F83D0086
:10259000216C490758BF10BD28280FD10020CFF665
:1025A000FF70E06200212020216384F83D00204676
:1025B00084F83E10BDE81040FEF732BD10BD0000AB
:1025C000C16A428D042A07D10168426A4B6823F42C
:1025D00080634B60096911E0428D032A16D10268BD
:1025E0000229536823F48063536005D0042903D083
:1025F000116821F4806111601169426A1170416AA9
:1026000001314162418D013941857047428D022A75
:1026100011D14A1E0F2A16D8DFE802F00810151053
:1026200015151515151515151515150802681368D6
:1026300023F480630BE00168426ACBE70268136809
:1026400043F4806303E00268136843F4007313608B
:102650000268436A12691A70426AD0F800C0531CBB
:102660004362438D013B4385DCF810305370426A6E
:10267000036801324262428D013A42855A6822F46F
:1026800040725A60202280F83D2090F83E300022AF
:10269000402B80F83E2002D10263FEF7C7BCB1F1A7
:1026A000080218BF1222203918BF11460163FEF735
:1026B000B9BC000081B090F83D10222910D1C16A48
:1026C000428D042A0ED30168426A09691170416A79
:1026D00001314162418D01394185418D032923D06A
:1026E00001B07047C36A012A1ED8022B1CD00022F9
:1026F000009240F20002C2F2000212684BF28953CB
:10270000D208C1F2F843A2FB03231A0A02EB8202A9
:10271000009200BF009A013A0092009A5AB10368F1
:102720001B689B05F6D40AE00068416821F48061CB
:10273000416001B07047036C43F0200303640368F9
:10274000F2B11A6822F480621A605A6822F4E062D8
:102750005A601A69436A1A70426A01324262428DB3
:10276000013A4285202280F83D2090F83E30002238
:10277000402B80F83E2019D1026301B0FEF756BC11
:10278000596821F4E06159601969426A1170416A1F
:1027900001314162418D01394185202180F83D1090
:1027A000002180F83E1001B0FEF780BBB1F10802B5
:1027B00018BF1222203918BF1146016301B0FEF77D
:1027C00031BC0000C16A90F83D20212A18BF704733
:1027D000428D4AB1416A026811F8013B13614162BE
:1027E000418D01394185704711F5803F18BF082997
:1027F00017D101684A6822F4E0624A600A6842F42C
:1028000000720A6000212022016380F83D2090F8C8
:102810003E2080F83E10402A08BFFEF709BCFEF7B4
:1028200003BC2029E5D001684A6822F4E0624A60CE
:1028300011210163002180F83E10202180F83D1015
:10284000FEF7F2BB90F83D1090F83EC0C26A038DCF
:10285000002B08BF212919D0212905D0BCF1400F38
:1028600008BF222900D07047418D61B390F83E1017
:10287000402908BF00F03EB8416A026811F8013BE8
:1028800013614162418D01394185704712F5803FE6
:1028900018BF082A1DD101684A6822F4E0624A6024
:1028A0000A6842F400720A6000212022016380F865
:1028B0003D2090F83E2080F83E10402A08BFFEF7E9
:1028C000B7BBFEF7B1BB0068416821F4806141608D
:1028D0007047202ADFD001684A6822F4E0624A602B
:1028E00011210163002180F83E10202180F83D1065
:1028F000FEF79ABB90F83D10026D3AB1026D012AC5
:102900000FD10168826CD2B20A6119E0C26C816C8D
:10291000012A11D10268C9B21161016D023101654C
:102920007047026D022A0FD1222914D101680A686A
:1029300042F480720A6003E00268C1F3072111616A
:10294000016D01310165704700684169090644BFA6
:10295000002101617047428D5AB1212909D1416A94
:10296000026811F8013B13614162418D01394185D3
:102970007047428D002A08BF2129EBD101684A68BF
:1029800022F4E0624A600A6842F400720A600021A0
:102990002022016380F83D2080F83E10FEF748BBFE
:1029A00080B582B0002043F630010190C4F20201EC
:1029B0000A6842F400120A600A6802F400120192E6
:1029C000019A00900868002240F4800008600868BE
:1029D000002100F48000009000981020FEF70CFC0D
:1029E0001020FEF7F9FB112000210022FEF704FC65
:1029F0001120FEF7F1FB3B2000210022FEF7FCFB3B
:102A00003B20FEF7E9FB462000210022FEF7F4FB05
:102A1000462002B0BDE88040FEF7DEBB2DE9F04F56
:102A200087B0002643F630000696CDE90466CDE96E
:102A300002660196C4F20200016840F6000841F007
:102A4000040101600168C4F2020801F0040101916F
:102A5000019901960168002241F0010101600168BD
:102A60004FF4804B01F00101019101990196016839
:102A700041F00201016000684FF4804100F0020063
:102A8000019001984046FDF72FFFA8F500673846F2
:102A9000502101224FF0500A0124FDF725FF404646
:102AA0004FF404710122FDF71FFFA8F58065284649
:102AB000042101224FF00409FDF716FFCDE9044679
:102AC00002AE40463146CDE902B4FDF739FECDE90C
:102AD00002A44FF0030A384631460494CDF814A0FE
:102AE000FDF72EFE1020CDE9020440463146CDE927
:102AF000044AFDF725FE022728463146CDE9029417
:102B000004940597FDF71CFE4FF40070CDE9020414
:102B100040463146CDE90447FDF712FE07B0BDE857
:102B2000F08F000080B540F6941045F20041C2F2EB
:102B30000000C4F2000148F2A06200234FF4804C70
:102B4000C0F2010280E80E00C0E9033CC0E9053391
:102B5000C0E90733FEF7ACF9002808BF80BDBDE827
:102B60008040FDF7C9BB000080B540F6E81043F295
:102B70000001C2F20000C4F201014FF4827200238E
:102B80004FF4007C80E80E000A21C0E90333C0E95D
:102B9000053CC361C0E90833C0E90A31FEF7AAFE6B
:102BA000002808BF80BDBDE88040FDF7A5BB000040
:102BB00080B540F6402043F60001C2F20000C4F2A6
:102BC00000014FF4827200234FF4007C80E80E0075
:102BD0000A21C0E90333C0E9053CC361C0E90833F9
:102BE000C0E90A31FEF786FE002808BF80BDBDE8B7
:102BF0008040FDF781BB000080B540F6982043F689
:102C00000041C2F20000C4F200014FF482720023BE
:102C10004FF4007C80E80E000A21C0E90333C0E9CC
:102C2000053CC361C0E90833C0E90A31FEF762FE22
:102C3000002808BF80BDBDE88040FDF75DBB0000F7
:102C400080B540F6F02041F20001C2F20000C4F26B
:102C5000010100234FF00C0C4FF4E13280E80E002C
:102C6000C0E90333C0E905C3C361FFF71FFA0028B9
:102C700008BF80BDBDE88040FDF73EBB80B540F693
:102C8000383044F20041C2F20000C4F200010023D7
:102C90004FF00C0C4FF4E13280E80E00C0E9033332
:102CA000C0E905C3C361FFF701FA002808BF80BD72
:102CB000BDE88040FDF720BBFEE70000FEE7000016
:102CC0007047000040F6E810C2F20000FEF788BD31
:102CD000806B0021C187C186FEF780BD806B0168D3
:102CE0004A6822F003024A60416D41F010014165DB
:102CF000012180F85110FEF771BD0000806BFEF7D6
:102D0000A9BF0000B0B584B0846B0546FDF7F2FDA5
:102D100029680968C90530D4054620680122416840
:102D2000642321F020014160416821F002014160EB
:102D300020460221009500F051F820B3606D40F06C
:102D400020006065606D40F020006065A06838B9C3
:102D5000002002902068C168029180680290029869
:102D60000020E086012084F85100606D28B12046E3
:102D700004B0BDE8B040FEF731BD204604B0BDE868
:102D8000B040FEF759BF40F20000C2F200000068F8
:102D900049F68171C1F25E61A0FB0101480D4FF45B
:102DA0007A71484303906068B0F5827F0AD120466B
:102DB000802100226423009500F010F80028BDD186
:102DC000C4E700BF03980028C0D0039801380390DF
:102DD000206880680006F5D4B8E700002DE9F047C8
:102DE00082B00A9C984615460E468146FDF782FD44
:102DF000201A00EB0804FDF77DFD40F20001C2F24D
:102E000000010968C1F3CB3161430191D9F8001089
:102E100089683140891BB1FA81F14909A94203D17E
:102E2000002002B0BDE8F087824608F101070CE0FF
:102E3000019801380190D9F8000080683040801B6B
:102E4000B0FA80F04009A842EAD0002FF3D0FDF795
:102E500051FDA0EB0A00A04204D201980028E7D15E
:102E60000024E8E7D9E900014268B1F5827F22F049
:102E7000E00242600BD1D9F80810B1F5004F02D042
:102E8000B1F5806F03D1016821F040010160D9F8EC
:102E90002810B1F5005F07D1016821F400510160ED
:102EA000016841F400510160012089F851000020BF
:102EB00089F85000032002B0BDE8F0872DE9F04703
:102EC00040F21103010A6FF00102C2F2000340F266
:102ED000FE7700BF9E180232BA42B170F070F9D38B
:102EE00040F2000800200021EF2240F23F13C4F21C
:102EF00002084FF0000900F067FC40461021002254
:102F0000FDF7F2FC404640210122FDF7EDFC40F2C6
:102F1000100540F6E81A40F211064FF41637C2F2D7
:102F20000005C2F2000AC2F2000600BF3C46B7F537
:102F3000006F28BF4FF4006450463146224685F8A2
:102F40000090FEF713FE00BF28780028FCD03F1B3E
:102F5000ECD1404610210122BDE8F047FDF7C4BC8A
:102F600070B584B000240A20C4F20204FDF7D4FB3B
:102F700036208DF800002046102100220025FDF7A4
:102F8000B3FC204640210022FDF7AEFC40F6E810DD
:102F9000C2F2000069460122FEF7E8FD002818BFD2
:102FA000FDF7AAF9204610210122FDF79DFC2046DD
:102FB000102100228DF80050FDF796FC204640219C
:102FC0000122FDF791FC40F6E810C2F200006946CC
:102FD0000122FEF7CBFD002818BFFDF78DF9204632
:102FE00010210122FDF780FC3A208DF800002046D8
:102FF00010210022FDF778FC204640210022FDF739
:1030000073FC40F6E810C2F2000069460122FEF7A8
:10301000ADFD002818BFFDF76FF9204610210122F1
:10302000FDF762FC05208DF80000204610210022EB
:10303000FDF75AFC204640210122FDF755FC40F6E1
:10304000E810C2F2000069460122FEF78FFD002859
:1030500018BFFDF751F9204610210122FDF744FC6D
:10306000B2208DF80000204610210022FDF73CFC24
:10307000204640210022FDF737FC40F6E810C2F25E
:10308000000069460122FEF771FD002818BFFDF718
:1030900033F9204610210122FDF726FC0C2520469D
:1030A000102100228DF80050FDF71EFC2046402123
:1030B0000122FDF719FC40F6E810C2F20000694653
:1030C0000122FEF753FD002818BFFDF715F9204631
:1030D00010210122FDF708FC2046102100228DF866
:1030E00000500025FDF700FC204640210122FDF79D
:1030F000FBFB40F6E810C2F2000069460122FEF731
:1031000035FD002818BFFDF7F7F8204610210122F1
:10311000FDF7EAFB2046102100228DF80050FDF754
:10312000E3FB204640210122FDF7DEFB40F6E810DC
:10313000C2F2000069460122FEF718FD002818BF00
:10314000FDF7DAF8204610210122FDF7CDFB3325EB
:103150002046102100228DF80050FDF7C5FB2046C7
:1031600040210122FDF7C0FB40F6E810C2F200004A
:1031700069460122FEF7FAFC002818BFFDF7BCF8EB
:10318000204610210122FDF7AFFB2046102100222E
:103190008DF80050FDF7A8FB204640210122FDF7E5
:1031A000A3FB40F6E810C2F2000069460122FEF7D8
:1031B000DDFC002818BFFDF79FF8204610210122F2
:1031C000FDF792FBB7208DF8000020461021002269
:1031D000FDF78AFB204640210022FDF785FB40F6E3
:1031E000E810C2F2000069460122FEF7BFFC002889
:1031F00018BFFDF781F8204610210122FDF774FB6E
:1032000035208DF80000204610210022FDF76CFBD0
:10321000204640210122FDF767FB40F6E810C2F28C
:10322000000069460122FEF7A1FC002818BFFDF747
:1032300063F8204610210122FDF756FBBB208DF8D4
:103240000000204610210022FDF74EFB20464021C1
:103250000022FDF749FB40F6E810C2F20000694683
:103260000122FEF783FC002818BFFDF745F8204631
:1032700010210122FDF738FB19208DF800002046AF
:1032800010210022FDF730FB204640210122FDF7EE
:103290002BFB40F6E810C2F2000069460122FEF75F
:1032A00065FC002818BFFDF727F8204610210122F1
:1032B000FDF71AFBC0208DF80000204610210022E7
:1032C000FDF712FB204640210022FDF70DFB40F6E2
:1032D000E810C2F2000069460122FEF747FC002810
:1032E00018BFFDF709F8204610210122FDF7FCFA6E
:1032F0002C208DF80000204610210022FDF7F4FA62
:10330000204640210122FDF7EFFA40F6E810C2F214
:10331000000069460122FEF729FC002818BFFCF7CF
:10332000EBFF2046102101220125FDF7DDFAC22026
:103330008DF80000204610210022FDF7D5FA204626
:1033400040210022FDF7D0FA40F6E810C2F200005A
:1033500069460122FEF70AFC002818BFFCF7CCFFE3
:10336000204610210122FDF7BFFA2046102100223D
:103370008DF80050FDF7B8FA204640210122FDF7F4
:10338000B3FA40F6E810C2F2000069460122FEF7E7
:10339000EDFB002818BFFCF7AFFF204610210122EB
:1033A000FDF7A2FAC3208DF800002046102100226C
:1033B000FDF79AFA204640210022FDF795FA40F6E3
:1033C000E810C2F2000069460122FEF7CFFB002898
:1033D00018BFFCF791FF204610210122FDF784FA67
:1033E00012208DF80000204610210022FDF77CFA03
:1033F000204640210122FDF777FA40F6E810C2F29C
:10340000000069460122FEF7B1FB002818BFFCF757
:1034100073FF204610210122FDF766FAC4208DF8C3
:103420000000204610210022FDF75EFA20464021D0
:103430000022FDF759FA40F6E810C2F20000694692
:103440000122FEF793FB002818BFFCF755FF20462A
:1034500010210122FDF748FA20208DF800002046B7
:1034600010210022FDF740FA204640210122FDF7FD
:103470003BFA40F6E810C2F2000069460122FEF76E
:1034800075FB002818BFFCF737FF204610210122EA
:10349000FDF72AFAC6208DF80000204610210022F0
:1034A000FDF722FA204640210022FDF71DFA40F6E2
:1034B000E810C2F2000069460122FEF757FB00281F
:1034C00018BFFCF719FF204610210122FDF70CFA66
:1034D0000F208DF80000204610210022FDF704FA8D
:1034E000204640210122FDF7FFF940F6E810C2F224
:1034F000000069460122FEF739FB002818BFFCF7DF
:10350000FBFE204610210122FDF7EEF9D0208DF8B8
:103510000000204610210022FDF7E6F92046402158
:103520000022FDF7E1F940F6E810C2F2000069461A
:103530000122FEF71BFB002818BFFCF7DDFE20462A
:1035400010210122FDF7D0F9A4208DF800002046BB
:1035500010210022FDF7C8F9204640210122FDF785
:10356000C3F940F6E810C2F2000069460122FEF7F6
:10357000FDFA002818BFFCF7BFFE204610210122EB
:10358000FDF7B2F9A1208DF800002046102100229D
:10359000FDF7AAF9204640210122FDF7A5F940F6E2
:1035A000E810C2F2000069460122FEF7DFFA0028A7
:1035B00018BFFCF7A1FE204610210122FDF794F967
:1035C000E0208DF800002046102100220026FDF7A3
:1035D0008BF9204640210022FDF786F940F6E810DD
:1035E000C2F2000069460122FEF7C0FA002818BFA7
:1035F000FCF782FE204610210122FDF775F942F208
:103600001F30ADF80C0041F64C00C0F60D300290B2
:1036100042F61330C5F23F40019040F2D040C1F273
:103620000D100090204610210022FDF75DF9204684
:1036300040210122FDF758F940F2100540F6E8104C
:10364000C2F20005C2F2000069460E222E70FEF79B
:103650008DFA00BF28780028FCD0204610210122D6
:10366000FDF742F9E1208DF80000204610210022EC
:103670000026FDF739F9204640210022FDF734F9F4
:1036800040F6E810C2F2000069460122FEF76EFA29
:10369000002818BFFCF730FE204610210122FDF75C
:1036A00023F942F22030ADF80C0042F65170C1F619
:1036B0001F70029042F61340C4F23F40019040F266
:1036C000D040C1F20C100090204610210022FDF7DE
:1036D0000BF9204640210122FDF706F940F6E810DB
:1036E000C2F2000069460E222E70FEF73FFA00BFBC
:1036F00028780028FCD0204610210122FDF7F4F89C
:1037000021208DF80000204610210022FDF7ECF862
:10371000204640210022FDF7E7F840F6E810C2F20B
:10372000000069460122FEF721FA002818BFFCF7C5
:10373000E3FD204610210122FDF7D6F811208DF877
:103740000000204610210022FDF7CEF8204640213F
:103750000022FDF7C9F840F6E810C2F20000694601
:103760000122FEF703FA002818BFFCF7C5FD20462A
:1037700010210122FDF7B8F829208DF8000020461D
:1037800010210022FDF7B0F8204640210022FDF76D
:10379000ABF840F6E810C2F2000069460122FEF7DD
:1037A000E5F9002818BFFCF7A7FD204610210122EB
:1037B000FDF79AF83220FCF7AFFF4FF6FF70FFF7E6
:1037C0007DFB04B070BD00002DE9F04383B0002400
:1037D0000546C4F202042A2017460E468DF8090059
:1037E00020461021002298464FF00009FDF77CF892
:1037F000204640210022FDF777F840F6E810C2F29B
:1038000000000DF109010122FEF7B0F9002818BFF0
:10381000FCF772FD204610210122FDF765F8280A09
:103820008DF80500380A8DF8070020461021002287
:103830008DF806508DF80870FDF756F820464021A7
:103840000122FDF751F840F2100540F6E810C2F2EF
:103850000005C2F200000DF10501042285F8009078
:10386000FEF784F928780028FCD020461021012298
:10387000FDF73AF82B208DF80A002046102100228F
:103880000027FDF731F8204640210022FDF72CF8F3
:1038900040F6E810C2F200000DF10A010122FEF725
:1038A00065F9002818BFFCF727FD204610210122EA
:1038B000FDF71AF8300A8DF801004FEA18208DF84C
:1038C00003002046102100228DF802608DF804804C
:1038D000FDF70AF8204640210122FDF705F840F6E1
:1038E000E810C2F200000DF1010104222F70FEF772
:1038F0003DF900BF28780028FCD020461021012285
:10390000FCF7F2FF2C208DF80B002046102100223E
:10391000FCF7EAFF204640210022FCF7E5FF40F6D5
:10392000E810C2F200000DF10B010122FEF71EF9B2
:10393000002818BFFCF7E0FC204610210122FCF70C
:10394000D3FF03B0BDE8F08370470000FDF7D6BB9E
:1039500070B592B006AC20463021FCF76FFC002514
:1039600043F640000595CDE90355CDE90155009595
:10397000C4F202000168022641F080510160006833
:1039800000F080500090009847F200000095C4F2CB
:103990000000016866F38F310160006800F4404068
:1039A000009000980120099010200A9008200E90A5
:1039B0005420CDE90F060420119020460696CDE94B
:1039C0000C65FDF761FD10B172B600BFFEE70F2078
:1039D000CDE901064FF48050CDE9040501A802218C
:1039E0000395FDF745FC10B172B600BFFEE712B0BB
:1039F00070BD00004EF68850CEF20000016841F420
:103A00007001016070470000806B0021C185FEF7E6
:103A100097B90000806B0168496990F84120212A1C
:103A200011D111F080010ED00021C184016851E84C
:103A3000031F026821F0C00142E80313002BF5D1F7
:103A4000202180F841100168496990F84220222A1B
:103A50002BD111F0400128D00021C185016851E827
:103A6000031F026821F4907142E80313002BF5D183
:103A7000016851E8051F026821F0010142E80513C1
:103A8000002BF5D1016B01290AD100BF016851E873
:103A9000031F026821F0100142E80313002BF5D147
:103AA000202180F8421000210163416C41F0100197
:103AB0004164FEF745B900000168806B0968C905DB
:103AC00030D40021C18500BF016851E8031F02689E
:103AD00021F4807142E80313002BF5D1016851E80D
:103AE000051F026821F0010142E80513002BF5D102
:103AF000016851E8051F026821F0400142E8051302
:103B0000002BF5D1202180F84210016B012909D149
:103B1000016851E8031F026821F0100142E8031315
:103B2000002BF5D100214163016B012918BFFEF77D
:103B3000A1BB818DFEF7D4B8806B01214163016B7D
:103B4000012918BFFEF798BB818D4908FEF7C8B858
:103B500090F84210222918BF70478268B2F5805F42
:103B600001D1016991B1816AB2F5805F07D00AB9CC
:103B7000026922B10268526802F07F0201E0026825
:103B800052680A70816A0131816207E00168826AC5
:103B900049686FF35F2122F8021B8262C18D0139EF
:103BA0000A04C18500D070470168CA6822F020026B
:103BB000CA60CA6822F48072CA604A6922F00102AF
:103BC0004A61202180F8421000214163026B012AE2
:103BD00018BFFEF74FBB81B0016300BF016851E819
:103BE000031F026821F0100142E80313002BF5D1F6
:103BF00001680A68D20606D5002200920A6800927F
:103C0000496800910099818D01B0FEF769B8000004
:103C100010B504460068D4E902C22369016921F4A1
:103C2000405111430161626943EA0C01E3691143A8
:103C3000C268194349F20C639A431143C160416958
:103C4000A26921F4407141F20043114340F48062C3
:103C5000C4F201039A42416102D1FDF7CDFB01E0BC
:103C6000FDF7B6FBE16963681922B1F5004FA0FBCF
:103C7000020120D15A00DB0FFCF7A8FA48F21F51CD
:103C8000C5F2EB11A0FB01235A094FF69C73C0F655
:103C9000FF7303F1805302FB0300322303EBC000E8
:103CA000A0FB01014FF4F87000EA111000EB0210C4
:103CB000C1F342111CE09A009B0FFCF787FA48F20F
:103CC0001F51C5F2EB11A0FB01235A094FF69C735B
:103CD000C0F6FF7302FB0300322303EB0010A0FBCE
:103CE0000101F02000EA511000EB0210C1F3431172
:103CF00008442168886010BDF0B581B013460027E4
:103D00000446816283854764222084F84200E06B88
:103D100043F6B92543F639360A462168C0F6000550
:103D2000C0F60006C0E90F5643F61526C0F6000699
:103D30000431C0E91367FCF79FFC38B110206064C0
:103D4000202084F84200012001B0F0BD00972068D7
:103D500001680091406800900098206950B100BF50
:103D6000206850E8030F216840F4807041E80302A6
:103D7000002AF5D1206850E8050F216840F00100C5
:103D800041E80502002AF5D1206850E8050F2168B6
:103D900040F0400041E80502002AF5D1002001B0C2
:103DA000F0BD000040F6F020C2F20000FDF7EEBFCB
:103DB00040F63830C2F20000FDF7E8BFFEE7000031
:103DC00080B540F6383040F68031C2F20000C2F2D1
:103DD00000014FF48062FDF755FF40F63410C2F247
:103DE00000000068016821F00801016080BD00004A
:103DF000FDF792F9FFF7ACFDFEF710FEFEF7D0FDE0
:103E0000FEF71EFFFEF73AFFFEF78CFEFEF7D0FE30
:103E1000FEF7F2FEFEF7A8FEFFF7D2FFFFF7A0F8CD
:103E20004FF4FC60FFF74AF84FF47A70FCF774FC2B
:103E30001F20FFF743F84FF47A70FCF76DFC4FF446
:103E40007870FFF73BF84FF47A70FCF765FC4FF49D
:103E50008260FFF733F84FF47A70FCF75DFC4FF4A3
:103E6000BE60FFF72BF84FF47A70FCF755FC40F674
:103E70000004C4F2020400BF20464FF48041FCF766
:103E80002BFDC820FCF748FCF6E702E008C8121F2B
:103E900008C1002AFAD170477047002001E001C133
:103EA000121F002AFBD17047000000000000000034
:103EB00001020304060708090000000001020304D0
:103EC0000006101600061016E83E0008000000204C
:103ED000100000008A3E0008F83E00081000002094
:103EE000781300009A3E00080024F400010000004E
:083EF0001000000000000000BA
:040000050800019559
:00000001FF
