:020000040800F2
:10000000101300200D030008BD6C0008E953000820
:10001000B96C0008AD16000831810008000000002E
:10002000000000000000000000000000B976000899
:10003000A9180008000000002D6D000811770008C5
:1000400027030008270300082703000827030008E8
:1000500027030008270300082703000827030008D8
:10006000270300082703000827030008B11600082B
:1000700027030008270300082703000827030008B8
:10008000C1160008D1160008270300080000000070
:10009000000000000000000000000000270300082E
:1000A0002703000827030008E57700082703000856
:1000B000270300082703000827030008ED53000862
:1000C000270300082703000827030008316D0008F4
:1000D00027030008118100082181000800000000AA
:1000E000270300082703000827030008000000007A
:1000F000000000000000000000000000E116000801
:10010000000000002703000827030008416D0008D5
:1001100000000000000000000000000000000000DF
:10012000270300082703000827030008F11600082A
:10013000270300080000000000000000000000008D
:10014000000000000000000000000000270300087D
:1001500027030008270300080117000827030008E9
:10016000270300082703000800000000000000002B
:10017000000000000000000000000000000000007F
:10018000000000002703000800000000000000003D
:100190002703000800F002F800F0A8F814A696E87B
:1001A000000CB244B344DA4501D100F09FF8BAE83C
:1001B0000F000FA696E83000A5EB040504EB060738
:1001C000AAEB0704A7F101074FEA15154FEA34140B
:1001D000A4F10104AC4201D300F088F813F0010F40
:1001E00018BFFB1A43F0010300F001F8DBE71847E2
:1001F0003492000054920000103A24BF78C878C1AD
:10020000FAD8520724BF30C830C144BF04680C601C
:1002100070470000704700000023002400250026DE
:10022000103A28BF78C1FBD8520728BF30C148BF59
:100230000B6070476E2900F00982702900F04D8331
:10024000662909F05080652909F04D80672909F079
:100250004A80612909F0498003681B0A28BF41F0E0
:100260008001692900F0B681642900F0B381752905
:1002700000F0B0816F2900F0DB82782900F019834B
:10028000E92900F07582E42900F07282F52900F076
:100290006F82EF2900F0D882F82900F018830368F4
:1002A000DB0928BF41F08001632901F0198073291F
:1002B00001F01E80E32901F02980F32901F02E804E
:1002C000002070471FB509F001F801F07DF8040027
:1002D0000020002108F0E4FF401C606000200021A5
:1002E00008F0C8FFE0601FBD10B510BD01F03EF87A
:1002F0001146FFF7E7FF08F0B7FA01F01BF903B466
:10030000FFF7F2FF03BC01F061F9000009488047E4
:1003100009480047FEE7FEE7FEE7FEE7FEE7FEE7E7
:10032000FEE7FEE7FEE7FEE704480549054A064BFF
:1003300070470000D177000895010008100D0020DB
:1003400010130020100F0020100F002053EA020CA1
:1003500000F069802DE9F04B4FF00006002B1FBF25
:10036000B3FA83F503FA05F424FA05F65E4012BFEA
:100370001643B2FA82F502FA05F4C5F120051EBF54
:1003800022FA05FC44EA0C04203556EA044C4FEAF4
:10039000144418BF641C4FF000084FF0000990424D
:1003A00071EB030C39D3002919BFB1FA81F701FAB7
:1003B00007F6B0FA80F700FA07F6C7F120071EBF6C
:1003C00020FA07FC46EA0C062037B6FBF4FCA7EB44
:1003D0000507103F07F01F0BCBF120062CFA06F69D
:1003E0000CFA0BFB44BFB3460026202FA4BF5E4689
:1003F0004FF0000B5BEA060C08BF4FF0010B19EB46
:100400000B0948EB0608ABFB027C06FB02CC0BFB9E
:1004100003CCC01B71EB0C01C1E70B460246414601
:100420004846BDE8F08B13B5084318BF4FF0FF30C6
:100430000146AFF30080BDE81C4070477CB51D4607
:1004400016460C00009007D04142A14202D320443E
:10045000401E01E04FF0FF30064B7B442A466946C0
:100460000190304600F00BF9002C02D0009A0021D8
:1004700011707CBD470200004FF000020429C0F05B
:10048000128010F0030C00F01B80CCF1040CBCF1C6
:10049000020F18BF00F8012BA8BF20F8022BA1EB18
:1004A0000C0100F00DB85FEAC17C24BF00F8012BFD
:1004B00000F8012B48BF00F8012B70474FF00002F5
:1004C00000B5134694469646203922BFA0E80C504A
:1004D000A0E80C50B1F12001BFF4F7AF090728BF25
:1004E000A0E80C5048BF0CC05DF804EB890028BFA1
:1004F00040F8042B08BF704748BF20F8022B11F0CA
:10050000804F18BF00F8012B704770477047704745
:1005100070B5044685690068C10601D5302600E043
:100520002026C00707D070BDD4E90121304690478E
:10053000206A401C20626D1EF6D570BD70B5044661
:1005400085690078C00707D170BDD4E9012120205A
:100550009047206A401C20626D1EF6D570BD096868
:100560004A0501D540B27047C905FCD500B27047B5
:1005700009684A0501D5C0B27047C905FCD580B2EB
:10058000704770B50C460546012A05D028788006CC
:1005900000D5EA69002302E0012305E05B1C9342D9
:1005A00002D2E05C0028F9D1A869E618C01AA86157
:1005B000286A184428622846FFF7AAFF04E0D5E914
:1005C000012114F8010B9047B442F8D32846FFF7F5
:1005D000B5FF70BD2DE9F04106460024106875296D
:1005E000314616A510D0FFF7BAFF002802DA4042C4
:1005F00013A507E031688A0701D512A502E0490773
:1006000004D511A5012401E0FFF7B2FF00210A2261
:1006100006F1240709E0B0FBF2FCB0FBF2F302FBA9
:100620001C00303078541846491C0028F3D123466A
:100630002A463046BDE8F04100F063BA00000000F1
:100640002D0000002B00000020000000116802684F
:10065000006A530501D508700AE0D30501D508806A
:1006600006E0130603D5C217C1E9000200E00860E6
:100670000120704701694A1C02610878704700B583
:100680008FB0CDE901310021059105497944CDE9CB
:1006900003101146684600F02BF90FB000BD0000B2
:1006A000E5FFFFFFD1E900239A4202D2531C0B6001
:1006B000107070472DE9FF5F15468A460446DFF843
:1006C000AC80F8440027D8E900103E46CDE9001080
:1006D00010E03AF816106A4602A800F023FE411C0A
:1006E00007D02178890603D5E269391891420DD8DF
:1006F0000744761C2078800602D5E069B84205DD03
:10070000AE42E6DB3AF816000028E2D1A069C01B31
:10071000A0612046FFF7FCFED8E90010CDE90010EB
:10072000002017E03AF818106A4602A800F0FAFD17
:10073000B0F1FF3F81460BD000250DF1080B05E01D
:10074000D4E901211BF8050090476D1C4D45F7D3F6
:1007500008F10100B0428046E4DB206A38442062A0
:100760002046FFF7EBFEBDE8FF9F00002A8C00004B
:100770002DE9F0418046D21D22F007020025D2E982
:100780000002F52915A614D0011E72F1000106DA47
:100790000023D0EB030063EB020211A608E0D8F8B7
:1007A00000108B0701D50FA602E0490701D50EA660
:1007B00001251146002408F1240704E000F05CF94B
:1007C00030323A55641C50EA0102F7D12B463246CA
:1007D00021464046BDE8F04100F093B9000000001A
:1007E0002D0000002B0000002000000030B400218C
:1007F00000F1240408E002F00705D208303542EA8F
:100800004372DB086554491C52EA0305F3D10468BE
:10081000002310A2250708D504F020040C4304D0BF
:10082000C46901230CA2641EC46130BC00F069B924
:1008300010B5044621461068FFF79AFE024620468E
:10084000BDE810400023D1E7D21D22F00701D1E915
:100850000023CBE70000000030000000F0B40D469C
:100860000188090502D5214C7C4402E01F4C7C44E0
:100870000E34002100F1240608E002F00F071209EF
:10088000E75D42EA03721B097754491C52EA0307E9
:10089000F3D102780023120704D5702D06D009B1D8
:1008A000022311342246F0BC00F02BB9012310348E
:1008B000F8E770B504460D4621461068FFF758FE6C
:1008C000024629462046BDE870400023C6E7D21DF7
:1008D00022F00703D3E90023C0E70368126843F05E
:1008E000200303600823C3610023B7E78C8A00005C
:1008F0002DE9F05F894604464FF0000ADFF874B135
:10090000FB44C0F820A02046E1688847002874D046
:10091000252806D0D4E901219047206A401C206296
:10092000F1E700265F462046E16888472028054613
:1009300007DB312D05D2781910F8200C08B10643D9
:10094000F1E7B00701D526F00406C4F81CA0002783
:10095000C4F818A02A2D09D0284608F083FC38B323
:1009600004EB8708303DC8F8185019E059F8041B0B
:10097000204604EB87029161E1688847012F054614
:1009800018D1E069002820DA26F020061DE0D8F80A
:10099000180000EB800005EB40003038C8F8180064
:1009A0002046E1688847054608F05CFC0028EED147
:1009B000012F0AD02E2D08D12046E16888477F1CE0
:1009C0000546022F46F02006C4DBA069002803DAA2
:1009D000404246F00106A061F00701D026F0100663
:1009E0006C2D0BD0682D09D04C2D39D06A2D35D007
:1009F000742D35D07A2D33D016E038E0E1682F46DB
:100A000020468847B842054609D16C2F26D04FF4BE
:100A10008060E168064320468847054604E06C2F65
:100A20001AD04FF4807006430DB3A5F14100192888
:100A300002D8203546F400664A46294620462660FC
:100A40004E46FFF7F7FB80B101280BD0F61D26F0CC
:100A5000070000F1080956E74020E4E78020D8E7C6
:100A60000020D6E706F104094DE7284652E7206A40
:100A7000BDE8F09F1C8A000030B5B0F10A0271F1A8
:100A800000034FEA900E4EEA817EB0EB0E0061EB60
:100A900091014FEA101E4EEA017E10EB0E0041EB71
:100AA00011114FEA102E4EEA016E10EB0E0041EBD1
:100AB00011214FEA104E4EEA014E10EB0E0041EBB1
:100AC0001141401841F100014FEAD00040EA417065
:100AD0004FEAD1014FEA810444EA907410EB80059B
:100AE00044EB01046D1944EB0404521BA3414FF085
:100AF000000348BF0A3200D530BD401C41F100015F
:100B000030BD2DE9F0470D4699469246044600F166
:100B100024080168880604D5E06921F010012160ED
:100B200000E00120A84201DD471B00E00027A16989
:100B30007A1902EB0900081AA0612078C00602D4D5
:100B40002046FFF7E5FC002608E0D4E901211AF869
:100B500006009047206A401C761C20624E45F4DB5C
:100B60002078C0060AD52046FFF7D2FC06E0D4E97B
:100B7000012130209047206A401C2062381EA7F1D6
:100B80000107F4DC07E0D4E9012118F805009047DB
:100B9000206A401C2062281EA5F10105F3DC2046D6
:100BA000FFF7CCFC2078000602D50220BDE8F087D4
:100BB0000120FBE72DE9FF4F0C461E464FF0FF37A3
:100BC0008BB0D2E90001DDF860800A908A46C1F35B
:100BD0000A5505B93D46002108464FF00000BAF11C
:100BE000000F00F4400005DA00EB80004FF44001F4
:100BF00001EA50004FEA9059B9F1010F00DDB94602
:100C00000A9850EA4A000ED044F61050A5F2FF357B
:100C100045432F14B8F1000F1ED07542291E1EDD6A
:100C2000C9F100021CE0B8F1010F4FF0000001D043
:100C3000302103E0F24305E02154401CB042FBDBCD
:100C400030460022002121540B99C1F80880C1E9E7
:100C500000200FB0BDE8F08FBD1B6D1CDEE74A46DB
:100C600000DA694206A800F0F3FB06AB93E8070040
:100C700003AB83E8070050460A9907F013FF8DE89D
:100C80000700A0F500501F3800900398002D0ADDE2
:100C900042F21F014A460844002303A90390684614
:100CA00008F07CF909E0A0F500504A461F380023FF
:100CB00003A90390684608F086F98DE80700000450
:100CC000000C03D04FF0FF30410800E01046B8F1AF
:100CD000000F03D00022009215461EE0751E05D4B9
:100CE000FFF7CAFE303262556D1EF9D5B3460122B8
:100CF000084302D000227F1C04E02078302801D174
:100D000000227F1E002A099784D01DE0112D07DAEA
:100D1000FFF7B2FE303262556D1C50EA0102F5D188
:100D2000084302D00098C8B10EE00021681E05E01B
:100D3000235C625C63542254401E491C8142F7DBF1
:100D4000AB46A81B401E0990002004F80B000B982E
:100D5000099AC0F80880C0E9002B7AE711264FF005
:100D6000000857E72DE9F04F88460446D21D22F0CF
:100D7000070191B0D1E90001CDE90A0108F05AFA62
:100D800002460B98C00F01D02D2007E02068810794
:100D900001D52B2002E0202101EAC000032A09909E
:100DA00001D0072A05DB03464146204600F010FB30
:100DB0000BE12078800601D5E06900E00620B8F15B
:100DC000650F814606D0B8F1660F18D0B8F1670FED
:100DD00070D131E00020B9F1110F009001DB112337
:100DE00001E009F101030AAA01A90CA8FFF7E2FE3C
:100DF000DDE90C70002609F10105834647E001207A
:100E00004B4600904FF000470AAA01A90CA8FFF733
:100E1000D1FEDDE90DB00C995D46002610B909F14F
:100E200001000D18B9EB050003D4C0F1FF3609F13C
:100E30000105A5EB09002BE0B9F1010F01DA4FF034
:100E400001090020B9F1110F0090484601DD11237E
:100E500000E003460AAA01A90CA8FFF7ABFEDDE9F2
:100E60000C704D4600268346207800070AD4AB4517
:100E700000DA5D4601A8012D04DD411911F8011CBD
:100E8000302907D04F4502DA17F1040F04DA0120A8
:100E900082460FE06D1EEEE7002F02DCED1B3E44A4
:100EA00003E0781CA84200DD7D1CB81B00F1010A9C
:100EB0004FF000472078000703D4AA4501DB4FF02C
:100EC000FF3A0021B7F1004F0DF143088DF84310B0
:100ED00024D002202B23002F01DA7F422D230A2168
:100EE000021EA0F1010000DC5FB197FBF1FC97FB53
:100EF000F1F201FB1C7C17460CF1300C08F801CD17
:100F0000EEE7A8F1010003702188090501D545210C
:100F100000E06521A0F1010800F8011C09980FA963
:100F2000A1EB0807FF1D00B10120411901EBEA7098
:100F3000A1693844081A401EA0612078C00602D476
:100F40002046FFF7E5FA099828B1D4E90121904736
:100F5000206A401C20622078C00622D52046FFF778
:100F6000D7FA1EE0002E04DBB34502DD01A8805D48
:100F700000E03020D4E901219047206A401C206223
:100F8000761CAAF101005FEA000A0AD100F01CFAFF
:100F9000C0680168405CD4E901219047206A401C88
:100FA0002062281EA5F10105DCDC07E0D4E901215F
:100FB00018F8010B9047206A401C2062381EA7F1E8
:100FC0000107F3DC2046FFF7B9FA032011B041E630
:100FD0002DE9F04F04460D46D21D22F0070089B0DE
:100FE000D0E900974846394608F024F90246F80F40
:100FF00001D02D2307E02068810701D52B2302E0D3
:10100000202101EAC0038DF820300BB1012000E05F
:101010000020032A824601D0072A04DB2946204605
:1010200000F0D6F93FE12078800601D40D2500E0DC
:10103000E569C7F30A560D2D49DA00214FEA175B1F
:1010400008464FF00000002F00F4400007DA00EBE4
:1010500080004FF4400100EBD07001EA6000811580
:10106000012901DD4FF0FF3100224FEA850CBCF170
:10107000180F06D31346ACF118004FF08052C2404F
:1010800003E04FF4801323FA0CF30CF10C0CBCF1C9
:10109000200F04D3ACF1200C09FA0CF001E007FAA0
:1010A0000CF000294FF0004801DD18B90FE00ED117
:1010B00040450CD319EB02095F4121B9404502D1EB
:1010C0009F4329EA0209BBEB175F00D0761C2088FA
:1010D000000502D57B48784402E07A487844193804
:1010E00008AA302302F80A30037C0AF10101002E1D
:1010F0000AF1020A53546A4602DC4FF0300101E063
:101100004FF031014FF001088DF8001002D0A6F227
:10111000FF3603E059EA470100D06B4E002D02DC98
:101120002178090704D54FF002082E218DF801100F
:10113000C44600210BE0C7F303433F01C35C491CD5
:101140006D1E02F80830052908F1010801DA002DAA
:10115000F1DC00210CE000EB1973491C1B786D1EBB
:10116000082902F808304FEA091908F1010801DAE4
:10117000002DF0DC21688B0602D516E0A8F10108ED
:10118000E04505DD02EB080313F8013C302BF5D0F8
:10119000B8F1000F09DD02EB080313F8013C2E2B18
:1011A00003D1090701D4A8F10108002D05DD3E2176
:1011B00002F808106D1E08F10108407C002E02F8AC
:1011C000080008F1010804DA2D20764202F8080030
:1011D00002E02B2002F808000A214FF47A708642C0
:1011E00008F101080BDB96FBF0F3303302F808300E
:1011F00096FBF0F308F1010800FB136601E0642E92
:101200000CDB642096FBF0F3303302F8083096FBD9
:10121000F0F308F1010800FB136601E00A2E06DB7B
:1012200096FBF1F0303002F8080008F1010896FB57
:10123000F1F001FB1060303002F80800A16908F1FC
:10124000010808EB050202EB0A00081AA0612078E9
:10125000C00602D42046FFF75BF9216A08AE01EB15
:101260000A00206204E0D4E9012116F8010B90473E
:10127000BAF1010AF7D22078C00602D52046FFF75E
:1012800047F96E4609E016F8010B3E280FD0D4E965
:1012900001219047206A401C2062B8F10108F2D277
:1012A0002046FFF74BF909B00320BDE8F08F206A14
:1012B0002844206203E0D4E90121302090476D1ECC
:1012C000EBD3F8E76A82000002FCFFFF10B5436928
:1012D00013B1AFF3008001E0FFF753F9012010BD17
:1012E000127800F124010A7000224A700122EDE711
:1012F00011684FF0FF32E9E710B5436913B1AFF35E
:10130000008001E0FFF7D6F9012010BD128800F13E
:10131000240182840022C2840122EDE711684FF08B
:10132000FF32E9E72DE9F04116460C46054600F08C
:1013300043F8036893F80101012807D0FF2C12D865
:10134000185D80B101202C70BDE8F081D3F8070151
:101350003246214603F20713C7182846BC46BDE8AB
:10136000F041002360474FF0FF30EDE7754600F095
:10137000EBF8AE4605006946534620F00700854667
:1013800018B020B5FEF7D0FFBDE820404FF00006B2
:101390004FF000074FF000084FF0000BAC46ACE8F0
:1013A000C009ACE8C009ACE8C009ACE8C00921F04C
:1013B00007018D467047000010B500F005F8001DCC
:1013C00010BD00BFDD7E00000048704730000020E7
:1013D0002DE9F0411F46044603260168072A01F45F
:1013E000006004DB08B116A505E016A503E008B10E
:1013F00015A500E015A521F010002060A069C01E11
:10140000A0610FB1401EA0612046FFF781F84FB1E7
:10141000D4E9012138469047206A401C2062C01C54
:10142000206206E0206AFAE7D4E9012115F8010BF1
:101430009047761EF8D22046FFF780F8BDE8F0818D
:101440004E414E006E616E00494E4600696E660068
:101450002DE9F047814616468AB0354878440DC8D4
:101460008DE80D0032487844801C03AC0DC884E838
:101470000D0041F69B300844372190FBF1F290FBC0
:10148000F1F5A5F1800501FB12041B3C02D5644275
:10149000012000E00020DFF898A080460027FA44F1
:1014A000AAF1BE0A0EE0E0070AD03246684607EB12
:1014B000470101230AEB810107F085FD8DE8070054
:1014C00064107F1C002CEED1194F7F44AE3F19E011
:1014D000E80715D007EB04100DF1180A90E80E008C
:1014E0008AE80E00C068F04201D19819089032468F
:1014F000012306A903A807F066FD03AB83E80700F4
:101500006D10641C002DE3D14FF001033246694693
:10151000B8F1000F03A802D007F040FD01E007F08A
:1015200052FDC9E90001C9F808200AB0BDE8F087FA
:10153000747F000010B50446AFF300802046BDE87C
:101540001040FEF7DCBE000000487047100000208D
:1015500030B44FF0013C50F8042B51F8043BCCFA66
:1015600052F4D51A20D1FCB950F8042B51F8043BA1
:10157000CCFA52F4D51A17D1B4B950F8042B51F85B
:10158000043BCCFA52F4D51A0ED16CB950F8042BA6
:1015900051F8043BCCFA52F4D51A05D1002CDAD01C
:1015A00030BC4FF00000704729BAB1FA81F111F058
:1015B0001801D1F120008440F2D1CA40CB4012F092
:1015C000FF0213F0FF0330BCD01A70470149182006
:1015D000ABBEFEE7260002007047000082B001901B
:1015E000019800790146009140B1FFE70098012879
:1015F00005D0FFE70098022802D002E002E001E0F7
:1016000000E0FFE702B0704782B0019001980079D6
:101610000146009140B1FFE70098012805D0FFE79F
:101620000098022802D002E002E001E000E0FFE7BB
:1016300002B0704780B582B00190019800790146F0
:10164000009140B1FFE70098012811D0FFE7009812
:1016500002281AD026E040F27101C2F200010120F6
:10166000087049F21340C0F6000007F05BF91AE079
:1016700040F27101C2F200010220087049F21840E4
:10168000C0F6000007F04EF90DE040F27101C2F221
:1016900000010320087049F21D40C0F6000007F069
:1016A00041F900E0FFE702B080BD0000FFE7FEE780
:1016B00080B540F25030C2F2000000F09BF980BDCE
:1016C00080B540F27040C2F2000000F093F980BD96
:1016D00080B540F29020C2F2000000F08BF980BD8E
:1016E00080B540F2B030C2F2000000F083F980BD56
:1016F00080B540F2F020C2F2000000F07BF980BD1E
:1017000080B540F21040C2F2000000F073F980BDD5
:1017100082B001900198007810384AF6AB21CAF6E1
:10172000AA21A0FB011000090090009949F2044091
:10173000C0F60000405C0199C8650098042807D3F2
:10174000FFE701990868042262F30900886506E052
:101750000199086840F2FF3290438865FFE70198DD
:10176000806D02B07047000086B0059000208DF8B3
:1017700013000598806A03900598806910BBFFE705
:101780000398029003281BD80299DFE801F0020DAC
:101790000218059890F82F00C00720B1FFE701203C
:1017A0008DF81300FFE70CE00598C06AB0F1C07F28
:1017B00004D1FFE701208DF81300FFE701E000E00E
:1017C000FFE745E005988069B0F5005F25D1FFE7A8
:1017D0000398019003281ED80199DFE801F0020662
:1017E000021101208DF8130016E0059890F82F00E3
:1017F000C00720B1FFE701208DF81300FFE70BE0E1
:101800000598C06AB0F1C07F04D1FFE701208DF8D0
:101810001300FFE700E0FFE719E0039800900328BA
:1018200004D3FFE70098032804D00EE001208DF8D0
:1018300013000BE0059890F82F00C00720B1FFE7D8
:1018400001208DF81300FFE700E0FFE7FFE7FFE767
:101850009DF8130006B0704784B003900291019286
:10186000009303980168086820F4802008600098BD
:1018700003990968486003988068402809D1FFE708
:101880000198039909688860029803990968C860FB
:1018900008E002980399096888600198039909682B
:1018A000C860FFE704B070477047000072B6FFE7FA
:1018B000FEE7000080B584B002900298806D019030
:1018C00000F05AFD0090029890F8350002280DD0E3
:1018D000FFE7029980204865FFE70299002081F820
:1018E0003400FFE701208DF80F0055E002980168F1
:1018F000086820F01600086002980168486920F026
:10190000800048610298006C20B9FFE70298806C63
:1019100038B1FFE702980168086820F00800086005
:10192000FFE702980168086820F001000860FFE7FF
:10193000029800680068C007C8B1FFE700F01CFD0E
:101940000099401A062811D3FFE702992020486524
:101950000299032081F83500FFE70299002081F801
:101960003400FFE703208DF80F0015E0E0E7029850
:10197000C16D3F208840019988600299012081F85B
:101980003500FFE70299002081F83400FFE7FFE708
:1019900000208DF80F00FFE79DF80F0004B080BD18
:1019A00082B00090009890F83500022807D0FFE739
:1019B00000998020486501208DF807000EE000990D
:1019C000052081F8350000980168086820F00100C2
:1019D0000860FFE700208DF80700FFE79DF807008B
:1019E00002B0704781B00090009890F8350001B0C7
:1019F0007047000080B586B005900020039040F24B
:101A00000000C2F20000006848F2B511C1F64E3184
:101A1000A0FB0110800A02900598806D019001984A
:101A20000068049004980599C96DC8400007002813
:101A30001AD5FFE70598006800684007002812D50E
:101A4000FFE705980168086820F004000860059821
:101A5000C16D08208840019988600599486D40F063
:101A600001004865FFE7FFE704980599C96DC84084
:101A7000C007A0B1FFE7059800684069000600288C
:101A80000CD5FFE70598C16D012088400199886059
:101A90000599486D40F002004865FFE7FFE70498AC
:101AA0000599C96DC8404007002814D5FFE705987F
:101AB00000680068800700280CD5FFE70598C16D15
:101AC00004208840019988600599486D40F0040021
:101AD0004865FFE7FFE704980599C96DC840C0064F
:101AE000002847D5FFE70598006800680007002830
:101AF0003FD5FFE70598C16D1020884001998860A7
:101B0000059800680068400300281AD5FFE705988B
:101B1000006800680003002809D4FFE70598006CFE
:101B200020B1FFE70598016C8847FFE708E00598BA
:101B3000806C20B1FFE70598816C8847FFE7FFE7DD
:101B400016E0059800680068C005002807D4FFE784
:101B500005980168086820F008000860FFE705980C
:101B6000006C20B1FFE70598016C8847FFE7FFE7AD
:101B7000FFE7FFE704980599C96DC8408006002873
:101B800040F18D80FFE7059800680068C0060028D6
:101B900040F18480FFE70598C16D202088400199BD
:101BA0008860059890F83500052834D1FFE705983E
:101BB0000168086820F01600086005980168486907
:101BC00020F0800048610598006C20B9FFE7059877
:101BD000806C38B1FFE705980168086820F00800BC
:101BE0000860FFE70598C16D3F2088400199886033
:101BF0000599012081F83500FFE70599002081F85B
:101C00003400FFE70598006D20B1FFE70598016DEE
:101C10008847FFE77BE005980068006840030028DC
:101C20001AD5FFE70598006800680003002809D46A
:101C3000FFE70598406C20B1FFE70598416C8847A5
:101C4000FFE708E00598C06B20B1FFE70598C16B7E
:101C50008847FFE7FFE720E0059800680068C005B7
:101C6000002811D4FFE705980168086820F01000EB
:101C700008600599012081F83500FFE705990020EB
:101C800081F83400FFE7FFE70598C06B20B1FFE75C
:101C90000598C16B8847FFE7FFE7FFE7FFE7059877
:101CA000406DA0B3FFE70598406DC00730B3FFE774
:101CB0000599052081F8350005980168086820F02D
:101CC00001000860FFE70398013003900299884201
:101CD00001D9FFE707E0FFE7059800680068C00743
:101CE0000028F0D1FFE70599012081F83500FFE7D2
:101CF0000599002081F83400FFE7FFE70598C06CE4
:101D000020B1FFE70598C16C8847FFE7FFE706B001
:101D100080BD000080B586B004900020039000F0E4
:101D20002BFB0290049820B9FFE701208DF81700E3
:101D3000A3E00498406A08B1FFE7FFE70499022096
:101D400081F83500FFE70499002081F83400FFE7AF
:101D500004980168086820F001000860FFE7049813
:101D600000680068C00790B1FFE700F005FB02992A
:101D7000401A06280AD3FFE70499202048650499F1
:101D8000032081F835008DF8170076E0E7E7049826
:101D9000006800680390039848F23F01CFF21001F9
:101DA00008400390049900914868D1F808C0CB68B6
:101DB0000A6940EA0C00184310434A6910438A69D3
:101DC0001043CA691043096A01430398084303900A
:101DD0000498406A042808D1FFE70499C86A096B8F
:101DE0000143039808430390FFE7039804990968A7
:101DF00008600498006840690390039820F0070089
:101E000003900498416A0398084303900498406A39
:101E100004281AD1FFE70498816A039808430390C5
:101E20000498C06A80B1FFE70498FFF79DFC50B1A9
:101E3000FFE70499402048650499012081F83500A6
:101E40008DF8170019E0FFE7FFE703980499096888
:101E500048610498FFF75CFC01900498C16D3F2035
:101E6000884001998860049900204865049A0121FE
:101E700082F835108DF81700FFE79DF8170006B0BF
:101E800080BD000080B588B0069005910492039350
:101E900000208DF80B000698806D0190FFE70698F2
:101EA00090F83400012804D1FFE702208DF81F00CC
:101EB00045E00699012081F83400FFE7FFE7069826
:101EC00090F8350001282BD1FFE70699022081F810
:101ED000350006990020486506980599049A039BE9
:101EE000FFF7BAFC0698C16D3F20884001998860D1
:101EF00006980168086840F0160008600698006CB3
:101F000038B1FFE706980168086840F008000860EB
:101F1000FFE706980168086840F00100086009E0E2
:101F2000FFE70699002081F83400FFE702208DF8D2
:101F30000B00FFE79DF80B008DF81F00FFE79DF8F1
:101F40001F0008B080BD000080B584B0039000F091
:101F500013FA0290039801900198013048B1FFE70D
:101F600040F20500C2F20000017801980844019097
:101F7000FFE7FFE700F000FA0299401A0199884252
:101F800001D2FFE7F6E704B080BD00008BB00A90F5
:101F9000099100200790069005900890FFE70898A7
:101FA0000F2800F2A281FFE70899012088400790DE
:101FB0000998006807990840069006980799884292
:101FC00040F08E81FFE70998406800F00300012887
:101FD00007D0FFE70998406800F0030002282FD1DE
:101FE000FFE70A988068059008984100032000FAEE
:101FF00001F10598884305900998C068089949003F
:1020000000FA01F105980843059005980A9988603F
:102010000A98406805900899012000FA01F1059896
:102020008843059009984068C0F30010089900FAA9
:1020300001F105980843059005980A994860FFE763
:102040000998406800F00300032818D0FFE70A98B9
:10205000C068059008984100032000FA01F1059836
:1020600088430590099880680899490000FA01F1B1
:1020700005980843059005980A99C860FFE70998F4
:10208000406800F00300022826D1FFE70A9808996B
:102090006FF0030202EA51010844006A05900898B3
:1020A00000F0070081000F2000FA01F10598884335
:1020B000059009980069089901F00701890000FA64
:1020C00001F105980843059005980A99089B02EAD2
:1020D000530211440862FFE70A98006805900898C7
:1020E0004100032000FA01F1059888430590099802
:1020F000406800F003000899490000FA01F10598D2
:102100000843059005980A99086009988079800726
:10211000002800F0E480FFE7FFE70020049043F68A
:102120004400C4F20200016841F48041016000688B
:1021300000F4804004900498FFE7089820F0030022
:1021400043F60801C4F2010140580590089800F0D8
:10215000030081000F2000FA01F1059888430590E3
:102160000A980021C4F20201884203D1FFE700204F
:10217000039034E00A9840F20041C4F20201884220
:1021800003D1FFE70120029026E00A9840F6000103
:10219000C4F20201884203D1FFE70220019018E057
:1021A0000A9840F60041C4F20201884203D1FFE7D9
:1021B000032000900AE00A9941F20002C4F20202F0
:1021C0000720914208BF04200090FFE7009801908B
:1021D000FFE701980290FFE702980390FFE703985A
:1021E000C0B2089901F00301890000FA01F10598D5
:1021F000084305900598089921F0030143F6080269
:10220000C4F20102885043F60840C4F2010000689D
:102210000590069905988843059009988079C0062D
:10222000002805D5FFE70699059808430590FFE7C4
:10223000059843F60841C4F20101086043F60C40DA
:10224000C4F201000068059006990598884305903E
:10225000099880798006002805D5FFE7069905983A
:1022600008430590FFE7059843F60C41C4F20101CD
:10227000086043F60440C4F2010000680590069926
:10228000059888430590099880798007002805D52E
:10229000FFE70699059808430590FFE7059843F680
:1022A0000441C4F20101086043F60040C4F2010099
:1022B00000680590069905988843059009988079EB
:1022C000C00728B1FFE70699059808430590FFE786
:1022D000059843F60041C4F201010860FFE7FFE7FB
:1022E000FFE708980130089059E60BB070470000EE
:1022F00082B00190ADF8021001980069BDF802109B
:10230000084204D0FFE701208DF8010003E000201F
:102310008DF80100FFE79DF8010002B07047000052
:1023200083B00290ADF80610029840690090009AC0
:10233000BDF8060002EA0001904340EA014002991C
:10234000886103B07047000082B00190ADF80210C0
:102350008DF801209DF8010028B1FFE7BDF80200CB
:102360000199886105E0BDF80200000401998861C7
:10237000FFE702B07047000040F60C50C2F20000C8
:102380000068704781B0009001B0704782B0019042
:102390008DF80310ADF8002002B0704780B588B00A
:1023A00007900020059007980068406804900798FF
:1023B000C06A0390079890F83E008DF80B000798CC
:1023C00090F83D008DF80A009DF80B00102806D00B
:1023D000FFE79DF80B00402840F00081FFE70798D9
:1023E0000068806905900798006840690690069823
:1023F000C007A0B9FFE703990120B1F52A0F0190AA
:1024000008D0FFE7039800F1AC40B0FA80F0400933
:102410000190FFE70198C00708B1FFE7A1E1069826
:10242000C00780B1FFE79DF8110000F00201002015
:10243000B0EB510F07D0FFE7079802F0DFFF0798D6
:1024400003F052FEC9E09DF8180000F008010020DA
:10245000B0EBD10F0DD0FFE79DF8110000F00201A5
:102460000020B0EB510F04D0FFE7079803F078FC91
:10247000B2E09DF8180000F002010020B0EB510F0F
:102480000DD0FFE79DF8110000F002010020B0EB35
:10249000510F04D0FFE7079803F086FC9BE09DF8FE
:1024A000140000F004010020B0EB910F50D0FFE7C2
:1024B00007980068406800F40060B0F5006F46D0EF
:1024C000FFE79DF818100020B0EBD11F16D0FFE7F2
:1024D0009DF8110000F004010020B0EB910F0DD029
:1024E000FFE79DF8180000F004010020B0EB910F09
:1024F00004D1FFE7079803F093FB27E09DF818004D
:1025000000F004010020B0EB910F1DD0FFE79DF813
:10251000110000F002010020B0EB510F14D0FFE7D2
:102520009DF80A00212804D1FFE7079803F008FB73
:1025300009E09DF80B00402804D1FFE7079803F05D
:102540004BFEFFE7FFE700E0FFE7FFE7FFE741E0C3
:1025500007980068406800F40060B0F5006F38D05C
:10256000FFE79DF8180000F040010020B0EB911F3C
:1025700016D0FFE79DF8110000F004010020B0EB39
:10258000910F0DD0FFE79DF8180000F00401002026
:10259000B0EB910F04D1FFE7079803F01BFA17E0A7
:1025A0009DF8180000F004010020B0EB910F0DD051
:1025B000FFE79DF8110000F002010020B0EB510F81
:1025C00004D0FFE7079803F02FF900E0FFE7FFE7EB
:1025D000FFE7FFE7FFE7FFE7FFE7C2E00798006CD0
:1025E00028B1FFE7079800684069069008E007985F
:1025F0000068806905900798006840690690FFE7C9
:102600009DF8180000F002010020B0EB510F17D028
:10261000FFE79DF8110000F002010020B0EB510F20
:102620000ED0FFE70798006C28B1FFE70798006815
:1026300080690590FFE70798059903F0FDFE8FE09C
:102640009DF8180000F010010020B0EB111F0DD014
:10265000FFE79DF8110000F002010020B0EB510FE0
:1026600004D0FFE7079803F03FFF78E09DF80A00E9
:10267000212805D0FFE79DF80A00292836D1FFE779
:102680009DF818100020B0EBD11F16D0FFE79DF881
:10269000110000F004010020B0EB910F0DD0FFE716
:1026A0009DF8180000F004010020B0EB910F04D158
:1026B000FFE7079803F08AFE17E09DF8180000F086
:1026C00004010020B0EB910F0DD0FFE79DF8110041
:1026D00000F002010020B0EB510F04D0FFE7079893
:1026E00003F05EFE00E0FFE7FFE737E09DF818002B
:1026F00000F040010020B0EB911F16D0FFE79DF8DD
:10270000110000F004010020B0EB910F0DD0FFE7A5
:102710009DF8180000F004010020B0EB910F04D1E7
:10272000FFE7079803F004FE17E09DF8180000F09B
:1027300004010020B0EB910F0DD0FFE79DF81100D0
:1027400000F002010020B0EB510F04D0FFE7079822
:1027500003F0D6FD00E0FFE7FFE7FFE7FFE7FFE755
:10276000FFE708B080BD000081B0009001B0704765
:1027700080B58EB00C900C9820B9FFE701208DF841
:10278000370043E10C9890F83D0040B9FFE70C9901
:10279000002081F83C000C9800F050F9FFE70C99FC
:1027A000242081F83D000C980168086820F00100A1
:1027B00008600C980168086840F4004008600C98B4
:1027C0000168086820F40040086000F0A7FB0A9048
:1027D0000C98406848F2A061C0F2010188420BD811
:1027E000FFE70A9948F28042C0F21E02002091429F
:1027F00038BF012009900AE00A9940F60012C0F2A1
:102800003D020020914238BF01200990FFE709985E
:10281000012804D1FFE701208DF83700F6E00A987F
:102820004DF68361C4F21B31A0FB0110800C0B90AC
:102830000C980068406820F03F000B9908430C9901
:10284000096848600C980068006A20F03F00089012
:102850000C98406848F2A061C0F20101884204D897
:10286000FFE70B98013007900EE00B984FF496713C
:10287000484344F6D351C1F26201A0FB010101209B
:1028800000EB91100790FFE70898079908430C990F
:10289000096808620C980068C0694CF6FF718843AB
:1028A00006900C98406848F2A061C0F2010188428D
:1028B0001FD8FFE70A9801380C9949684900B0FB16
:1028C000F1F001306FF31F30032803D8FFE7042035
:1028D00005900BE00A9801380C9949684900B0FB53
:1028E000F1F001306FF31F300590FFE70598049079
:1028F0004CE00C98806868B9FFE70A9801380C9999
:10290000496801EB4101B0FBF1F001306FF31F307A
:1029100003900DE00A9801380C9949681922514337
:10292000B0FBF1F00130042161F31F300390FFE7A9
:102930000398000518B9FFE70120029023E00C98E6
:10294000806868B9FFE70A9801380C99496801EB7B
:102950004101B0FBF1F001306FF31F3001900DE049
:102960000A9801380C99496819225143B0FBF1F0DB
:102970000130042161F31F300190FFE7019840F41A
:1029800000400290FFE702980490FFE70698049940
:1029900008430C990968C8610C980068006820F029
:1029A000C0000C9B1968DA691B6A1A43104308605F
:1029B0000C980068806848F2FF3188430C9A1168CF
:1029C000D36812691A43104388600C980068C06885
:1029D00020F0FF000C9B19685A699B691A43104349
:1029E000C8600C980168086840F0010008600C9904
:1029F000002008640C9A202182F83D100C9908638D
:102A00000C9981F83E008DF83700FFE79DF83700FC
:102A10000EB080BD81B0009001B0704781B00090D1
:102A200001B0704781B0009001B0704781B0009054
:102A300001B0704781B0009001B0704780B58AB096
:102A4000099000200890079006900590049009983E
:102A5000006845F20041C4F20001884267D1FFE7F7
:102A6000FFE70020039043F63000C4F20200016843
:102A700041F002010160006800F002000390039839
:102A8000FFE7C0200490122005900020069003204C
:102A900007900420089040F20040C4F2020004A90C
:102AA000FFF774FAFFE70020029043F64000C4F2FB
:102AB0000200016841F400110160006800F4001098
:102AC00002900298FFE740F29020C2F200000190CD
:102AD00046F2A001C4F2020101604FF000714160B2
:102AE000402181600021C1604FF480620261416138
:102AF0008161C16101624162FFF70CF918B1FFE722
:102B0000FEF7D4FEFFE7FFE7099840F29021C2F2FA
:102B10000001416309988863FFE71F2000900022AD
:102B2000114600F0A1F8009800F094F8FFE70AB011
:102B300080BD000081B0009001B0704781B000906E
:102B400001B0704740F20500C2F20000027840F682
:102B50000C51C2F200010868104408607047000080
:102B600080B543F60041C4F20201086840F40070E9
:102B70000860086840F480600860086840F480706D
:102B80000860032000F08AF80F2000F005F800F03C
:102B90003BF8002080BD000080B582B0009040F27C
:102BA0000000C2F20000006840F20501C2F200011C
:102BB0000A784FF47A71B1FBF2F1B0FBF1F001F059
:102BC00055FD20B1FFE701208DF8070018E00098BF
:102BD0000F280DD8FFE700994FF0FF30002200F0DA
:102BE00043F8009840F20801C2F20001086003E0D7
:102BF00001208DF8070003E000208DF80700FFE7B3
:102C00009DF8070002B080BD82B0FFE70020019070
:102C100043F64400C4F20200016841F480410160BF
:102C2000006800F4804001900198FFE7FFE7002072
:102C3000009043F64000C4F20200016841F0805168
:102C40000160006800F0805000900098FFE702B03B
:102C50007047000080B582B08DF807009DF907002D
:102C600005F04AFB02B080BD80B586B08DF8170034
:102C7000049103920020029005F056FB02909DF90A
:102C80001700019002980499039A04F019F801467C
:102C9000019805F051FB06B080BD000080B582B000
:102CA0000190019805F06AFB02B080BD80B584B048
:102CB00002900191029820B9FFE701208DF80F00E2
:102CC00021E1019843F60041C4F20201096801F0D4
:102CD0000701884212D9FFE7019943F60040C4F288
:102CE00002000170006800F007000199884204D0DA
:102CF000FFE701208DF80F0005E1FFE7029800785B
:102D0000800700282AD5FFE70298007840070028AE
:102D100009D5FFE743F60801C4F20201086840F450
:102D2000E0500860FFE7029800780007002809D506
:102D3000FFE743F60801C4F20201086840F460406E
:102D40000860FFE743F60801C4F20201086820F0BA
:102D5000F000029A926810430860FFE7029800783A
:102D6000C00700286ED0FFE702984068012811D103
:102D7000FFE743F60000C4F20200006800F40031EF
:102D80000020B0EB514F04D1FFE701208DF80F0078
:102D9000B9E02CE002984068022805D0FFE70298CD
:102DA0004068032811D1FFE743F60000C4F2020097
:102DB000006800F000710020B0EB516F04D1FFE714
:102DC00001208DF80F009EE010E043F60000C4F2F1
:102DD0000200006800F002010020B0EB510F04D1A6
:102DE000FFE701208DF80F008DE0FFE7FFE743F6D6
:102DF0000801C4F20201086820F00300029A526838
:102E000010430860FFF7B8FA0090FFE743F60800A8
:102E1000C4F20200006800F00C0002994968B0EBAF
:102E2000810F0ED0FFE7FFF7A7FA0099401A41F291
:102E30008931884204D3FFE703208DF80F0062E058
:102E4000E4E7FFE7019843F60041C4F20201096894
:102E500001F00701884212D2FFE7019943F60040D2
:102E6000C4F202000170006800F007000199884276
:102E700004D0FFE701208DF80F0044E0FFE702983F
:102E80000078400700280CD5FFE743F60801C4F29C
:102E90000201086820F4E050029AD26810430860EA
:102EA000FFE702980078000700280DD5FFE743F6FA
:102EB0000801C4F20201086820F46040029A126915
:102EC00040EAC2000860FFE700F04CF843F6080152
:102ED000C4F202010968C9B20A0949F2EC31C0F62C
:102EE0000001895CC84040F20001C2F200010860A4
:102EF00040F20800C2F200000068FFF74DFE00201B
:102F00008DF80F00FFE79DF80F0004B080BD0000B2
:102F100040F20000C2F200000068704780B5FFF781
:102F2000F7FF43F60801C4F202010968C1F38222E7
:102F300049F2FC31C0F60001895CC84080BD000048
:102F400080B5FFF7E5FF43F60801C4F20201096806
:102F500089B24A0B49F2FC31C0F60001895CC840D5
:102F600080BD000080B586B00020059004900390DD
:102F7000029043F60800C4F20200006800F00C0062
:102F80000146019140B1FFE7019804280AD0FFE70C
:102F9000019808280CD04FE042F20040C0F2F40043
:102FA00002904FE047F64000C0F27D10029049E0E9
:102FB00043F60400C4F20200016801F03F010591EC
:102FC00000684002002813D5FFE743F60400C4F26E
:102FD00002000068C0F3881047F64001C0F27D117E
:102FE000A0FB0101059A0023FDF7B0F9049012E05F
:102FF00043F60400C4F202000068C0F3881042F2F5
:103000000041C0F2F401A0FB0101059A0023FDF785
:103010009DF90490FFE743F60400C4F20200006843
:1030200000F44031022000EBD13003900498039962
:10303000B0FBF1F0029005E042F20040C0F2F40073
:103040000290FFE7029806B080BD000080B586B010
:103050000490049820B9FFE701208DF8170050E391
:1030600004980078C007002800F0A580FFE743F629
:103070000800C4F20200006800F00C00042813D01D
:10308000FFE743F60800C4F20200006800F00C00FD
:1030900008281ED1FFE743F60400C4F202000068CE
:1030A0004002002815D5FFE743F60000C4F20200F5
:1030B000006800F400310020B0EB514F08D0FFE76A
:1030C0000498406820B9FFE701208DF8170018E345
:1030D00070E0FFE704984068B0F5803F09D1FFE752
:1030E00043F60001C4F20201086840F48030086031
:1030F00020E004984068B0F5A02F0DD1FFE743F61B
:103100000001C4F20201086840F4802008600868E9
:1031100040F4803008600CE043F60001C4F2020184
:10312000086820F480300860086820F48020086077
:10313000FFE7FFE7FFE704984068E8B1FFE7FFF724
:103140001BF90390FFE743F60000C4F20200006899
:1031500000F400310020B0EB514F0CD1FFE7FFF736
:103160000BF90399401A652804D3FFE703208DF873
:103170001700C6E2E7E71CE0FFF7FEF80390FFE761
:1031800043F60000C4F20200006800F400310020A1
:10319000B0EB514F0CD0FFE7FFF7EEF80399401A60
:1031A000652804D3FFE703208DF81700A9E2E7E7BD
:1031B000FFE7FFE7FFE7049800788007002840F169
:1031C0009680FFE743F60800C4F20200006810F0A2
:1031D0000C0F13D0FFE743F60800C4F202000068AA
:1031E00000F00C0008282CD1FFE743F60400C4F2DD
:1031F000020000684002002823D4FFE743F60000E5
:10320000C4F20200006800F002010020B0EB510F90
:1032100009D0FFE70498C068012804D0FFE7012027
:103220008DF817006DE243F60001C4F20201086850
:1032300020F0F800049A126940EAC2000860FFE733
:1032400054E00498C06870B3FFE70021C4F247213E
:1032500001200860FFF790F80390FFE743F60000B5
:10326000C4F20200006800F002010020B0EB510F30
:103270000CD1FFE7FFF780F80399401A032804D325
:10328000FFE703208DF817003BE2E7E743F6000174
:10329000C4F20201086820F0F800049A126940EABA
:1032A000C200086021E00021C4F24721002008602C
:1032B000FFF762F80390FFE743F60000C4F2020054
:1032C000006800F002010020B0EB510F0CD0FFE7C6
:1032D000FFF752F80399401A032804D3FFE70320AD
:1032E0008DF817000DE2E7E7FFE7FFE7FFE7049837
:1032F0000078000700284BD5FFE70498406918B311
:10330000FFE740F68061C4F2472101200860FFF723
:1033100033F80390FFE743F67400C4F2020000683C
:1033200000F002010020B0EB510F0CD1FFE7FFF7D6
:1033300023F80399401A032804D3FFE703208DF8EC
:103340001700DEE1E7E722E040F68061C4F24721A2
:1033500000200860FFF710F80390FFE743F67400C1
:10336000C4F20200006800F002010020B0EB510F2F
:103370000CD0FFE7FFF700F80399401A032804D3A5
:10338000FFE703208DF81700BBE1E7E7FFE7FFE762
:10339000049800784007002840F1CE80FFE7002025
:1033A0008DF8070043F64000C4F202000068C00038
:1033B000002815D4FFE7FFE70020009043F6400007
:1033C000C4F20200016841F080510160006800F021
:1033D000805000900098FFE701208DF80700FFE77C
:1033E00047F20000C4F200000068C005002822D4A3
:1033F000FFE747F20001C4F20001086840F4807062
:103400000860FEF7B9FF0390FFE747F20000C4F23F
:1034100000000068C00500280CD4FFE7FEF7ACFFF1
:103420000399401A032804D3FFE703208DF81700FF
:1034300067E1EAE7FFE7FFE704988068012809D120
:10344000FFE743F67001C4F20201086840F0010092
:1034500008601FE00498806805280DD1FFE743F657
:103460007001C4F20201086840F0040008600868B6
:1034700040F0010008600CE043F67001C4F2020164
:10348000086820F001000860086820F00400086067
:10349000FFE7FFE7FFE704988068F8B1FFE7FEF772
:1034A0006BFF0390FFE743F67000C4F20200006870
:1034B00000F002010020B0EB510F0ED1FFE7FEF744
:1034C0005BFF0399401A41F28931884204D3FFE738
:1034D00003208DF8170014E1E5E71EE0FEF74CFF2E
:1034E0000390FFE743F67000C4F20200006800F0AA
:1034F00002010020B0EB510F0ED0FFE7FEF73CFFBA
:103500000399401A41F28931884204D3FFE703202E
:103510008DF81700F5E0E5E7FFE79DF807000128C3
:1035200009D1FFE743F64001C4F20201086820F028
:1035300080500860FFE7FFE704988069002800F0EA
:10354000DC80FFE743F60800C4F20200006800F0E8
:103550000C00082800F08580FFE7049880690228A5
:103560005CD1FFE76021C4F2472100200860FEF72C
:1035700003FF0390FFE743F60000C4F20200006877
:1035800000F000710020B0EB516F0CD0FFE7FEF7A8
:10359000F3FE0399401A032804D3FFE703208DF8B4
:1035A0001700AEE0E7E70499C869D1F820C04B6A7C
:1035B0008A6A40EA0C0040EA8310D2034FF6FF7398
:1035C0009A43A2F580321043C96A40EA016043F68B
:1035D0000401C4F2020108606021C4F24721012005
:1035E0000860FEF7C9FE0390FFE743F60000C4F24F
:1035F0000200006800F000710020B0EB516F0CD1A8
:10360000FFE7FEF7B9FE0399401A032804D3FFE74A
:1036100003208DF8170074E0E7E721E06021C4F291
:10362000472100200860FEF7A7FE0390FFE743F65E
:103630000000C4F20200006800F000710020B0EB4E
:10364000516F0CD0FFE7FEF797FE0399401A03284D
:1036500004D3FFE703208DF8170052E0E7E7FFE708
:103660004AE004988069012804D1FFE701208DF821
:10367000170046E043F60400C4F20200006802901E
:1036800004988069012831D0FFE7029800F4800097
:103690000499C969884229D1FFE7029800F03F00E8
:1036A0000499096A884221D1FFE7029847F6C07160
:1036B00008400499496AB0EB811F17D1FFE70298CF
:1036C00000F440300499896AC9034FF6FF729143B0
:1036D000A1F58031884209D1FFE7029800F07060BF
:1036E0000499C96AB0EB016F04D0FFE701208DF89F
:1036F000170006E0FFE7FFE7FFE700208DF817005F
:10370000FFE79DF8170006B080BD000081B0009073
:1037100001B0704780B588B007900798006840688E
:10372000069007980068806805909DF8140000F0E6
:1037300040010020B0EB911F11D1FFE70598C007B1
:1037400068B1FFE79DF8180000F040010020B0EBE1
:10375000911F04D0FFE70798016C8847F0E09DF8BF
:10376000140000F002010020B0EB510F0BD0FFE776
:103770009DF818100020B0EBD11F04D0FFE7079888
:10378000416C8847DCE09DF8140000F02001002027
:10379000B0EB511F10D1FFE79DF8140000F040017D
:1037A0000020B0EB911F07D1FFE79DF81500C0077F
:1037B000002800F0C580FFE79DF8180000F0200108
:1037C0000020B0EB511F00F0BB80FFE79DF8140014
:1037D00000F040010020B0EB911F28D0FFE70798D0
:1037E00090F85100032813D0FFE70799486D40F087
:1037F00004004865FFE70020049007980068C0684F
:10380000049007980068806804900498FFE70DE032
:10381000FFE70020039007980068C06803900798AE
:103820000068806803900398FFE789E0FFE79DF850
:10383000140000F020010020B0EB511F15D0FFE76D
:103840000799486D40F001004865FFE700200290AD
:10385000079800688068029007980168086820F05F
:10386000400008600298FFE7FFE79DF81500C007D9
:1038700078B1FFE70799486D40F008004865FFE719
:103880000020019007980068806801900198FFE788
:10389000FFE70798406D002851D0FFE707980168BF
:1038A000486820F0E00048600799012081F8510045
:1038B000069800F00200022805D0FFE79DF81800E6
:1038C000C007B8B3FFE707980168486820F0030015
:1038D00048600798C06CA0B1FFE70798C16C46F636
:1038E0005150C0F6000008650798C06CFEF758F804
:1038F00030B1FFE70799486D40F040004865FFE7A9
:10390000FFE70798806CA0B1FFE70798816C46F647
:103910005150C0F6000008650798806CFEF740F82B
:1039200030B1FFE70799486D40F040004865FFE778
:10393000FFE703E00798FFF7E9FEFFE7FFE7FFE790
:1039400008B080BD80B584B00290029820B9FFE72E
:1039500001208DF80F0071E00298406A60B9FFE71E
:1039600002984068B0F5827F01D1FFE703E0029939
:103970000020C861FFE705E0029900200861029974
:103980004861FFE7029900208862029890F8510090
:1039900040B9FFE70299002081F85000029800F03A
:1039A00051F8FFE70299022081F85100029801685E
:1039B000086820F040000860029A0192116850687F
:1039C000D2F808C0D36800F482700CF4044C604450
:1039D00003F400631844136903F0020318445369A5
:1039E00003F001031844936903F400731844D36986
:1039F00003F038031844136A03F080031843926AF3
:103A000002F4005210430860029A508B00F0040048
:103A10001168526A02F0100210444860029801686E
:103A2000C86920F40060C861029900204865029AC4
:103A3000012182F851108DF80F00FFE79DF80F006B
:103A400004B080BD80B59AB01990002018901790EE
:103A50001690159014901998006843F20001C4F272
:103A60000101884267D1FFE7FFE70020139043F68A
:103A70004400C4F20200016841F480510160006812
:103A800000F4805013901398FFE7FFE70020129096
:103A900043F63000C4F20200016841F00101016008
:103AA000006800F0010012901298FFE7A020149027
:103AB0000220159000200B901690032017900520EF
:103AC00018900020C4F2020014A9FEF75FFA0B99C7
:103AD00040F2F020C2F200000C9046F25842C4F2CC
:103AE000020202604FF0C062426040228260C16008
:103AF0004FF48062026141618161C1610162416292
:103B0000FEF708F918B1FFE7FDF7D0FEFFE7FFE782
:103B1000199840F2F021C2F200018164199888637B
:103B2000FFE723200A9000221146FFF79DF80A982C
:103B3000FFF790F801E11998006843F60001C4F21C
:103B4000000188425FD1FFE7FFE70020119043F6B4
:103B50004000C4F20200016841F480410160006845
:103B600000F4804011901198FFE7FFE700201090CB
:103B700043F63000C4F20200016841F00401016024
:103B8000006800F0040010901098FFE7FFE70020A5
:103B90000F9043F63000C4F20200016841F00201C8
:103BA0000160006800F002000F900F98FFE70C2002
:103BB0001490022005901590002006901690032086
:103BC0000790179005200890189040F60000C4F266
:103BD000020014A90991FEF7D9F9DDF814C0069B7B
:103BE000079A089809994FF4806ECDF850E0CDF807
:103BF00054C016931792189040F20040C4F202008D
:103C0000FEF7C4F998E01998006843F60041C4F241
:103C10000001884240F08F80FFE7FFE700200E9010
:103C200043F64000C4F20200016841F40041016023
:103C3000006800F400400E900E98FFE7FFE70020B8
:103C40000D9043F63000C4F20200016841F0040117
:103C50000160006800F004000D900D98FFE74FF43C
:103C6000E05014900220159000200390169003203D
:103C700017900620189040F60000C4F2020014A924
:103C8000FEF784F9039940F25030C2F2000004902C
:103C900046F21002C4F20202026041608160C1601B
:103CA0004FF48062026141618161C16101624162E0
:103CB000FEF730F818B1FFE7FDF7F8FDFFE7FFE783
:103CC000199840F25031C2F20001C164199888631A
:103CD000FFE740F2B030C2F20000029046F2B801B5
:103CE000C4F2020101600021416040228260C16093
:103CF0004FF48062026141618161C1610162416290
:103D0000FEF708F818B1FFE7FDF7D0FDFFE7FFE782
:103D1000199840F2B031C2F20001816419988863A9
:103D2000FFE73320019000221146FEF79DFF019826
:103D3000FEF790FFFFE7FFE7FFE71AB080BD000046
:103D400080B584B002900191ADF80220029890F8FD
:103D50005100012804D0FFE702208DF80F00B7E0E2
:103D6000019820B1FFE7BDF8020020B9FFE701206C
:103D70008DF80F00ACE002988068A0B9FFE70298C8
:103D80004068B0F5827F0ED1FFE70299042081F8E8
:103D900051000298019ABDF80230114600F086FAEF
:103DA0008DF80F0094E0FFE7029890F8500001288A
:103DB00004D1FFE702208DF80F0089E0029901206D
:103DC00081F85000FFE7FFE70299042081F85100D5
:103DD0000299002048650199029A9163BDF802108A
:103DE000029A9187BDF80210029AD187029908645D
:103DF00002994864029988860299C8860298806868
:103E0000B0F5004F0DD1FFE702980168086820F077
:103E10004000086002980168086820F4804008604B
:103E2000FFE70298C16C46F6A550C0F60000086492
:103E30000298C16C46F6ED50C0F60000C8630298C7
:103E4000C16C46F67150C0F60000C8640298C16C9F
:103E500000200865029B19689A6BD86C0C31DB8FC7
:103E6000FEF710F878B1FFE70299486D40F01000B6
:103E70004865FFE70299002081F85000FFE7012024
:103E80008DF80F0024E002980068006800F0400000
:103E9000402807D0FFE702980168086840F040001A
:103EA0000860FFE7FFE70299002081F85000FFE774
:103EB00002980168486840F0200048600298016854
:103EC000486840F00100486000208DF80F00FFE7CF
:103ED0009DF80F0004B080BD81B00090009840F2C2
:103EE000D851C2F20001884207D1FFE740F28C119D
:103EF000C2F2000101200870FFE701B07047000026
:103F000081B0009001B0704780B58CB0DDF838C04A
:103F10000A9009910892ADF81E3001200390FEF737
:103F20002BFA04900A9890F851008DF817000A981F
:103F300040680690BDF81E00ADF81C009DF8170003
:103F4000012812D0FFE70698B0F5827F09D1FFE77C
:103F50000A98806828B9FFE79DF81700042804D064
:103F6000FFE702208DF82F009BE1099838B1FFE7A9
:103F7000089820B1FFE7BDF81E0020B9FFE7012037
:103F80008DF82F008DE1FFE70A9890F85000012886
:103F900004D1FFE702208DF82F0082E10A99012069
:103FA00081F85000FFE7FFE70A9890F851000428D5
:103FB00005D0FFE70A99052081F85100FFE70A992B
:103FC0000020486508990A9A9163BDF81E100A9A64
:103FD000D187BDF81E100A9A918709990A9A116330
:103FE000BDF81E100A9AD186BDF81E100A9A918655
:103FF0000A9908640A9948640A980068006800F001
:104000004000402807D0FFE70A980168086840F0A0
:1040100040000860FFE70A98C068B0F5006F40F004
:104020008180FFE70A98406828B1FFE7BDF81C00CF
:1040300001280ED1FFE70A980168006B0088C8606C
:104040000A99086B023008630A99C88E0138C8863D
:10405000FFE7FFE70A98C18E0120019039B9FFE719
:104060000A98C08F002818BF01200190FFE701982F
:10407000C007002855D0FFE70A98006880688007CD
:10408000002818D5FFE70A98C08EA0B1FFE7039873
:10409000012810D1FFE70A980168006B0088C8600A
:1040A0000A99086B023008630A99C88E0138C886DD
:1040B00000200390FFE70A9800688068C007A8B155
:1040C000FFE70A98C08F88B1FFE70A980068C068C8
:1040D0000A99896B08800A99886B023088630A996B
:1040E000C88F0138C88701200390FFE7FEF744F925
:1040F0000499401A0E99884212D3FFE70E980130B6
:1041000070B1FFE70A99012081F85100FFE70A9991
:10411000002081F85000FFE703208DF82F00C0E059
:1041200098E782E00A98406828B1FFE7BDF81C00D4
:1041300001280ED1FFE70A980168006B0078087328
:104140000A99086B013008630A99C88E0138C8863D
:10415000FFE7FFE70A98C18E0120009039B9FFE719
:104160000A98C08F002818BF01200090FFE7009830
:10417000C007002858D0FFE70A98006880688007C9
:10418000002818D5FFE70A98C08EA0B1FFE7039872
:10419000012810D1FFE70A980168006B00780873C6
:1041A0000A99086B013008630A99C88E0138C886DD
:1041B00000200390FFE70A9800688068C007A8B154
:1041C000FFE70A98C08F88B1FFE70A980068C068C7
:1041D0000A99896B08700A99886B013088630A997B
:1041E000C88F0138C88701200390FFE7FEF7C4F8A5
:1041F0000499401A0E99884204D3FFE70E980130C3
:1042000018B9FFE70E9870B9FFE70A99012081F805
:104210005100FFE70A99002081F85000FFE70320D2
:104220008DF82F003DE095E7FFE70A980E99049A74
:1042300002F038FF68B1FFE70A9920204865FFE7E0
:104240000A99002081F85000FFE701208DF82F0027
:1042500027E00A98806870B9FFE7FFE70020029026
:104260000A980068C06802900A9800688068029006
:104270000298FFE7FFE70A99012081F85100FFE764
:104280000A99002081F85000FFE70A98406D20B19C
:10429000FFE701208DF82F0003E000208DF82F00AC
:1042A000FFE79DF82F000CB080BD000080B588B0FE
:1042B000069005910492ADF80E30069890F85100E2
:1042C0008DF807000698406802909DF807000128C5
:1042D00012D0FFE70298B0F5827F09D1FFE7069878
:1042E000806828B9FFE79DF80700042804D0FFE79D
:1042F00002208DF81F00DFE0059838B1FFE7049831
:1043000020B1FFE7BDF80E0020B9FFE701208DF8CE
:104310001F00D1E0FFE7069890F85000012804D173
:10432000FFE702208DF81F00C6E00699012081F802
:104330005000FFE7FFE7069890F85100042805D0E9
:10434000FFE70699052081F85100FFE70699002054
:1043500048650599069A1163BDF80E10069A918674
:10436000BDF80E10069AD1860499069A9163BDF89D
:104370000E10069A9187BDF80E10069AD1870699FD
:10438000086406994864069890F8510004280FD1F3
:10439000FFE70698C16C46F6A550C0F60000086419
:1043A0000698C16C46F6ED50C0F60000C8630EE0FA
:1043B0000698C16C46F6D550C0F600000864069811
:1043C000C16C46F63970C0F60000C863FFE7069876
:1043D000C16C46F67150C0F60000C8640698C16C06
:1043E00000200865069B19689A6BD86C0C31DB8F2E
:1043F000FDF748FD78B1FFE70699486D40F01000E1
:104400004865FFE70699002081F85000FFE701208A
:104410008DF81F0050E006980168486840F00100E0
:1044200048600698816C002008640699896CC8630E
:104430000699896CC8640699896C0865069B1A6898
:10444000196B986C0C32DB8EFDF71CFD78B1FFE721
:104450000699486D40F010004865FFE70699002076
:1044600081F85000FFE701208DF81F0024E0069836
:104470000068006800F04000402807D0FFE7069879
:104480000168086840F040000860FFE7FFE7069910
:10449000002081F85000FFE706980168486840F066
:1044A0002000486006980168486840F002004860B3
:1044B00000208DF81F00FFE79DF81F0008B080BDA9
:1044C00080B584B002900191ADF80220029890F876
:1044D0005100012804D0FFE702208DF80F00A1E071
:1044E000019820B1FFE7BDF8020020B9FFE70120E5
:1044F0008DF80F0096E0FFE7029890F85000012831
:1045000004D1FFE702208DF80F008BE00299012013
:1045100081F85000FFE7FFE70299032081F851007E
:104520000299002048650199029A1163BDF80210B2
:10453000029A9186BDF80210029AD1860299886388
:104540000299486402990864029988870299C88789
:1045500002988068B0F5004F0DD1FFE7029801681E
:10456000086820F04000086002980168086840F47C
:1045700080400860FFE70298816C46F6BD50C0F6A7
:10458000000008640298816C46F69160C0F6000055
:10459000C8630298816C46F67150C0F60000C8648A
:1045A0000298816C00200865029B1A68196B986C50
:1045B0000C32DB8EFDF766FC78B1FFE70299486D9F
:1045C00040F010004865FFE70299002081F8500094
:1045D000FFE701208DF80F0024E0029800680068D2
:1045E00000F04000402807D0FFE702980168086803
:1045F00040F040000860FFE7FFE70299002081F8E3
:104600005000FFE702980168486840F020004860C9
:1046100002980168486840F00200486000208DF868
:104620000F00FFE79DF80F0004B080BD81B000903F
:10463000009840F22851C2F20001884207D1FFE7FA
:1046400040F28D11C2F2000101200870FFE701B0B5
:104650007047000081B0009001B0704781B00090B9
:1046600001B0704781B0009001B0704780B582B052
:104670000190019803F022F802B080BD81B0009053
:1046800001B0704781B0009001B0704780B582B032
:104690000090009820B9FFE701208DF807003FE067
:1046A000009890F83D0040B9FFE70099002081F89C
:1046B0003C00009800F038F8FFE70099022081F8EC
:1046C0003D00009951F8040B03F0A8F8009901206F
:1046D00081F84600FFE70099012081F83E0000992B
:1046E00081F83F00009981F84000009981F841006D
:1046F000FFE7FFE70099012081F84200009981F867
:104700004300009981F84400009981F84500FFE7D3
:104710000099012081F83D0000208DF80700FFE797
:104720009DF8070002B080BD80B584B00390039867
:10473000006844F60001C4F2010188421BD1FFE782
:10474000FFE70020029043F64400C4F20200016833
:1047500041F480210160006800F4802002900298FA
:10476000FFE71A20019000221146FEF77DFA01981A
:10477000FEF770FAFFE704B080BD000083B001903F
:10478000019890F83D00012804D0FFE701208DF842
:104790000B0058E00199022081F83D000198016862
:1047A000C86840F00100C860019800680021C4F2A8
:1047B000010188422AD0FFE701980068B0F1804FDC
:1047C00024D0FFE70198006840F20041C4F20001E4
:1047D00088421BD0FFE70198006840F60001C4F250
:1047E0000001884212D0FFE70198006840F60041BE
:1047F000C4F20001884209D0FFE70198006844F242
:104800000001C4F20101884212D1FFE7019800685B
:10481000806800F0070000900098062807D0FFE7A6
:1048200001980168086840F001000860FFE706E0B1
:1048300001980168086840F001000860FFE7002067
:104840008DF80B00FFE79DF80B0003B070470000E8
:1048500081B0009001B0704780B584B00390039898
:104860000068C068029003980068006901909DF894
:1048700004008007002824D5FFE79DF80800800782
:1048800000281DD5FFE7039801686FF0020008615A
:10489000039901200877039800688069800720B198
:1048A000FFE70398FFF7D4FF06E0039800F0E2F873
:1048B000039800F0E3F8FFE7039900200877FFE78B
:1048C000FFE79DF804004007002825D5FFE79DF885
:1048D0000800400700281ED5FFE7039801686FF025
:1048E0000400086103990220087703980068806932
:1048F00010F4407F04D0FFE70398FFF7A9FF06E01C
:10490000039800F0B7F8039800F0B8F8FFE70399B0
:1049100000200877FFE7FFE79DF804000007002864
:1049200024D5FFE79DF80800000700281DD5FFE704
:10493000039801686FF00800086103990420087764
:1049400003980068C069800720B1FFE70398FFF76C
:104950007FFF06E0039800F08DF8039800F08EF8D2
:10496000FFE7039900200877FFE7FFE79DF80400C1
:10497000C006002825D5FFE79DF80800C0060028DE
:104980001ED5FFE7039801686FF0100008610399D6
:104990000820087703980068C06910F4407F04D0AD
:1049A000FFE70398FFF754FF06E0039800F062F872
:1049B000039800F063F8FFE7039900200877FFE70A
:1049C000FFE79DF80400C00778B1FFE79DF80800F5
:1049D000C00748B1FFE7039801686FF00100086164
:1049E000039800F04FF8FFE7FFE79DF8040000068A
:1049F000002810D5FFE79DF808000006002809D51B
:104A0000FFE7039801686FF0800008610398FFF7E3
:104A100035FEFFE7FFE79DF804004006002810D5AB
:104A2000FFE79DF808004006002809D5FFE7039836
:104A300001686FF040000861039800F027F8FFE775
:104A4000FFE79DF804008006002810D5FFE79DF8D9
:104A500008008006002809D5FFE7039801686FF079
:104A6000200008610398FFF70DFEFFE7FFE704B0A1
:104A700080BD000081B0009001B0704781B000900F
:104A800001B0704781B0009001B0704781B00090D4
:104A900001B0704780B586B004900391ADF80A204C
:104AA000049890F84200202848D1FFE7039820B1ED
:104AB000FFE7BDF80A0020B9FFE701208DF81700D5
:104AC00040E0049901200863049900204863049899
:104AD0000399BDF80A2003F039FA8DF8090004980B
:104AE000006B012821D1FFE7FFE700200190049827
:104AF000006800680190049800684068019001987F
:104B0000FFE7FFE7FFE70498006850E8030F40F075
:104B100010000090FFE700990498026842E8031033
:104B20000028F0D1FFE7FFE703E001208DF809003E
:104B3000FFE79DF809008DF8170003E002208DF8CB
:104B40001700FFE79DF8170006B080BD80B582B062
:104B50000190ADF802100198006844F20041C4F2DF
:104B6000000188421CD1FFE740F2C060C2F20000A1
:104B700040F20971C2F200014FF48062FFF78AFF30
:104B800040F27001C2F200010120087040F2704052
:104B9000C2F200000168086820F008000860FFE722
:104BA00002B080BD80B584B003900398006844F2E1
:104BB0000041C4F2000188421CD1FFE740F2C0600E
:104BC000C2F2000040F20971C2F2000102914FF4FA
:104BD00080620192FFF75EFF0199029840F27042F5
:104BE000C2F2000213681A6822F008021A60FBF78A
:104BF00043FCFFE704B080BD80B592B011901198DE
:104C000000680068109011980068C0680F901198B3
:104C1000006840690E9000200D900C90109800F0F4
:104C20000F000D900D9888B9FFE79DF840008006B1
:104C300000280AD5FFE79DF83C008006002804D52F
:104C4000FFE7119803F030F802E2FFE70D98002823
:104C500000F0C280FFE79DF83800C00738B9FFE7D1
:104C6000BDF83C0010F4907F00F0B680FFE79DF89F
:104C70004000C00758B1FFE79DF83D00C00730B1C4
:104C8000FFE71199486C40F001004864FFE79DF888
:104C90004000400700280BD5FFE79DF83800C0070B
:104CA00030B1FFE71199486C40F002004864FFE71B
:104CB0009DF84000800700280BD5FFE79DF83800DD
:104CC000C00730B1FFE71199486C40F00400486418
:104CD000FFE79DF840000007002811D5FFE79DF889
:104CE0003C008006002805D4FFE79DF83800C00787
:104CF00030B1FFE71199486C40F008004864FFE7C5
:104D00001198406C002866D0FFE79DF840008006AF
:104D100000280AD5FFE79DF83C008006002804D54E
:104D2000FFE7119802F0C0FFFFE7119800684069A3
:104D3000C0F380100C901198406C0007002804D438
:104D4000FFE70C9800283ED0FFE7119802F032FFF1
:104D5000119800684069400600282FD5FFE7FFE75B
:104D6000FFE71198006850E8050F20F040000B9015
:104D7000FFE70B991198026842E805100028F0D16E
:104D8000FFE7FFE71198C06B98B1FFE71198C16B7F
:104D900047F66110C0F6000008651198C06BFCF77B
:104DA000FFFD28B1FFE71198C06B016D8847FFE751
:104DB00003E01198FFF7F6FEFFE703E01198FFF715
:104DC000F1FEFFE706E01198FFF7ECFE11990020D5
:104DD0004864FFE7FFE73BE11198006B012840F0D2
:104DE0001781FFE79DF84000C006002840F11081C0
:104DF000FFE79DF83C00C006002840F10981FFE76D
:104E0000FFE700200A901198006800680A90119846
:104E1000006840680A900A98FFE7119800684069A6
:104E20004006002840F19A80FFE71198C06B0068A7
:104E30004068ADF82600BDF82600002875D0FFE7D1
:104E4000BDF826001199898D88426EDAFFE7BDF81A
:104E500026001199C8851198C06BC069B0F5807F94
:104E600058D0FFE7FFE7FFE71198006850E8030F0D
:104E700020F480700890FFE708991198026842E8D2
:104E800003100028F0D1FFE7FFE7FFE7FFE71198E5
:104E9000006850E8050F20F001000790FFE7079930
:104EA0001198026842E805100028F0D1FFE7FFE7FB
:104EB000FFE7FFE71198006850E8050F20F0400079
:104EC0000690FFE706991198026842E8051000284D
:104ED000F0D1FFE7FFE71199202081F842001199F6
:104EE00000200863FFE7FFE71198006850E8030F10
:104EF00020F010000590FFE705991198026842E83C
:104F000003100028F0D1FFE7FFE71198C06BFCF712
:104F1000D1FCFFE71199022048631198818DC28D61
:104F2000891A89B2FFF712FE17E0BDF82600119921
:104F3000898D884210D1FFE71198C06BC069B0F528
:104F4000807F08D1FFE71199022048631198818D75
:104F5000FFF7FCFDFFE7FFE7FFE779E01199888D98
:104F6000C98D401AADF812001198C08D00284ED09E
:104F7000FFE7BDF81200002849D0FFE7FFE7FFE791
:104F80001198006850E8030F20F490700390FFE739
:104F900003991198026842E803100028F0D1FFE756
:104FA000FFE7FFE7FFE71198006850E8050F20F0E2
:104FB00001000290FFE702991198026842E805108B
:104FC0000028F0D1FFE7FFE71199202081F8420087
:104FD000119900200863FFE7FFE71198006850E887
:104FE000030F20F010000190FFE70199119802686B
:104FF00042E803100028F0D1FFE7FFE711990220F3
:1050000048631198BDF81210FFF7A0FDFFE71FE0FD
:105010009DF84000000600280AD5FFE79DF83C00F7
:105020000006002804D5FFE7119803F027F80FE0E9
:105030009DF84000400600280AD5FFE79DF83C0097
:105040004006002804D5FFE7119802F0FDFDFFE7B8
:1050500012B080BD80B582B00090009820B9FFE703
:1050600001208DF8070040E00098806908B1FFE753
:1050700000E0FFE7009890F8410040B9FFE7009991
:10508000002081F84000009800F034F8FFE7009914
:10509000242081F8410000980168C86820F400507D
:1050A000C860009802F0B4FE00980168086920F416
:1050B0009040086100980168486920F02A00486122
:1050C00000980168C86840F40050C860009900204A
:1050D0004864009A202182F84110009A82F8421018
:1050E000009948638DF80700FFE79DF8070002B0BC
:1050F00080BD000080B590B00F9000200E900D9004
:105100000C900B900A900F98006841F20001C4F2D5
:105110000101884268D1FFE7FFE70020099043F6CC
:105120004400C4F20200016841F01001016000680F
:1051300000F0100009900998FFE7FFE700200890B1
:1051400043F63000C4F20200016841F00101016041
:10515000006800F0010008900898FFE74FF4C06075
:105160000A9002200B90002004900C9003200D90D8
:1051700007200E900020C4F202000AA9FCF706FFE7
:10518000049940F21040C2F20000059046F2B84285
:10519000C4F2020202604FF000624260402282606C
:1051A000C1604FF48062026141618161C16101624D
:1051B0004162FCF7AFFD18B1FFE7FCF777FBFFE7B3
:1051C000FFE70F9840F21041C2F2000181630F988F
:1051D0008863FFE72520039001210022FDF744FDAD
:1051E0000398FDF737FD6FE00F98006844F2004127
:1051F000C4F20001884266D1FFE7FFE70020079074
:1052000043F64000C4F20200016841F4003101603D
:10521000006800F4003007900798FFE7FFE70020E0
:10522000069043F63000C4F20200016841F001012B
:105230000160006800F0010006900698FFE70C206E
:105240000A9002200B90002001900C9003200D90FA
:1052500007200E900020C4F202000AA9FCF796FE77
:10526000019940F27040C2F20000029046F28802BA
:10527000C4F2020202604FF0006242608160C160CD
:105280004FF48062026141618161C16101624162EA
:10529000FCF740FD18B1FFE7FCF708FBFFE7FFE76D
:1052A0000F9840F27041C2F20001C1630F98886309
:1052B000FFE72620009000221146FDF7D5FC00985C
:1052C000FDF7C8FCFFE7FFE710B080BD81B000909C
:1052D00001B0704781B0009001B0704780B586B0D2
:1052E00004900391ADF80A20049890F8410020281A
:1052F0006AD1FFE7039820B1FFE7BDF80A0020B9A3
:10530000FFE701208DF8170062E003980499086216
:10531000BDF80A0004998884BDF80A000499C8847D
:10532000049900204864049A212182F841100499CC
:105330008A6B47F62131C0F60001D16304998A6B6C
:1053400047F69D31C0F60001116404998A6B47F657
:105350007D11C0F60001D1640499896B086503A82A
:10536000019004980268806B019909680432BDF8C5
:105370000A30FCF787FD58B1FFE704991020486414
:105380000499202081F8410001208DF817001FE0CA
:10539000049801686FF040000860FFE7FFE7049899
:1053A000006850E8050F40F080000090FFE700998A
:1053B0000498026842E805100028F0D1FFE7FFE7F3
:1053C00000208DF8170003E002208DF81700FFE79A
:1053D0009DF8170006B080BD81B0009001B0704705
:1053E00081B0009001B07047FFE7FEE780B540F262
:1053F000D440C2F20000FCF7D1FF80BD81B0009024
:105400000098C06AB0F52A0F04D1FFE70099012087
:10541000C8620BE00098C06AB0F12A4F04D1FFE7E0
:1054200000990820C86200E0FFE7FFE701B070477D
:1054300080B584B00390002002900398806B0190A7
:10544000019890F83D008DF8030040F20000C2F290
:105450000000006848F21F51C5F2EB11A0FB0110DB
:10546000C00844F6D351C1F26201A0FB01108009CB
:10547000232148430290FFE7029830B9FFE70199E2
:10548000086C40F0200008640CE00298013802909B
:10549000FFE701980068006800F40070B0F5007F35
:1054A000EAD0FFE70198406B28B1FFE70198416B14
:1054B0000020C863FFE70198806B28B1FFE70198DF
:1054C000816B0020C863FFE701980168086820F439
:1054D000806008600199002048850198406B28B1E0
:1054E000FFE70198416B00200865FFE70198806B9A
:1054F00028B1FFE70198816B00200865FFE701985C
:105500000168086820F001000860019890F83D00EB
:1055100060280ED1FFE70199202081F83D00019914
:10552000002081F83E00019908640198FCF72AFFE9
:1055300027E09DF8030000F02800282814D1FFE799
:1055400001980168086840F001000860019801684E
:10555000086840F4806008600199002008630199A0
:10556000282081F83D0008E00199202081F83D00C5
:105570000199002081F83E00FFE70198FDF7F4F85B
:10558000FFE704B080BD000081B000900098006883
:105590004069C1B20020B0EBD11F05D0FFE70098F1
:1055A000016800200861FFE701B0704780B584B052
:1055B0000390039890F83D008DF80B00039890F845
:1055C0003E008DF80A009DF80A00102805D0FFE77C
:1055D0009DF80A0040280CD1FFE79DF80B00222817
:1055E00007D1FFE703980168086820F400600860AD
:1055F000FFE79DF80B0000F02800282808D1FFE7FE
:105600000399002008630399282081F83D001AE0DF
:1056100003980068406800F40060B0F5006F0ED099
:10562000FFE79DF80B00602809D0FFE703992020D1
:1056300081F83D000399002081F83E00FFE70399BF
:1056400000200863FFE70398006840680005002811
:105650005DD5FFE703980168486820F40060486062
:105660000398406B90F8350001281DD0FFE70398A0
:10567000416B45F23140C0F6000008650398406B6D
:10568000FCF78EF978B1FFE703980168086820F00D
:10569000010008600399202081F83D000398406BC9
:1056A000016D8847FFE731E00398816B45F2314097
:1056B000C0F6000008650398806BFCF771F920B311
:1056C000FFE703980068406900F040010120B0EB5B
:1056D000911F0BD1FFE70398006800690399496A9D
:1056E00008700399486A01304862FFE7039801682F
:1056F000086820F0010008600399202081F83D002F
:105700000398806B016D8847FFE7FFE745E003984A
:1057100090F83D00602826D1FFE70399202081F80A
:105720003D0003990020086403980068406900F078
:1057300040010120B0EB911F0BD1FFE703980068F7
:1057400000690399496A08700399486A0130486200
:10575000FFE703980168086820F0010008600398DB
:10576000FCF710FE18E003980068406900F0400163
:105770000120B0EB911F0BD1FFE70398006800698F
:105780000399496A08700399486A01304862FFE743
:105790000398FCF7E9FFFFE7FFE70398006C01902F
:1057A0009DF80400C00790B9FFE7019800F00200DF
:1057B00002280CD0FFE7019800F00400042806D06E
:1057C000FFE79DF804000007002807D5FFE70398CE
:1057D0000168486820F4E0604860FFE7039890F8AB
:1057E0003D008DF80B000398006C4007002818D589
:1057F000FFE79DF80B00282813D1FFE7039900204D
:10580000CFF6FF70C862039900200863039A202135
:1058100082F83D10039981F83E000398FDF7FAF8ED
:10582000FFE704B080BD000080B582B00190019810
:10583000C06A00900198408D042815D1FFE70198B7
:105840000168486820F48060486001980068006939
:105850000199496A08700199486A013048620199C2
:10586000488D01384885B3E00198408D032824D144
:10587000FFE701980168486820F48060486000985C
:1058800004280BD0FFE70098022807D0FFE7019813
:105890000168086820F480600860FFE701980068EC
:1058A00000690199496A08700199486A01304862A3
:1058B0000199488D0138488589E00198408D02287A
:1058C00075D1FFE70098012804D0FFE70098102861
:1058D00007D1FFE701980168086820F4806008603C
:1058E00016E00098042804D0FFE70098022807D1AA
:1058F000FFE701980168086840F48060086006E0EE
:1059000001980168086840F400700860FFE7FFE74D
:105910000198006800690199496A08700199486A0C
:10592000013048620199488D013848850198006826
:1059300000690199496A08700199486A0130486212
:105940000199488D0138488501980168486820F41C
:10595000407048600199202081F83D00019890F83E
:105960003E0040280AD1FFE70199002081F83E005F
:10597000019908630198FDF759F817E00199002093
:1059800081F83E000098082804D0FFE700982028FE
:1059900004D1FFE701990020086303E00199122078
:1059A0000863FFE70198FDF739F8FFE70EE001987B
:1059B000006800690199496A08700199486A0130D4
:1059C00048620199488D01384885FFE7FFE7FFE706
:1059D00002B080BD80B584B00390039890F83D007C
:1059E000222840F0AA80FFE70398C06A019003983C
:1059F000408D0290029804281BD3FFE703980068AB
:105A000000690399496A08700399486A013048623D
:105A10000399488D013848850398408D032807D1A4
:105A2000FFE703980168486820F480604860FFE75A
:105A300082E00398C06A022876D0FFE70298012826
:105A400004D0FFE7029800286ED1FFE7039800F02A
:105A500071FE002847D1FFE703980168086820F429
:105A60008060086003980168486820F4E06048603E
:105A70000398006800690399496A08700399486AA5
:105A8000013048620399488D0138488503992020E8
:105A900081F83D00039890F83E0040280AD1FFE7C6
:105AA0000399002081F83E00039908630398FCF7EE
:105AB000BDFF17E00399002081F83E0001980828F7
:105AC00004D0FFE70198202804D1FFE703990020C4
:105AD000086303E0039912200863FFE70398FCF7CB
