:020000040800F2
:1000000090AE0020610200086F2C00084F27000806
:100010006D2C0008610600089146000800000000F1
:100020000000000000000000000000006141000826
:10003000E706000800000000333D000863410008A7
:100040007B0200087B0200087B0200087B0200089C
:100050007B0200087B0200087B0200087B0200088C
:100060007B0200087B0200087B0200087B0200087C
:100070007B0200087B0200087B0200087B0200086C
:1000800065060008710600087B02000800000000F9
:100090000000000000000000000000007B020008DB
:1000A0007B0200087B020008114200087B02000866
:1000B0007B0200087B0200087B0200085127000831
:1000C0007B0200087B0200087B020008353D000827
:1000D0007B0200087D4600088946000800000000F9
:1000E0007B0200087B0200087B0200080000000081
:1000F0000000000000000000000000007B0200087B
:10010000000000007B0200087B0200087B02000860
:1001100000000000000000000000000000000000DF
:100120007B0200087B0200087B0200087D060008B5
:100130007B0200080000000000000000000000003A
:100140000000000000000000000000007B0200082A
:100150007B0200087B020008890600087B02000879
:100160007B0200087B020008000000000000000085
:10017000000000000000000000000000000000007F
:10018000000000007B0200080000000000000000EA
:100190007B02000800F002F800F052F814A696E87E
:1001A000000CB244B344DA4501D100F049F8BAE892
:1001B0000F000FA696E83000A5EB040504EB060738
:1001C000AAEB0704A7F101074FEA15154FEA34140B
:1001D000A4F10104AC4201D300F032F813F0010F96
:1001E00018BFFB1A43F0010300F001F8DBE71847E2
:1001F000748E0200948E0200103A24BF78C878C131
:10020000FAD8520724BF30C830C144BF04680C601C
:1002100070470000704700000023002400250026DE
:10022000103A28BF78C1FBD8520728BF30C148BF59
:100230000B6070471FB524F042FC1FBD10B510BD08
:1002400000F0DBF91146FFF7F5FF20F0B3FD00F0F9
:10025000F9F903B4FFF7F2FF03BC00F0C7F900009F
:100260000948804709480047FEE7FEE7FEE7FEE74A
:10027000FEE7FEE7FEE7FEE7FEE7FEE70448054986
:10028000054A064B7047000001420008950100082E
:10029000904E002090AE0020906E0020906E0020C6
:1002A00053EA020C00F069802DE9F04B4FF0000694
:1002B000002B1FBFB3FA83F503FA05F424FA05F601
:1002C0005E4012BF1643B2FA82F502FA05F4C5F198
:1002D00020051EBF22FA05FC44EA0C04203556EA2C
:1002E000044C4FEA144418BF641C4FF000084FF050
:1002F0000009904271EB030C39D3002919BFB1FA00
:1003000081F701FA07F6B0FA80F700FA07F6C7F1AD
:1003100020071EBF20FA07FC46EA0C062037B6FB72
:10032000F4FCA7EB0507103F07F01F0BCBF12006ED
:100330002CFA06F60CFA0BFB44BFB3460026202F1E
:10034000A4BF5E464FF0000B5BEA060C08BF4FF0FF
:10035000010B19EB0B0948EB0608ABFB027C06FB13
:1003600002CC0BFB03CCC01B71EB0C01C1E70B46AD
:10037000024641464846BDE8F08B13B5084318BF16
:100380004FF0FF300146AFF30080BDE81C407047DE
:1003900040EA0103024630B59B0710D14FF001340B
:1003A00000E008C208C91D1B9D4315EAC41FF8D010
:1003B00013F0FF0102F8011B0DD01B0AF8E711F83A
:1003C000013B002B02F8013B05D011F8013B002B4B
:1003D00002F8013BF3D130BD10B5431C02E010F828
:1003E000011B71B18107FAD14FF0013202C88C1A9A
:1003F0008C4314EAC211F9D0C01A0A0603D0C01EF9
:1004000010BDC01A10BD0A0401D0801E10BD090223
:10041000FCD0401E10BD032A40F2308010F0030CC7
:1004200000F0158011F8013BBCF1020F624498BF47
:1004300011F801CB00F8013B38BF11F8013BA2F1E4
:10044000040298BF00F801CB38BF00F8013B11F05F
:10045000030300F02580083AC0F0088051F8043BFF
:10046000083A51F804CBA0E80810F5E7121D5CBF6C
:1004700051F8043B40F8043BAFF30080D20724BF9F
:1004800011F8013B11F801CB48BF11F8012B24BF33
:1004900000F8013B00F801CB48BF00F8012B704782
:1004A00010B5203AC0F00B80B1E81850A0E8185001
:1004B000B1E81850A0E81850203ABFF4F5AF5FEA51
:1004C000027C24BFB1E81850A0E8185044BF18C9F6
:1004D00018C0BDE810405FEA827C24BF51F8043B9D
:1004E00040F8043B08BF7047D20728BF31F8023BF1
:1004F00048BF11F8012B28BF20F8023B48BF00F885
:10050000012B704702F0FF0343EA032242EA024252
:1005100000F002B84FF0000200B51346944696462C
:10052000203922BFA0E80C50A0E80C50B1F1200106
:10053000BFF4F7AF090728BFA0E80C5048BF0CC0B4
:100540005DF804EB890028BF40F8042B08BF704712
:1005500048BF20F8022B11F0804F18BF00F8012B84
:10056000704700000000000030B44FF0013C50F82C
:10057000042B51F8043BCCFA52F4D51A20D1FCB923
:1005800050F8042B51F8043BCCFA52F4D51A17D189
:10059000B4B950F8042B51F8043BCCFA52F4D51AF4
:1005A0000ED16CB950F8042B51F8043BCCFA52F43C
:1005B000D51A05D1002CDAD030BC4FF000007047BE
:1005C00029BAB1FA81F111F01801D1F1200084406B
:1005D000F2D1CA40CB4012F0FF0213F0FF0330BC4F
:1005E000D01A7047704770477047000001491820C3
:1005F000ABBEFEE7260002007047754600F02CF8FF
:10060000AE4605006946534620F00700854618B0FF
:1006100020B5FFF733FEBDE820404FF000064FF055
:1006200000074FF000084FF0000BAC46ACE8C009E3
:10063000ACE8C009ACE8C009ACE8C00921F007018A
:100640008D46704710B50446AFF300802046BDE8E4
:100650001040FFF7FEBD000000487047A0000020DA
:10066000FEE70000014800F093B800BFE41200204C
:10067000014800F08DB800BFC4110020014800F00F
:1006800087B800BF24120020014800F081B800BFE5
:1006900084120020026840F2FF3122EA010102F0D8
:1006A000F802103A5F2A88BF043181651823B2FB33
:1006B000F3F202A39A5CC265084670470006101662
:1006C00000061016B0B50468806825684028084602
:1006D00025F480252560636008BF1046A06008BF30
:1006E0000A46E260B0BD704772B6FEE770B5866D2F
:1006F000044600F09BFA054694F83500022821D103
:100700002068216C026822F016020260426922F021
:100710008002426109B9A16C19B1016821F0080198
:10072000016002F02BFC20680068C0070ED000F0CA
:100730007DFA401B0628F6D320206065032084F84C
:1007400035000CE080206065012008E0E06D3F216D
:1007500001FA00F0B060012084F83500002000218B
:1007600084F8341070BD90F83510022909D10521A4
:1007700080F835100068724602F000FC96460020B2
:100780007047802141650120704790F8350070471F
:10079000F8B504460020544A08210090D4E91660B8
:1007A00015683768814039420CD0226813685B07AE
:1007B00008D5136823F004031360B160616D41F044
:1007C0000101616501218140394208D022685269E6
:1007D000120604D5B160616D41F00201616504212A
:1007E0008140394208D022681268920704D5B1606E
:1007F000616D41F00401616510218140394217D0DB
:1008000020680268120713D5B160026801685203BC
:1008100006D4C90506D4016821F00801016001E091
:10082000080301D4216C00E0A16C09B1204688477F
:10083000E16D202000FA01F23A4233D020680368CB
:10084000DB062FD5B26094F835300268052B15D140
:1008500022F016020260426922F080024261226C9C
:100860000AB9A26C1AB1026822F0080202603F20A5
:100870008840B06002F02EFA216D2FE0016852032B
:1008800008D4C9050AD4016821F01001016002F002
:1008900021FA03E0080301D4616C00E0E16B09B1C7
:1008A00020468847606DF0B1606DC00715D0052106
:1008B0004FF4165084F83510B5FBF0F021680A6843
:1008C00022F001020A60009A01328242009202D8AC
:1008D0000A68D207F7D102F0FDF9E16C19B12046A0
:1008E000BDE8F8400847F8BD5C0000202DE9F04164
:1008F000044600F09BF9ACB10546022084F83500AF
:1009000002F092FD206802F039FB21680868C007F8
:100910000BD000F08BF9401B0528F6D903252026C3
:1009200003205BE00120BDE8F081086804F1040CBD
:100930002D4A9CE8E81100EA020ED4E9072043EAB8
:100940000E032B4333433B4343EA08031A43636AD2
:10095000104340EA0C02042B03D1D4E90B052843D1
:1009600002430A60042B486920F0070040EA0302B2
:1009700028D1D4E90A733A4323B3BCF5005F08D009
:10098000BCF1000F14D1022F15D0012F0AD0002F77
:1009900010E0032F16D8012540260120DFE807F0DC
:1009A0001E0B1E02A3F1C070B0FA80F0400904E0F3
:1009B000032F03D306D1C3F3006018B101254026ED
:1009C00001200BE020464A61FFF764FEE16D3F2203
:1009D0000026012502FA01F181600020666584F895
:1009E0003550BDE8F08100BF3F8010F0B0B502F097
:1009F00063FE27D00120A56D84F8340094F83500FB
:100A000001281DD1022084F83500002060652046B1
:100A1000FFF758FEE26D3F232068216C03FA02F2D3
:100A2000AA60026842F01602026019B1016841F042
:100A300008010160016841F0010101600020B0BDC2
:100A400002F0F2FC0220B0BDB0B5044600F0EEF8B2
:100A500005460548611C007818BF044400F0E6F81C
:100A6000401BA042FAD3B0BD000000202DE9FC4F8E
:100A7000614A07244FF0010A4FF0000B90425F4A91
:100A800008BF04248305024443EA9222042A38BFA3
:100A90001446009400250022102A08BFBDE8FC8FF0
:100AA0000F680AFA02F917EA090700F09F80D1F8E7
:100AB00004C0032303FA0BF60CF0030E6FEA0608DA
:100AC000AEF10106012E13D88668D1F80CA00AFAFF
:100AD0000BF406EA08064FF0010A34438460CCF3B5
:100AE00000144668944026EA09063443446005E051
:100AF000BEF1030F02D14FF0030E21E0C4688E68EF
:100B000004EA080406FA0BF63443BEF1020FC4608F
:100B100016D105F01C040F2303FA04FC6FF0030345
:100B200003EA520303441E6A26EA0C0C0E6906FA15
:100B300004F444EA0C041C62D1F804C00CF0030E67
:100B400004680EFA0BF304EA080423431CF4403F44
:100B500003604BD000232C4CA84622F003060193DF
:100B6000236843F48043236023680F2403F4804305
:100B7000019305F00C03224D9C40AC462E44019D90
:100B8000224DAE46755925EA0404009D05FA03F38B
:100B9000234346F80E30DCF808304D6843EA07047A
:100BA000EE0258BF23EA0704164BCCF80840AE0209
:100BB0009E461B6843EA070458BF23EA0704CEF8A1
:100BC0000040AE03DCF8043043EA070458BF23EAD0
:100BD0000704CCF80440ED03DCF80030454643EA56
:100BE000070458BF23EA0704CCF800400BF1020BBE
:100BF0000435013250E700BF001002400000FEBF84
:100C0000003C01400C3C01404438024008FCFFFF1E
:100C1000426902EA0103914341EA0341816170475D
:100C2000002A08BF0904816170470000014800687C
:100C3000704700BF8C4E002070477047F8B5D0F861
:100C400000C00446DCF80400E76A94F83E3094F8EB
:100C50003D20402B01D0102B0ED1DCF81860DCF8C1
:100C60001450E9070DD1B7F12A4F00F0C182B7F552
:100C70002A0F00F0BD8206E0216C002946D0002337
:100C800046E081053CD4290702D5810500F1DA80D0
:100C9000A90702D5810500F14081DCF80410760730
:100CA0004FEA015600F1C580002E00F1A18205F047
:100CB0000402690640F16E81410540F16B81002A12
:100CC00040F0688194F83D00222840F09182E06A6B
:100CD000628D042AC0F09C82606ADCF810100170FA
:100CE000608D01386085606A01306062608D032824
:100CF00040F07E822068416821F480614160F8BD47
:100D0000E06AB0F52A0F4CD101204FE0DCF8183032
:100D1000DCF81450A90701D5810556D4E90602D59F
:100D2000810500F1A68042F0080105F0040229299E
:100D300040F0CD80290624D5410522D50ABB94F880
:100D40003D00618D002900F05382616A11F8012B8A
:100D5000CCF81020628D013A62856162618D0029B4
:100D600040F04682292840F04382DCF8040020F459
:100D70008060CCF8040002F04BFFBDE8F84000F0C2
:100D800060BC002A00F03482800540F13182608D21
:100D9000002800F02D82606A10F8011BCCF81010BA
:100DA00083E2E06AB0F12A4F01D10820E06294F8B2
:100DB0003E0040282CD1216D606C00F0FE0000291F
:100DC00000F04E8140F001004AE1206C08B1DCF8EF
:100DD000183094F83D0000F02800282840F0C18029
:100DE000DCF8040020F48060CCF8040002F069FF15
:100DF00018064FF0180058BF0C20225A012103F0AA
:100E0000040081EA90012046BDE8F840FFF715BFD5
:100E10002069B0F5804F40F0B08094F83D00616CDF
:100E200001F0FE01212818BF0131CCF81010606BD1
:100E30000DE0002E00F1DC81290600F1BD8005F0F7
:100E40000405EDE0606B616CC9B2CCF8101008B11C
:100E5000C06B38B9A06B002800F0CA81C06B0028B5
:100E600000F0C681DCF8040040F40060CCF8040017
:100E7000F8BD94F83D50DCF8040020F4E060CCF8B4
:100E8000040000200090DCF814000090DCF8000062
:100E900040F00100CCF800000098DCF8000020F4DD
:100EA0008060CCF80000DCF80400000540F13481DB
:100EB00045F0080026462A2840F00E8156F8380FE3
:100EC0000168496826F80E1C36F80E1C0CE169060C
:100ED0003CD541053AD5CABB94F83D00618D002947
:100EE00000F08681616ADCF810200A7002F074FD5F
:100EF000616A01316162618D002940F079812A289F
:100F000040F076812068416821F4806141602220B0
:100F10002063282084F83D003BE194F83E30E06AED
:100F2000226B94F83D10222906D1216D002940F052
:100F30009A80402B40F0978000200090DCF814004D
:100F40000090DCF8180000900098F8BD002A00F02E
:100F50004F81800540F14C81608D002840F09F81D9
:100F600046E100200090DCF814100091DCF8181025
:100F70000091009984F83C00F8BD206D00286AD0EB
:100F8000206D012840F03481606C062101EAD01008
:100F9000F13065E0002A00F02B81800540F12881C6
:100FA000E06A618D042940F00881DCF8040020F437
:100FB0008060CCF8040072E105F0040541052FD5EE
:100FC00075BB94F83D0094F83E30E26A218D00290B
:100FD00040F0E480212840F0E18012F5803F18BF06
:100FE000082A40F06681DCF80400202120F4E0604B
:100FF000CCF80400DCF8000040F40070CCF80000ED
:101000000020206384F83D1094F83E1084F83E00E0
:10101000402940F05F812046BDE8F84000F0B8BAB2
:10102000002D00F0E580800540F1E280212A40F0AB
:10103000D880E06A94F83D10212940F0D980618D74
:1010400000297FF4A8AE10F5803F18BF0828CAD049
:101050002028C8D030E1606C062101EAD010F030C1
:10106000CCF81000F8BD216DA9B92169B1F5404F48
:1010700011D100200090DCF814000090DCF818007A
:1010800000900098DCF8000040F48070CCF800007C
:10109000206D0130A0E1618D71B1618D012940F0B9
:1010A000A880202818BF082840F01E81DCF8000026
:1010B00020F48060CCF8000000200090DCF81400E0
:1010C0000090DCF8180000900098DCF8000040F474
:1010D0000070CCF800007EE156F8340F01684968D2
:1010E00026F80A1C36F80A1C19B1216C41F00401DB
:1010F0002164DCF8041021F40061CCF80410FFF73F
:1011000044FB012808D03068D3490165FFF72BFB69
:1011100010B13068016D8847608DA0B120684169C9
:10112000490703D502F08FFA02F056FC41694906DF
:1011300003D502F0BFFD02F058FC608D18B1206CA1
:1011400040F004002064206C20B12046BDE8F84047
:1011500001F05EBB2A2D02D1002002F0A3FC94F81E
:101160003D00282809D1BD482021E062002002F07E
:1011700079FBBDE8F84000F007BA206B222818BFC1
:10118000222D35D100202021206384F83D1084F8E1
:101190003E002046BDE8F84000F052BA212803D0B6
:1011A000402B08BF222823D1608D002861D094F8FD
:1011B0003E0040287FF4EFAD15E0618D03295DD13D
:1011C000DCF80410022821F48061CCF8041066D009
:1011D000042864D0DCF8000020F48060CCF8000023
:1011E0005DE0402B04D12046BDE8F84001F0A4BBEF
:1011F000F8BD618D022972D1102800F2B180012161
:10120000934A8140114200F0AB804FF48062AFE01E
:10121000E36A012A2DD8022B2BD0002146F2A81216
:1012200000918C490968B1FBF2F101EB8101009159
:101230000099013900910099002964D0DCF8001070
:101240008905F5D4DCF8001021F48061CCF8001099
:10125000DCF8041021F4E061CCF80410616ADCF8D9
:1012600010200A7002F0B8FB02F0D9FC616A01316B
:10127000D1E0DCF8040020F48060F7E5618D0229FC
:101280000DD1102806D0022865D0042863D001288B
:1012900040F0A480DCF8001021F48062A2E0606AD3
:1012A000DCF810100170606A0130606202F09DFB92
:1012B000F8BD202A3FF497AEDCF8040020F4E0608B
:1012C000CCF8040011202063002084F83E00202088
:1012D00084F83D002046BDE8F84000F057B9DCF83E
:1012E000001041F4806146E010F5803F29D1DCF820
:1012F000000020F48060CCF80000DCF80400000559
:101300007FF5DAAE22E0206C40F020002064DCF8AB
:10131000040020F4E060CCF80400606ADCF81010EF
:10132000017002F062FB202084F83D00606A013009
:101330006062002084F83E002046BDE8F84000F0DE
:101340008FB8122A30D101287FF4B0AEDCF800004B
:1013500020F4806034E0DCF8001041F4806241E069
:10136000DCF800104FF4006221F48061CCF800102A
:10137000DCF800101143CCF80010DCF8041009056B
:1013800020D5421E1F2A0BD8012191402F4A11421D
:1013900006D0DCF8040040F48050CCF8040011E0E2
:1013A00010F5803FF5D00DE01028CFD8012101FACB
:1013B00000F027490842C9D0DCF8000040F4806002
:1013C000CCF8000000200090DCF814000090DCF85D
:1013D00018000090009800202065F8BDDCF800108F
:1013E00041F40072CCF80020616ADCF810200A7029
:1013F00002F0F2FA626A2168531C63620969517053
:1014000002F0EAFA2168626A4B6823F440734B6089
:1014100002F005FC511C6162002194F83E2084F822
:101420003E10402A05D121632046BDE8F84000F077
:10143000AEB8B0F1200118BF1221083818BF084615
:1014400020632046BDE8F84000F09FB8818000800E
:10145000140001005C0000205D2700080000FFFF71
:101460007047000010B3F8B5044690F83D0020B96D
:1014700002F027FC204600F08DF802F088FB01689E
:1014800041F400410160016821F40041016000F075
:1014900009FA6368384A394993423CBF48F28041AF
:1014A000C0F21E01884203D20120F8BD012070471E
:1014B00033494FF47A77B0FBF1F521684E6826F096
:1014C0003F062E434E604FF496766E43934228BFFC
:1014D000B6FBF7F56A1C0D6A25F03F052A434CF66A
:1014E000FF750A62CA69AA43264DAB420AD85B005F
:1014F0000138B0FBF3F001306FF31F30042898BFC0
:10150000042013E0A56801383DB119256B4302F0B2
:1015100098FB0AD000F5804004E003EB430302F09F
:1015200090FB02D000F5004000E00120104304F1E0
:101530000C06C861E0690A6822F0C0021043226A02
:10154000104348F2FF320860886890436CCE18431D
:1015500010438860C86820F0FF0028433043C8600B
:1015600002F0A7FA00202021206484F83D102063B7
:1015700084F83E00F8BD00BFA186010000093D00CF
:1015800040420F00A08601007047704770477047C7
:1015900070470000F0B587B00446016824488142D6
:1015A00044D10026234F00F5D8300196396841F028
:1015B00002013960396801F00201019104210691AC
:1015C0000321CDE9046112210391C0210291019907
:1015D00002A9FFF74BFA0196174D184B40214FF027
:1015E0000072386940F4001038614FF48060C5E93A
:1015F0000216C5E9003214212861386900F4001090
:101600000190019805F11400FEF784FF2846FFF7CA
:101610006DF908B1FFF768F81F2000210022AC63C4
:10162000656300F07DF81F2000F06AF807B0F0BD98
:101630000054004030380240C4110020A060024035
:10164000704770471F48034900780A6810440860D3
:10165000704700BF8C4E002080B50B48016841F4F4
:1016600000710160016841F480610160016841F42A
:1016700080710160032000F079F80F2000F006F877
:1016800000F022F8002080BD003C024070B50D4EF5
:1016900004464FF47A713078B1FBF0F08B49096859
:1016A000B1FBF0F000F0D6FC01250F2C08D838B9BA
:1016B0004FF0FF3021460022002500F031F8746021
:1016C000284670BD0000002082B000200B49019028
:1016D0004A6842F480424A604A6802F480420192B9
:1016E000019A0090086840F080500860086800F097
:1016F00080500090009802B0704700BF4038024010
:10170000002809D41C21012201EAD00100F01F00A9
:1017100002FA00F0014A8850704700BF00E100E083
:10172000F0B5184B4FF0FF361C68C4F30224E51ED9
:1017300084F0070438BF002506FA05F7BA43042CE5
:1017400028BF042406FA04F4A14300F00F04A940C2
:10175000043C1143044A234409010244002848BFC1
:1017600003F10C021170F0BD00E400E005494FF6F2
:10177000FF030A681A4060F30A2203481043086016
:10178000704700BF0CED00E00000FA05002852D0C1
:101790002DE9F041404B04468846D3F8000400F0A0
:1017A0000700884204D283F8008401F08DFA4BD1FF
:1017B0002068810711D5410703D5996841F4E051AC
:1017C0009960010703D5996841F460419960A16867
:1017D0009A6822F0F00211439960C0072DD101F000
:1017E00073FA04D983F8008401F06EFA2CD12068D2
:1017F000410705D5E1689A6822F4E05211439960E7
:10180000000706D52069996821F4604141EAC000CB
:1018100098601C4600F060F8A168204AC1F30311EB
:10182000515CC840294908601D480068FFF72EFF39
:101830000020BDE8F081012070476068811E022908
:1018400005D21968890107D40120BDE8F08101287B
:101850001DD119688903F7D599681D4621F0030148
:1018600008439860FFF7E2F9064641F2883760685E
:10187000A9682B4601F00C01B1EB800FAFD0FFF748
:10188000D5F9801BB842F2D90320BDE8F081196870
:101890008907D9D5E0E700BF00380240F04A0208C6
:1018A0000400002009480A490A4A00680968C1F38F
:1018B0008221515CC840704704480549054A0068C8
:1018C0000968C1F34231515CC84070475C00002098
:1018D00008380240004B020810B5134C606800F055
:1018E0000C00082804D0042814BF1048104810BD6C
:1018F000226820680023400202F03F020C485CBFCF
:1019000042F20040C0F2F4002168C1F38811A0FB4C
:101910000101FEF7C5FC21680222C1F3014102EB7F
:101920004101B0FBF1F010BD043802400024F40086
:1019300040787D01002864D02DE9FC410446007800
:10194000C54EC0070CD0B06800F00C00042840F071
:1019500090803068800303D56068002800F0A18083
:101960002078800719D5B06810F00C0F07D001F06F
:1019700056FD40F099807068400200F19580306813
:10198000800703D5E068012840F08B80206931682A
:1019900021F0F80141EAC00030602078000732D41D
:1019A0002078400742D4A76947B301F038FD40F0E2
:1019B000AC80012F75D0E169706800F480028A4222
:1019C0006FD1216A00F03F028A426AD147F6C071A6
:1019D000626A0140B1EB821F63D1A16A4FF6FF72C8
:1019E000C903914300F44032A1F580318A4258D1B5
:1019F000E16A00F07060B0EB016F52D10020BDE8E9
:101A0000FC81012070476169944800296DD0012153
:101A1000C0F8801EFFF70AF90546706F8007BFD433
:101A2000FFF704F9401B0228F7D9CCE0306C5FEADD
:101A3000C0080AD400200190306C40F0805030641F
:101A4000306C00F0805001900198854F3868C005D7
:101A50003DD4386840F480703860FFF7E7F80546F9
:101A60003868C00533D4FFF7E1F8401B0228F7D9E6
:101A7000A9E001F0D4FC03D1706840023FF569AFE2
:101A80006068B0F5803F07D0B0F5A02F40F08580AA
:101A9000306840F480203060306840F4803030603E
:101AA00085E00120BDE8FC81E06800284CD06B484F
:101AB00001210160FFF7BAF80546306880073FF55D
:101AC00065AFFFF7B3F8401B0228F6D97BE0A068AA
:101AD000012805D0052848D1306F40F00400306758
:101AE000306F40F00100306749E00021C0F8801EEF
:101AF000FFF79CF80546706F80077FF551AFFFF741
:101B000095F8401B0228F6D95DE05449002088462C
:101B10000866FFF78BF80546022F0AD14746306862
:101B2000800153D5FFF782F8411B03200229F6D923
:101B300065E7306880017FF561AFFFF777F8411BFB
:101B400003200229F5D95AE7444800210160FFF734
:101B50006DF80546306880077FF51FAFFFF766F820
:101B6000411B03200229F5D949E7316F002821F0F4
:101B700001013167316F21F00401316745D0FFF772
:101B800055F8054641F28837306F80074CD4FFF78F
:101B90004DF8401BB842F7D915E03168002821F410
:101BA00080313160316821F48021316045D0FFF708
:101BB0003DF80546306880033FF5D2AEFFF736F8B2
:101BC000401B6428F6D90320BDE8FC811C341FCCDF
:101BD0000843D90340EA82104FF6FF72914340EA6E
:101BE0000460A1F580310843706001203866FFF77A
:101BF0001DF80446306880013FF500AFFFF716F886
:101C0000011B03200229F5D9F9E6FFF70FF8054675
:101C100041F28837306F800706D5FFF707F8411B80
:101C20000320B942F6D9EAE6B8F1000F3FF5BBAEA2
:101C3000306C20F080503064B5E6FEF7F7FF0546C3
:101C4000306880037FF58CAEFEF7F0FF411B032068
:101C50006429F5D9D3E600BF0038024000004742AE
:101C60000070004070470000BCB504460068416841
:101C70008268530603D4D50701D04D0618D49507C2
:101C800001D50D0612D412F4B07F0ED08D060CD5FE
:101C9000002B1DD594F85130032B0ED1002101915A
:101CA000C1680191806801900198BCBD616C00E041
:101CB000216C2046BDE8BC400847636D43F0040337
:101CC000636500230193C368019383680193019BBB
:101CD00093060CD5636D43F0010363650023019304
:101CE00083680193036823F040030360019BD205DE
:101CF00008D5626D42F00802626500220192826896
:101D00000192019A626D002ACFD0426822F0E0026F
:101D100042600122890784F8512016D001F09BFC13
:101D2000E06C30B10B490165FEF71DFD08B101F013
:101D30002AF9A06C0028B8D006490165FEF713FD0A
:101D40000028B2D001F01FF9BCBD2046BDE8BC4060
:101D5000FFF788BF3D3D000870B538B10446406AC2
:101D600030B10020206104F1140007E001254BE0B0
:101D70006068B0F5827F03D004F11C00002101608F
:101D80000025A56294F8510020B9204684F85050EF
:101D900000F03CF8022084F8510094E80F0001F4B0
:101DA000827102F404420668114403F40062114493
:101DB00026F040060660226902F0020211446269C0
:101DC00002F001021144A26902F400731944E369AC
:101DD00003F038031944236A03F080031943A36A0C
:101DE00003F4005319430160042101EA1241626ABD
:101DF00002F0100211444160C16921F40061C16127
:101E00000120656584F85100284670BD2DE9F04336
:101E100087B0044602A81421FEF77CFB20685B49CA
:101E200088424CD05A49884200F0878059498842FC
:101E300040F0A980002658480196416941F480513C
:101E40004161416901F48051019101990196016854
:101E500041F001010160006800F0010001900520DF
:101E600006900320CDE9046002200390A020029098
:101E7000019802A94948FEF7F9FD494D4FF48060E9
:101E80004021484B4FF0C062C5E90216286105F1B8
:101E900014001421C5E90032FEF73CFB2846FEF78A
:101EA00025FD08B1FEF720FC232000210022AC63B1
:101EB000A564FFF735FC2320FFF722FC63E0002533
:101EC00035484FF005084FF003090226334F0195BE
:101ED000016941F480410161016901F4804101918E
:101EE00001990195016841F004010160016801F068
:101EF0000401019101990195016841F0020101601D
:101F0000006800F0020001900198CDF81880CDE93A
:101F1000045903960C20029002AC07F5006021469C
:101F2000FEF7A4FD4FF48060CDE90598CDE9036587
:101F30002146029007F5806023E0002016490190B9
:101F40000A6942F400420A610A6902F400420192FD
:101F5000019A01900A6842F004020A60096801F0DF
:101F600004010191062106910321CDE9040102201B
:101F700003904FF4E05002900848019900F500608A
:101F800002A9FEF773FD07B0BDE8F08300380040FA
:101F9000003C004000300140303802400000024068
:101FA000241200205864024070B501F069FB04D18E
:101FB00089B382B301F03CFB01D1022070BD032044
:101FC000002384F8510001206365E286A286216324
:101FD000A363C4E91033A38784F85000E387A068A3
:101FE0002268B0F5004F07D1106820F04000106063
:101FF000106840F480401060A06C0D4E0B4D0C3208
:10200000C0E913630B4BC0E90F35E38EFEF7EEFC1E
:1020100018B101F0E7F9012070BD21680868400699
:1020200001D401F0EFFA01F050FE70BD673D0008E9
:10203000493D00086D3D00080349884200D07047C3
:102040000248012101707047981300203C040020D1
:1020500070470000411E0020B0EB116F1CBF012033
:102060007047044AF023516003490B7007219060C8
:102070001160704710E000E023ED00E0704770470A
:1020800058B110B501F0B5FC03D101F005FB00F02B
:1020900007F801F01FFD00F07BBF01207047000032
:1020A00000680D49884218BF7047E0B50020002243
:1020B00001900A48016841F4802101600021006814
:1020C00000F48020019001981A20FFF729FB1A20C4
:1020D000BDE88C40FFF714BB004801404438024083
:1020E00090F83D1001291CBF01207047022180F8A3
:1020F0003D100068C168B0F1804F41F00101C1603E
:102100000ED00D4988420BD00C49884208D00C49AA
:10211000884205D00B49884202D00B49884204D13D
:10212000724601F0DEFD964603D0724601F095FD41
:1021300096460020704700BF0004004000080040A1
:10214000000C00400040014000000140704770B5A5
:1021500004460068C5680669B10710D5A9070ED501
:102160006FF002010161012121778069800702D0AF
:1021700001F0A4FC01E001F065FB0020207770076E
:1021800012D5680710D520686FF0040101610221A3
:102190002177806910F4407F02D001F08FFC01E0CC
:1021A00001F050FB00202077300711D528070FD50C
:1021B00020686FF00801016104212177C069800760
:1021C00002D001F07BFC01E001F03CFB0020207715
:1021D000F00612D5E80610D520686FF010010161F5
:1021E00008212177C06910F4407F02D001F066FC1D
:1021F00001E001F027FB00202077F00708D0E80776
:1022000006D020686FF001010161204600F026F839
:10221000300608D5280606D520686FF080010161D8
:102220002046FFF72BFF700608D5680606D5206804
:102230006FF040010161204600F011F8B00601D5B1
:10224000A80600D470BD20686FF02001016120460F
:10225000BDE87040FFF713BF704770477047704785
:102260007CB501F02FF81CD10125D9B1D2B120469F
:1022700000262563666302F085F9216B012911D1DF
:10228000019621680A68019249680191019901F05B
:1022900061F841F0100142E80313002BF7D1054625
:1022A00000E0022528467CBDB0B50C460068F44924
:1022B000884200D0B0BD184D16484FF480622946C0
:1022C000FFF7CEFF0748294622464FF6FF7300F07E
:1022D000E7F9EF4800F00FFD28464FF48061FEF764
:1022E00019F9B0BDE81400200068E549884218BF1C
:1022F000704710B5084C07484FF480622146FFF73D
:10230000AFFFE34800F0F7FC20464FF48061FEF792
:1023100001F910BD30150020884A0020F8B50446A8
:1023200000680268C168466915074FEA82633FD0BA
:1023300001F4907706F00106BF193DD0D70705D00C
:10234000CF0503D5676C47F001076764570704D5CD
:102350001EB1676C47F002076764920704D51EB18F
:10236000626C42F004026264002D07D501F0200285
:10237000921903D0626C42F008026264626C002A17
:1023800000F0E580002B05D5890603D5204602F034
:102390003AF820684069616C00F0400001F00801E3
:1023A000401847D12046FFF79FFF00206064CEE031
:1023B000002B01D58B0653D4236B012B03D1D306FD
:1023C00001D5CB0651D4130601D50B0611D4520604
:1023D00040F1BD80490640F1BA80C16821F040015A
:1023E000C160202084F841002046BDE8F84000F09C
:1023F000ADB994F84110212940F0A980A168B1F548
:10240000805F03D12169002900F0A280216A4A1C63
:10241000226209784160E18C0139E184090440F0CD
:102420009680C16821F08001C160C16841F040011F
:10243000C160F8BD01F0EBF800F0DCFF49D500F019
:1024400050FCFCD1E06B002843D045490165FEF704
:102450008AF900287BD0E06B016DBDE8F8400847A1
:102460002046BDE8F84001F0CEBF00210091016890
:102470000091416800910099406940062ED4E08D9A
:10248000A18DE28D002A62D0814260D0081A00F04E
:1024900061FF21F4907142E80313002BF7D121680A
:1024A00051E8051F226821F0010142E80513002BC5
:1024B000F5D1202184F842100021216300F04AFF69
:1024C00021F0100142E80313002BF7D102216163D0
:1024D0002EE02046BDE8F840FFF706BFE06BA28D76
:1024E00001684B6899B249B3914227D2E385C0692C
:1024F000B0F5807F17D001F06BF820F4807001F008
:102500007DFAF8D100F094FFFCD100F0EAFBFCD199
:10251000202084F842000020206301F0D8F8FCD18C
:10252000E06BFEF7E3F802206063A08DE18D401AB6
:1025300081B22046BDE8F840FFF7B6BE8A4206D118
:10254000C069B0F5807F02D102206063F1E7F8BD79
:10255000216A31F8022B6FF35F22216242605AE751
:10256000C942000890B110B5044690F8410008B97E
:1025700001F016FB01F0A0F92068016921F49041F7
:102580000161416921F02A0101F0ABBA01207047D5
:1025900070B586B0044601A81421FDF7BBFF206882
:1025A0003749884235D03749884266D100263648B7
:1025B0000096416941F010014161416901F010014B
:1025C00000F06FFB4FF4C0600190009801A92F4804
:1025D000FEF74CFA2F4B304D4FF4806040214FF006
:1025E000006203F58663C5E90216286105F114004F
:1025F0001421C5E90032FDF78DFF2846FEF776F974
:1026000008B1FEF771F8AC63A563252425200121EC
:102610002DE000261C480096016941F4003101615B
:10262000016901F4003100F03CFB0C20019000989E
:1026300001A91648FEF71AFA154D164A4FF48060A4
:102640004FF00061C5E90021286105F11400142153
:10265000C5E90266FDF75EFF2846FEF747F908B1B7
:10266000FEF742F8AC63E563262426200021002211
:10267000FFF756F82046FFF743F806B070BD00BFDD
:102680000044004000100140303802400000024089
:10269000E4120020886002408412002070477047D6
:1026A0002DE9F843044690F8410020281CBF022081
:1026B000BDE8F8838846B1B11746A2B100201D4697
:1026C0006064212084F84100FEF7B0FAE7840646F2
:1026D000A784A068B0F5805F01D1206930B14FF0C8
:1026E0000009474604E00120BDE8F8830027C14601
:1026F000E08CB8B12046802132462B4601F08AFF9B
:10270000F0B927B117F8010B2168486006E039F8E5
:10271000021B206800276FF35F214160E08C0138C5
:10272000E084E5E72046402132462B4601F072FF67
:10273000202184F84110002818BF0320BDE8F88349
:10274000202084F841000320BDE8F8837047FEE7AD
:102750000148FEF773BA00BF44130020B8B500214A
:1027600046F2A81200912949806B0968B1FBF2F189
:1027700023224A4390F83D100092009A3AB1009A01
:10278000013A0092026812689205F6D403E0026CE6
:1027900042F020020264436B0BB10022DA63846BC7
:1027A0000CB10022E2630268156825F480651560AB
:1027B0000025458503B11D650CB100232365136811
:1027C00023F00103136090F83D30602B06D101F037
:1027D00031FA0164BDE8B840FEF72EBA01F02801D5
:1027E00028290DD1116841F001011160116841F4EF
:1027F0008061116000210163282180F83D1001E013
:1028000001F018FABDE8B840FEF72ABE5C000020CF
:1028100010B5044690F83D1090F83E00102814BF03
:10282000402822290AD001F0280028280CD10020B5
:102830002063282084F83D0020680FE020680268AB
:1028400022F40062026000E020684268120503D4AE
:10285000602901D001F0E7F90021216341680905F1
:1028600015D494F83D1060292FD1202184F83D1013
:10287000002121644169490601D500F0E4FE0168A8
:1028800021F0010101602046FEF7D6F935E04168EC
:1028900021F400614160606B90F8351001291DD171
:1028A000A06B23490165FDF75EFF30B320684169E5
:1028B000490601D500F0C7FE016821F00101016061
:1028C000202084F83D00A06B15E04169490601D540
:1028D00001F0F0F92046FEF7C3FD0EE01449016552
:1028E000FDF741FF48B12168606B0A6822F00102E0
:1028F0000A6001F094F9016D8847206C000704D04C
:102900002068416821F4E061416094F83D00216C49
:1029100049070BD5282809D106482021E06200206C
:1029200000F0A0FFBDE81040FEF72EBE10BD00BFB6
:102930005D2700080000FFFF90F83D10026D3AB1DE
:10294000026D012A0ED10168826CD2B20A6118E0D0
:10295000C26C816C012A10D10268C9B21161016D8B
:10296000023110E0026D022A0FD1222914D1016830
:102970000A6842F480720A6003E00268C1F307212A
:102980001161016D013101657047006841690906F7
:1029900044BF002101617047428D5AB1212909D1FC
:1029A000426A016812F8013B0B614262418D0139B4
:1029B00041857047428D002AEDD12129EBD1016874
:1029C0004A6822F4E0624A60734600F058FF9E466F
:1029D00000212022016380F83D2080F83E10FEF7A0
:1029E000D7BD000080B50A4601467148FFF7DCFA02
:1029F00018B1BDE88040FDF777BE80BDBCB50020B2
:102A00005249184C01900A6842F400120A600A68A0
:102A100002F400120192019A00900868002240F42A
:102A2000800008600868002100F480000090009891
:102A30001020A0470C4D1020A84711200021002293
:102A4000A0471120A8473B2000210022A0473B209F
:102A5000A847462000210022A04746202946BDE87D
:102A6000BC40084721170008011700082DE9F04F66
:102A700087B000273548374E00224FF4804B069729
:102A80000197016841F004010160016801F004014F
:102A9000019101990197016841F00101016001680C
:102AA00001F00101019101990197016841F00201D2
:102AB00001604FF48041006800F00200019001982D
:102AC000234800F5006481462046B047484650211F
:102AD00001224FF0500A0125B04720464FF40471FF
:102AE0000122B04709F58068042101224046B04721
:102AF000CDE90457CDE902B502AF174E204639465D
:102B0000B0474FF0030B48463946CDE902A5CDE961
:102B1000045BB04710203946CDF814B000F0A8F897
:102B200004204FF0020A3946CDE903550290404691
:102B3000CDF814A0B0474FF400703946CDF814A07A
:102B400000F096F807B0BDE8F08F00BF30380240C3
:102B500000000240210C00086D0A000810B50B4867
:102B60000B4B0C4C00214FF48042C0E90043C0E9FC
:102B70000211C0E90421C0E906110162FEF772FCEE
:102B800018B1BDE81040FDF7AFBD10BD44130020E3
:102B9000A08601000054004010B50548054B00F028
:102BA0006CF818B1BDE81040FDF79EBD10BD00BF28
:102BB000981300200030014010B50548054B00F087
:102BC0005CF818B1BDE81040FDF78EBD10BD00BF28
:102BD000F01300200038004010B50548054B00F008
:102BE0004CF818B1BDE81040FDF77EBD10BD00BF28
:102BF00048140020003C004010B50A4880210A4CCF
:102C000042F2CF03092281610021C0E90043C0E9FB
:102C100002120161FFF734FA18B1BDE81040FDF768
:102C200063BD10BDA01400200048014010B5054848
:102C3000054C00F095F918B1BDE81040FDF754BD02
:102C400010BD00BFE81400200010014010B5054879
:102C5000054C00F085F918B1BDE81040FDF744BD02
:102C600010BD00BF3015002000440040FEE7FEE725
:102C7000CDE903550290204630474FF4827200217F
:102C80004FF40074C0E900320A22C0E90211C0E921
:102C90000411C0E90641C0E90811C0E90A12FFF7B2
:102CA0005BB8009100990096016841F00101016054
:102CB000006800F001000090072005900320CDE996
:102CC0000360022002907047D3F8000400F0070070
:102CD00040457047002084F83400012084F8350016
:102CE0007047206850E8050F216820F0400041E857
:102CF0000502002A70470068016821F008010160A0
:102D00007047102100224FF000082046FDF788BFD1
:102D1000C868897E01F03F0101EB4101890015F08F
:102D200001BAE068006818F0F9BD20464FF4803120
:102D3000704702463846314602F04FBCBBF81600D9
:102D4000BBF81A10728B009CB146081A02210130A0
:102D500000B290FBF1F0F18A511A6FF001020131DB
:102D600009B291FBF2F1704700EB8000502101EBBA
:102D70004000A02190FBF1F070472A461BF04EBCAA
:102D8000096801EB8002526841F820200130704749
:102D90000268E968B2F90030B2F902205A43914260
:102DA000704710880144ADF85810BDF85C10084415
:102DB000BDF85A10ADF85C00508822460144ADF8C9
:102DC0005A10BDF85E100844704721EA00001999B6
:102DD0006FF30F0308447047BDF95800BDF95A104E
:102DE000149A0A9B7047011BADF8E8102919084492
:102DF0005318ADF8EC00101BADF8EE30ADF8EA005A
:102E00007047ADF86C00BDF86800ADF870000220A6
:102E10008DF8580012AF7047A4EB0B0110FB05F0C2
:102E200001EBD030A8F8020006F15A0000B2384792
:102E3000BBF80010BBF80420511A013109B2081A7E
:102E4000022190FBF1F0BDF8B010084470475946DC
:102E500022464346009048460CF070BDB8F8150075
:102E6000C0F38A000330800800FB05F170478DF83D
:102E700044002046CDE900BA05F0FABA36F8140F3E
:102E80007188F288511A01F10109B188081A0130DC
:102E900005907047204616F0B7BB606A402289B2A1
:102EA00009F0D2B8284611F0E9BF2846FDF75CBB0F
:102EB000024638460021504700210222022319F021
:102EC000FDBD42F2640142F2640219F001BF52F802
:102ED0000C1C022332F8042C009070470446D0E901
:102EE0000B204FF4806500210023009515F050B8A9
:102EF00004460068083015F065B831463A46434646
:102F00005047B2FA82F4C4F11A03DA4082F0200387
:102F1000C4F1190270470446D01A05B2002D70475B
:102F200020F816102046314607F017B8204618F052
:102F3000F5BC0398049D069AA6EB09010090204673
:102F40002B461DF06CBD28464FF4802118F041B986
:102F500030461A212A4611F097BF606A14F05DBA14
:102F600000210C224FF4E133C0E90043C0E9021113
:102F7000C0E90412C0E90611FFF7F4BA016821F0B4
:102F8000010101607047606D40F04000606570476E
:102F9000012084F8460084F83E0084F83F0084F85D
:102FA000400084F8410084F8420084F8430084F82B
:102FB000440084F8450084F83D00002010BD2746F9
:102FC00085F80080B4F5486F48463146704702F0F6
:102FD0003F0202EB420270470F2111F055BFADF8DE
:102FE0008C10618B0144ADF89210E18A081A704789
:102FF0003046294617F0B4BDBBF81400BBF81810D2
:10300000328B009CB146081A0221013000B290FBBD
:10301000F1F0B18A511A6FF00102013109B291FB4E
:10302000F2F1704700200BF011BC20F4FC72083064
:1030300000F4FC7188186084E06815F073B83046BD
:103040004FF4002118F00DBA5A3000B21DF062BCE6
:10305000BDF86E00BDF8721097F81890081ABDF808
:103060007010013000B27047BDF8EA0008F10108A5
:103070000130ADF8EA00BDF8EE000130ADF8EE0029
:1030800070471198ADF87250ADF86E500028704737
:103090000BEB090110FB05F001EBD030A8F80400A0
:1030A00030B23847707FB6F91430A9EB0A012246D6
:1030B000009007EB0A001DF0B2BC4DF808ED81EA64
:1030C0005221C9B21DF0E5FE0AF808005DF808EBD0
:1030D0007047B8F81500C0F38A000130400800FBC3
:1030E00005F17047002117F07BBF0022E86800F16E
:1030F000180120463047B8F808004146ADF8A40052
:10310000ADF8EC0020460AF0AEBB84F83C00204647
:103110001EF000BD022116F01FBB606A50F82600A9
:1031200014F0E0BF216AA26A521A504301EBA020BA
:10313000BCBD29463A46534630474FF4003117F09C
:10314000C6BC484606F009BF20464FF4003117F0D0
:1031500077BEADF8460028440138ADF84A00704704
:103160000698DDE90732A7EB0A01009030461DF012
:1031700056BC29682046002201F024BCB4F8401057
:103180000089ADF80410BDF8061070472046642190
:1031900000F010BE016851E8051F026821F001012E
:1031A00042E80513002B7047384632462B46484705
:1031B00000244EF201094EF20106804670473A465D
:1031C00001F023BBADF87210099ABDF89E10494476
:1031D00009B28A427047706DF5685047204617F073
:1031E000DCBC204619F004B90899DDE9060211F0AB
:1031F0009DBF4FF4A02117F0E7BE404647F6FF7190
:103200001CF096BF016851E8031F026821F010010D
:1032100042E80313002B7047CDF808805846009C05
:1032200016F08BBF284617F099B80C9A00284FF675
:10323000A676704741460DF0CEBEE8684FF4803266
:1032400000F108012046304730464FF4C0212246A5
:1032500018F09EB9D8F83000D8F83C1011901491AD
:10326000704720464FF4E0217047BBF81600BBF8CA
:103270001A10009CB146081A7047284617F0D4B8B7
:10328000ADF8600058461DF045BBBDF964105046CE
:103290003A4623460CF0E8BAF0684FF4A02200F159
:1032A0002001204638472A4611F0EEBD204607F09F
:1032B00093B820461CF0D4BB2068416821F020015F
:1032C00041607047044690F8420020287047BBF8E0
:1032D0001400BBF81810009CB146081A7047BDF9DD
:1032E00064105046224633460CF0BEBA706DF46846
:1032F00050470A99304601F088BA94F8480000F027
:10330000F70084F8480070470844BBF81A10019091
:10331000BBF81600081A70470D980DF05CBE706D72
:10332000F468032150470844BBF818100290BBF81A
:103330001400081A7047BDF96A002CB28442704725
:10334000204616F086BFB1F96C20B1F97010801AD2
:10335000891A7047216851E8031F2268704721F4D9
:10336000C041B1F5FA6F7047BDF95C103AB228461A
:1033700033460CF079BA00F1600120463847B4F8C2
:103380007C10204606F04FBE42F2D1750646401B27
:10339000B0FA80F07047109F504631463A4614F01C
:1033A000D9BE014605F120001047149802F05AB822
:1033B000846B0546FDF73ABC206850E8050F21688C
:1033C0007047204617F00DBD504631464A4614F06E
:1033D000C1BE706DF4680A21504720461B213A4651
:1033E00011F052BD002084F85000606D40F01000D4
:1033F000606570472068406940067047204617F0B6
:103400009BBDADF86C00584409B200B291427047C0
:10341000706DF46802215047204617F061B8B0681B
:1034200000F00C0008287047002084F83400704732
:10343000206850E8050F216820F0010041E80502EE
:10344000002A7047D0E901128089CDE90112ADF858
:103450000C007047204605F03CBDA068006850F89D
:10346000260018F0BCBA3046294617F00DBC618B17
:103470000144ADF80610218B0144ADF80410E18A37
:10348000091AADF80210A18A081A704700EB8000F3
:10349000502101EB40006FF09F0190FBF1F070476D
:1034A0000E4619461C461546074605F0C6BD204681
:1034B00003210022704748460DF03AB8081ABDF8BB
:1034C0007010013000B21590BDF86C00081A013080
:1034D000704700210CF044B8BDF93810219832B281
:1034E00023460CF0C1B901EBD030A8F800000FFA68
:1034F0008AF03847BBF800100844BBF80410081ADB
:10350000BDF8B010084401307047294632464346A2
:103510004847B8F81500C0F38A000730C00800FB20
:1035200005F17047284614F07BBDF068042200F1D5
:10353000A001204638472046002117F05FBC2046F6
:103540001C21002211F0A0BC42F2640142F2D172AF
:1035500019F0BEBB0446D0E90B204FF48061002374
:103560000091002114F014BD504631463A464346BE
:1035700002F091BCB4F93010B4F932207047013038
:10358000B9F8303084B2A9F834009C427047204624
:103590004FF4003117F0FFBC94F83C0000F0EF004E
:1035A00084F83C0070479DF8562011910F99002D2A
:1035B00002F0FE008DF856000D98704748464FF413
:1035C000403170470146B4F8405020461CF0B0BD71
:1035D000206850E8030F21687047013001FA80F13C
:1035E0009142704728465946324614F04EBE00F1CB
:1035F0005001204638479DF8AD2042F010028DF86A
:10360000AD207047086840F04000086070472046D1
:1036100000F0CABE002201F023B900F1B00120463B
:10362000384700F5807120463047122019F09CBDC4
:1036300094F85000012870470022E86800F1480122
:10364000204615F01EBD616A00690870616A206835
:10365000013161627047416821F0030141607047A8
:103660000022E86800F11801204615F00ABD024664
:1036700028680068C00570477078022102287047EA
:10368000044690F8510001287047F0684FF48032EA
:1036900000F1080120463847002084F83C0020460D
:1036A0007047F0684FF4403200F1F001204638478F
:1036B00000F1280120463047044690F834000128E4
:1036C0007047012084F85100606D00287047206821
:1036D00050E8030F216820F0100041E80302002A9F
:1036E0007047204640210122A346FDF799BA2046A3
:1036F00001F09CBE401AB0FA80F0400970470D46B8
:10370000064617F06DBCB14690FBF1F0F18A511AF4
:103710006FF001024044013109B291FBF2F17047B0
:1037200028464FF480317047A5EB0B00B0FA80F0CB
:10373000400970470168C9688A6922F002028A61FB
:103740007047014601F061B8BDF86C00081A0130FD
:1037500000B2002C189070472146ADF83E60ADF8DD
:103760003A6014F0E7BD01EBD030A8F806007047CE
:10377000707FB6F9143049462246009050461DF03D
:103780004EB998F8140000F01F007047E868042252
:1037900000F1A001204630472046002117F0D9BB98
:1037A000204617F025BE28464FF48041304700954B
:1037B00007F04CBFADF8007001F004B90E9920205D
:1037C0002A4643465047204618F0A8B820464FF4F2
:1037D000807107F095BFA08ABDF82810BDF82A2097
:1037E0000144ADF82810E18A0A44ADF82A20BDF85A
:1037F0002C201044ADF82C00BDF82E000844704772
:103800000898DDE90632A4EB0B01009048461DF054
:1038100006B9304652465B461DF057BD1C210022BA
:1038200011F032BB00F1280120463847E868202219
:1038300000F1D80120463047E868202200F1580105
:10384000204630474DF808ED2046FEF705FD20469E
:103850005DF808EBFEF701BDE868802200F1600129
:1038600020463047206384F83D1084F83E0020460F
:103870007047E868002200F1D001204630470A680E
:1038800042F400720A607047E868002200F1B0015B
:10389000204630470022F06800F1180120463847E2
:1038A000706DF76801215047706DF5680121504730
:1038B000706DF56803215047242084F8410020688A
:1038C000C16821F40051C160204600F0F7BD8DF8B9
:1038D00007001021002220462847024628460E21D4
:1038E00011F0D2BA90FBF1F00022284401B2204638
:1038F000704702463046294601F06FBE204617F059
:103900003EB94146006850F82470384617F0ADBD06
:1039100028465146BBF8082017F062BB05EBD030B3
:103920003588ADF862000F985A3000B27047C0F386
:103930004513C1F34514C1F3C4257047114446181B
:10394000BDF86400ADF86C00BDF86800ADF870001B
:1039500002208DF858007047ADF8A680ADF85800E9
:10396000BDF8B0007047002311F073BCE86808226E
:1039700000F1A801204630470093002314F008BB53
:10398000C518F068009514F003BB284611F076BA0C
:10399000BDF85E00BDF86210081A013001B2BDF931
:1039A0005A008842704758464FF4A021224617F02B
:1039B000EFBD30464FF4E021704700F13001204662
:1039C0003047F0682A4600F1D8012046384700F118
:1039D000280120462A463847618D013961857047A4
:1039E00000F1200500200AF031BF608D01386085AC
:1039F0007047044690F83D000028704741E80302F4
:103A0000002A70473A4611F03FBA019902206FF040
:103A1000010291FBF0F00FFA88F191FBF2F10844FA
:103A2000704700EB8000502101EB4000A02190FB8B
:103A3000F1F7704710FB07F005EBD0307588ADF853
:103A400064000D9870476FF30F01194470470E9A88
:103A500000F006BFF068082200F1A80120463847B0
:103A600020464FF4003117F033BCBAF92030BAF8D1
:103A70001E00DAE9051270474180C1881144C180F7
:103A8000704732F8133013F0500F7047204616F08D
:103A9000A4BB02F0FC020F900D9102328DF856206B
:103AA000024670472063282084F83D002046FDF739
:103AB000C7BD086840F00100086070472046FEF767
:103AC00045BB002001902068C16801918068019089
:103AD000019870470220211D84F83D00206800F005
:103AE000A3BB4161C16841F40051C16000202021A5
:103AF000606484F8411084F84210606310BD204671
:103B00002946324616F004BD029902206FF00102E8
:103B100091FBF0F00FFA8BF191FBF2F1704700216D
:103B200000224FF0FF33009407F075B90BFB00F053
:103B300004EBD0302C88ADF8620070470E9A00F08C
:103B4000F3BEF06805F11C0200F158012046384729
:103B5000204616F0F2BAE8004FF0011121FA00F009
:103B6000C1B27047204617F043BCBDF92E00696A08
:103B7000079ABDF9303041F6FF767047069020462F
:103B80004FF4A02117F005B9284611F079B9242087
:103B900084F83D002068016821F001010160704750
:103BA000002084F840002046FEF7F2BC0221328B50
:103BB00090FBF1F0B18A511A6FF00102484470474E
:103BC0000020ABF800100CB20AF040BE00210BF050
:103BD000C7BC0498BDF966108068A0EB410030F8BE
:103BE0001700ADF84800704770780A210228704726
:103BF000B4F884000F90204616F08BBA284611F0D6
:103C00003DB942F2D171884270472846FCF7E4BBC7
:103C100021202063282084F83D0020467047202181
:103C200084F83D107047202184F83D10002184F86D
:103C30003E107047202180F83D10002180F83E1092
:103C40007047B0FBF3F001306FF31F30002870476E
:103C5000606D40F0200060657047016841F001012F
:103C600001607047009C584616F067BA0C4605463E
:103C700019F03CBA04EBD030ADF860007047504604
:103C800022460BF0F1BDE868002200F178012046E1
:103C90003047204616F062BBBDF83E00BDF842102A
:103CA000081A01307047A8EB05000122084401B250
:103CB00020467047616A00690870606A013060627E
:103CC0007047002084F83C007047486840F02000AE
:103CD0004860002084F850004A6842F002024A60BE
:103CE0007047816801F007010629704700230546E7
:103CF00016F094BA0C46054615F082BBADF8640088
:103D00000D981CF007BE404639460DF064B9706D41
:103D1000F7685047204611F0B7B8013109B291FB5E
:103D2000F2F170474FF4A02117F0EBB82946FCF7E9
:103D30002FBB70478B48FDF797BF00BF806B0021FA
:103D4000C187C186FDF78EBF806B01684A6822F08B
:103D500003024A60416D41F010014165012180F884
:103D60005110FDF77FBF806BFEF772B9BCB5FFF74E
:103D70001FFBFFF77CFC18D4FFF79EFA416821F087
:103D800002014160FFF702FA08B1FFF761FFA06886
:103D900008B9FFF796FE0020E086FFF792FC04D0FA
:103DA0002046BDE8BC40FDF75DBF2046BDE8BC40F5
:103DB000FEF742B97CB50D4616460092022101225B
:103DC00004462B4600F02EF828B1606D032640F023
:103DD0002000606521E0434811490068B0FBF1F024
:103DE0004FF47A71484301906068B0F5827F0AD140
:103DF0002046802100222B460096002600F012F873
:103E00000028E2D109E0019830B101980138019011
:103E1000206880680006F6D4002630467CBD00BFCE
:103E200000366E012DE9FC470A9C984615460E4661
:103E30008246FCF7FBFE201A00EB0807FCF7F6FEB3
:103E40008146284808F101040068C0F3CB3078436C
:103E50000190DAF8000080683040801BB0FA80F0F2
:103E60004009A8420FD0002CF3D0FCF7DFFEA0EBF6
:103E70000900B8420AD2019800280FBF0027019814
:103E800001380190E5E70020BDE8FC87DAE9000190
:103E90004268B1F5827F22F0E00242600BD1DAF88D
:103EA0000810B1F5004F02D0B1F5806F03D1016861
:103EB00021F040010160DAF82810B1F5005F07D168
:103EC000016821F400510160016841F40051016072
:103ED00000208AF8500001208AF851000320BDE834
:103EE000FC8700BF5C0000202DE9F0471E4A010A54
:103EF00000239BB2B3F5486F04D2D418D1540233D7
:103F00006070F6E70020002140F23F12EF234FF0EF
:103F1000000800F09FF88F4C102100222046FCF78B
:103F20007FFE204640210122A246FCF779FE8A4D01
:103F3000DFF828920C4E4FF4163464B1FFF73FF8C7
:103F400028BF4FF448673A46FEF72EF82878002835
:103F5000FCD0E41BF1E7504610210122BDE8F047F8
:103F6000FCF75EBE9813002044050020BFB50A2070
:103F7000FCF76AFD2D4C3620A0472D4DA020A84708
:103F80003A20A0470520A847B220A0470C20A84708
:103F90000C20A8470020A8473320A8473320A84773
:103FA000B720A0473520A847BB20A0471920A84725
:103FB000C020A0472C20A847C220A0470120A84726
:103FC000C320A0471220A847C420A0472020A8470C
:103FD000C620A0470F20A847D020A047A420A8476C
:103FE000A120A847E020A0471248009011A0FFF7A9
:103FF00029FA68460E2100F085F8E120A047114813
:10400000009010A0FFF71EFA68460E2100F07AF823
:104010002120A0471120A0472920A0473220FCF7EB
:1040200013FD0020FFF760FFBFBD00BFB1400008D7
:10403000D9400008D0040D11132B3F544C180D0B20
:104040001F230000D0040C11132C3F44512F1F1FBD
:10405000202300002DE9FC41DFF8508007462A208C
:104060001D4616460C46C047300A8DF807608DF88D
:10407000057004218DF80600380A8DF8040001A8A7
:1040800000F040F82B20C047280A04218DF8035087
:104090008DF801408DF80200200A8DF80000684676
:1040A00000F030F82C20C047BDE8FC81B14000088A
:1040B000BCB5284C124DFFF70AFC204640210022D7
:1040C000A8470DF107000121FEF78CFC20461021C6
:1040D0000122A847BCBD00BFBCB51E4C084DFFF770
:1040E000F6FB204640210122A8470DF107000121DF
:1040F000FEF778FC204610210122A847BCBD00BF76
:10410000210C00082DE9F84F124C0D460646FEF72B
:10411000F8FDFFF7E6FA104FDFF840904FF6FF7A10
:104120008DB14FF6FF7487F80080554548463146FB
:1041300038BF2C462246FDF737FF38780028FCD0E0
:104140002D1B2644ECE7584610210122BDE8F84F0C
:10415000FCF766BD000002403C04002098130020DC
:104160007047FDF76FBA000070B592B006AC14212D
:10417000201DFCF7CFF901A81421FCF7CBF900258D
:104180001D4802260095016841F0805101600068D9
:1041900000F080500090009800951848016866F380
:1041A0008F310160006800F4404000900420CDE9A8
:1041B0000C650696CDE9106054200F9008200E90F3
:1041C00010200A900120099000982046FDF7B2FBCC
:1041D00008B172B6FEE74FF4805005950221CDE993
:1041E00003500F20CDE9010601A8FDF7CFFA08B171
:1041F00072B6FEE712B070BD403802400070004059
:104200000248016841F470010160704788ED00E0E8
:1042100080B50448FDF79BFF0120BDE880401CF0FD
:104220002DB900BFA014002070B5204B0268984241
:1042300020D000F14044850545EA9424032C03D89E
:104240004C6822F070022243B0F1804F16D0184C17
:10425000A04213D0174CA04210D0174CA0420DD052
:10426000164CA0420AD0164CA04207D0154CA042D2
:1042700004D007E04C6822F070022243CC6822F49C
:10428000407222430D688E684C699842C66285620E
:1042900001D109691963016841F00401016001213C
:1042A000416122F080012143016070BD00000140A6
:1042B0000004004000080040000C004000400140A5
:1042C0000048014000440140806B0021C185FEF799
:1042D0000BB810B5846B2068416994F84120212AFD
:1042E00008D111F0800105D00020E084204600F0C4
:1042F0007CF82068406994F84210222906D110F019
:10430000400003D00020E085FFF781F9606C40F0A9
:10431000100060642046BDE81040FDF7E5BF01686D
:10432000806B0968C90529D40021C185016851E85D
:10433000031F026821F4807142E80313002BF5D1BA
:104340004DF808EDFEF726FF5DF808EBF8D101689F
:1043500051E8051F026821F0400142E80513002BD7
:10436000F5D1202180F84210016B012906D14DF8CA
:1043700008EDFEF747FF5DF808EBF8D10021416337
:10438000016B012918BFFEF789B9818DFDF78CBF3C
:10439000806B01214163016B012918BFFEF77FB9D2
:1043A000818D4908FDF780BF016851E8031F02684D
:1043B00021F4907142E80313002BF5D14DF808ED7C
:1043C000FEF7E8FE5DF808EBF8D1016B012906D194
:1043D0004DF808EDFEF716FF5DF808EBF8D1202147
:1043E00080F84210002101637047016851E8031F03
:1043F000026821F0C00142E80313002BF5D120210F
:1044000080F84110704790F84210222926D1836825
:104410000246B3F5805F0CD152F8281F52F8183CC1
:104420008BB9026852686FF35F2221F8022B816218
:104430000FE052F8281F0BB9036923B103685B68CA
:1044400003F07F0301E003685B680B7011680131C2
:104450001160C18D0139C185090400D07047016820
:10446000CA6822F02002CA60CA6822F48072CA6058
:104470004A6922F001024A61202180F8421000219D
:104480004163026B012A18BFFEF708B981B00163CE
:104490004DF808EDFEF7B6FE5DF808EBF8D10168BF
:1044A0000A68D20606D5002200920A68009249687E
:1044B00000910099818D01B0FDF7F6BEB0B50446BC
:1044C000006804F108030ECB056925F44055194333
:1044D0002A4349F20C650261C26863691943E369C2
:1044E000AA4319431143C1604169A26921F4407193
:1044F00011434161214940F48060884202D1FDF7B7
:10450000DBF901E0FDF7CEF9E26919216368A0FB50
:104510000101B2F5004F17D15A00DB0FFBF7C0FEC7
:10452000174B6421B0FBF1F203F1805302FB03004F
:10453000322303EBC000B0FBF1F04FF4F87101EA55
:10454000400100F0070012E09A009B0FFBF7A8FE65
:1045500064210B4BB0FBF1F202FB0300322303EBAF
:104560000010B0FBF1F000F0F00100F00F0001EBE3
:104570000211084421688860B0BD00BF00140140EA
:104580009CFFFF0FF8B51346002504461E4E0A4651
:104590001F4F456483858162222084F84200E06BCE
:1045A0002168C0E91365194E0431C0E90F76FCF7A4
:1045B0001DFA30B110206064202084F842000120F0
:1045C000F8BD00952068016800914068009000984F
:1045D000206930B1FEF7FCFF40F48070FFF70EFA5F
:1045E000F8D1FEF7E9FE40F0010041E80502002A9B
:1045F000F7D1FEF7E1FE40F0400041E80502002A55
:10460000F7D10020F8BD00BFD34200089143000855
:104610001F4300082DE9FC41044600681D469046F2
:104620000F465E1C01683940B94224D0002EF9D0F3
:10463000FCF7FCFAA0EB08010320A94219D8C5B188
:104640002068C1684907EDD5402FEBD0802FE9D015
:1046500001680907E6D500250195016801914068C8
:1046600001900198FEF7D3FF082084F84050606461
:104670000120BDE8FC810020BDE8FC810148FDF778
:104680004DBE00BFE81400200848FDF747BE00BF3C
:10469000FEE7000080B5054805494FF48062FDF74C
:1046A000DFFD0448FEF727FB80BD00BF301500206A
:1046B000884A0020E4120020026800211378303B71
:1046C000092B84BF08467047531C01EB810103602E
:1046D000127802EB41011A463039EFE7B0B50848CD
:1046E000442100F0C4FE07482121002200241BF0D1
:1046F0001DFF054D686001F0DFFE2C70B0BD00BFEE
:10470000B4020020DD640008580200202DE9F047C3
:1047100082460E4608461146154600F0E9F810B3E9
:10472000304629460022002700F09AF8002869D177
:1047300072886988B6F80690B6F800C0B6F804E04A
:104740008F1AA9EB02083FB2012F0EDBAAF8061060
:10475000AAF804E0AAF80220AAF800C00127B6F8D7
:104760000690728802E0FF274CE00027B5F906109A
:10477000A8EB0100104400B2012812DB0FFA89F007
:1047800081420EDA3388B08842442AF837300AEB87
:10479000C7030137DA8098805980B6F80690E98817
:1047A0007288B5F9023010B209B20FFA89F2AEEB95
:1047B0000C0C8342C8BF18469142B8BF0A46111A72
:1047C0000BB23188012B0DDB2B885C1A24B2012C33
:1047D00008DB2AF837100AEBC7010137CA808B8043
:1047E00048803188AB88ACEB03040C4424B2012C24
:1047F00008DB2AF837300AEBC70361440137DA8057
:104800009980588078B2BDE8F087F0B5B1F90030F2
:10481000B2F90070B1F90240B1F90450B1F906C023
:10482000B2F90210B2F90460B2F90620BB42C8BF67
:104830001F4607808C42C8BF21464180B542B8BFA1
:104840002E4686809445B8BF6246C280B74205DCDA
:1048500010B209B28142DCBF0120F0BD0020F0BDE2
:104860002DE9F8430D46B0F90070B1F900108F4200
:1048700038DBB0F90260B5F902108E4232DBB0F9D4
:104880000490B5F9041089452CDCB0F90680B5F91F
:104890000600804526DC14463AB36946284622467F
:1048A000ADF80260FEF786FFE0B169462846224671
:1048B000ADF80260ADF8009000F084F890B1694660
:1048C00028462246ADF80280FEF774FF50B16946D3
:1048D00028462246ADF80280ADF8009000F072F84C
:1048E000BDE8F8830020BDE8F8830120BDE8F88327
:1048F000B1F90420B0F90030934213DCB1F9002083
:10490000B0F9043093420DDBB1F90620B0F9023062
:10491000934207DCB1F90210B0F906008842A4BF47
:1049200001207047002070472DE9F8430D46B0F98B
:104930000460B1F900108E4211DBB0F90670B5F9D0
:1049400002108F420BDBB0F90080B5F904108845E6
:1049500005DCB0F90290B5F90600814502DD0120C1
:10496000BDE8F8831446EAB1694628462246ADF808
:104970000290ADF8008000F025F898B96946284605
:104980002246ADF80290ADF8006000F01BF848B97F
:10499000694628462246ADF80270ADF8008000F066
:1049A00011F810B10020BDE8F88369462846224678
:1049B000ADF80270ADF8006000F004F880F001007E
:1049C000BDE8F8832DE9FC470C46B0F90010B4F9B6
:1049D00000308B420DDBB0F90470BB4209DCB0F94A
:1049E0000250B4F90230AB4203DBB0F90660B342C7
:1049F00002DD0020BDE8FC87012A67DB781A731B03
:104A00004FF0020CADF80010ADF802500130013348
:104A100000B21BB290FBFCF093FBFCF300B20FFA68
:104A200083F94845B8BF814668469145A8BF91467D
:104A300009EB010A09EB050821460022ADF804A0A4
:104A4000ADF80680FFF7BEFF20B108EB0900ADF816
:104A500006000FE0ADF80660A6EB090668462146A1
:104A60000022ADF80260FFF7ADFF40B1A6EB0900F0
:104A7000ADF802000AEB0900ADF8040020E0ADF843
:104A80000470A7EB0907684621460022FEF792FE54
:104A900020B1A6EB0900ADF802000DE06846214602
:104AA0000022ADF80680ADF80250FFF78BFF68B129
:104AB00008EB0900ADF80600A7EB0900ADF800000F
:104AC0006846214618F0ECFBBDE8FC870120BDE8F4
:104AD000FC87F0B5B1F90030B2F90060B1F90240DD
:104AE000B2F90270B1F90450B1F906C0B2F904107C
:104AF000B2F90620B342B8BF1E460680BC42B8BF1A
:104B0000274647808D42C8BF294681809445C8BF4B
:104B10006246C280F0BD00002DE9F04F93B004461C
:104B20001BF0A4FC00210A9104900CB1E06801E0A4
:104B300009F088FEDFF80C86C8F80000006918F05C
:104B4000D5FAD8F80010486918B118F0CFFAD8F89B
:104B50000010C86918F0CAFAD8F80000006A18F006
:104B6000C5FAD8F800000169002955D0DFF8ECA596
:104B700000264FF00109B0F850118E4245D281193C
:104B800091F8301109B10136F5E70027B0F850115E
:104B90008F42F8D2C11991F83011A1BBB74232D07F
:104BA00000F1300101EBC60001EBC701FFF7A0FEE9
:104BB0000146D8F8000031B330300BAC00EBC60131
:104BC00000EBC7022046FFF784FF2046D04704468B
:104BD000D8F8000000EBC6003030D0470546D8F8C2
:104BE000000000EBC7003030D0474119D8F8000072
:104BF0008C4208D20B9A0C9B00EBC6010A634B63F4
:104C0000C11981F830910137C0E701680A7CD207E9
:104C100006D10DF12C0994E00021A0F850118DE28D
:104C2000C9680DF12C094968002900F08A8000F557
:104C3000AC7000F069FC0146D8F80000002940F093
:104C400080800168C9688A680B6809929A4208BF27
:104C50004B68089309F00AFE0DF12C0A07902021F9
:104C60005046FBF757FC0024D8F80000B0F850116C
:104C70008C423FD2011991F8301109B10134F3E7A8
:104C800000F5AC7000F0D2FB0746002FF6D0D8F844
:104C9000000039463E4600F5AC7000F0DCFB0746EC
:104CA000D8F80000314600EBC40000F13002504655
:104CB000FFF72CFD05460130E7D04FF00009D34641
:104CC000D8F800003146A94500F5AC700CDA00F0C8
:104CD000E9FBDBF80010DBF804200BF1080B09F10D
:104CE000010942600160EBE700F017FC304613F069
:104CF000F9F9CAE700F5AC7000F098FB0DF11C0A59
:104D000004460DF12C099AE8C004D8F8000094B1CB
:104D10000068514632462346C06B856BCDE900766C
:104D20000294A847D8F80000214600F5AC7000F0C6
:104D300092FB0446E9E700F5AC7000F062FBD8F89E
:104D40000000B0F850510021C8F80410002D00F008
:104D50006D81012D06DB4119013D91F82F110029CC
:104D6000F7D100E0002501684A6B22B10846904760
:104D7000D8F800000168C96800278A6922F001029A
:104D80008A61FEF7D7FC059590F8281041F00401E0
:104D900080F82810B0F850118F4280F00081C119BE
:104DA00091F83011002940F0F880AF4205D1016838
:104DB000C9688A6942F001028A61FEF7BBFC01689A
:104DC000CA68CE6B9268326000EBC702097C02F1C0
:104DD000300B890727D009F049FD0446D8F80000B8
:104DE00009F08CFD01380021002200B20090601E05
:104DF00003B2484606F00FF8D8F80000C6F8049051
:104E00000068D0E903018907826959BF816962F3AB
:104E1000410142F00201CB4681613046C6F808B03C
:104E20001CF006FBACE032F8329F0797114614469F
:104E3000069231F802AF34F9047FCDE9081BBBF8C4
:104E400000B009F05BFD874201DA258804E0D8F85C
:104E5000000009F053FD451ED8F80020AAEB0B0115
:104E6000A7EB090001310130126809B20FFA80FB8B
:104E7000D3689269DB68B3FBF1F15945B8BF8B4643
:104E8000EAB100205F460DF12C09ADF830000B901F
:104E90007C1ED8F800004946ADF8324000688269AF
:104EA0009047BDF82E10BDF93200411A013109B208
:104EB0008B4506DA27B2002FEADC4FF0000B06998B
:104EC00007E039B201290699ACBF00F1010B4FF0A0
:104ED000000B08880FFA85FA4FF000090BFA80F7EB
:104EE000A9B27B1E534528DC0BAA0FFA83F9C6E949
:104EF0000122D8F800201268D26894683460ADF8B6
:104F00002E0009980088ADF82C0008980088ADF8AC
:104F10003230ADF83000CA45BCBFADF83250A946BA
:104F20001FFA89F0814203D1906940F0020090613C
:104F300030461CF07DFA3846D0E71FFA89F20DF1B1
:104F40002C0991421AD0D8F80010C6E90199099BA2
:104F50000968C9688A683260089A1B8812888C6957
:104F600044F002048C61ADF82E003046ADF83250AA
:104F7000ADF82C30ADF830201CF05AFA059D079F93
:104F8000D8F8000000EBC700303005F016FF0146EE
:104F9000D8E900021144C8F804100137FAE690F885
:104FA0002820002902F0FB0280F828203ED0026869
:104FB000137CDB071CD0D2685268CAB100243025AC
:104FC0008AB2944214D2021992F830216AB900F5DB
:104FD000AC7000F086FA0146D8F800004319425937
:104FE0005B680A604B60B0F8501108350134E7E7A0
:104FF00030304FF4807113F074F9D8F8000020219C
:1050000000F5987013F06DF9D8F800000021A0F8B1
:10501000501104981BF024FA0A90D8F80000006898
:10502000436A1BB1D8F804200A99984712F0E0FFB0
:1050300000F0BAF800F094F8D8F81C40ACBB09F0C6
:1050400001FC09F027FC11F077FE7F2100220446C5
:1050500017F07DFF20460021002217F06EFF20464A
:105060004FF6FF71002217F0BFFFFEF720FA17F08E
:10507000B1FFFEF71CFA17F09EFFFEF718FA17F0C3
:105080009FFFFEF714FA17F0A0FFFEF710FA17F0D3
:10509000A6FF2DA1204612F051FD20460621002238
:1050A000002314F03BF8C8F81C40D8F808001BF0A7
:1050B000D7F980084A280DD8D8F8040041F2893180
:1050C00088423BD3D8E903010A9A10440131C8E968
:1050D000030133E01BF0CAF9C8F80800D8F8000053
:1050E000406828B100684FF47A71B1FBF0F500E038
:1050F0001E25D8F81010284649B14FF47A7048435D
:10510000D8F80C10012998BF0121B0FBF1F0002163
:10511000C8E90311A84238BF0546D8E9050129446A
:105120000130C8F81810C8F814001BF029FAC0F1B3
:10513000640306A120462A4612F036FD13B0BDE8EE
:10514000F08F00BF740100203F000000257520464D
:1051500050530A257525252043505500BBAD000846
:10516000B0B5074D0024702C08BFB0BD285908B158
:1051700012F0B8FF28191C2113F0B3F81C34F2E721
:10518000080300200749096859B14A68824202D0E1
:105190000A68824203D10A7E42F001020A76143183
:1051A000F1E77047400500207047000001480421E6
:1051B00000F05DB9A80200200148202100F057B995
:1051C000C00200202DE9FF470C9E1D4682463BB9D8
:1051D000B6F5807F04D1501E4D1E002200215CE0F8
:1051E000DDF8348000206F46DFF8C490ADF80E2063
:1051F000ADF80A20ADF80C10ADF80410294632467F
:10520000CDF80600009038464346C847381DFEF7E3
:105210007CF907F10800FEF778F907F10C00FEF7BA
:1052200074F9BDF90E50BDF90A102846A942C8BF4D
:105230000846BDF90670BDF90260BDF90030BDF940
:105240000420BE423C46C8BF34468442D8BF044610
:10525000A01CA942B8BF0D46BE42B8BF3746AF42F8
:10526000A8BF2F46BDF90C60BDF90840B91E17460E
:10527000B4423546C8BF25469342C8BF1F46AF4219
:10528000D8BF2F46BD1CB442B8BF26469342B8BF14
:105290001A46B242A8BF3246023AAAF80600AAF855
:1052A0000450AAF80210AAF80020BDE8FF8700BF4A
:1052B0007DD10108F8B516460C4607461BF0D6F816
:1052C000A2B2104C054639463346204610F064FE23
:1052D00060B10020A062E06988B928461BF0C0F8E0
:1052E000084C012898BF0120E06108E0054C2C2102
:1052F000204612F0F6FF4FF00040A0620024204646
:10530000F8BD00BFF803002010B50748142100F0D5
:10531000AEF810F009FE0549054A064B064CC0E9F7
:105320000043C0E9022110BDCC0200206D590108E4
:10533000315C0108815A01089D590108F0B585B01A
:105340000D46044620B909F07DFA0446002856D0DF
:10535000204609F0E9FA002851D094F828004007C7
:105360004DD4002075B30290204609F07FFA013831
:10537000ADF80C00204609F0C1FA01382946ADF815
:105380000E00684602AAFFF740FAC0B32068017C0D
:1053900089071AD482690AB16946904704F130013D
:1053A0004FF0FF366D46B4F850010136864211D2F7
:1053B0002846002201F10807FFF752FA0028394673
:1053C000F1D01CE0A4F8500119E0DDE90201C4E9C4
:1053D0000C010DE01F2807D8009A019B04EBC001C7
:1053E00001300A634B6304E0DDE90201206361637D
:1053F0000120A4F85001606808B11BF077F905B0EE
:10540000F0BD70B5044608B165680CE000250AE0FF
:105410002068294628444668204600F07EF8284641
:1054200012F060FE3546002DF2D170BD08B1406823
:1054300070470020704710B1021D002102E00021DA
:10544000002200E0126822B1036801311A440432DC
:10545000F8E70846704700680844406870470068ED
:105460000858704708B180687047002070470331C2
:10547000002221F003018260C0E90012704710B5DC
:10548000FDF736FD58B1216800224250421863688A
:105490005360626802B15050A168606001B110BDF4
:1054A000A06010BDA0B1B0B50C46C1B105464068C2
:1054B000A0420FD02868083012F084FD78B1296826
:1054C00063580A1D03B19850435060508450B0BDDA
:1054D000002070472846FFF7D2FF0028F7D10020B0
:1054E000B0BD10B5FDF704FD58B122680023111DB1
:1054F0004350A3688350A26802B150506168A06015
:1055000001B110BD606010BD28B1416809B9806863
:1055100008B1002070470120704710B568B142689B
:105520008A420BD0026884688B588C420ED0141DBE
:10553000085903B1185100B1835010BD02681144DD
:105540004968416041B10020885010BD836003B1BB
:10555000D0180021416010BD0021816010BD10B540
:1055600004460068826812B12146904720680068AE
:1055700008B12060F6E710BD806808B1C08A00E07D
:10558000002000B27047806810B1807E80097047AB
:105590000020704770B5044652EA01001BD0204637
:1055A00015460E4613F02CFFA0682A460123018AF7
:1055B00031440182418A294441822046314616F015
:1055C00022FA20460B2100220FF05EFC012803D1B5
:1055D000204616F0A3F9012070BDF8B51446A8B115
:1055E00062220D46074615F0FBFC78B106460068BE
:1055F00060B138462946632215F0F2FC010605D059
:105600003368C2B2A1B23046984700E02046C0EAF3
:105610000400F8BD2DE9F04F91B00546408CDDF84F
:1056200068B016461F468A462A8440F00400688403
:105630002846BBF8082015F0D3FC2F840446FEF75B
:1056400067F98146688C20F0040068844C4500D1DD
:105650006AD02E84FEF75CF98046284651462F8496
:1056600003F0CDFE0068BBF80810424619F0DAF9E5
:10567000BBF808000B2826D147F6FF74A04518BFD9
:10568000A14520D1284615F0B3FE022690FBF6F77F
:10569000284614F0A2FD90FBF6F1A04507F10100A9
:1056A00001F1010105D102B20FFA81F84245B8BFFC
:1056B000904647F6FF72914505D100B20FFA81F985
:1056C0004845B8BF81461F48FFF7D9FE78B305604B
:1056D000C0E902A8C0F8109006466C46BBF8080066
:1056E000B080204604F0C2FEFF200A900020CDE9E1
:1056F00008000F4803900F4802900F48CDE9006062
:10570000BBF800000B90DBE90301CDE90610BBF804
:10571000020040420C909DF8420000F0FE008DF81F
:105720004200204604F0F2FE11B0BDE8F08FFEE723
:105730006D4602080D47020835450208014814214C
:10574000FFF795BED80200202DE9F84F04466FEA16
:1057500002086FEA010900276D464FF0020B4FF077
:10576000000A608CC0F3C500874280F0DD80E068ED
:1057700000EBC70149688A0100F1C38089B211EAD0
:10578000090201EA0801B1FA81F118BF01224909B1
:105790004A4040F0B68050F8376010212A46304623
:1057A00018F03CFF002840F0BD8030461121FDF785
:1057B000E4FA002840F0B68030461221FDF7DDFA09
:1057C000002840F0AF8030461321FDF7D6FA0028BC
:1057D00040F0A88030461521FDF7CFFA002840F0B0
:1057E000A18030461421FDF7C8FA002840F09A80C5
:1057F00030460A21FDF7C1FA002840F09380304678
:105800006B21FDF7BAFA002840F08C8030466C21FD
:10581000FDF7B3FA002840F0858030460121FDF7FE
:10582000ACFA00287ED130460421FDF7A6FA002804
:1058300078D130460221FDF7A0FA002872D1304617
:105840000321FDF79AFA00286CD130460521FDF7B7
:1058500094FA002866D130460621FDF78EFA00281A
:1058600060D130463221FDF788FA00285AD13046FF
:105870006E21FDF782FA002854D130466D21FDF7E4
:105880007CFA00284ED130466921FDF776FAB0BB8C
:1058900030466A21FDF771FA88BB30466E21FDF76C
:1058A0006CFA60BB30466D21FDF767FA38BB3046B5
:1058B0003721FDF762FA10BB30463821FDF75DFA5B
:1058C000E8B930463521FDF758FAC0B930464021D5
:1058D000FDF753FA98B930464521FDF74EFA70B9F5
:1058E00030464121FDF749FA48B930464221FDF7DB
:1058F00044FA20B930464321FDF73FFA18B14FF082
:10590000020A01372DE730464921FDF736FA5FFAE2
:105910008AFA0121BAF1010F98BF8A46002818BF00
:10592000DA46EEE74FF0030A5FFA8AF0BDE8F88F37
:1059300005480068704700BF80B50348182108304B
:10594000FAF7E8FD80BD00BF74010020C0F3041029
:10595000072828BF072070474FF6FF71884204BF11
:105960001F20704708B900207047702801D80949E6
:1059700009E0064909680029F5D0054A713880B266
:1059800012688242EFD9085C704700BF8002002095
:10599000240400201E4C020880B504481821FFF79B
:1059A00066FD03480121417080BD00BF84020020D4
:1059B000F0020020F0B12DE9F04116460D460446F4
:1059C000FAF70AFDDFF8BC82074620462946D8F8D8
:1059D00000209047D8F800200546204431469047E3
:1059E0002118381A854203D84A5D62550135F9E716
:1059F000BDE8F041704700BF2DE9F041DFF8288293
:105A000014460F4619461D460646D8F8042090470E
:105A1000386030B12868D8F804200021304490471D
:105A200000E000202060BDE8F08100BF2DE9F04FCC
:105A30008FB0189E1C4691460EB100223280A8B14C
:105A400007789FB191B1199A019112F0060F1AD0FF
:105A5000421C0020012342F201440D2F03D803FA17
:105A600007F5254206D1175C0130F6E700200FB09C
:105A7000BDE8F08F002F18BF0130002EF7D04FF691
:105A8000FF713180F3E7D207002301210090CDF8A8
:105A900008900A9200228DF833300B93002900F011
:105AA000AF8021B20129C0F2AB8000EB030A0020D5
:105AB0000021CDE9072309905B480E9142685046CA
:105AC0000EA9904783460E9803944FF0FF364FF08F
:105AD0000008002500270D9019FA84F00024069094
