:020000040800F2
:1000000090AE0020710200084B3200081B2D000842
:100010004932000863080008E14D000800000000B4
:10002000000000000000000000000000B1480008CF
:10003000FF080008000000000F440008B348000853
:100040008B0200088B0200088B0200088B0200085C
:100050008B0200088B0200088B0200088B0200084C
:100060008B0200088B0200088B020008650800085C
:100070008B0200088B0200088B0200088B0200082C
:10008000710800087D0800088B02000800000000CD
:100090000000000000000000000000008B020008CB
:1000A0008B0200088B020008614900088B020008DF
:1000B0008B0200088B0200088B0200081D2D00082F
:1000C0008B0200088B0200088B0200081144000814
:1000D0008B020008CD4D0008D94D0008000000003B
:1000E0008B0200088B0200088B0200080000000051
:1000F0000000000000000000000000008908000867
:10010000000000008B0200088B0200088B02000830
:1001100000000000000000000000000000000000DF
:100120008B0200088B0200088B020008950800086B
:100130008B0200080000000000000000000000002A
:100140000000000000000000000000008B0200081A
:100150008B0200088B020008A10800088B0200082F
:100160008B0200088B020008000000000000000065
:10017000000000000000000000000000000000007F
:10018000000000008B0200080000000000000000DA
:100190008B02000800F002F800F05BF814A696E865
:1001A000000CB244B344DA4501D100F052F8BAE889
:1001B0000F000FA696E83000A5EB040504EB060738
:1001C000AAEB0704A7F101074FEA15154FEA34140B
:1001D000A4F10104AC4201D300F03BF813F0010F8D
:1001E00018BFFB1A43F0010300F001F8DBE71847E2
:1001F000885D0300A85D0300103A24BF78C878C169
:10020000FAD8520724BF30C830C144BF04680C601C
:1002100070470000704700000023002400250026DE
:10022000103A28BF78C1FBD8520728BF30C148BF59
:100230000B6070471FB525F0CDFF00F0F7FA040002
:100240000020002125F06CFE401C60601FBD10B531
:1002500010BD00F0C5FA1146FFF7ECFF21F05CFD80
:1002600000F0F6FA03B4FFF7F2FF03BC00F038FA2F
:100270000948804709480047FEE7FEE7FEE7FEE73A
:10028000FEE7FEE7FEE7FEE7FEE7FEE70448054976
:10029000054A064B704700005149000895010008C7
:1002A000904E002090AE0020906E0020906E0020B6
:1002B00053EA020C00F069802DE9F04B4FF0000684
:1002C000002B1FBFB3FA83F503FA05F424FA05F6F1
:1002D0005E4012BF1643B2FA82F502FA05F4C5F188
:1002E00020051EBF22FA05FC44EA0C04203556EA1C
:1002F000044C4FEA144418BF641C4FF000084FF040
:100300000009904271EB030C39D3002919BFB1FAEF
:1003100081F701FA07F6B0FA80F700FA07F6C7F19D
:1003200020071EBF20FA07FC46EA0C062037B6FB62
:10033000F4FCA7EB0507103F07F01F0BCBF12006DD
:100340002CFA06F60CFA0BFB44BFB3460026202F0E
:10035000A4BF5E464FF0000B5BEA060C08BF4FF0EF
:10036000010B19EB0B0948EB0608ABFB027C06FB03
:1003700002CC0BFB03CCC01B71EB0C01C1E70B469D
:10038000024641464846BDE8F08B13B5084318BF06
:100390004FF0FF300146AFF30080BDE81C407047CE
:1003A00070B5064600F03EF90468054630460A225C
:1003B000002100F03BF92C6070BD0000014A00F004
:1003C0006DB900000000002040EA0103024630B58C
:1003D0009B0710D14FF0013400E008C208C91D1B73
:1003E0009D4315EAC41FF8D013F0FF0102F8011B6A
:1003F0000DD01B0AF8E711F8013B002B02F8013B76
:1004000005D011F8013B002B02F8013BF3D130BDC0
:1004100010B5431C02E010F8011B71B18107FAD13D
:100420004FF0013202C88C1A8C4314EAC211F9D081
:10043000C01A0A0603D0C01E10BDC01A10BD0A049F
:1004400001D0801E10BD0902FCD0401E10BD032A41
:1004500040F2308010F0030C00F0158011F8013BE1
:10046000BCF1020F624498BF11F801CB00F8013BC8
:1004700038BF11F8013BA2F1040298BF00F801CB8C
:1004800038BF00F8013B11F0030300F02580083A63
:10049000C0F0088051F8043B083A51F804CBA0E8BA
:1004A0000810F5E7121D5CBF51F8043B40F8043B0F
:1004B000AFF30080D20724BF11F8013B11F801CB44
:1004C00048BF11F8012B24BF00F8013B00F801CB15
:1004D00048BF00F8012B704710B5203AC0F00B80E0
:1004E000B1E81850A0E81850B1E81850A0E818502A
:1004F000203ABFF4F5AF5FEA027C24BFB1E81850A0
:10050000A0E8185044BF18C918C0BDE810405FEA01
:10051000827C24BF51F8043B40F8043B08BF70477D
:10052000D20728BF31F8023B48BF11F8012B28BF82
:1005300020F8023B48BF00F8012B704702F0FF0390
:1005400043EA032242EA024200F002B84FF00002FE
:1005500000B5134694469646203922BFA0E80C50B9
:10056000A0E80C50B1F12001BFF4F7AF090728BF94
:10057000A0E80C5048BF0CC05DF804EB890028BF10
:1005800040F8042B08BF704748BF20F8022B11F039
:10059000804F18BF00F8012B7047000000000000DA
:1005A00030B44FF0013C50F8042B51F8043BCCFA26
:1005B00052F4D51A20D1FCB950F8042B51F8043B61
:1005C000CCFA52F4D51A17D1B4B950F8042B51F81B
:1005D000043BCCFA52F4D51A0ED16CB950F8042B66
:1005E00051F8043BCCFA52F4D51A05D1002CDAD0DC
:1005F00030BC4FF00000704729BAB1FA81F111F018
:100600001801D1F120008440F2D1CA40CB4012F051
:10061000FF0213F0FF0330BCD01A704770477047D9
:100620007047000000487047B80000202DE9F047EF
:1006300091460F4680460446002614F8015B2DB112
:1006400000F058F80068405DC007F6D12B2D02D0AD
:100650002D2D18D0641E4A463946204600F052F827
:1006600027B13968A14201D1C7F800804FF00204D8
:1006700071050BD54042002803DDFFF7D3FF04606E
:10068000A007BDE8F08746F48066E4E70028F8DAC2
:10069000FFF7C8FF04606FF00040F2E72DE9F0417A
:1006A00015460E46040002D12C6804B90BA420465E
:1006B00000F087F80444207870B127463146384668
:1006C00000F06FF80444207810B1002004F8010B0A
:1006D00038462C60BDE8F0810027F9E700000000F3
:1006E00001491820ABBEFEE7260002000048704713
:1006F000B800002010B500F099F8001D10BD00BF33
:10070000215802002DE9F05F824615468B460027EE
:100710000AF10104B9460078302801D09DB113E0F8
:1007200014F8010B0127782803D0582801D045B1CF
:100730000AE00DB1102D07D1002714F8010B102588
:1007400002E0082500E00A250026B0460EE005FB81
:10075000080005FB06F101271FFA80F801EB10469F
:10076000B6F5803F00D3B94614F8010B294600F0D6
:1007700061F80028EBDABBF1000F05D00FB1641E61
:1007800000E05446CBF80040B9F1000F06D0FFF767
:1007900049FF02210160C81EBDE8F09F48EA0640FB
:1007A000FAE730B503461D781DB10A4603E0AC42B6
:1007B00001D1181A30BD12F8014B002CF7D15B1C87
:1007C000F1E730B503461D783DB10A4612F8014BFA
:1007D0001CB1AC42FAD15B1CF5E7181A30BD70476A
:1007E0007546FFF783FFAE4605006946534620F085
:1007F0000700854618B020B5FFF748FDBDE820404A
:100800004FF000064FF000074FF000084FF0000BCC
:10081000AC46ACE8C009ACE8C009ACE8C009ACE83B
:10082000C00921F007018D4670470000004870475D
:10083000D80000203A2800D2303820F02002412A87
:1008400001D3A2F13700884201D34FF0FF30704747
:1008500010B50446AFF300802046BDE81040FFF716
:1008600001BDFEE7014800F09FB800BFBC120020A8
:10087000014800F099B800BFDC130020014800F0E7
:1008800093B800BFFC110020014800F08DB800BFF4
:100890001C130020014800F087B800BF5C12002044
:1008A000014800F081B800BF7C130020026840F2CC
:1008B000FF3122EA010102F0F802103A5F2A88BFF4
:1008C000043181651823B2FBF3F202A39A5CC2657E
:1008D000084670470006101600061016B0B50468EA
:1008E000806825684028084625F4802525606360D7
:1008F00008BF1046A06008BF0A46E260B0BD70475E
:1009000072B6FEE770B5866D044600F09BFA0546A8
:1009100094F83500022821D12068216C026822F069
:1009200016020260426922F08002426109B9A16C9C
:1009300019B1016821F00801016002F025FE20686C
:100940000068C0070ED000F07DFA401B0628F6D3E1
:1009500020206065032084F835000CE0802060656D
:10096000012008E0E06D3F2101FA00F0B0600120B5
:1009700084F835000020002184F8341070BD90F810
:100980003510022909D1052180F83510006872461A
:1009900002F0FAFD96460020704780214165012053
:1009A000704790F835007047F8B504460020544A67
:1009B00008210090D4E916601568376881403942F3
:1009C0000CD0226813685B0708D5136823F0040372
:1009D0001360B160616D41F00101616501218140E9
:1009E000394208D022685269120604D5B160616D9F
:1009F00041F00201616504218140394208D022683A
:100A00001268920704D5B160616D41F0040161651F
:100A100010218140394217D020680268120713D58F
:100A2000B16002680168520306D4C90506D40168A2
:100A300021F00801016001E0080301D4216C00E00D
:100A4000A16C09B120468847E16D202000FA01F22F
:100A50003A4233D020680368DB062FD5B26094F8A1
:100A600035300268052B15D122F01602026042696A
:100A700022F080024261226C0AB9A26C1AB10268AB
:100A800022F0080202603F208840B06002F013FCB0
:100A9000216D2FE00168520308D4C9050AD401680A
:100AA00021F01001016002F006FC03E0080301D40C
:100AB000616C00E0E16B09B120468847606DF0B1E0
:100AC000606DC00715D005214FF4165084F835101D
:100AD000B5FBF0F021680A6822F001020A60009A72
:100AE00001328242009202D80A68D207F7D102F09E
:100AF000E2FBE16C19B12046BDE8F8400847F8BDBB
:100B0000600000202DE9F041044600F09BF9ACB1F3
:100B10000546022084F8350002F0AAFF206802F0A2
:100B200033FD21680868C0070BD000F08BF9401B2B
:100B30000528F6D90325202603205BE00120BDE827
:100B4000F081086804F1040C2D4A9CE8E81100EAE1
:100B5000020ED4E9072043EA0E032B4333433B4301
:100B600043EA08031A43636A104340EA0C02042B69
:100B700003D1D4E90B05284302430A60042B4869DA
:100B800020F0070040EA030228D1D4E90A733A436F
:100B900023B3BCF5005F08D0BCF1000F14D1022FC5
:100BA00015D0012F0AD0002F10E0032F16D80125F1
:100BB00040260120DFE807F01E0B1E02A3F1C070E3
:100BC000B0FA80F0400904E0032F03D306D1C3F349
:100BD000006018B10125402601200BE020464A6143
:100BE000FFF764FEE16D3F220026012502FA01F1C4
:100BF00081600020666584F83550BDE8F08100BF53
:100C00003F8010F0B0B503F094F827D00120A56D17
:100C100084F8340094F8350001281DD1022084F8AE
:100C20003500002060652046FFF758FEE26D3F2347
:100C30002068216C03FA02F2AA60026842F01602F0
:100C4000026019B1016841F008010160016841F0DA
:100C5000010101600020B0BD02F00AFF0220B0BD1A
:100C6000B0B5044600F0EEF805460548611C007872
:100C700018BF044400F0E6F8401BA042FAD3B0BD10
:100C8000040000202DE9FC4F614A07244FF0010ABF
:100C90004FF0000B90425F4A08BF042483050244D2
:100CA00043EA9222042A38BF144600940025002209
:100CB000102A08BFBDE8FC8F0F680AFA02F917EA8C
:100CC000090700F09F80D1F804C0032303FA0BF654
:100CD0000CF0030E6FEA0608AEF10106012E13D8E0
:100CE0008668D1F80CA00AFA0BF406EA08064FF061
:100CF000010A34438460CCF300144668944026EA29
:100D000009063443446005E0BEF1030F02D14FF001
:100D1000030E21E0C4688E6804EA080406FA0BF6A4
:100D20003443BEF1020FC46016D105F01C040F233A
:100D300003FA04FC6FF0030303EA520303441E6A40
:100D400026EA0C0C0E6906FA04F444EA0C041C6250
:100D5000D1F804C00CF0030E04680EFA0BF304EA99
:100D6000080423431CF4403F03604BD000232C4C69
:100D7000A84622F003060193236843F480432360CE
:100D800023680F2403F48043019305F00C03224DE4
:100D90009C40AC462E44019D224DAE46755925EA35
:100DA0000404009D05FA03F3234346F80E30DCF8F3
:100DB00008304D6843EA0704EE0258BF23EA0704EF
:100DC000164BCCF80840AE029E461B6843EA070467
:100DD00058BF23EA0704CEF80040AE03DCF8043025
:100DE00043EA070458BF23EA0704CCF80440ED03A4
:100DF000DCF80030454643EA070458BF23EA0704FD
:100E0000CCF800400BF1020B0435013250E700BF73
:100E1000001002400000FEBF003C01400C3C0140BD
:100E20004438024008FCFFFF426902EA0103914393
:100E300041EA034181617047002A08BF09048161CA
:100E40007047000001480068704700BF8C4E0020CA
:100E500070477047F8B5D0F800C00446DCF80400CD
:100E6000E76A94F83E3094F83D20402B01D0102BD7
:100E70000ED1DCF81860DCF81450E9070DD1B7F199
:100E80002A4F00F0C182B7F52A0F00F0BD8206E0BC
:100E9000216C002946D0002346E081053CD4290777
:100EA00002D5810500F1DA80A90702D5810500F19C
:100EB0004081DCF8041076074FEA015600F1C58046
:100EC000002E00F1A18205F00402690640F16E8156
:100ED000410540F16B81002A40F0688194F83D00A3
:100EE000222840F09182E06A628D042AC0F09C8240
:100EF000606ADCF810100170608D01386085606AEE
:100F000001306062608D032840F07E822068416875
:100F100021F480614160F8BDE06AB0F52A0F4CD140
:100F200001204FE0DCF81830DCF81450A90701D597
:100F3000810556D4E90602D5810500F1A68042F06C
:100F4000080105F00402292940F0CD80290624D5A6
:100F5000410522D50ABB94F83D00618D002900F0BF
:100F60005382616A11F8012BCCF81020628D013A8E
:100F700062856162618D002940F04682292840F037
:100F80004382DCF8040020F48060CCF8040003F015
:100F9000A1F9BDE8F84000F060BC002A00F03482FE
:100FA000800540F13182608D002800F02D82606A5A
:100FB00010F8011BCCF8101083E2E06AB0F12A4F60
:100FC00001D10820E06294F83E0040282CD1216D28
:100FD000606C00F0FE00002900F04E8140F001003E
:100FE0004AE1206C08B1DCF8183094F83D0000F0BC
:100FF0002800282840F0C180DCF8040020F480603C
:10100000CCF8040003F0C6F918064FF0180058BFDA
:101010000C20225A012103F0040081EA90012046AD
:10102000BDE8F840FFF715BF2069B0F5804F40F0EC
:10103000B08094F83D00616C01F0FE01212818BFDA
:101040000131CCF81010606B0DE0002E00F1DC8156
:10105000290600F1BD8005F00405EDE0606B616CD0
:10106000C9B2CCF8101008B1C06B38B9A06B002819
:1010700000F0CA81C06B002800F0C681DCF80400D3
:1010800040F40060CCF80400F8BD94F83D50DCF862
:10109000040020F4E060CCF8040000200090DCF8AC
:1010A00014000090DCF8000040F00100CCF80000D3
:1010B0000098DCF8000020F48060CCF80000DCF838
:1010C0000400000540F1348145F0080026462A2836
:1010D00040F00E8156F8380F0168496826F80E1C5A
:1010E00036F80E1C0CE169063CD541053AD5CABB61
:1010F00094F83D00618D002900F08681616ADCF87A
:1011000010200A7002F0B3FF616A01316162618DE3
:10111000002940F079812A2840F0768120684168D2
:1011200021F48061416022202063282084F83D0062
:101130003BE194F83E30E06A226B94F83D1022299E
:1011400006D1216D002940F09A80402B40F0978015
:1011500000200090DCF814000090DCF818000090EB
:101160000098F8BD002A00F04F81800540F14C81C5
:10117000608D002840F09F8146E100200090DCF85F
:1011800014100091DCF818100091009984F83C00CC
:10119000F8BD206D00286AD0206D012840F0348110
:1011A000606C062101EAD010F13065E0002A00F001
:1011B0002B81800540F12881E06A618D042940F08F
:1011C0000881DCF8040020F48060CCF8040072E1AF
:1011D00005F0040541052FD575BB94F83D0094F842
:1011E0003E30E26A218D002940F0E480212840F061
:1011F000E18012F5803F18BF082A40F06681DCF8D4
:101200000400202120F4E060CCF80400DCF80000A9
:1012100040F40070CCF800000020206384F83D10FA
:1012200094F83E1084F83E00402940F05F8120464B
:10123000BDE8F84000F0B8BA002D00F0E580800568
:1012400040F1E280212A40F0D880E06A94F83D1015
:10125000212940F0D980618D00297FF4A8AE10F5D6
:10126000803F18BF0828CAD02028C8D030E1606C61
:10127000062101EAD010F030CCF81000F8BD216D45
:10128000A9B92169B1F5404F11D100200090DCF8D7
:1012900014000090DCF8180000900098DCF80000C2
:1012A00040F48070CCF80000206D0130A0E1618D29
:1012B00071B1618D012940F0A880202818BF08284D
:1012C00040F01E81DCF8000020F48060CCF80000C3
:1012D00000200090DCF814000090DCF8180000906A
:1012E0000098DCF8000040F40070CCF800007EE1CB
:1012F00056F8340F0168496826F80A1C36F80A1CAB
:1013000019B1216C41F004012164DCF8041021F4CE
:101310000061CCF80410FFF744FB012808D03068C6
:10132000D3490165FFF72BFB10B13068016D884789
:10133000608DA0B120684169490703D502F0BBFC6C
:1013400002F095FE4169490603D503F01CF802F04E
:1013500097FE608D18B1206C40F004002064206C72
:1013600020B12046BDE8F84001F038BD2A2D02D159
:10137000002002F0F1FE94F83D00282809D1BD4874
:101380002021E062002002F0B4FDBDE8F84000F04A
:1013900007BA206B222818BF222D35D1002020212A
:1013A000206384F83D1084F83E002046BDE8F840F4
:1013B00000F052BA212803D0402B08BF222823D1A5
:1013C000608D002861D094F83E0040287FF4EFAD96
:1013D00015E0618D03295DD1DCF80410022821F4A9
:1013E0008061CCF8041066D0042864D0DCF80000DA
:1013F00020F48060CCF800005DE0402B04D1204652
:10140000BDE8F84001F07EBDF8BD618D022972D1C2
:10141000102800F2B1800121934A8140114200F06E
:10142000AB804FF48062AFE0E36A012A2DD8022B33
:101430002BD0002146F2A81200918C490968B1FB1B
:10144000F2F101EB810100910099013900910099BD
:10145000002964D0DCF800108905F5D4DCF8001010
:1014600021F48061CCF80010DCF8041021F4E06174
:10147000CCF80410616ADCF810200A7002F0F7FD65
:1014800002F02FFF616A0131D1E0DCF8040020F4A2
:101490008060F7E5618D02290DD1102806D0022861
:1014A00065D0042863D0012840F0A480DCF8001047
:1014B00021F48062A2E0606ADCF810100170606ABA
:1014C0000130606202F0DCFDF8BD202A3FF497AEE7
:1014D000DCF8040020F4E060CCF804001120206364
:1014E000002084F83E00202084F83D002046BDE81E
:1014F000F84000F057B9DCF8001041F4806146E094
:1015000010F5803F29D1DCF8000020F48060CCF891
:101510000000DCF8040000057FF5DAAE22E0206C64
:1015200040F020002064DCF8040020F4E060CCF8F7
:101530000400606ADCF81010017002F0A1FD2020A8
:1015400084F83D00606A01306062002084F83E004B
:101550002046BDE8F84000F08FB8122A30D10128AB
:101560007FF4B0AEDCF8000020F4806034E0DCF8FA
:10157000001041F4806241E0DCF800104FF400629A
:1015800021F48061CCF80010DCF800101143CCF895
:101590000010DCF80410090520D5421E1F2A0BD8C4
:1015A000012191402F4A114206D0DCF8040040F49A
:1015B0008050CCF8040011E010F5803FF5D00DE02C
:1015C0001028CFD8012101FA00F027490842C9D0DC
:1015D000DCF8000040F48060CCF8000000200090AF
:1015E000DCF814000090DCF818000090009800204F
:1015F0002065F8BDDCF8001041F40072CCF8002042
:10160000616ADCF810200A7002F031FD626A21681C
:10161000531C63620969517002F029FD2168626AF6
:101620004B6823F440734B6002F05BFE511C616217
:10163000002194F83E2084F83E10402A05D1216311
:101640002046BDE8F84000F0AEB8B0F1200118BF68
:101650001221083818BF084620632046BDE8F8402C
:1016600000F09FB88180008014000100600000201D
:10167000292D00080000FFFF7047000010B3F8B5E7
:10168000044690F83D0020B902F084FE204600F0A8
:101690008DF802F0D6FD016841F400410160016857
:1016A00021F40041016000F009FA6368384A3949C1
:1016B00093423CBF48F28041C0F21E01884203D2EF
:1016C0000120F8BD0120704733494FF47A77B0FB11
:1016D000F1F521684E6826F03F062E434E604FF428
:1016E00096766E43934228BFB6FBF7F56A1C0D6AE7
:1016F00025F03F052A434CF6FF750A62CA69AA43E2
:10170000264DAB420AD85B000138B0FBF3F0013044
:101710006FF31F30042898BF042013E0A568013838
:101720003DB119256B4302F0EEFD0AD000F5804073
:1017300004E003EB430302F0E6FD02D000F50040B5
:1017400000E00120104304F10C06C861E0690A685A
:1017500022F0C0021043226A104348F2FF320860B0
:10176000886890436CCE184310438860C86820F0A6
:10177000FF0028433043C86002F0F5FC0020202120
:10178000206484F83D10206384F83E00F8BD00BF5B
:10179000A186010000093D0040420F00A086010023
:1017A000704770477047704770470000F0B587B0CA
:1017B000044601682448814244D10026234F00F5A5
:1017C000D8300196396841F002013960396801F07A
:1017D00002010191042106910321CDE90461122146
:1017E0000391C0210291019902A9FFF74BFA0196DA
:1017F000174D184B40214FF00072386940F400102B
:1018000038614FF48060C5E90216C5E90032142141
:101810002861386900F400100190019805F1140066
:10182000FEF794FE2846FFF76DF908B1FFF768F858
:101830001F2000210022AC63656300F07DF81F20AB
:1018400000F06AF807B0F0BD0054004030380240A4
:10185000FC110020A0600240704770471F480349F8
:1018600000780A6810440860704700BF8C4E002062
:1018700080B50B48016841F400710160016841F4D2
:1018800080610160016841F480710160032000F013
:1018900079F80F2000F006F800F022F8002080BD53
:1018A000003C024070B50D4E04464FF47A7130781A
:1018B000B1FBF0F08B490968B1FBF0F000F0B0FE2D
:1018C00001250F2C08D838B94FF0FF3021460022EF
:1018D000002500F031F87460284670BD0400002037
:1018E00082B000200B4901904A6842F480424A606D
:1018F0004A6802F480420192019A0090086840F020
:1019000080500860086800F080500090009802B095
:10191000704700BF40380240002809D41C21012232
:1019200001EAD00100F01F0002FA00F0014A8850DD
:10193000704700BF00E100E0F0B5184B4FF0FF36F4
:101940001C68C4F30224E51E84F0070438BF002598
:1019500006FA05F7BA43042C28BF042406FA04F457
:10196000A14300F00F04A940043C1143044A23445E
:1019700009010244002848BF03F10C021170F0BDB8
:1019800000E400E005494FF6FF030A681A4060F3DF
:101990000A22034810430860704700BF0CED00E0C6
:1019A0000000FA05002852D02DE9F041404B0446D2
:1019B0008846D3F8000400F00700884204D283F878
:1019C000008401F072FC4BD12068810711D54107DA
:1019D00003D5996841F4E0519960010703D59968EE
:1019E00041F460419960A1689A6822F0F0021143C5
:1019F0009960C0072DD101F058FC04D983F8008408
:101A000001F053FC2CD12068410705D5E1689A68A4
:101A100022F4E05211439960000706D520699968C5
:101A200021F4604141EAC00098601C4600F060F873
:101A3000A168204AC1F30311515CC84029490860DC
:101A40001D480068FFF72EFF0020BDE8F08101204F
:101A500070476068811E022905D21968890107D480
:101A60000120BDE8F08101281DD119688903F7D54F
:101A700099681D4621F0030108439860FFF7E2F9D9
:101A8000064641F288376068A9682B4601F00C01D0
:101A9000B1EB800FAFD0FFF7D5F9801BB842F2D978
:101AA0000320BDE8F08119688907D9D5E0E700BFB8
:101AB00000380240086202080800002009480A496C
:101AC0000A4A00680968C1F38221515CC840704726
:101AD00004480549054A00680968C1F34231515C70
:101AE000C8407047600000200838024018620208B1
:101AF00010B5134C606800F00C00082804D00428CE
:101B000014BF1048104810BD22682068002340020E
:101B100002F03F020C485CBF42F20040C0F2F40009
:101B20002168C1F38811A0FB0101FEF7C1FB216808
:101B30000222C1F3014102EB4101B0FBF1F010BD03
:101B4000043802400024F40040787D01002864D06D
:101B50002DE9FC4104460078C54EC0070CD0B068A2
:101B600000F00C00042840F090803068800303D51A
:101B70006068002800F0A1802078800719D5B0683F
:101B800010F00C0F07D001F06EFF40F099807068E4
:101B9000400200F195803068800703D5E068012895
:101BA00040F08B802069316821F0F80141EAC000E3
:101BB00030602078000732D42078400742D4A769EB
:101BC00047B301F050FF40F0AC80012F75D0E169C0
:101BD000706800F480028A426FD1216A00F03F02EF
:101BE0008A426AD147F6C071626A0140B1EB821F36
:101BF00063D1A16A4FF6FF72C903914300F44032EA
:101C0000A1F580318A4258D1E16A00F07060B0EBF2
:101C1000016F52D10020BDE8FC810120704761694D
:101C2000944800296DD00121C0F8801EFFF70AF901
:101C30000546706F8007BFD4FFF704F9401B0228E8
:101C4000F7D9CCE0306C5FEAC0080AD400200190DC
:101C5000306C40F080503064306C00F08050019067
:101C60000198854F3868C0053DD4386840F48070CD
:101C70003860FFF7E7F805463868C00533D4FFF74A
:101C8000E1F8401B0228F7D9A9E001F0ECFE03D1EE
:101C9000706840023FF569AF6068B0F5803F07D0DB
:101CA000B0F5A02F40F08580306840F4802030608F
:101CB000306840F48030306085E00120BDE8FC8170
:101CC000E06800284CD06B4801210160FFF7BAF8AA
:101CD0000546306880073FF565AFFFF7B3F8401B56
:101CE0000228F6D97BE0A068012805D0052848D154
:101CF000306F40F004003067306F40F00100306713
:101D000049E00021C0F8801EFFF79CF80546706F7F
:101D100080077FF551AFFFF795F8401B0228F6D9F1
:101D20005DE05449002088460866FFF78BF80546B9
:101D3000022F0AD147463068800153D5FFF782F859
:101D4000411B03200229F6D965E7306880017FF541
:101D500061AFFFF777F8411B03200229F5D95AE755
:101D6000444800210160FFF76DF8054630688007A0
:101D70007FF51FAFFFF766F8411B03200229F5D955
:101D800049E7316F002821F001013167316F21F0FF
:101D90000401316745D0FFF755F8054641F2883711
:101DA000306F80074CD4FFF74DF8401BB842F7D98D
:101DB00015E03168002821F480313160316821F468
:101DC0008021316045D0FFF73DF80546306880033B
:101DD0003FF5D2AEFFF736F8401B6428F6D9032052
:101DE000BDE8FC811C341FCC0843D90340EA8210B3
:101DF0004FF6FF72914340EA0460A1F58031084339
:101E0000706001203866FFF71DF8044630688001D5
:101E10003FF500AFFFF716F8011B03200229F5D9A3
:101E2000F9E6FFF70FF8054641F28837306F800773
:101E300006D5FFF707F8411B0320B942F6D9EAE6B9
:101E4000B8F1000F3FF5BBAE306C20F0805030642D
:101E5000B5E6FEF7F7FF0546306880037FF58CAEE8
:101E6000FEF7F0FF411B03206429F5D9D3E600BF3C
:101E700000380240000047420070004070470000F8
:101E8000BCB50446006841688268530603D4D50790
:101E900001D04D0618D4950701D50D0612D412F4C1
:101EA000B07F0ED08D060CD5002B1DD594F8513087
:101EB000032B0ED100210191C1680191806801902E
:101EC0000198BCBD616C00E0216C2046BDE8BC40BF
:101ED0000847636D43F00403636500230193C368FF
:101EE000019383680193019B93060CD5636D43F0C6
:101EF000010363650023019383680193036823F062
:101F000040030360019BD20508D5626D42F00802D0
:101F100062650022019282680192019A626D002A34
:101F2000CFD0426822F0E00242600122890784F8A3
:101F3000512016D001F0C7FEE06C30B10B490165AD
:101F4000FEF71DFD08B101F024FBA06C0028B8D0FD
:101F500006490165FEF713FD0028B2D001F019FB18
:101F6000BCBD2046BDE8BC40FFF788BF1D4400084B
:101F700070B538B10446406A30B10020206104F1E8
:101F8000140007E001254BE06068B0F5827F03D0C4
:101F900004F11C00002101600025A56294F85100A5
:101FA00020B9204684F8505000F03CF8022084F814
:101FB000510094E80F0001F4827102F404420668B3
:101FC000114403F40062114426F0400606602269C1
:101FD00002F002021144626902F001021144A26996
:101FE00002F400731944E36903F038031944236AC7
:101FF00003F080031943A36A03F4005319430160FB
:10200000042101EA1241626A02F0100211444160A7
:10201000C16921F40061C1610120656584F8510046
:10202000284670BD2DE9F04387B0044602A814216C
:10203000FEF78CFA2068704988424AD06F4988427E
:1020400000F087806E49884240F0D38000266D48BA
:102050000196416941F480514161416901F4805127
:10206000019101990196016841F001010160006848
:1020700000F001000190052001F071FAA02002900B
:10208000019802A96048FEF7FDFD614B624D4FF4D7
:10209000806040214FF0C06203F58963C5E90216F4
:1020A000286105F114001421C5E90032FEF74EFA4B
:1020B0002846FEF727FD08B1FEF722FC2320002169
:1020C0000022AC63A564FFF737FC2320FFF724FC54
:1020D0008FE000254B484FF005084FF0030902261A
:1020E000494F0195016941F480410161016901F4A1
:1020F0008041019101990195016841F0040101605D
:10210000016801F00401019101990195016841F014
:1021100002010160006800F0020001900198CDF812
:102120001880CDE9045903960C20029002AC07F503
:1021300000602146FEF7A6FD4FF480602146CDE900
:102140000598CDE90365029007F58060FEF79AFDDA
:102150004FE000262B480196016941F400410161DE
:10216000016901F40041019101990196016841F072
:1021700004010160006800F004000190062001F0F5
:10218000EEF94FF4E0500290019802A91E4800F5C4
:102190000060FEF777FD1D4D1D4F4FF48068142140
:1021A00005F11400C5E90076C5E90266C5F810809E
:1021B000FEF7CCF92846FEF7A5FC08B1FEF7A0FB18
:1021C000AC63E564134D07F1A8014020C5E9001692
:1021D00005F1080181E8410105F114001421FEF721
:1021E000B5F92846FEF78EFC08B1FEF789FBAC6313
:1021F000A56407B0BDE8F08300380040003C004013
:10220000003001403038024000000240BC12002083
:10221000106002401C1300205C12002070B501F019
:1022200067FD17D113460A46002940D0002B3ED047
:10223000A06858B96168B1F5827F07D104201146C2
:1022400001F027FDBDE8704000F01EB994F8501071
:10225000012901D1022070BD0421012584F851100B
:1022600000216165E38784F85050A387A263C4E925
:102270001011A186E186B0F5004F256807D12868C6
:1022800020F040002860286820F480402860E06C3E
:10229000D94EB34BC0E91361B349C0E90F1305F13F
:1022A0000C01E38FFEF7AEFC18B101F0BFFB01207B
:1022B00070BD21680868400601D401F0D0FC486870
:1022C00040F020004860002084F850004A6842F046
:1022D00001024A6070BD00BF0349884200D07047C8
:1022E000024801210170704740150020640400205D
:1022F00070472DE9F8431E4615460F460446FEF783
:10230000A1FD94F85110814601295CD1002F00F005
:10231000AE80002D00F0AB80002E00F0A88001F010
:10232000BFFC5CD0012084F8500094F851000428D0
:102330001CBF052084F8510000206065E687E68612
:10234000C4E91000A563A6872763A68620680168F4
:10235000490601D401F0D8FCE268DDF8208061680C
:10236000B2F5006F3ED109B1012E01D101F028FB79
:10237000012608F10105E08E10B9E08F00286BD02E
:1023800001F04FFC0CD5E18E51B1012E08D1216B2B
:10239000002631F8022BC2602163E18E0139E1860B
:1023A0008168C90706D0E18F21B1A16BC068012601
:1023B00001F064FCFEF746FD002DDCD0A0EB090027
:1023C0004045D8D33FE06068B0F5827F07D1022056
:1023D000042902D1A168002998D0BDE8F883022021
:1023E000BDE8F88309B1012E02D1397801F032FF3E
:1023F000012608F10105E08E08B9E08F60B301F015
:1024000010FC0ED5E18E61B1012E0AD1216B0026A0
:1024100009780173216B206801312163E18E013954
:10242000E1868168C90706D0E18F21B1A16BC06840
:10243000012601F0A3FAFEF705FD002DDBD0A0EB8D
:1024400009004045D7D3002084F85000012084F8CB
:1024500051000320BDE8F883204641464A4602F079
:1024600099F838B1002084F85000202060650120E0
:10247000BDE8F883A06808B901F00BFE01F0FCFA92
:1024800018BF0120BDE8F883F8B590F85150044614
:10249000012D36D1002958D0002A56D0002B54D017
:1024A00001F0FEFB38D001202D4E2E4F84F8500055
:1024B00094F8510004281CBF052084F85100002521
:1024C0006565E386E387A386A3874B4B2163A263FD
:1024D000C4E91055E06C2168C0E9133594F8513017
:1024E000042B08BF3746214E1F4B08BF1E46C0E9CC
:1024F0000F670C31E38FFEF785FB78B184F85050FD
:102500001FE06068B0F5827F06D10220042D02D161
:10251000A568002DBED0F8BD0220F8BD2268216B51
:10252000A06C536843F001035360C0E91355C0E940
:102530000F550C32E38EFEF765FB40B1002084F8A6
:102540005000606D40F0100060650120F8BD21680A
:102550000868400601D401F082FB01F01FFFF8BDBE
:10256000474400085344000859440008FF44000849
:1025700070B501F0BDFB04D189B382B301F090FBCB
:1025800001D1022070BD0320002384F851000120F6
:102590006365E286A2862163A363C4E91033A3873F
:1025A00084F85000E387A0682268B0F5004F07D197
:1025B000106820F040001060106840F48040106007
:1025C000A06C0D4E0B4D0C32C0E913630B4BC0E9F0
:1025D0000F35E38EFEF716FB18B101F027FA012044
:1025E00070BD21680868400601D401F038FB01F095
:1025F000D5FE70BD4D44000829440008B7440008CA
:102600000349884200D07047024801210170704799
:102610009014002065040020704770477047000048
:10262000411E0020B0EB116F1CBF01207047044A0F
:10263000F023516003490B700721906011607047CF
:1026400010E000E023ED00E07047704758B110B58E
:1026500001F01AFD03D101F05CFB00F007F801F076
:1026600093FD00F09BBF01207047000000680D49FA
:10267000884218BF7047E0B50020002201900A4848
:10268000016841F4802101600021006800F480208D
:10269000019001981A20FFF74FF91A20BDE88C40ED
:1026A000FFF73AB9004801404438024090F83D1025
:1026B00001291CBF01207047022180F83D100068ED
:1026C000C168B0F1804F41F00101C1600ED00D49E9
:1026D00088420BD00C49884208D00C49884205D06A
:1026E0000B49884202D00B49884204D1724601F05E
:1026F00061FE964603D0724601F011FE9646002018
:10270000704700BF0004004000080040000C00407B
:102710000040014000000140704770B50446006869
:10272000C5680669B10710D5A9070ED56FF002017B
:102730000161012121778069800702D001F018FD35
:1027400001E001F0C6FB00202077700712D5680772
:1027500010D520686FF004010161022121778069A2
:1027600010F4407F02D001F003FD01E001F0B1FB65
:1027700000202077300711D528070FD520686FF08B
:102780000801016104212177C069800702D001F0AE
:10279000EFFC01E001F09DFB00202077F00612D550
:1027A000E80610D520686FF010010161082121773B
:1027B000C06910F4407F02D001F0DAFC01E001F0C2
:1027C00088FB00202077F00708D0E80706D02068B3
:1027D0006FF001010161204600F026F8300608D5AF
:1027E000280606D520686FF0800101612046FFF7BA
:1027F0002BFF700608D5680606D520686FF04001EB
:102800000161204600F011F8B00601D5A80600D4F9
:1028100070BD20686FF0200101612046BDE8704066
:10282000FFF713BF70477047704770477CB501F0E2
:102830005DF81CD10125D9B1D2B12046002625630F
:10284000666302F047FA216B012911D101962168D4
:102850000A68019249680191019901F097F841F0E5
:10286000100142E80313002BF7D1054600E00225D2
:1028700028467CBDB0B50C460068F449884200D0BB
:10288000B0BD184D16484FF480722946FFF7CEFFB1
:102890000748294622464FF6FF7300F0E7F9EF4854
:1028A00000F01AFD28464FF48071FDF74FFEB0BDD1
:1028B000E01500200068E549884218BF704710B550
:1028C000084C07484FF480722146FFF7AFFFE348FA
:1028D00000F002FD20464FF48071FDF737FE10BD79
:1028E00028160020804B0020F8B5044600680268D6
:1028F000C168466915074FEA82633FD001F49077BB
:1029000006F00106BF193DD0D70705D0CF0503D586
:10291000676C47F001076764570704D51EB1676C01
:1029200047F002076764920704D51EB1626C42F05B
:1029300004026264002D07D501F02002921903D031
:10294000626C42F008026264626C002A00F0E5806A
:10295000002B05D5890603D5204602F0FCF8206837
:102960004069616C00F0400001F00801401847D157
:102970002046FFF79FFF00206064CEE0002B01D5CA
:102980008B0653D4236B012B03D1D30601D5CB0681
:1029900051D4130601D50B0611D4520640F1BD8067
:1029A000490640F1BA80C16821F04001C160202091
:1029B00084F841002046BDE8F84000F0ADB994F835
:1029C0004110212940F0A980A168B1F5805F03D1B1
:1029D0002169002900F0A280216A4A1C226209783C
:1029E0004160E18C0139E184090440F09680C168BE
:1029F00021F08001C160C16841F04001C160F8BDB3
:102A000001F032F901F01AF849D500F05BFCFCD175
:102A1000E06B002843D045490165FDF7B0FF002871
:102A20007BD0E06B016DBDE8F84008472046BDE86B
:102A3000F84002F090B800210091016800914168CF
:102A400000910099406940062ED4E08DA18DE28D61
:102A5000002A62D0814260D0081A00F097FF21F46A
:102A6000907142E80313002BF7D1216851E8051F4C
:102A7000226821F0010142E80513002BF5D1202145
:102A800084F842100021216300F080FF21F0100142
:102A900042E80313002BF7D1022161632EE02046A8
:102AA000BDE8F840FFF706BFE06BA28D01684B68F8
:102AB00099B249B3914227D2E385C069B0F5807FCE
:102AC00017D001F0B2F820F4807001F0EBFAF8D1E1
:102AD00000F0DBFFFCD100F0F5FBFCD1202084F8F6
:102AE00042000020206301F02FF9FCD1E06BFDF7DC
:102AF00009FF02206063A08DE18D401A81B220465B
:102B0000BDE8F840FFF7B6BE8A4206D1C069B0F50D
:102B1000807F02D102206063F1E7F8BD216A31F8BD
:102B2000022B6FF35F22216242605AE7194A0008C4
:102B300090B110B5044690F8410008B901F092FB3D
:102B400001F001FA2068016921F4904101614169B5
:102B500021F02A0101F01FBB0120704770B586B03B
:102B6000044601A81421FDF7F1FC2068374988428A
:102B700035D03749884266D10026364800964169EB
:102B800041F010014161416901F0100100F07AFB50
:102B90004FF4C0600190009801A92F48FEF772F829
:102BA0002F4B304D4FF4806040214FF0006203F511
:102BB0008663C5E90216286105F114001421C5E9F0
:102BC0000032FDF7C3FC2846FDF79CFF08B1FDF776
:102BD00097FEAC63A5632524252001212DE0002666
:102BE0001C480096016941F400310161016901F45A
:102BF000003100F047FB0C200190009801A9164815
:102C0000FEF740F8154D164A4FF480604FF0006112
:102C1000C5E90021286105F114001421C5E9026607
:102C2000FDF794FC2846FDF76DFF08B1FDF768FE3F
:102C3000AC63E5632624262000210022FEF77CFEFB
:102C40002046FEF769FE06B070BD00BF004400409C
:102C5000001001403038024000000240DC13002028
:102C6000886002407C130020704770472DE9F843CC
:102C7000044690F8410020281CBF0220BDE8F883DC
:102C80008846B1B11746A2B100201D4660642120DC
:102C900084F84100FEF7D6F8E7840646A784A068CA
:102CA000B0F5805F01D1206930B14FF0000947468F
:102CB00004E00120BDE8F8830027C146E08CB8B1EC
:102CC0002046802132462B4602F04CF8F0B927B15D
:102CD00017F8010B2168486006E039F8021B2068EC
:102CE00000276FF35F214160E08C0138E084E5E765
:102CF0002046402132462B4602F034F8202184F849
:102D00004110002818BF0320BDE8F883202084F874
:102D100041000320BDE8F8837047FEE70148FEF755
:102D200099B800BF3C140020B8B5002146F2A812A3
:102D300000912949806B0968B1FBF2F123224A43D3
:102D400090F83D100092009A3AB1009A013A009230
:102D5000026812689205F6D403E0026C42F0200289
:102D60000264436B0BB10022DA63846B0CB1002266
:102D7000E2630268156825F48065156000254585C5
:102D800003B11D650CB100232365136823F0010313
:102D9000136090F83D30602B06D101F0ADFA01646C
:102DA000BDE8B840FEF754B801F0280128290DD13C
:102DB000116841F001011160116841F480611160F6
:102DC00000210163282180F83D1001E001F094FA10
:102DD000BDE8B840FEF750BC6000002010B50446C6
:102DE00090F83D1090F83E00102814BF402822298A
:102DF0000AD001F0280028280CD1002020632820C8
:102E000084F83D0020680FE02068026822F4006228
:102E1000026000E020684268120503D4602901D0F6
:102E200001F063FA002121634168090515D494F883
:102E30003D1060292FD1202184F83D10002121640C
:102E40004169490601D500F036FF016821F0010112
:102E500001602046FDF7FCFF35E0416821F4006188
:102E60004160606B90F8351001291DD1A06B23499A
:102E70000165FDF784FD30B320684169490601D53D
:102E800000F019FF016821F001010160202084F8A1
:102E90003D00A06B15E04169490601D501F073FAC8
:102EA0002046FEF7E9FB0EE014490165FDF767FDDA
:102EB00048B12168606B0A6822F001020A6001F0E3
:102EC00010FA016D8847206C000704D02068416823
:102ED00021F4E061416094F83D00216C49070BD575
:102EE000282809D106482021E062002001F001F8DD
:102EF000BDE81040FEF754BC10BD00BF292D0008EE
:102F00000000FFFF90F83D10026D3AB1026D012AFA
:102F10000ED10168826CD2B20A6118E0C26C816C79
:102F2000012A10D10268C9B21161016D023110E0AD
:102F3000026D022A0FD1222914D101680A6842F4D5
:102F400080720A6003E00268C1F307211161016D1C
:102F500001310165704700684169090644BF0021DD
:102F600001617047428D5AB1212909D1426A016835
:102F700012F8013B0B614262418D01394185704776
:102F8000428D002AEDD12129EBD101684A6822F453
:102F9000E0624A60734600F0B9FF9E46002120229D
:102FA000016380F83D2080F83E10FEF7FDBB000075
:102FB00080B50A4601467548FFF7DAFA18B1BDE850
:102FC0008040FDF79DBC80BDBCB5002056491C4C1F
:102FD00001900A6842F400120A600A6802F40012C2
:102FE0000192019A00900868002240F48000086075
:102FF0000868002100F48000009000980B20A04792
:10300000104D0B20A847102000F025F91020A847EC
:10301000112000F020F91120A8472F2000F01BF903
:103020002F20A8473B2000F016F93B20A847462058
:1030300000F011F946202946BDE8BC40084700BF12
:1030400039190008191900082DE9F04F87B0002739
:103050003548374E00224FF4804B069701970168A0
:1030600041F004010160016801F00401019101993E
:103070000197016841F001010160016801F001015F
:10308000019101990197016841F0020101604FF43B
:103090008041006800F0020001900198234800F58B
:1030A000006481462046B0474846502101224FF037
:1030B000500A0125B04720464FF404710122B04761
:1030C00009F58068042101224046B047CDE9045744
:1030D000CDE902B502AF174E20463946B0474FF052
:1030E000030B48463946CDE902A5CDE9045BB0475C
:1030F00010203946CDF814B000F0A8F804204FF0A5
:10310000020A3946CDE9035502904046CDF814A095
:10311000B0474FF400703946CDF814A000F096F88F
:1031200007B0BDE8F08F00BF303802400000024019
:10313000390E0008850C000810B50B480B4B0C4CE1
:1031400000214FF48042C0E90043C0E90211C0E908
:103150000421C0E906110162FEF790FA18B1BDE83A
:103160001040FDF7CDBB10BD3C140020A08601002F
:103170000054004010B50548054B00F06FF818B139
:10318000BDE81040FDF7BCBB10BD00BF901400208F
:103190000030014010B50548054B00F05FF818B14C
:1031A000BDE81040FDF7ACBB10BD00BFE814002027
:1031B0000038004010B50548054B00F04FF818B135
:1031C000BDE81040FDF79CBB10BD00BF40150020BE
:1031D000003C004010B50A4880210A4C42F2CF035F
:1031E000092281610021C0E90043C0E902120161A6
:1031F000FFF72CFA18B1BDE81040FDF781BB10BDF8
:10320000981500200048014010B50548054C00F015
:10321000ADF918B1BDE81040FDF772BB10BD00BF9D
:10322000E01500200010014010B50548054C00F0E5
:103230009DF918B1BDE81040FDF762BB10BD00BF9D
:103240002816002000440040FEE7FEE7CDE90355C4
:103250000290204630470021002220474FF482721E
:1032600000214FF40074C0E900320A22C0E90211C3
:10327000C0E90411C0E90641C0E90811C0E90A1219
:10328000FEF776BE009100990096016841F00101B9
:103290000160006800F00100009007200590032005
:1032A000CDE90360022002907047D3F8000400F0DB
:1032B000070040457047002084F83400012084F85E
:1032C00035007047206850E8050F216820F0400065
:1032D00041E80502002A70470068016821F00801F2
:1032E00001607047102100224FF000082046FDF7D2
:1032F000A3BDE068002100227047044612F0E0BB45
:1033000094F8340000F0FE0084F834007047C86878
:10331000897E01F03F0101EB4101890015F03EBDBE
:10332000E068006819F04EB920464FF480317047CC
:1033300002463846314602F08EBDBBF81600BBF897
:103340001A10728B009CB146081A0221013000B29B
:1033500090FBF1F0F18A511A6FF00102013109B2CC
:1033600091FBF2F1704700EB8000502101EB40002F
:10337000A02190FBF1F070472A461CF001B90968C2
:1033800001EB8002526841F820200130704702684A
:10339000E968B2F90030B2F902205A43914270470D
:1033A00010880144ADF85810BDF85C100844BDF811
:1033B0005A10ADF85C00508822460144ADF85A100E
:1033C000BDF85E100844704721EA000019996FF3B8
:1033D0000F0308447047BDF95800BDF95A10149AFC
:1033E0000A9B7047011BADF8E810291908445318CF
:1033F000ADF8EC00101BADF8EE30ADF8EA00704708
:10340000ADF86C00BDF86800ADF8700002208DF8D2
:10341000580012AF7047A4EB0B0110FB05F001EB55
:10342000D030A8F8020006F15A0000B23847BBF8C5
:103430000010BBF80420511A013109B2081A022108
:1034400090FBF1F0BDF8B010084470475946224691
:103450004346009048460DF0A7B8B8F81500C0F3F1
:103460008A000330800800FB05F170478DF84400A6
:103470002046CDE900BA05F075BC36F8140F718806
:10348000F288511A01F10109B188081A013005903A
:103490007047204616F0F4BE606A402289B209F0F7
:1034A0004DBA284612F020BB2846FDF779B80246EF
:1034B0003846002150470021022202231AF070B939
:1034C00042F2640142F264021AF074BA52F80C1C1F
:1034D000022332F8042C009070470446D0E90B20F8
:1034E0004FF4806500210023009515F08DBB044644
:1034F0000068083015F0A2BB31463A4643465047B3
:10350000B2FA82F4C4F11A03DA4082F02003C4F163
:10351000190270470446D01A05B2002D704720F8F2
:1035200016102046314607F092B9204619F04AB8E5
:103530000398049D069AA6EB0901009020462B46AD
:103540001EF01FBA28464FF4802118F082BC304686
:103550001A212A4612F0CEBA606A14F094BD069081
:103560000320CDE9046002200390704700210C2263
:103570004FF4E133C0E90043C0E90211C0E904128D
:10358000C0E90611FFF7D4BA016821F0010101601A
:103590007047606D40F0400060657047012084F81E
:1035A000460084F83E0084F83F0084F8400084F828
:1035B000410084F8420084F8430084F8440084F811
:1035C000450084F83D00002010BDA06800210022C5
:1035D0007047002212F08EBA02F03F0202EB420264
:1035E00070470F2112F086BAADF88C10618B014440
:1035F000ADF89210E18A081A70473046294618F053
:10360000EBB8BBF81400BBF81810328B009CB14625
:10361000081A0221013000B290FBF1F0B18A511A70
:103620006FF00102013109B291FBF2F17047002005
:103630000BF03ABF20F4FC72083000F4FC718818DB
:103640006084E06815F0AABB30464FF4002118F002
:103650005CBD5A3000B21EF00FB9BDF86E00BDF867
:10366000721097F81890081ABDF87010013000B267
:103670007047BDF8EA0008F101080130ADF8EA0032
:10368000BDF8EE000130ADF8EE0070471198ADF8CE
:103690007250ADF86E50002870470BEB090110FB1B
:1036A00005F001EBD030A8F8040030B23847707F45
:1036B000B6F91430A9EB0A012246009007EB0A0084
:1036C0001EF05FB94DF808ED81EA5221C9B21EF033
:1036D00092FB0AF808005DF808EB7047B8F815008F
:1036E000C0F38A000130400800FB05F1704700215B
:1036F00018F0B2BA0022E86800F1180120463047FD
:10370000B8F808004146ADF8A400ADF8EC0020463A
:103710000AF069BD84F83C0020461FF0CBB90221B5
:1037200016F056BE606A50F8260015F017BB216AE5
:10373000A26A521A504301EBA020BCBD29463A466A
:10374000534630474FF4003117F0FDBF484607F0AD
:103750007EB820464FF4003118F0AEB9ADF84600FF
:1037600028440138ADF84A0070470698DDE9073271
:10377000A7EB0A01009030461EF003B929682046E5
:10378000002201F05DBDB4F840100089ADF80410CE
:10379000BDF8061070472046642100F0FBBE0168AA
:1037A00051E8051F026821F0010142E80513002BD2
:1037B00070479146029028460BF0CEBE38463246FE
:1037C0002B46484700244EF201094EF2010680467E
:1037D00070473A4601F057BCADF87210099ABDF82F
:1037E0009E10494409B28A427047706DF56850478F
:1037F000204618F00EB8204619F06CBC0899DDE997
:10380000060212F0C9BA4FF4A02118F019BA4046C6
:1038100047F6FF711DF03EBC016851E8031F0268C6
:1038200021F0100142E80313002B7047284691460F
:1038300013940BF049BECDF808805846009C17F051
:10384000B8BA284617F0C6BB0C9A00284FF6A676E1
:10385000704741460EF0F5B9E8684FF4803200F148
:1038600008012046304730464FF4C021224618F068
:10387000E3BCD8F83000D8F83C1011901491704790
:1038800020464FF4E02170472846914613940BF0F0
:1038900063BEBBF81600BBF81A10009CB146081AAC
:1038A0007047284617F0FCBBADF8600058461DF085
:1038B000E3BFBDF9641050463A4623460CF00ABEF9
:1038C000F0684FF4A02200F12001204638472A4634
:1038D00012F010B9204607F0F9B920461DF072B871
:1038E0002068416821F0200141607047044690F84B
:1038F000420020287047BBF81400BBF81810009C49
:10390000B146081A7047BDF9641050462246334646
:103910000CF0E0BD706DF46850470A99304601F034
:10392000B2BB94F8480000F0F70084F848007047F4
:103930000844BBF81A100190BBF81600081A70472B
:103940000D980EF07EB9706DF4680321504708445D
:10395000BBF818100290BBF81400081A7047BDF9A4
:103960006A002CB284427047204617F0AEBAB1F913
:103970006C20B1F97010801A891A70470870A06B1A
:103980000130A063E08F0138E0877047216851E87B
:10399000031F2268704721F4C041B1F5FA6F7047E8
:1039A000BDF95C103AB2284633460CF093BD00F1E5
:1039B000600120463847B4F87C10204606F0ADBFC1
:1039C00037F8021BC1602763E08E0138E08670473C
:1039D00042F2D1750646401BB0FA80F07047109F46
:1039E000504631463A4615F0F1B9014605F120003E
:1039F0001047149802F074B9846B0546FDF722BA9B
:103A0000206850E8050F21687047204618F025B857
:103A1000504631464A4615F0D9B9706DF4680A210E
:103A2000504720461B213A4612F064B8002084F823
:103A30005000606D40F0100060657047206840697C
:103A400040067047204618F0B3B8ADF86C005844F3
:103A500009B200B291427047706DF468022150477C
:103A6000204617F079BBB06800F00C0008287047BA
:103A7000002084F834007047012084F851000020B1
:103A800084F85000606D00287047206850E8050FEA
:103A9000216820F0010041E80502002A70476021FA
:103AA000002219F019BC204605F08DBEA068006800
:103AB00050F8260018F005BE3046294617F020BF02
:103AC000618B0144ADF80610218B0144ADF8041060
:103AD000E18A091AADF80210A18A081A704700EBB2
:103AE0008000502101EB40006FF09F0190FBF1F04E
:103AF00070470E4619461C461546074605F017BF87
:103B0000204603210022704748460DF047BB081AA3
:103B1000BDF87010013000B21590BDF86C00081AA5
:103B20000130704700210CF051BBBDF938102198CD
:103B300032B223460CF0CEBC01EBD030A8F8000026
:103B40000FFA8AF03847BBF800100844BBF804109D
:103B5000081ABDF8B01008440130704729463246B3
:103B600043464847B8F81500C0F38A000730C0083C
:103B700000FB05F17047284615F08EB8F068042266
:103B800000F1A001204638472046002117F072BFFF
:103B900020461C21002211F0ADBF42F2640142F226
:103BA000D17219F007BF0446D0E90B204FF48061B1
:103BB00000230091002115F027B8504631463A46BF
:103BC000434602F0A6BDB4F93010B4F93220704774
:103BD0000130B9F8303084B2A9F834009C42704703
:103BE00020464FF4003118F012B894F83C0000F071
:103BF000EF0084F83C0070479DF8562011910F9912
:103C0000002D02F0FE008DF856000D9870474846D2
:103C10004FF4403170470146B4F8405020461DF043
:103C200039BA2068816889077047206850E8030F17
:103C300021687047013001FA80F1914270472846AF
:103C40005946324615F05DB900F15001204638471B
:103C50009DF8AD2042F010028DF8AD207047086845
:103C600040F0400008607047204600F045BF002249
:103C700001F034BA00F1B0012046384721F8020BB8
:103C8000A163E08F0138E087704700F5807120461E
:103C9000304784F851002046704712201AF0FAB8D5
:103CA00094F85000012870470022E86800F14801AC
:103CB000204616F022B8616A00690870616A2068BF
:103CC000013161627047416821F003014160704732
:103CD0000022E86800F11801204616F00EB80246EE
:103CE00028680068C0057047707802210228704774
:103CF000044690F8510001287047F0684FF4803274
:103D000000F1080120463847016841F04001016098
:103D10007047002084F83C0020467047F0684FF45C
:103D2000403200F1F0012046384700F128012046DA
:103D30003047044690F8340001287047012084F889
:103D40005100606D00287047206850E8030F21681B
:103D500020F0100041E80302002A7047D0E9011268
:103D60008089CDE90112ADF80C0070474042002671
:103D70000294CDE91A0028461C967047204601F0AF
:103D800093BF401AB0FA80F0400970470D460646CE
:103D900017F062BFB14690FBF1F0F18A511A6FF053
:103DA00001024044013109B291FBF2F1704728460B
:103DB0004FF480317047A5EB0B00B0FA80F040095A
:103DC00070470168C9688A6922F002028A617047F7
:103DD000014601F058B9BDF86C00081A013000B274
:103DE000002C189070472146ADF83E60ADF83A605F
:103DF00015F0DCB801EBD030A8F806007047707FF2
:103E0000B6F9143049462246009050461DF0B9BD1F
:103E100098F8140000F01F007047E868042200F1D1
:103E2000A001204630472046002117F0CEBE204694
:103E300018F032B928464FF480413047009508F019
:103E40007FB8ADF8007001F0FBB90E9920202A462A
:103E500043465047204618F0B5BB20464FF48071CA
:103E600008F0C8B8A08ABDF82810BDF82A2001447F
:103E7000ADF82810E18A0A44ADF82A20BDF82C20BC
:103E80001044ADF82C00BDF82E0008447047089887
:103E9000DDE90632A4EB0B01009048461DF071BD30
:103EA000304652465B461EF0E0B91C21002211F05C
:103EB00021BE00F1280120463847E868202200F1A1
:103EC000D80120463047E868202200F158012046FA
:103ED00030474DF808ED2046FEF7A4FC20465DF87B
:103EE00008EBFEF7A0BCE868802200F160012046E4
:103EF0003047206384F83D1084F83E002046704728
:103F0000E868002200F1D001204630470A6842F4F8
:103F100000720A607047E868002200F1B001204694
:103F200030470022F06800F1180120463847706DD4
:103F3000F76801215047706DF56801215047706D99
:103F4000F56803215047242084F841002068C168A7
:103F500021F40051C160204600F058BE20464021A7
:103F60000122A346FCF768BF0021002219F0D6BC4D
:103F7000024628460E2111F0BDBD90FBF1F0002253
:103F8000284401B22046704702463046294601F0D7
:103F900062BF204617F02FBC4146006850F82470DD
:103FA000384618F0B6B828465146BBF8082017F036
:103FB00053BE05EBD0303588ADF862000F985A300B
:103FC00000B27047C0F34513C1F34514C1F3C425D3
:103FD000704711444618BDF86400ADF86C00BDF898
:103FE0006800ADF8700002208DF858007047ADF8F9
:103FF000A680ADF85800BDF8B0007047002311F05E
:104000005EBFE868082200F1A8012046304700930F
:10401000002314F0F9BDC518F068009514F0F4BD44
:10402000284611F061BDBDF85E00BDF86210081AA7
:10403000013001B2BDF95A008842704758464FF42A
:10404000A021224618F0F8B830464FF4E02170471E
:1040500000F1300120463047F0682A4600F1D801CF
:104060002046384700F1280120462A463847618D0E
:1040700001396185704700F1200500200BF014BA6A
:10408000608D013860857047044690F83D00002837
:104090007047002000902068C168009180680090FF
:1040A0000098704741E80302002A70478DF8070026
:1040B00010210022204628473A4611F01BBD0199E5
:1040C00002206FF0010291FBF0F00FFA88F191FBF2
:1040D000F2F10844704700EB8000502101EB4000F2
:1040E000A02190FBF1F7704710FB07F005EBD030F3
:1040F0007588ADF864000D9870476FF30F0119448F
:1041000070470E9A00F0EABFF068082200F1A8019B
:104110002046384720464FF4003117F02EBFBAF939
:104120002030BAF81E00DAE9051270474180C188D4
:104130001144C180704732F8133013F0500F7047AC
:10414000204616F086BE02F0FC020F900D9102325E
:104150008DF85620024670472063282084F83D00E1
:104160002046FDF779BB086840F001000860704701
:104170002046FEF7D1BA002001902068C168019165
:1041800080680190019870470220211D84F83D004D
:10419000206800F0F1BB4161C16841F40051C16089
:1041A00000202021606484F8411084F8421060638C
:1041B00010BD20462946324616F0E6BF029902207D
:1041C0006FF0010291FBF0F00FFA8BF191FBF2F12D
:1041D0007047002100224FF0FF33009407F095BA9A
:1041E0000BFB00F004EBD0302C88ADF86200704778
:1041F0000E9A00F0D7BFF06805F11C0200F15801DB
:1042000020463847204616F0D4BDE8004FF0011193
:1042100021FA00F0C1B27047204617F03DBFBDF94A
:104220002E00696A079ABDF9303041F6FF76704773
:10423000069020464FF4A02117F0E7BB284611F066
:1042400055BC242084F83D002068016821F001015C
:10425000016070470173206B01302063E08E0138EC
:10426000E0867047002084F840002046FEF776BCC8
:104270000221328B90FBF1F0B18A511A6FF00102EA
:10428000484470470020ABF800100CB20BF00CB99A
:1042900000210BF09BBF0498BDF966108068A0EB6D
:1042A000410030F81700ADF84800704770780A21D7
:1042B00002287047B4F884000F90204616F065BDC0
:1042C000284611F011BC42F2D1718842704728464D
:1042D000FCF79EB821202063282084F83D0020466A
:1042E0007047202184F83D107047202184F83D104C
:1042F000002184F83E107047202180F83D100021F5
:1043000080F83E107047B0FBF3F001306FF31F30C0
:1043100000287047606D40F02000606570470168BC
:1043200041F00101016070470026CDE91A002846DE
:1043300002941C967047009C584616F03ABD0C46F5
:10434000054619F069BD04EBD030ADF86000704748
:10435000504622460CF0BEB8E868002200F1780111
:1043600020463047204616F035BEBDF83E00BDF869
:104370004210081A01307047A8EB050001220844DA
:1043800001B220467047616A00690870606A0130B6
:1043900060627047002084F83C007047486840F035
:1043A00020004860002084F850004A6842F0020271
:1043B0004A607047816801F00701062970479146FD
:1043C000029028460BF080B80023054616F062BD27
:1043D0000C46054615F050BEADF864000D981DF072
:1043E0004BBA404639460DF02CBC706DF76850470B
:1043F000204611F07FBB013109B291FBF2F1704709
:104400004FF4A02117F0B9BB2946FBF7DDBF704779
:104410000148FDF735BD00BF90140020806B0021DE
:10442000C187C186FDF72ABD806B01684A6822F00A
:1044300003024A60416D41F010014165012180F89D
:104440005110FDF71BBD806BFDF752BF806BFEF76F
:10445000E3B8806BFEF7E2B8B0B5FFF7CDFAFFF72F
:104460003EFC23D42068A168436823F02003436006
:1044700031B96168B1F5827F02D16FF0030101E0CB
:104480006FF001014368194041602046642100F04B
:1044900056F808B1202060650020E087FFF74EFC49
:1044A00004D02046BDE8B040FDF7E8BC2046BDE89A
:1044B000B040FDF711BFBCB5FFF79EFAFFF70FFC48
:1044C00018D4FFF70DFA416821F002014160FFF7AF
:1044D00062F908B1FFF71EFFA06808B9FFF74BFEAD
:1044E0000020E086FFF72AFC04D02046BDE8BC404F
:1044F000FDF7C4BC2046BDE8BC40FEF781B8B0B5AE
:10450000FFF77AFAFFF7EBFB14D4FFF7E9F9FFF7AF
:1045100042F908B1FFF7FEFE2068FFF7D4FB002048
:10452000E086E087FFF70AFC04D02046BDE8B040F3
:10453000FDF7A4BC2046BDE8B040FEF76EB8BCB5A0
:10454000044640680B46B0F5827F0ED1A068B0F5F6
:10455000004F02D0B0F5806F0CD12168B0F5806FAC
:104560000D6825F040050D6004D10025204601218D
:10457000009203E00092002520468021002200F0F6
:1045800041F820B1606D032540F0200060652846A9
:10459000BCBD00007CB50D461646009202210122EA
:1045A00004462B4600F02EF828B1606D032640F03B
:1045B0002000606521E0434811490068B0FBF1F03C
:1045C0004FF47A71484301906068B0F5827F0AD158
:1045D0002046802100222B460096002600F012F88B
:1045E0000028E2D109E0019830B10198013801902A
:1045F000206880680006F6D4002630467CBD00BFE7
:1046000000366E012DE9FC470A9C984615460E4679
:104610008246FCF717FC201A00EB0807FCF712FC97
:104620008146284808F101040068C0F3CB30784384
:104630000190DAF8000080683040801BB0FA80F00A
:104640004009A8420FD0002CF3D0FCF7FBFBA0EBF5
:104650000900B8420AD2019800280FBF002701982C
:1046600001380190E5E70020BDE8FC87DAE90001A8
:104670004268B1F5827F22F0E00242600BD1DAF8A5
:104680000810B1F5004F02D0B1F5806F03D1016879
:1046900021F040010160DAF82810B1F5005F07D180
:1046A000016821F400510160016841F4005101608A
:1046B00000208AF8500001208AF851000320BDE84C
:1046C000FC8700BF60000020BFB50A20FCF7C8FAD5
:1046D0002B4C3620A0472B4DA020A8473A20A047BE
:1046E0000520A847B220A0470C20A8470C20A847C7
:1046F0000020A8473320A8473320A847B720A04769
:104700003520A847BB20A0471920A847C020A047B4
:104710002C20A847C220A0470120A847C320A047BB
:104720001220A847C420A0472020A847C620A047A1
:104730000F20A847D020A047A420A847A120A84721
:10474000E020A047104800900FA0FFF707FB684645
:104750000E2100F081F8E120A0470F4800900EA044
:10476000FFF7FCFA68460E2100F076F82120A047FA
:104770001120A0472920A0473220FCF771FABFBDC5
:10478000054800082D480008D0040D11132B3F5494
:104790004C180D0B1F230000D0040C11132C3F44A8
:1047A000512F1F1F202300002DE9FC41DFF850800E
:1047B00007462A201D4616460C46C047300A8DF88B
:1047C00007608DF8057004218DF80600380A8DF811
:1047D000040001A800F040F82B20C047280A04215B
:1047E0008DF803508DF801408DF80200200A8DF8F5
:1047F0000000684600F030F82C20C047BDE8FC817E
:1048000005480008BCB5284C124DFFF74FFC204668
:1048100040210022A8470DF107000121FEF7C8FB47
:10482000204610210122A847BCBD00BFBCB51E4CCC
:10483000084DFFF73BFC204640210122A8470DF11F
:1048400007000121FEF7B4FB204610210122A847F2
:10485000BCBD00BF390E00082DE9F84F124C0D46C3
:104860000646FEF73FFDFFF779FB104FDFF87C9619
:104870004FF6FF7A8DB14FF6FF7487F800805545EB
:104880004846314638BF2C462246FDF771FE38783F
:104890000028FCD02D1B2644ECE7584610210122AD
:1048A000BDE8F84FFCF7C8BA0000024065040020DC
:1048B0007047FCF7D3BF000070B592B006AC14216E
:1048C000201DFBF743FE01A81421FBF73FFE002546
:1048D0001D4802260095016841F080510160006882
:1048E00000F080500090009800951848016866F329
:1048F0008F310160006800F4404000900420CDE951
:104900000C650696CDE9106054200F9008200E909B
:1049100010200A900120099000982046FDF716F912
:1049200008B172B6FEE74FF4805005950221CDE93B
:1049300003500F20CDE9010601A8FDF733F808B1B7
:1049400072B6FEE712B070BD403802400070004001
:104950000248016841F470010160704788ED00E091
:1049600080B50448FDF7D9FE0120BDE880401CF069
:1049700037BD00BF9815002070B5204B02689842E3
:1049800020D000F14044850545EA9424032C03D847
:104990004C6822F070022243B0F1804F16D0184CC0
:1049A000A04213D0174CA04210D0174CA0420DD0FB
:1049B000164CA0420AD0164CA04207D0154CA0427B
:1049C00004D007E04C6822F070022243CC6822F445
:1049D000407222430D688E684C699842C6628562B7
:1049E00001D109691963016841F0040101600121E5
:1049F000416122F080012143016070BD000001404F
:104A00000004004000080040000C0040004001404D
:104A10000048014000440140806B0021C185FDF742
:104A200049BF10B5846B2068416994F84120212A60
:104A300008D111F0800105D00020E084204600F06C
:104A40007CF82068406994F84210222906D110F0C1
:104A5000400003D00020E085FFF706F9606C40F0CD
:104A6000100060642046BDE81040FDF723BF0168D8
:104A7000806B0968C90529D40021C185016851E806
:104A8000031F026821F4807142E80313002BF5D163
:104A90004DF808EDFEF783FE5DF808EBF8D10168EC
:104AA00051E8051F026821F0400142E80513002B80
:104AB000F5D1202180F84210016B012906D14DF873
:104AC00008EDFEF7A9FE5DF808EBF8D1002141637F
:104AD000016B012918BFFEF7C7B8818DFDF7CABE6B
:104AE000806B01214163016B012918BFFEF7BDB83E
:104AF000818D4908FDF7BEBE016851E8031F0268B9
:104B000021F4907142E80313002BF5D14DF808ED24
:104B1000FEF745FE5DF808EBF8D1016B012906D1DF
:104B20004DF808EDFEF778FE5DF808EBF8D120218E
:104B300080F84210002101637047016851E8031FAB
:104B4000026821F0C00142E80313002BF5D12021B7
:104B500080F84110704790F84210222926D18368CE
:104B60000246B3F5805F0CD152F8281F52F8183C6A
:104B70008BB9026852686FF35F2221F8022B8162C1
:104B80000FE052F8281F0BB9036923B103685B6873
:104B900003F07F0301E003685B680B70116801316B
:104BA0001160C18D0139C185090400D070470168C9
:104BB000CA6822F02002CA60CA6822F48072CA6001
:104BC0004A6922F001024A61202180F84210002146
:104BD0004163026B012A18BFFEF746B881B001633A
:104BE0004DF808EDFEF718FE5DF808EBF8D1016806
:104BF0000A68D20606D5002200920A680092496827
:104C000000910099818D01B0FDF734BEB0B5044626
:104C1000006804F108030ECB056925F440551943DB
:104C20002A4349F20C650261C26863691943E3696A
:104C3000AA4319431143C1604169A26921F440713B
:104C400011434161214940F48060884202D1FCF760
:104C50003FFF01E0FCF732FFE26919216368A0FB26
:104C60000101B2F5004F17D15A00DB0FFBF720FB13
:104C7000174B6421B0FBF1F203F1805302FB0300F8
:104C8000322303EBC000B0FBF1F04FF4F87101EAFE
:104C9000400100F0070012E09A009B0FFBF708FBB1
:104CA00064210B4BB0FBF1F202FB0300322303EB58
:104CB0000010B0FBF1F000F0F00100F00F0001EB8C
:104CC0000211084421688860B0BD00BF0014014093
:104CD0009CFFFF0FF8B51346002504461E4E0A46FA
:104CE0001F4F456483858162222084F84200E06B77
:104CF0002168C0E91365194E0431C0E90F76FBF74E
:104D000081FF30B110206064202084F8420001202F
:104D1000F8BD0095206801680091406800900098F7
:104D2000206930B1FEF781FF40F48070FFF7BAF9D7
:104D3000F8D1FEF765FE40F0010041E80502002AC7
:104D4000F7D1FEF75DFE40F0400041E80502002A81
:104D5000F7D10020F8BD00BF234A0008E14A00084F
:104D60006F4A00082DE9FC41044600681D46904644
:104D70000F465E1C01683940B94224D0002EF9D09C
:104D8000FCF760F8A0EB08010320A94219D8C5B1CF
:104D90002068C1684907EDD5402FEBD0802FE9D0BE
:104DA00001680907E6D50025019501680191406871
:104DB00001900198FEF758FF082084F84050606485
:104DC0000120BDE8FC810020BDE8FC810148FDF721
:104DD0008BBD00BFE01500200848FDF785BD00BF72
:104DE000FEE7000080B5054805494FF48072FDF7E5
:104DF0001DFD0448FEF770FA80BD00BF2816002094
:104E0000804B0020DC1300202DE9F84F1C460B449A
:104E100016460244013A013B92B29BB2FFF7C4FC32
:104E20002C4D102100224FF0000B2846FCF704F80F
:104E3000284640210122FBF7FFFF00F05FF8032026
:104E400000F064F806FB04F047000A9800F108043B
:104E500021480078202802D1200E00F057F81F4D7D
:104E6000C4F30740A847C4F30720A847E0B2A84707
:104E70001B4EDFF8BC80DFF86CA01B4DDFF86C9098
:104E8000FFB13C4686F800B0B7F5007F404651467A
:104E900028BF4FF400742246FDF7C0F9307800288F
:104EA000FCD0A2B24846514686F800B085F800B062
:104EB000FDF75EFB28780028FCD085F800B03F1B8A
:104EC000DEE700F015F8034810210122BDE8F84F95
:104ED000FBF7B2BF00000240640000200D4F000845
:104EE000640400208C4C00206504002090140020F5
:104EF00005484FF400710122FBF79EBF02484FF4B2
:104F000000710022FBF798BF00080240E0B58DF861
:104F100007004FF47A700DF107010DF1060201232D
:104F200000900348FDF7E5F99DF806008CBD00BF31
:104F300040150020026800211378303B092B84BF04
:104F400008467047531C01EB81010360127802EBA5
:104F500041011A463039EFE7B0B50848442100F066
:104F6000C4FE07482121002200241CF091FA054DBF
:104F7000686001F0DFFE2C70B0BD00BFCC020020E5
:104F8000596D0008700200202DE9F04782460E4658
:104F900008461146154600F0E9F810B33046294698
:104FA0000022002700F09AF8002869D172886988E9
:104FB000B6F80690B6F800C0B6F804E08F1AA9EB70
:104FC00002083FB2012F0EDBAAF80610AAF804E08F
:104FD000AAF80220AAF800C00127B6F80690728845
:104FE00002E0FF274CE00027B5F90610A8EB01000E
:104FF000104400B2012812DB0FFA89F081420EDA68
:105000003388B08842442AF837300AEBC7030137A7
:10501000DA8098805980B6F80690E9887288B5F9E8
:10502000023010B209B20FFA89F2AEEB0C0C8342D7
:10503000C8BF18469142B8BF0A46111A0BB2318850
:10504000012B0DDB2B885C1A24B2012C08DB2AF81B
:1050500037100AEBC7010137CA808B80488031883E
:10506000AB88ACEB03040C4424B2012C08DB2AF817
:1050700037300AEBC70361440137DA8099805880E2
:1050800078B2BDE8F087F0B5B1F90030B2F9007040
:10509000B1F90240B1F90450B1F906C0B2F90210F9
:1050A000B2F90460B2F90620BB42C8BF1F460780B0
:1050B0008C42C8BF21464180B542B8BF2E4686808B
:1050C0009445B8BF6246C280B74205DC10B209B24F
:1050D0008142DCBF0120F0BD0020F0BD2DE9F84386
:1050E0000D46B0F90070B1F900108F4238DBB0F90D
:1050F0000260B5F902108E4232DBB0F90490B5F9C6
:10510000041089452CDCB0F90680B5F9060080450D
:1051100026DC14463AB3694628462246ADF80260BA
:10512000FEF78FFEE0B1694628462246ADF80260E0
:10513000ADF8009000F084F890B169462846224608
:10514000ADF80280FEF77DFE50B169462846224642
:10515000ADF80280ADF8009000F072F8BDE8F88379
:105160000020BDE8F8830120BDE8F883B1F90420F0
:10517000B0F90030934213DCB1F90020B0F90430EB
:1051800093420DDBB1F90620B0F90230934207DCFF
:10519000B1F90210B0F906008842A4BF012070479F
:1051A000002070472DE9F8430D46B0F90460B1F9CD
:1051B00000108E4211DBB0F90670B5F902108F4273
:1051C0000BDBB0F90080B5F90410884505DCB0F9B7
:1051D0000290B5F90600814502DD0120BDE8F883A3
:1051E0001446EAB1694628462246ADF80290ADF869
:1051F000008000F025F898B9694628462246ADF8A7
:105200000290ADF8006000F01BF848B969462846E6
:105210002246ADF80270ADF8008000F011F810B130
:105220000020BDE8F883694628462246ADF80270A2
:10523000ADF8006000F004F880F00100BDE8F883EC
:105240002DE9FC470C46B0F90010B4F900308B4250
:105250000DDBB0F90470BB4209DCB0F90250B4F9BF
:105260000230AB4203DBB0F90660B34202DD00203E
:10527000BDE8FC87012A67DB781A731B4FF0020C2C
:10528000ADF80010ADF802500130013300B21BB28E
:1052900090FBFCF093FBFCF300B20FFA83F9484556
:1052A000B8BF814668469145A8BF914609EB010AFF
:1052B00009EB050821460022ADF804A0ADF80680F0
:1052C000FFF7BEFF20B108EB0900ADF806000FE0C4
:1052D000ADF80660A6EB0906684621460022ADF847
:1052E0000260FFF7ADFF40B1A6EB0900ADF8020088
:1052F0000AEB0900ADF8040020E0ADF80470A7EB5C
:105300000907684621460022FEF79BFD20B1A6EB67
:105310000900ADF802000DE0684621460022ADF814
:105320000680ADF80250FFF78BFF68B108EB09006B
:10533000ADF80600A7EB0900ADF80000684621466D
:1053400018F044FEBDE8FC870120BDE8FC87F0B5FD
:10535000B1F90030B2F90060B1F90240B2F902705F
:10536000B1F90450B1F906C0B2F90410B2F906203F
:10537000B342B8BF1E460680BC42B8BF274647802E
:105380008D42C8BF294681809445C8BF6246C2800D
:10539000F0BD00002DE9F04F93B004461CF018F862
:1053A00000210A9104900CB1E06801E00AF078F85D
:1053B000DFF80C86C8F80000006918F02DFDD8F859
:1053C0000010486918B118F027FDD8F80010C86916
:1053D00018F022FDD8F80000006A18F01DFDD8F87A
:1053E00000000169002955D0DFF8ECA500264FF038
:1053F0000109B0F850118E4245D2811991F830114F
:1054000009B10136F5E70027B0F850118F42F8D204
:10541000C11991F83011A1BBB74232D000F130016F
:1054200001EBC60001EBC701FFF7A0FE0146D8F86B
:10543000000031B330300BAC00EBC60100EBC7020B
:105440002046FFF784FF2046D0470446D8F80000E6
:1054500000EBC6003030D0470546D8F8000000EB1E
:10546000C7003030D0474119D8F800008C4208D22C
:105470000B9A0C9B00EBC6010A634B63C11981F8C0
:1054800030910137C0E701680A7CD20706D10DF1DF
:105490002C0994E00021A0F850118DE2C9680DF1AB
:1054A0002C094968002900F08A8000F5AC7000F0F2
:1054B00069FC0146D8F80000002940F080800168AE
:1054C000C9688A680B6809929A4208BF4B680893BA
:1054D00009F0FAFF0DF12C0A079020215046FBF746
:1054E00035F80024D8F80000B0F850118C423FD2B3
:1054F000011991F8301109B10134F3E700F5AC70EE
:1055000000F0D2FB0746002FF6D0D8F8000039464D
:105510003E4600F5AC7000F0DCFB0746D8F8000012
:10552000314600EBC40000F130025046FFF72CFD7D
:1055300005460130E7D04FF00009D346D8F8000007
:105540003146A94500F5AC700CDA00F0E9FBDBF858
:105550000010DBF804200BF1080B09F1010942608F
:105560000160EBE700F017FC304613F0F7FBCAE7E9
:1055700000F5AC7000F098FB0DF11C0A04460DF12B
:105580002C099AE8C004D8F8000094B1006851468C
:1055900032462346C06B856BCDE900760294A8475E
:1055A000D8F80000214600F5AC7000F092FB0446EC
:1055B000E9E700F5AC7000F062FBD8F80000B0F845
:1055C00050510021C8F80410002D00F06D81012D0C
:1055D00006DB4119013D91F82F110029F7D100E0B8
:1055E000002501684A6B22B108469047D8F80000B0
:1055F0000168C96800278A6922F001028A61FEF702
:10560000E0FB059590F8281041F0040180F828107F
:10561000B0F850118F4280F00081C11991F830111B
:10562000002940F0F880AF4205D10168C9688A6955
:1056300042F001028A61FEF7C4FB0168CA68CE6BC2
:105640009268326000EBC702097C02F1300B8907D7
:1056500027D009F039FF0446D8F8000009F07CFF94
:1056600001380021002200B20090601E03B24846BB
:1056700006F04BF8D8F80000C6F804900068D0E9AE
:1056800003018907826959BF816962F3410142F0D0
:105690000201CB4681613046C6F808B01CF098FE86
:1056A000ACE032F8329F079711461446069231F863
:1056B00002AF34F9047FCDE9081BBBF800B009F054
:1056C0004BFF874201DA258804E0D8F8000009F092
:1056D00043FF451ED8F80020AAEB0B01A7EB0900F9
:1056E00001310130126809B20FFA80FBD368926968
:1056F000DB68B3FBF1F15945B8BF8B46EAB1002036
:105700005F460DF12C09ADF830000B907C1ED8F8E7
:1057100000004946ADF83240006882699047BDF804
:105720002E10BDF93200411A013109B28B4506DA5B
:1057300027B2002FEADC4FF0000B069907E039B2E0
:1057400001290699ACBF00F1010B4FF0000B08884E
:105750000FFA85FA4FF000090BFA80F7A9B27B1E09
:10576000534528DC0BAA0FFA83F9C6E90122D8F8C1
:1057700000201268D26894683460ADF82E00099851
:105780000088ADF82C0008980088ADF83230ADF8EC
:105790003000CA45BCBFADF83250A9461FFA89F0A7
:1057A000814203D1906940F00200906130461CF0C4
:1057B0000FFE3846D0E71FFA89F20DF12C0991420D
:1057C0001AD0D8F80010C6E90199099B0968C96880
:1057D0008A683260089A1B8812888C6944F0020437
:1057E0008C61ADF82E003046ADF83250ADF82C305B
:1057F000ADF830201CF0ECFD059D079FD8F80000A7
:1058000000EBC700303005F052FF0146D8E9000236
:105810001144C8F804100137FAE690F8282000294E
:1058200002F0FB0280F828203ED00268137CDB07E0
:105830001CD0D2685268CAB1002430258AB2944282
:1058400014D2021992F830216AB900F5AC7000F058
:1058500086FA0146D8F80000431942595B680A608D
:105860004B60B0F8501108350134E7E730304FF4A1
:10587000807113F072FBD8F80000202100F59870B9
:1058800013F06BFBD8F800000021A0F85011049829
:105890001BF098FD0A90D8F800000068436A1BB11D
:1058A000D8F804200A99984713F0DEF900F0BAF806
:1058B00000F094F8D8F81C40ACBB09F0F1FD09F0F9
:1058C00017FE12F06FF87F210022044618F0B1F99C
:1058D00020460021002218F0A2F920464FF6FF7161
:1058E000002218F008FAFEF70BF918F0F0F9FEF7AD
:1058F00007F918F0DDF9FEF703F918F0DEF9FEF705
:10590000FFF818F0DFF9FEF7FBF818F0EFF92DA11A
:10591000204612F049FF204606210022002314F001
:1059200039FAC8F81C40D8F808001BF04BFD800875
:105930004A280DD8D8F8040041F2893188423BD377
:10594000D8E903010A9A10440131C8E9030133E0A0
:105950001BF03EFDC8F80800D8F80000406828B1E8
:1059600000684FF47A71B1FBF0F500E01E25D8F81D
:105970001010284649B14FF47A704843D8F80C10FB
:10598000012998BF0121B0FBF1F00021C8E9031102
:10599000A84238BF0546D8E9050129440130C8F8B6
:1059A0001810C8F814001BF09DFDC0F1640306A197
:1059B00020462A4612F02EFF13B0BDE8F08F00BF3C
:1059C0008C0100203F0000002575204650530A2519
:1059D0007525252043505500AFB60008B0B5074DDA
:1059E0000024702C08BFB0BD285908B113F0B6F9D7
:1059F00028191C2113F0B1FA1C34F2E7200300200F
:105A00000749096859B14A68824202D00A6882424D
:105A100003D10A7E42F001020A761431F1E77047A1
:105A200068050020704700000148042100F05DB9BE
:105A3000C00200200148202100F057B9D802002000
:105A40002DE9FF470C9E1D4682463BB9B6F5807F87
:105A500004D1501E4D1E002200215CE0DDF8348090
:105A600000206F46DFF8C490ADF80E20ADF80A2094
:105A7000ADF80C10ADF8041029463246CDF80600FA
:105A8000009038464346C847381DFEF767F807F1CF
:105A90000800FEF763F807F10C00FEF75FF8BDF9A8
:105AA0000E50BDF90A102846A942C8BF0846BDF9E4
:105AB0000670BDF90260BDF90030BDF90420BE4298
:105AC0003C46C8BF34468442D8BF0446A01CA94205
:105AD000B8BF0D46BE42B8BF3746AF42A8BF2F463B
