:020000040800F2
:10000000280E00206102000831300008AD260008EB
:100010002D30000859040008B53500080000000024
:100020000000000000000000000000005130000847
:100030008D0400080000000035300008553000082D
:100040007B0200087B0200087B0200087B0200089C
:100050007B0200087B0200087B0200087B0200088C
:100060007B0200087B0200087B0200087B0200087C
:100070007B0200087B0200087B0200087B0200086C
:100080005D040008690400087B020008000000000D
:100090000000000000000000000000007B020008DB
:1000A0007B0200087B020008113100087B02000877
:1000B0007B0200087B0200087B020008B1260008D2
:1000C0007B0200087B0200087B0200083930000830
:1000D0007B0200089D350008A935000800000000DB
:1000E0007B0200087B0200087B0200080000000081
:1000F0000000000000000000000000007B0200087B
:10010000000000007B0200087B0200087B02000860
:1001100000000000000000000000000000000000DF
:100120007B0200087B0200087B02000875040008BF
:100130007B0200080000000000000000000000003A
:100140000000000000000000000000007B0200082A
:100150007B0200087B020008810400087B02000883
:100160007B0200087B020008000000000000000085
:10017000000000000000000000000000000000007F
:10018000000000007B0200080000000000000000EA
:100190007B02000800F002F800F052F814A696E87E
:1001A000000CB244B344DA4501D100F049F8BAE892
:1001B0000F000FA696E83000A5EB040504EB060738
:1001C000AAEB0704A7F101074FEA15154FEA34140B
:1001D000A4F10104AC4201D300F032F813F0010F96
:1001E00018BFFB1A43F0010300F001F8DBE71847E2
:1001F000AC340000CC340000103A24BF78C878C179
:10020000FAD8520724BF30C830C144BF04680C601C
:1002100070470000704700000023002400250026DE
:10022000103A28BF78C1FBD8520728BF30C148BF59
:100230000B6070471FB503F014FA1FBD10B510BD59
:1002400000F0D0F81146FFF7F5FF03F0CDF900F00C
:10025000EEF803B4FFF7F2FF03BC00F0F5F800007E
:100260000948804709480047FEE7FEE7FEE7FEE74A
:10027000FEE7FEE7FEE7FEE7FEE7FEE70448054986
:10028000054A064B70470000FD3000089501000844
:1002900028080020280E0020280A0020280A002014
:1002A00053EA020C00F069802DE9F04B4FF0000694
:1002B000002B1FBFB3FA83F503FA05F424FA05F601
:1002C0005E4012BF1643B2FA82F502FA05F4C5F198
:1002D00020051EBF22FA05FC44EA0C04203556EA2C
:1002E000044C4FEA144418BF641C4FF000084FF050
:1002F0000009904271EB030C39D3002919BFB1FA00
:1003000081F701FA07F6B0FA80F700FA07F6C7F1AD
:1003100020071EBF20FA07FC46EA0C062037B6FB72
:10032000F4FCA7EB0507103F07F01F0BCBF12006ED
:100330002CFA06F60CFA0BFB44BFB3460026202F1E
:10034000A4BF5E464FF0000B5BEA060C08BF4FF0FF
:10035000010B19EB0B0948EB0608ABFB027C06FB13
:1003600002CC0BFB03CCC01B71EB0C01C1E70B46AD
:10037000024641464846BDE8F08B13B5084318BF16
:100380004FF0FF300146AFF30080BDE81C407047DE
:100390004FF0000200B5134694469646203922BF1E
:1003A000A0E80C50A0E80C50B1F12001BFF4F7AF69
:1003B000090728BFA0E80C5048BF0CC05DF804EB4B
:1003C000890028BF40F8042B08BF704748BF20F8B9
:1003D000022B11F0804F18BF00F8012B70477047B7
:1003E00070477047754600F02BF8AE460500694629
:1003F000534620F00700854618B020B5FFF73EFFB2
:10040000BDE820404FF000064FF000074FF0000815
:100410004FF0000BAC46ACE8C009ACE8C009ACE852
:10042000C009ACE8C00921F007018D46704710B53E
:100430000446AFF300802046BDE81040FFF709BF37
:10044000004870471000002001491820ABBEFEE7AD
:100450002600020070470000FEE7000040F2901006
:10046000C2F2000000F06EB840F27000C2F200006C
:1004700000F068B840F2D000C2F2000000F062B8AC
:1004800040F23010C2F2000000F05CB8704700008B
:1004900072B600BFFEE7000070B5866D044600F03E
:1004A000F5FA94F83510022925D105462068216C0B
:1004B000026822F016020260426922F08002426164
:1004C00009B9A16C19B1016821F008010160016846
:1004D00021F00101016000BF20680068C0070ED054
:1004E00000F0D4FA401B0628F6D3202060650320D4
:1004F00084F835000CE080206065012008E0E06DA4
:100500003F2101FA00F0B060012084F8350000209E
:10051000002184F8341070BD90F83510022909D1FB
:10052000052180F835100068016821F001010160A3
:1005300000207047802141650120704790F8350008
:1005400070470000F0B581B004460020009040F2F2
:100550000000C2F200000268D4E9166048F2B51348
:1005600037680821C1F64E3381403942A2FB03258A
:100570000CD0226813685B0708D5136823F00403C6
:100580001360B160616D41F001016165012181403D
:10059000394208D022685269120604D5B160616DF3
:1005A00041F00201616504218140394208D022688E
:1005B0001268920704D5B160616D41F00401616574
:1005C00010218140394215D020680268120711D5E8
:1005D000B16002680168520306D4C90506D40168F7
:1005E00021F00801016001E008033ED4216C09B14B
:1005F00020468847E16D202000FA01F23A4240D0BF
:1006000020680368DB063CD5B26094F83530026898
:10061000052B1AD122F016020260426922F08002F4
:100620004261226C0AB9A26C1AB1026822F0080277
:1006300002603F208840B060012084F83500216DC1
:10064000002084F83400D9BB3FE00168520310D485
:10065000C90512D4016821F010010160012084F85D
:100660003500002084F8340007E0A16C0029BFD1D8
:10067000C0E7080301D4616C00E0E16B09B12046DA
:100680008847606D08B3606DC00717D0052084F8F7
:1006900035002068A90A026822F00102026000BF4A
:1006A000009A01328A42009202D80268D207F7D13A
:1006B000012084F83500002084F83400E16C21B179
:1006C000204601B0BDE8F040084701B0F0BD000091
:1006D0002DE9F041044600F0D9F9C4B105460220E5
:1006E00084F835000020216884F83400086820F080
:1006F0000100086020680168C9070BD000F0C6F946
:10070000401B0528F6D90321202203207AE001208E
:10071000BDE8F081016848F23F02CFF21002D4E94F
:10072000013501EA020ED4E9032143EA0E032B430B
:10073000D4E9056C1A43D4E907781143314341EAFF
:100740000702616A42EA0802042942EA0C0303D163
:10075000D4E90B273A43134303604269042922F08A
:10076000070241EA02012DD1D4E90A5341EA050109
:1007700043B3BCF5005F08D0BCF1000F12D1022DCD
:1007800016D0012D07D09DB119E0032D17D8DFE851
:1007900005F00B0F0B02A3F1C072B2FA82F25209FC
:1007A0004AB90FE0032D02D2012222B90AE006D194
:1007B000C3F3006232B101214022012022E0002275
:1007C000002AF8D100F0F8024AF6AB23103ACAF634
:1007D000AA23A2FB033743F2946341613909C0F6AF
:1007E0000003595C40F2FF3398435F2A4FF03F0209
:1007F00088BF0430C4E9160102FA01F181600022C9
:1008000001210020626584F83510BDE8F081000008
:1008100090F834C0BCF1010F04BF0220704770B5DE
:100820004FF0010C80F834C0D0F858E090F835C093
:10083000BCF1010F37D14FF0020C80F835C04FF0FA
:10084000000CC0F854C0D0F800C08468056CC06DBE
:10085000DCF80060402C26F48026CCF80060CCF850
:1008600004300B4604BF13460A463F2101FA00F04C
:10087000CCF80830CCF80C20CEF80800DCF80000EA
:1008800040F01600CCF800002DB1DCF8000040F07C
:100890000800CCF80000DCF8000040F00100CCF8C3
:1008A0000000002070BD002180F83410022070BDCF
:1008B000B0B5044600F0EAF8054640F20400C2F282
:1008C00000000078611C18BF044400BF00F0DEF88F
:1008D000401BA042FAD3B0BD2DE9F04F82B000F129
:1008E0003E4707F1FF77860546EA972741F2000663
:1008F000C4F202060722B04208BF0422042F38BF08
:100900003A46002400274FF00009009209E000BF9A
:1009100009F101090237B9F1100F04F1040400F0E4
:10092000A4800D68012202FA09FC15EA0C08EFD038
:10093000D1F804B00BF0030AAAF10105012D12D879
:100940000322856802FA07FECA6825EA0E05BA4046
:100950002A4382604268CBF3001522EA0C0205FAB2
:1009600009F52A434260BAF1030F1CD0C268032381
:100970008E6803FA07F5AA43BE403243BAF1020F6C
:10098000C26010D16FF0030202EA59020244D2F8A9
:1009900020C004F01C050F230E69AB402CEA0303B2
:1009A000AE4033431362026803234E68BB409A4350
:1009B00006F00303BB401A4316F4403F0260A7D081
:1009C000002243F644030192C4F202031A6843F67C
:1009D000004E42F480421A601A68C4F2010E02F41A
:1009E00080420192019A29F003024FF6084C7244AA
:1009F000CFF6FF7C52F80C3004F00C060F25B54002
:100A0000AB43009D05FA06F6334342F80C30DEF89E
:100A100008204B6842EA080643F60C4CDD0258BF3A
:100A200022EA0806CEF80860C4F2010CDCF80020C7
:100A30009D0242EA080658BF22EA0806CCF8006088
:100A4000DEF804209D0342EA080658BF22EA0806A1
:100A5000CEF80460DEF80020DB0342EA080658BF47
:100A600022EA0806CEF8006052E702B0BDE8F08F37
:100A7000426902EA0103914341EA034181617047FF
:100A8000002A08BF090481617047000040F6240075
:100A9000C2F2000000687047704700007047000015
:100AA000F0B581B0076804467868E26A94F83E3091
:100AB00094F83DE0402B01D0102B0BD1BD697E692D
:100AC000F10735D1B2F12A4F02D0B2F52A0F31D158
:100AD00001B0F0BD216C00F4007300290CBFBD69AA
:100AE00000257E69B10734D59BB3206C002818BF60
:100AF000BD6994F83D0000F02800282840F0868069
:100B00007868012120F48060786005F0040081EAB3
:100B1000900128064FF0180058BF0C20225A0023DD
:100B2000204684F83C3001B0BDE8F040FFF7B6BF86
:100B3000810538D4310700F4007C3AD5BCF1000FB0
:100B400037D0606B616C0028C9B2396140F0BD805C
:100B5000BDE0F10665D5002B63D094F83D50786870
:100B600020F4E06078600020009078690090386898
:100B700040F0010038600098386820F480603860E8
:100B80007868000540F13A8105F0F70026462228F2
:100B900040F0138156F8380F0168496826F80E1C9A
:100BA00036F80E1C11E1E06AB0F52A0F69D1012078
:100BB0006CE0B10740F19980BCF1000F00F0958026
:100BC00094F83E30E06A226B94F83D10222940F000
:100BD000A180216D002908BF402B00F09B80216D72
:100BE000002940F091812169B1F5404F40F08C819E
:100BF0000020009078690090B869009000983868EB
:100C000040F480703860206D013014E200200090C4
:100C100079690091B9690091009984F83C0001B0AC
:100C2000F0BD0EF0F70121297DD106F08401802965
:100C300040F02D8110F4806000F0298194F83D008F
:100C4000618D00293FF444AF616A11F8012B3A61CC
:100C50006162618D01396185618D002908BF292894
:100C60007FF436AF7868282120F4806078602120F6
:100C70002063204684F83D1001B0BDE8F04000F04C
:100C800007BBE06AB0F12A4F01D10820E06294F876
:100C90003E0040280AD1206D616C002801F0FE0062
:100CA00018BF40F00100386101B0F0BD2069B0F517
:100CB000804F62D194F83D00616C212801F0FE0163
:100CC00018BF01313961606B08B1C06B38B9A06BD6
:100CD00000283FF4FDAEC06B00283FF4F9AE786801
:100CE00040F40060786001B0F0BD79686A0752D4C2
:100CF00009053FF5EDAE06F04401402940F01D81A5
:100D000010F4806000F01981204601B0BDE8F04089
:100D100001F06EBE0020009078690090B8690090E4
:100D2000009801B0F0BD06F04401402940F0BE80BB
:100D300010F4806000F0BA8094F83D00618D0029C5
:100D40003FF4C6AE3969626A1170616A013161624D
:100D5000618D01396185618D002908BF2A287FF4E2
:100D6000B7AE2068416821F48061416022202821CB
:100D70002063204684F83D10C1E0206D002800F07B
:100D8000AA80206D01287FF4A3AE606C062101EAE1
:100D9000D010F13087E709053FF59AAE06F08401DF
:100DA000802940F0D78010F4806000F0D380204686
:100DB00001B0BDE8F04001F0E3BE56F8340F016821
:100DC000496826F80A1C36F80A1C19B1216C41F052
:100DD00004012164796821F400617960FFF7AEFBBA
:100DE00001280BD0306842F2BD61C0F600010165F8
:100DF000FFF792FB10B13068016D8847608DF8B144
:100E000020684169490708D50069616A0870606A0D
:100E100001306062608D0138608520684169490653
:100E200008D50069616A0870606A01306062608D8F
:100E300001386085608D18B1206C40F0040020649A
:100E4000206C28B1204601B0BDE8F04001F0A8BCFC
:100E50002A2D07D100202063282084F83D00204659
:100E600000F014FA94F83D0028283AD10020CFF67B
:100E7000FF70E06200212020216384F83D002046BD
:100E800084F83E1001B0BDE8F04000F095B970075D
:100E90007FF51EAE002B3FF41BAE608D00283FF4A3
:100EA00017AE606A10F8011B39610EE070077FF51C
:100EB0000FAE002B3FF40CAE608D00283FF408AE5F
:100EC0003869616A0870606A01306062608D01385B
:100ED000608501B0F0BD606C062101EAD010F030F1
:100EE000E1E6206B222818BF222D7FF4F1AD00210E
:100EF0002020216384F83D00204684F83E1001B094
:100F0000BDE8F04000F0C2B9618D51B1618D012999
:100F100030D1202818BF082848D1386820F48060D4
:100F200038600020009078690090B86900900098BF
:100F3000386840F4007038607CE070077FF5C8AD19
:100F4000BCF1000F3FF4C4AD204601B0BDE8F04055
:100F500001F0D4BC70077FF5BBADBCF1000F3FF4CE
:100F6000B7ADBEF1210F14D1204601B0BDE8F0406D
:100F700001F0C6BD618D022914D1102838D8012195
:100F800014228140C0F20102114231D04FF480623C
:100F900034E0402B7FF49CAD204601B0BDE8F0402A
:100FA00001F046BE396841F4806129E010F5803FC8
:100FB0000BD1386820F48060386078680005B0D5BF
:100FC000386820F4806038602DE0122A01D10128B1
:100FD000A3D11028F4D8012101FA00F01421C0F2A5
:100FE00001010842ECD0386840F4806038601AE0B3
:100FF00039684FF4006221F4806139603968114327
:101000003960796809050ED5421E1F2A16D80121BC
:10101000914048F28102C8F2000211420ED0786875
:1010200040F4805078600020009078690090B869A2
:10103000009000980020206501B0F0BD10F5803FC1
:10104000EDD0F0E770470000002804BF0120704792
:10105000F0B581B0044690F83D0028B9002084F82E
:101060003C00204600F0B2F8242084F83D002068BF
:10107000016821F001010160016841F40041016053
:10108000016821F40041016000F06EFA636848F2E3
:10109000A16CC0F2010C40F60011C0F23D016345A5
:1010A0003CBF48F28041C0F21E01884202D20120BA
:1010B00001B0F0BD4DF68361C4F21B31A0FB0112FB
:1010C0002168970CD1F804E04FF496762EF03F0596
:1010D00045EA92454D60774348F638160D6AC0F2EE
:1010E0004106A7FB067625F03F07634538BF960CFF
:1010F000721C3A430A62CA6948F2A0664CF6FF774E
:10110000C0F20106B34222EA070C0AD801385A009D
:10111000B0FBF2F001306FF31F30042898BF0420B9
:1011200020E0A2681927002A08BF032701385F437F
:10113000B0FBF7F701373F0509D052B119225A43E6
:10114000B0FBF2F00422013062F31F3008E001200E
:1011500008E003EB4302B0FBF2F001306FF31F3005
:1011600040F4004040EA0C00C8610868D4E9072355
:1011700020F0C000104318430860886848F2FF322E
:1011800004F10C0790438CCF18431043A669886084
:10119000C86820F0FF0038433043C860086840F05A
:1011A0000100086000202021206484F83D102063A5
:1011B00084F83E0001B0F0BD7047000070470000A9
:1011C00070470000704700007047000070B586B09F
:1011D000044645F200402168C4F200000026814226
:1011E0000596CDE903660296019601D006B070BD62
:1011F00043F630050096C4F20205296800F5D830A0
:1012000041F002012960296801F002010091009972
:10121000C02101911221CDE902160321049104217C
:10122000059101A9FFF758FB009628694FF000715E
:1012300040F400102861286940F2700500F40010A5
:101240000090009846F2A000C2F20005C4F202002D
:1012500040224FF4806385E847002846C5E90436FC
:10126000C5E90666C5E90866FFF732FA002818BF27
:10127000FFF70EF91F20002100226563AC6300F028
:1012800087F81F2000F074F806B070BD70470000AA
:101290007047000040F2040040F62401C2F2000052
:1012A000C2F2000100780A6810440860704700002C
:1012B00080B543F60040C4F20200016841F40071B9
:1012C0000160016841F480610160016841F480714E
:1012D0000160032000F088F80F2000F005F800F00E
:1012E0002BF8002080BD0000B0B540F20402C2F22D
:1012F000000240F200011278C2F200014FF47A734A
:101300000968B3FBF2F20446B1FBF2F1084600F0C3
:10131000F9FC0F2C4FF001050CD858B94FF0FF30F5
:1013200021460022002500F033F840F20800C2F206
:10133000000004602846B0BD82B0002043F64001A2
:101340000190C4F202014A6842F480424A604A684D
:1013500002F480420192019A0090086840F08050A7
:101360000860086800F080500090009802B0704754
:10137000002848BF704700F01F01012202FA01F166
:101380004EF200124009CEF2000242F820107047DF
:1013900010B54EF60C5CCEF2000CDCF80030C3F356
:1013A000022E8EF00704042C28BF0424BEF1030390
:1013B0004FF0FF3E0EFA04F438BF0023A1439940DA
:1013C0000EFA03F39A43114300F1604200F00F0359
:1013D000090102F56442043B6344002848BF03F15D
:1013E0000C02117010BD00004EF60C51CEF200013F
:1013F0000A684FF6FF031A4060F30A2242F0806049
:1014000040F0FD7008607047002804BF012070475D
:101410002DE9F04143F60808C4F202080446D8F862
:10142000F8030D4600F00700884207D288F8F85309
:10143000D8F8F80300F00700A84276D120688107A9
:1014400017D5410705D5D8F8001041F4E051C8F888
:101450000010010705D5D8F8001041F46041C8F824
:101460000010D8F80010A26821F0F0011143C8F86C
:101470000010C0073FD1D8F8F80300F00700A842D9
:1014800007D988F8F853D8F8F80300F00700A84205
:101490004BD12068410707D5D8F80010E26821F445
:1014A000E0511143C8F80010000708D5D8F8000033
:1014B000216920F4604040EAC100C8F8000000F053
:1014C0007BF8D8F8001043F27C62C1F30311C0F638
:1014D0000002515C40F2000220FA01F140F20800E3
:1014E000C2F200000068C2F200021160FFF7FCFEC9
:1014F0000020BDE8F0816068811E022907D258F8FB
:10150000081C89015CBF0120BDE8F08110E00128C2
:1015100007D158F8081C89035CBF0120BDE8F081A1
:1015200006E058F8081C890702D40120BDE8F081C4
:10153000D8F8001021F003010843C8F80000FFF7B5
:10154000A5FA064641F28837D8F80000616800F035
:101550000C00B0EB810F8ED0FFF798FA801BB842D9
:10156000F2D90320BDE8F08140F2000043F6080103
:10157000C2F20000C4F202010068096843F28C6202
:10158000C1F38221C0F60002515CC84070470000E0
:1015900040F2000043F60801C2F20000C4F202016A
:1015A0000068096843F28C62C1F34231C0F6000260
:1015B000515CC8407047000010B543F60404C4F203
:1015C0000204606800F00C0008280AD0042819BF43
:1015D00042F20040C0F2F40047F64000C0F27D1035
:1015E00010BD206821682368490247F64001C0F217
:1015F0007D1100F03F02C3F388105CBF42F200414E
:10160000C0F2F401A1FB00010023FEF749FE2168AE
:101610000222C1F3014102EB4101B0FBF1F010BD28
:10162000002804BF012070472DE9F04182B0044634
:10163000007843F60006C007C4F2020647D0B0683F
:1016400000F00C00042808D1306880033FD56068A2
:10165000E8BB012002B0BDE8F081B06800F00C00EA
:10166000082802D170684002EED46568B5F5A02F55
:101670000AD0B5F5803F0BD0306820F48030306060
:10168000306820F4802006E0306840F4802030602C
:10169000306840F480303060FFF7F8F9002D0546DF
:1016A00012D000BF3068800311D4FFF7EFF9401B60
:1016B0006428F7D926E100BFFFF7E8F9401B64284A
:1016C0004FF0030000F2E28030688003F4D4207809
:1016D00080071BD5B06810F00C0F09D0B06800F07F
:1016E0000C00082840F087807068400200F1838079
:1016F0003068800703D5E068012840F09E8030689C
:10170000216920F0F80040EAC1003060207800072D
:1017100035D42078400748D4A56965B3B06800F097
:101720000C00082840F09E80012D00F08680706833
:10173000E16900F480028A4240F07F80216A00F073
:101740003F028A4279D147F6C071626A0140B1EB2B
:10175000821F72D1A16A4FF6FF73C903994300F447
:101760004032A1F580318A4267D1E16A00F07060B1
:10177000B0EB016F61D1002002B0BDE8F08160697B
:10178000002840F20000C4F247205AD00121C0F8DE
:10179000801EFFF77BF90546706F8007B9D4FFF70D
:1017A00075F9401B0228F7D9ACE0306C5FEAC0083D
:1017B0000AD400200190306C40F080503064306CCE
:1017C00000F080500190019847F20007C4F2000732
:1017D0003868C00524D4386840F480703860FFF75A
:1017E00055F905463868C0051AD4FFF74FF9401B74
:1017F0000228F7D986E0E068002857D00020C4F21C
:10180000472001210160FFF741F905463068800754
:101810003FF575AFFFF73AF9401B0228F6D971E0A2
:10182000A568052D56D0012D58D0306F20F001004D
:101830003067306F20F0040053E0012002B0BDE8B3
:10184000F0810021C0F8801EFFF720F9054600BF97
:10185000706F80077FF55DAFFFF718F9401B022816
:10186000F6D94FE00027C4F2472700203866FFF77B
:101870000DF9022D05460DD13068800159D5FFF7CD
:1018800005F9401B02284FF00300F5D902B0BDE86E
:10189000F08100BF306880017FF56DAFFFF7F6F88B
:1018A000401B02284FF00300F4D9EFE70020C4F2F8
:1018B000472000210160FFF7E9F8054630688007FE
:1018C0007FF524AFFFF7E2F8401B02284FF003003A
:1018D000F4D9DBE7306F40F004003067306F40F040
:1018E00001003067FFF7D2F8002D054641F2883736
:1018F00013D000BF306F800712D4FFF7C7F8401B2A
:10190000B842F7D9032002B0BDE8F081FFF7BEF876
:10191000401BB8424FF00300B8D8306F8007F5D4B1
:10192000B8F1000F3FF5F8AE306C20F08050306415
:10193000F2E604F11C052FCD084340EA8210D903DA
:101940004FF6FF729143A1F5803140EA05600843EC
:10195000706001203866FFF799F80446306880010E
:101960003FF509AFFFF792F8001B02284FF0030084
:10197000F4D98BE770470000B0B582B00446006828
:101980004168826802F04103012B04D111F0400349
:1019900001D0216C05E0930708D511F0800305D034
:1019A000616C204602B0BDE8B040084712F4B07F39
:1019B00018BF11F0200301D102B0B0BD530617D5F6
:1019C00094F85130032B08D100210191C168019195
:1019D00080680190019802B0B0BD636D43F00403CC
:1019E000636500230193C368019383680193019B9E
:1019F00093060CD5636D43F00103636500230193E7
:101A000083680193036823F040030360019BD205C0
:101A100008D5626D42F00802626500220192826878
:101A20000192019A626D002AC6D04268890722F0AD
:101A3000E00242604FF0010284F851201FD041685B
:101A400043F2450521F003014160E06CC0F600055A
:101A500038B10565FEF760FD18B1606D40F04000DB
:101A60006065A06C0028A7D00565FEF755FD00282D
:101A7000A2D0606D40F04000606502B0B0BD20466D
:101A800002B0BDE8B040FFF775BF000070B538B1D7
:101A90000446406A30B10020206104F1140007E0E0
:101AA000012070BD6068B0F5827F03D004F11C0096
:101AB000002101600026A66294F8510020B920465A
:101AC00084F8506000F03CF8022084F8510094E85B
:101AD0000F0001F48271056802F4044225F040050C
:101AE0000560114403F400622369114403F002020B
:101AF0006369114403F00102A369E569114403F429
:101B00000072114405F03802256A114405F0800284
:101B1000A56A114305F4005211430160626A042171
:101B200001EA134102F0100211444160C16921F43D
:101B30000061C1610120666584F85100304670BDC6
:101B40002DE9F04387B00446006843F60001C4F273
:101B5000000100268842CDE90566CDE903660296BC
:101B600060D043F60041C4F20001884200F09C803E
:101B700043F20001C4F20101884240F0BF8043F605
:101B800030000196C4F20200416941F48051416184
:101B9000416901F48051019101990196016841F078
:101BA00001010160006802A900F0010001900198A4
:101BB000A02002900220CDE9030603200590052015
:101BC000069040F60000C4F20200A0F50060FEF7A7
:101BD00083FE40F2D00546F25840C2F20005C4F23E
:101BE00002004FF0C06140224FF4806385E8470057
:101BF0002846C5E90436C5E90666C5E90866FEF764
:101C000067FD002818BFFEF743FC232000210022B7
:101C1000A564AC63FFF7BCFB2320FFF7A9FB07B06B
:101C2000BDE8F08343F630000196C4F2020001697A
:101C300040F6000441F4804101610169C4F20204EC
:101C400001F48041019101990196016802AD41F0D2
:101C50000401016001684FF0020801F004010191E4
:101C60000199019601684FF0030941F002010160FA
:101C70000068052700F00200019001980C200290F6
:101C800020462946CDE90386CDF814900697FEF745
:101C900023FE4FF48060CDE90208CDE90469069780
:101CA000A4F58060294627E0002043F6300101902A
:101CB000C4F202010A6942F400420A610A6902F4AC
:101CC00000420192019A01900A6842F004020A60FF
:101CD000096801F00401019101994FF4E05102916A
:101CE0000221CDE90310032005900620069040F65E
:101CF0000000C4F2020002A9FEF7EEFD07B0BDE845
:101D0000F0830000411E0020B0EB116F1CBF0120CA
:101D100070474EF21002CEF2000251604EF623518F
:101D2000CEF20001F0230B70072190601160704724
:101D30007047000070470000002804BF0120704772
:101D400010B5044690F83D0028B9002084F83C0006
:101D5000204600F01FF8022084F83D002068211D75
:101D600001F0DCF9012084F8460084F83E0084F894
:101D70003F0084F8400084F8410084F8420084F871
:101D8000430084F8440084F8450084F83D000020B6
:101D900010BD0000006844F60001C4F20101884251
:101DA00018BF704780B582B00020019043F6440010
:101DB000C4F202000168002241F480210160006841
:101DC000002100F48020019001981A20FFF7E0FA2A
:101DD0001A2002B0BDE88040FFF7CABA90F83D1063
:101DE00001291CBF01207047022180F83D100068C6
:101DF00040F6FF32C168C4F20002904241F0010196
:101E0000C1600FDCB0F1804F1DD040F20041C4F240
:101E10000001884217D040F60001C4F20001884258
:101E200011D017E040F60041C4F2000188420AD008
:101E300044F20001C4F20101884204D00021C4F23E
:101E40000101884206D1816801F00701062904BF1B
:101E500000207047016841F00101016000207047D7
:101E60007047000070B504460068C5680669B10790
:101E700016D515F0020113D06FF0020101610121A6
:101E800021778069800703D02046FFF7E9FF05E04E
:101E9000204600F08DF8204600F08CF800202077D6
:101EA000700718D515F0040015D020686FF00401F4
:101EB000016102212177806910F4407F03D0204620
:101EC000FFF7CEFF05E0204600F072F8204600F054
:101ED00071F800202077300717D515F0080014D0CE
:101EE00020686FF00801016104212177C069800733
:101EF00003D02046FFF7B4FF05E0204600F058F875
:101F0000204600F057F800202077F00618D515F08D
:101F1000100015D020686FF01001016108212177B1
:101F2000C06910F4407F03D02046FFF799FF05E019
:101F3000204600F03DF8204600F03CF800202077D5
:101F4000F00718BF15F0010002D1300609D412E0E5
:101F500020686FF001010161204600F02DF8300685
:101F600009D515F0800006D020686FF0800101616E
:101F70002046FFF7DDFE700609D515F0400006D0BB
:101F800020686FF040010161204600F017F8B006AC
:101F900058BF70BD15F0200008D021686FF02002F6
:101FA00020460A61BDE87040FFF7C4BE70BD000066
:101FB0007047000070470000704700007047000045
:101FC00070B582B0044690F84200202822D1002942
:101FD0004FF0010518BF002A1DD0002620462563BA
:101FE000666301F085FA216B012914D101962168FD
:101FF0000A68019249680191019900BF216851E87E
:10200000031F226841F0100142E80313002BF5D1B1
:10201000054600E00225284602B070BD006844F283
:102020000042C4F20002904218BF7047B0B540F2BF
:10203000244540F2DC30C2F200050C46C2F200003A
:1020400029464FF48062FFF7BBFF40F29430C2F2A2
:102050000000294622464FF6FF7300F0ADFA40F229
:102060009010C2F200000068016821F008010160D0
:1020700028464FF48061FEF78BF9B0BD006844F24A
:102080000041C4F20001884218BF704710B540F209
:10209000244440F2DC30C2F20004C2F200002146C7
:1020A0004FF48062FFF78CFF40F29010C2F2000004
:1020B0000068016821F00801016020464FF480614A
:1020C000FEF766F910BD0000B0B582B004460068A6
:1020D0000168C368426901F02F05202D03F0200537
:1020E00006D12DB1204602B0BDE8B04001F02CB9B8
:1020F0005FEA017C1EBF02F0010E03F4907212EB46
:102100000E0240D1226BCD0618D5012A16D113F04C
:10211000100213D0002101910168019141680191E1
:1021200001994069400636D4A08DE18DE28D002AE8
:1021300018BF884240F01A8102B0B0BD0A0672D5BD
:1021400013F080026FD094F841102129F4D1A168D6
:10215000B1F5805F03D12169002900F03C81216A3B
:102160004A1C226209784160E18C01390A04E18449
:10217000E2D1C16821F08001C160C16841F0400135
:10218000C16002B0B0BDC80718BF13F4807069D138
:1021900048076DD473E0E06B016849688AB2002A91
:1021A00055D0A38D9A4252D2E185C069B0F5807FA7
:1021B00031D000BF206850E8030F216820F4807000
:1021C00041E80302002AF5D1206850E8050F216894
:1021D00020F0010041E80502002AF5D1206850E80E
:1021E000050F216820F0400041E80502002AF5D1E2
:1021F000202084F842000020206300BF206850E8BF
:10220000030F216820F0100041E80302002AF5D1F5
:10221000E06BFEF741F902206063A08DE18D401A6A
:1022200081B22046CCE049067FF586AF13F040012D
:102230003FF482AFC16821F04001C16020212046F7
:1022400084F8411002B0BDE8B04000F02DBAA18D75
:1022500091427FF471AFC069B0F5807F7FF46CAFBD
:102260000222ABE0606C40F001006064480706D5D4
:10227000BEF1000F03D0606C40F00200606488077C
:1022800006D5BEF1000F03D0606C40F0040060641E
:10229000BCF1000F06D55EEA050003D0606C40F08B
:1022A00008006064606C00283FF446AF880603D5E0
:1022B00015B1204601F048F820684069616C00F0D3
:1022C000400001F00801401849D000BF206850E8E4
:1022D000030F216820F4907041E80302002AF5D131
:1022E000206850E8050F216820F0010041E8050250
:1022F000002AF5D1206B01280AD100BF206850E8E0
:10230000030F216820F0100041E80302002AF5D1F4
:10231000202084F8420000202063206840694006A5
:1023200053D500BF206850E8050F216820F0400019
:1023300041E80502002AF5D1E06B002845D043F2C0
:102340000121C0F600010165FEF7E6F800283FF420
:10235000F3AEE06B016D02B0BDE8B0400847204627
:10236000FFF78CFE0020606402B0B0BD401A00BFD1
:10237000216851E8031F226821F4907142E8031399
:10238000002BF5D1216851E8051F226821F00101D9
:1023900042E80513002BF5D1202184F842100021DA
:1023A000216300BF216851E8031F226821F010015A
:1023B00042E80313002BF5D1022281B2204662636A
:1023C00002B0BDE8B040FFF729BE204602B0BDE82C
:1023D000B040FFF753BE216A31F8022B6FF35F2242
:1023E00042602162C0E60000002804BF012070475F
:1023F00010B5044690F8410028B9002084F8400048
:10240000204600F021F8242084F841002068C168AB
:1024100021F40051C160204600F0F6FF20680169F8
:1024200021F490410161416921F02A014161C168B3
:1024300041F40051C16000202021606484F8411003
:1024400084F84210606310BD70B586B00446006821
:1024500044F20041C4F2000100268842CDE904663E
:10246000CDE90266019653D041F20001C4F20101A8
:10247000884240F09B8043F630000096C4F2020090
:10248000416941F010014161416901F01001009181
:1024900000990096016841F001010160006801A9FE
:1024A00000F00100009000984FF4C06001900220FD
:1024B000CDE9020603200490072005900020C4F215
:1024C0000200FEF709FA46F28800C4F2020040F268
:1024D000301500F58660C2F200054FF00061402221
:1024E0004FF4806385E847002846C5E90436C5E90E
:1024F0000666C5E90866FEF7EBF8002818BFFDF789
:10250000C7FFA563AC63252001210022252448E0F4
:1025100043F630000096C4F20200016941F4003134
:102520000161016901F40031009100990096016890
:1025300041F001010160006801A900F00100009074
:1025400000980C2001900220CDE90206032004909F
:10255000072005900020C4F20200FEF7BDF940F20A
:10256000901546F28800C2F20005C4F202004FF056
:1025700000614FF4806285E843002846C5E90362A4
:10258000C5E90566C5E907666E62FEF7A1F8002891
:1025900018BFFDF77DFFE563AC6326200021002214
:1025A0002624FEF7F5FE2046FEF7E2FE06B070BDDB
:1025B00070470000704700002DE9F04381B00446E9
:1025C00090F8410020281CD1884600294FF00100D6
:1025D00066D01646002A63D00020606421201D4684
:1025E00084F84100FEF752FAA684E684A168064604
:1025F000B1F5805F01D1206938B1C1464FF00008C4
:1026000005E0022001B0BDE8F0834FF00009E08C46
:1026100048B36F1C0CE0B9F1000F1BD019F8010B87
:1026200021684860E08C0138E084E08CD8B100BFBC
:10263000206800680006EED4002FF9D0FEF726FAD5
:1026400001464FF0030045B3891BA94225D82068F5
:10265000C068EDE738F8020B21686FF35F2048602F
:102660004FF00009DEE720680068400614D46F1CB4
:1026700004E000BF2068006840060DD4002FF9D0A8
:10268000FEF704FA01464FF0030035B1891BA94259
:1026900003D82068C068EDE70020202184F84110AD
:1026A00001B0BDE8F083000070470000FEE70000C5
:1026B00040F2F010C2F20000FEF7F2B910B581B09E
:1026C00000210091806B40F20001C2F2000190F8FD
:1026D0003DC009684BF28952C908C1F2F842A1FB1A
:1026E0000212110A23225143009100BF009939B10F
:1026F000009901390091016809688905F6D403E061
:10270000016C41F020010164446B4FF0000E002C7D
:102710001CBF0021E163816B00291CBF0022CA633A
:102720000268002C136823F480631360A0F82AE089
:1027300018BFC4F850E000291CBF00230B651168C6
:1027400021F00101116090F83D1060290BD120218A
:1027500080F83D10002180F83E10016401B0BDE812
:102760001040FEF799B90CF0280128290DD1116805
:1027700041F001011160116841F480611160002194
:102780000163282180F83D1005E0202180F83D10EC
:10279000002180F83E1001B0BDE81040FEF752BCA9
:1027A00010B5044690F83D0094F83E10B1F11002C7
:1027B00018BF0122403918BF01210A4208BF222850
:1027C00004D121680A6822F400620A6000F028013E
:1027D000282905D100202063282084F83D000DE041
:1027E00021684968090507D4602805D0202084F8AD
:1027F0003D00002084F83E000020206320684168EE
:1028000009051AD494F83D10602935D1202184F8A7
:102810003D10002121644169490605D50069616ABE
:102820000870606A013060622068016821F001016F
:1028300001602046FEF730F93EE0416821F4006176
:102840004160606B90F83510012922D1A06B42F2F3
:10285000BD61C0F600010165FDF75EFE60B3206852
:102860004169490605D50069616A0870606A0130EE
:1028700060622168A06B16E04169490605D50069D0
:10288000616A0870606A013060622046FEF7DAFB18
:1028900012E042F2BD61C0F600010165FDF73CFEA9
:1028A00050B12168606B0A6822F001020A602021A1
:1028B00084F83D10016D8847206C000704D0206823
:1028C000416821F4E061416094F83D00216C4907C2
:1028D00058BF10BD28280FD10020CFF6FF70E0624E
:1028E00000212020216384F83D00204684F83E101A
:1028F000BDE81040FEF760BC10BD0000C16A428D0B
:10290000042A07D10168426A4B6823F480634B6054
:10291000096911E0428D032A16D102680229536821
:1029200023F48063536005D0042903D0116821F497
:10293000806111601169426A1170416A013141621E
:10294000418D013941857047428D022A11D14A1EBD
:102950000F2A16D8DFE802F0081015101515151506
:1029600015151515151515080268136823F48063ED
:102970000BE00168426ACBE70268136843F48063A6
:1029800003E00268136843F4007313600268436A4B
:1029900012691A70426AD0F800C0531C4362438D1A
:1029A000013B4385DCF810305370426A0368013202
:1029B0004262428D013A42855A6822F440725A605E
:1029C000202280F83D2090F83E300022402B80F8F5
:1029D0003E2002D10263FEF7F5BBB1F1080218BF39
:1029E0001222203918BF11460163FEF7E7BB000031
:1029F00081B090F83D10222910D1C16A428D042A7D
:102A00000ED30168426A09691170416A013141625D
:102A1000418D01394185418D032923D001B0704793
:102A2000C36A012A1ED8022B1CD00022009240F259
:102A30000002C2F2000212684BF28953D208C1F2BE
:102A4000F843A2FB03231A0A02EB8202009200BFA2
:102A5000009A013A0092009A5AB103681B689B05DC
:102A6000F6D40AE00068416821F48061416001B059
:102A70007047036C43F0200303640368F2B11A68E3
:102A800022F480621A605A6822F4E0625A601A697D
:102A9000436A1A70426A01324262428D013A4285AB
:102AA000202280F83D2090F83E300022402B80F814
:102AB0003E2019D1026301B0FEF784BB596821F4AE
:102AC000E06159601969426A1170416A01314162DD
:102AD000418D01394185202180F83D10002180F889
:102AE0003E1001B0FEF7AEBAB1F1080218BF1222D3
:102AF000203918BF1146016301B0FEF75FBB00002B
:102B0000C16A90F83D20212A18BF7047428D4AB112
:102B1000416A026811F8013B13614162418D01393C
:102B20004185704711F5803F18BF082917D101680A
:102B30004A6822F4E0624A600A6842F400720A605D
:102B400000212022016380F83D2090F83E2080F88B
:102B50003E10402A08BFFEF737BBFEF731BB2029E5
:102B6000E5D001684A6822F4E0624A6011210163FD
:102B7000002180F83E10202180F83D10FEF720BB98
:102B800090F83D1090F83EC0C26A038D002B08BF3C
:102B9000212919D0212905D0BCF1400F08BF2229D5
:102BA00000D07047418D61B390F83E10402908BFB6
:102BB00000F03EB8416A026811F8013B13614162BE
:102BC000418D01394185704712F5803F18BF082AB1
:102BD0001DD101684A6822F4E0624A600A6842F442
:102BE00000720A6000212022016380F83D2090F8E5
:102BF0003E2080F83E10402A08BFFEF7E5BAFEF7F7
:102C0000DFBA0068416821F4806141607047202A82
:102C1000DFD001684A6822F4E0624A601121016352
:102C2000002180F83E10202180F83D10FEF7C8BA40
:102C300090F83D10026D3AB1026D012A0FD1016882
:102C4000826CD2B20A6119E0C26C816C012A11D186
:102C50000268C9B21161016D023101657047026DF0
:102C6000022A0FD1222914D101680A6842F4807225
:102C70000A6003E00268C1F307211161016D0131AF
:102C80000165704700684169090644BF0021016180
:102C90007047428D5AB1212909D1416A026811F861
:102CA000013B13614162418D013941857047428D7D
:102CB000002A08BF2129EBD101684A6822F4E062AA
:102CC0004A600A6842F400720A600021202201630F
:102CD00080F83D2080F83E10FEF776BA80B582B0CD
:102CE000002043F630010190C4F202010A6842F468
:102CF00000120A600A6802F400120192019A009020
:102D00000868002240F4800008600868002100F490
:102D10008000009000981020FEF73AFB1020FEF78C
:102D200027FB112000210022FEF732FB1120FEF7C5
:102D30001FFB3B2000210022FEF72AFB3B20FEF771
:102D400017FB462000210022FEF722FB462002B09E
:102D5000BDE88040FEF70CBB2DE9F04F87B00026A0
:102D600043F630000696CDE90466CDE90266019689
:102D7000C4F20200016840F6000841F0040101605D
:102D80000168C4F2020801F0040101910199019661
:102D90000168002241F00101016001684FF4804B9D
:102DA00001F00101019101990196016841F00201D0
:102DB000016000684FF4804100F00200019001982A
:102DC0004046FDF75DFEA8F5006738465021012218
:102DD0004FF0500A0124FDF753FE40464FF40471B2
:102DE0000122FDF74DFEA8F5806528460421012249
:102DF0004FF00409FDF744FECDE9044602AE40461B
:102E00003146CDE902B4FDF767FDCDE902A44FF0EC
:102E1000030A384631460494CDF814A0FDF75CFD52
:102E20001020CDE9020440463146CDE9044AFDF7C1
:102E300053FD022728463146CDE9029404940597B4
:102E4000FDF74AFD4FF40070CDE9020440463146DB
:102E5000CDE90447FDF740FD07B0BDE8F08F000065
:102E600080B540F2F01045F20041C2F20000C4F219
:102E7000000148F2A06200234FF4804CC0F201022E
:102E800080E80E00C0E9033CC0E90533C0E9073320
:102E9000FEF7DAF8002808BF80BDBDE88040FDF7E6
:102EA000F7BA000080B540F2442043F20001C2F2BC
:102EB0000000C4F201014FF4827200234FF4007C41
:102EC00080E80E000A21C0E90333C0E9053CC36174
:102ED000C0E90833C0E90A31FEF7D8FD002808BF71
:102EE00080BDBDE88040FDF7D3BA000080B540F258
:102EF0009C2043F60001C2F20000C4F200014FF42E
:102F0000827200234FF4007C80E80E000A21C0E9A1
:102F10000333C0E9053CC361C0E90833C0E90A31A5
:102F2000FEF7B4FD002808BF80BDBDE88040FDF776
:102F3000AFBA000080B540F2F42043F60041C2F27F
:102F40000000C4F200014FF4827200234FF4007CB1
:102F500080E80E000A21C0E90333C0E9053CC361E3
:102F6000C0E90833C0E90A31FEF790FD002808BF28
:102F700080BDBDE88040FDF78BBA000080B540F20F
:102F80004C3044F60001C2F20000C4F2010142F2EA
:102F9000CF0200234FF0090C80E80E10802103615E
:102FA0008161FEF7C9FE002808BF80BDBDE88040F2
:102FB000FDF76EBA80B540F2943041F20001C2F2E2
:102FC0000000C4F2010100234FF00C0C4FF4E13279
:102FD00080E80E00C0E90333C0E905C3C361FFF711
:102FE00003FA002808BF80BDBDE88040FDF750BA55
:102FF00080B540F2DC3044F20041C2F20000C4F27D
:10300000000100234FF00C0C4FF4E13280E80E0079
:10301000C0E90333C0E905C3C361FFF7E5F9002840
:1030200008BF80BDBDE88040FDF732BAFEE7000072
:10303000FEE700007047000040F24420C2F20000AA
:10304000FEF79ABC806B0021C187C186FEF792BC57
:1030500070470000FEF71EB970B592B006AC20466E
:103060003021FDF795F9002543F640000595CDE99F
:103070000355CDE901550095C4F20200016802260E
:1030800041F080510160006800F08050009000988D
:1030900047F200000095C4F20000016866F38F312A
:1030A0000160006800F44040009000980120099001
:1030B00010200A9008200E905420CDE90F0604201D
:1030C000119020460696CDE90C65FEF7A9FA10B1DD
:1030D00072B600BFFEE70F20CDE901064FF4805025
:1030E000CDE9040501A802210395FEF78DF910B181
:1030F00072B600BFFEE712B070BD00004EF68850F9
:10310000CEF20000016841F47001016070470000D8
:1031100040F24C30C2F20000FEF7A4BEB0B540F25F
:10312000FF7E0568C4F2000E40F2000C7045C4F248
:10313000010C0ADD40F60003C4F2000398420DD0F2
:1031400060450BD040F6004304E0B0F1804F05D05D
:1031500040F20043C4F20003984204D14B6825F0CA
:10316000700243EA02054FF6FF73C4F2000398426F
:1031700009DC704512DCB0F1804F26D040F20043EC
:10318000C4F200031FE044F2FF33C4F2010398428B
:103190000FDC604519D044F2000312E040F6000352
:1031A000C4F20003984210D040F60043C4F200037A
:1031B00009E044F60003C4F20103984205D044F24A
:1031C0000043C4F20103984204D1CB6825F4407255
:1031D00043EA02050A688C684B696045C4628262F2
:1031E00002D10969CCF83010026825F0800142F064
:1031F000040219430260012242610160B0BD000077
:10320000806B0021C185FEF739BF0000806B01682B
:10321000496990F84120212A11D111F080010ED086
:103220000021C184016851E8031F026821F0C00138
:1032300042E80313002BF5D1202180F841100168EA
:10324000496990F84220222A2BD111F0400128D060
:103250000021C185016851E8031F026821F49071C3
:1032600042E80313002BF5D1016851E8051F0268FD
:1032700021F0010142E80513002BF5D1016B012972
:103280000AD100BF016851E8031F026821F0100154
:1032900042E80313002BF5D1202180F842100021D1
:1032A0000163416C41F010014164FEF7E7BE00008C
:1032B0000168806B0968C90530D40021C18500BF51
:1032C000016851E8031F026821F4807142E803138A
:1032D000002BF5D1016851E8051F026821F00101BA
:1032E00042E80513002BF5D1016851E8051F02687B
:1032F00021F0400142E80513002BF5D1202180F890
:103300004210016B012909D1016851E8031F0268CD
:1033100021F0100142E80313002BF5D10021416395
:10332000016B012918BFFFF743B9818DFEF776BE07
:10333000806B01214163016B012918BFFFF73AB986
:10334000818D4908FEF76ABE90F84210222918BF05
:1033500070478268B2F5805F01D1016991B1816ADD
:10336000B2F5805F07D00AB9026922B102685268DB
:1033700002F07F0201E0026852680A70816A01313E
:10338000816207E00168826A49686FF35F2122F871
:10339000021B8262C18D01390A04C18500D07047C9
:1033A0000168CA6822F02002CA60CA6822F48072EA
:1033B000CA604A6922F001024A61202180F8421065
:1033C00000214163026B012A18BFFFF7F1B881B0F9
:1033D000016300BF016851E8031F026821F010017A
:1033E00042E80313002BF5D101680A68D20606D51E
:1033F000002200920A680092496800910099818D2C
:1034000001B0FEF70BBE000010B504460068D4E919
:1034100002C22369016921F44051114301616269CB
:1034200043EA0C01E3691143C268194349F20C6392
:103430009A431143C1604169A26921F4407141F28C
:103440000043114340F48062C4F201039A42416197
:1034500002D1FEF79DF801E0FEF786F8E1696368A6
:103460001922B1F5004FA0FB020120D15A00DB0F59
:10347000FCF716FF48F21F51C5F2EB11A0FB012328
:103480005A094FF69C73C0F6FF7303F1805302FB99
:103490000300322303EBC000A0FB01014FF4F870DE
:1034A00000EA111000EB0210C1F342111CE09A0077
:1034B0009B0FFCF7F5FE48F21F51C5F2EB11A0FB84
:1034C00001235A094FF69C73C0F6FF7302FB0300F9
:1034D000322303EB0010A0FB0101F02000EA5110A1
:1034E00000EB0210C1F3431108442168886010BD4D
:1034F000F0B581B013460027044681628385476496
:10350000222084F84200E06B43F2B12543F23136C9
:103510000A462168C0F60005C0F60006C0E90F564D
:1035200043F20D26C0F600060431C0E91367FDF72B
:103530006FF938B110206064202084F84200012027
:1035400001B0F0BD009720680168009140680090CC
:103550000098206950B100BF206850E8030F21682F
:1035600040F4807041E80302002AF5D1206850E859
:10357000050F216840F0010041E80502002AF5D15D
:10358000206850E8050F216840F0400041E805023E
:10359000002AF5D1002001B0F0BD000040F29430C7
:1035A000C2F20000FEF790BD40F2DC30C2F2000033
:1035B000FEF78ABDFEE7000080B540F2DC3040F245
:1035C0002441C2F20000C2F200014FF48062FEF713
:1035D000F7FC40F29010C2F200000068016821F090
:1035E0000801016080BD0000FDF762FEFFF734FDB9
:1035F000FFF7B2FBFFF772FBFFF7DCFCFFF7F8FC0D
:10360000FFF72EFCFFF772FCFFF794FCFFF74AFC74
:10361000FFF7B4FCFFF7D0FF40F24C30C2F20000DD
:10362000FEF7DCFB45F629454AF6146640F6000431
:103630000027CCF28F25C0F24716C4F2020400BF67
:103640000120FDF735F9013707FB05F04FEAF000DF
:10365000B042F5D820464FF48041FDF709FA002723
:10366000EEE7F1EE100A4FF6FF71C0F2C03120EA2A
:10367000010040F04070E1EE100A704700000000C9
:103680000000000001020304060708090000000012
:10369000010203040006101600061016C0360008CA
:1036A0000000002010000000F8010008D0360008DB
:1036B00010000020180E0000180200080000000092
:1036C0000024F400010000001000000000000000D1
:040000050800019559
:00000001FF
