:020000040800F2
:10000000201000200D0300087D470008E93D00088E
:1000100079470008051700088D5A00080000000005
:10002000000000000000000000000000E154000893
:10003000451700080000000081470008E55400084B
:1000400027030008270300082703000827030008E8
:1000500027030008270300082703000827030008D8
:1000600027030008270300082703000809170008D2
:1000700027030008270300082703000827030008B8
:1000800015170008211700082703000800000000CA
:10009000000000000000000000000000270300082E
:1000A0002703000827030008A155000827030008BC
:1000B000270300082703000827030008ED3D000878
:1000C00027030008270300082703000885470008C6
:1000D00027030008755A0008815A00080000000034
:1000E000270300082703000827030008000000007A
:1000F00000000000000000000000000027030008CE
:1001000000000000270300082703000891470008AB
:1001100000000000000000000000000000000000DF
:100120002703000827030008270300082D170008ED
:10013000270300080000000000000000000000008D
:10014000000000000000000000000000270300087D
:1001500027030008270300083917000827030008B1
:10016000270300082703000800000000000000002B
:10017000000000000000000000000000000000007F
:10018000000000002703000800000000000000003D
:100190002703000800F002F800F0A8F814A696E87B
:1001A000000CB244B344DA4501D100F09FF8BAE83C
:1001B0000F000FA696E83000A5EB040504EB060738
:1001C000AAEB0704A7F101074FEA15154FEA34140B
:1001D000A4F10104AC4201D300F088F813F0010F40
:1001E00018BFFB1A43F0010300F001F8DBE71847E2
:1001F000BC640000DC640000103A24BF78C878C1F9
:10020000FAD8520724BF30C830C144BF04680C601C
:1002100070470000704700000023002400250026DE
:10022000103A28BF78C1FBD8520728BF30C148BF59
:100230000B6070476E2900F0F583702900F0838110
:10024000662906F0A081652906F09D81672906F0E0
:100250009A81612906F0998103681B0A28BF41F041
:100260008001692900F0A283642900F09F83752929
:1002700000F09C836F2900F0C784782900F04F813B
:10028000E92900F06184E42900F05E84F52900F09A
:100290005B84EF2900F0C484F82900F04E810368E4
:1002A000DB0928BF41F08001632901F0AD8073298B
:1002B00001F0B280E32901F0BD80F32901F0C28092
:1002C000002070471FB506F051F901F011F9040044
:1002D0000020002106F034F9401C6060002000215D
:1002E00006F018F9E0601FBD10B510BD01F0D2F89E
:1002F0001146FFF7E7FF05F063FC01F0AFF903B427
:10030000FFF7F2FF03BC01F0F5F900000948804750
:1003100009480047FEE7FEE7FEE7FEE7FEE7FEE7E7
:10032000FEE7FEE7FEE7FEE704480549054A064BFF
:10033000704700008D55000895010008200A002034
:1003400020100020200C0020200C002053EA020C7A
:1003500000F069802DE9F04B4FF00006002B1FBF25
:10036000B3FA83F503FA05F424FA05F65E4012BFEA
:100370001643B2FA82F502FA05F4C5F120051EBF54
:1003800022FA05FC44EA0C04203556EA044C4FEAF4
:10039000144418BF641C4FF000084FF0000990424D
:1003A00071EB030C39D3002919BFB1FA81F701FAB7
:1003B00007F6B0FA80F700FA07F6C7F120071EBF6C
:1003C00020FA07FC46EA0C062037B6FBF4FCA7EB44
:1003D0000507103F07F01F0BCBF120062CFA06F69D
:1003E0000CFA0BFB44BFB3460026202FA4BF5E4689
:1003F0004FF0000B5BEA060C08BF4FF0010B19EB46
:100400000B0948EB0608ABFB027C06FB02CC0BFB9E
:1004100003CCC01B71EB0C01C1E70B460246414601
:100420004846BDE8F08B13B5084318BF4FF0FF30C6
:100430000146AFF30080BDE81C4070477CB51D4607
:1004400016460C00009007D04142A14202D320443E
:10045000401E01E04FF0FF30064B7B442A466946C0
:100460000190304600F0F7FA002C02D0009A0021EB
:1004700011707CBD1F06000070B5044685690068D8
:10048000C10601D5302600E02026C00707D070BD88
:10049000D4E9012130469047206A401C20626D1E3D
:1004A000F6D570BD70B5044685690078C00707D1E0
:1004B00070BDD4E9012120209047206A401C2062B1
:1004C0006D1EF6D570BD0000F0B40D46018809051B
:1004D00002D5214C7C4402E01F4C7C440E340021A8
:1004E00000F1240608E002F00F071209E75D42EA76
:1004F00003721B097754491C52EA0307F3D10278AF
:100500000023120704D5702D06D009B1022311343F
:100510002246F0BC00F0F1B901231034F8E770B5C1
:1005200004460D462146106800F0B5F902462946FA
:100530002046BDE870400023C6E7D21D22F0070325
:10054000D3E90023C0E70368126843F02003036087
:100550000823C3610023B7E7B66000002DE9F05F10
:10056000894604464FF0000ADFF874B1FB44C0F836
:1005700020A02046E1688847002874D0252806D0AE
:10058000D4E901219047206A401C2062F1E700264F
:100590005F462046E16888472028054607DB312D65
:1005A00005D2781910F8200C08B10643F1E7B0071E
:1005B00001D526F00406C4F81CA00027C4F818A032
:1005C0002A2D09D0284605F09DFF38B304EB870893
:1005D000303DC8F8185019E059F8041B204604EBC8
:1005E00087029161E1688847012F054618D1E069CB
:1005F000002820DA26F020061DE0D8F8180000EBCD
:10060000800005EB40003038C8F818002046E1684B
:100610008847054605F076FF0028EED1012F0AD065
:100620002E2D08D12046E16888477F1C0546022F01
:1006300046F02006C4DBA069002803DA404246F0F9
:100640000106A061F00701D026F010066C2D0BD03A
:10065000682D09D04C2D39D06A2D35D0742D35D068
:100660007A2D33D016E038E0E1682F4620468847DF
:10067000B842054609D16C2F26D04FF48060E1685E
:10068000064320468847054604E06C2F1AD04FF4F5
:10069000807006430DB3A5F14100192802D820351A
:1006A00046F400664A462946204626604E46FFF735
:1006B000C1FD80B101280BD0F61D26F0070000F126
:1006C000080956E74020E4E78020D8E70020D6E775
:1006D00006F104094DE7284652E7206ABDE8F09F7D
:1006E000466000002DE9FF5F1D464FF0FF3B91463D
:1006F0004FF000085F46D5E90146A96901987F1CC3
:100700008847296A824688470028F6D1BAF1FF3F18
:100710000CD0002E24F4C06419DD600614D5BAF1A3
:100720002B0F09D0BAF12D0F0ED103E0584604B0BB
:10073000BDE8F09F44F48064A96901987F1C884754
:10074000761E8246002E02DDBAF1300F03D0B9F1D9
:10075000000F26D032E0A969761E01987F1C44F470
:1007600000748847002E824605DDBAF1780F06D066
:10077000BAF1580F03D0B9F1000F10D01EE0B9F153
:10078000000F02D0B9F1100F18D1A969761E019897
:100790007F1C24F4007488478246102002E0082061
:1007A00000E00A20814609E0A96908FB0908761ED5
:1007B00001987F1C44F4007488478246002E05DDB2
:1007C0004946504600F036FA0028EDDAE96901980A
:1007D0008847A00502D46FF00100A8E7E00725D103
:1007E000600613D5600502D5C8F1000000E0404660
:1007F00029680A1D2A600968220501D5087015E0DC
:10080000220701D5088011E008600FE02868011D6B
:1008100029600068210502D580F8008006E02107E4
:1008200002D5A0F8008001E0C0F8008038467EE7DD
:100830004FF0000200B5134694469646203922BF79
:10084000A0E80C50A0E80C50B1F12001BFF4F7AFC4
:10085000090728BFA0E80C5048BF0CC05DF804EBA6
:10086000890028BF40F8042B08BF704748BF20F814
:10087000022B11F0804F18BF00F8012B7047704712
:100880007047704709684A0501D540B27047C905ED
:10089000FCD500B2704709684A0501D5C0B270475F
:1008A000C905FCD580B2704770B50C460546012AD3
:1008B00005D02878800600D5EA69002302E00123EC
:1008C00005E05B1C934202D2E05C0028F9D1A869E4
:1008D000E618C01AA861286A184428622846FFF75B
:1008E000CBFD04E0D5E9012114F8010B9047B44297
:1008F000F8D32846FFF7D6FD70BD2DE9F0470D4629
:1009000099469246044600F124080168880604D5F9
:10091000E06921F01001216000E00120A84201DD22
:10092000471B00E00027A1697A1902EB0900081AA9
:10093000A0612078C00602D42046FFF79DFD002666
:1009400008E0D4E901211AF806009047206A401C0B
:10095000761C20624E45F4DB2078C0060AD520467E
:10096000FFF78AFD06E0D4E9012130209047206A94
:10097000401C2062381EA7F10107F4DC07E0D4E92F
:10098000012118F805009047206A401C2062281EAB
:10099000A5F10105F3DC2046FFF784FD2078000671
:1009A00002D50220BDE8F0870120FBE72DE9F041E8
:1009B0000646002410687529314616A510D0FFF7A9
:1009C00061FF002802DA404213A507E031688A0778
:1009D00001D512A502E0490704D511A5012401E0C3
:1009E000FFF759FF00210A2206F1240709E0B0FBB6
:1009F000F2FCB0FBF2F302FB1C00303078541846D6
:100A0000491C0028F3D123462A463046BDE8F04170
:100A1000FFF773BF000000002D0000002B00000056
:100A20002000000011680268006A530501D50870B3
:100A30000AE0D30501D5088006E0130603D5C217E6
:100A4000C1E9000200E008600120704701694A1C0A
:100A500002610878704700B58FB0CDE901310021FF
:100A6000059105497944CDE9031011466846FFF721
:100A700075FD0FB000BD0000E5FFFFFFD1E90023C9
:100A80009A4202D2531C0B60107070472DE9FF5F31
:100A900015468A460446DFF8AC80F8440027D8E9BA
:100AA00000103E46CDE9001010E03AF816106A46F4
:100AB00002A800F0CBFC411C07D02178890603D5A1
:100AC000E269391891420DD80744761C20788006D7
:100AD00002D5E069B84205DDAE42E6DB3AF8160021
:100AE0000028E2D1A069C01BA0612046FFF7C4FC2A
:100AF000D8E90010CDE90010002017E03AF81810EE
:100B00006A4602A800F0A2FCB0F1FF3F81460BD07C
:100B100000250DF1080B05E0D4E901211BF80500C3
:100B200090476D1C4D45F7D308F10100B042804657
:100B3000E4DB206A384420622046FFF7B3FCBDE8BE
:100B4000FF9F00002A5B00002DE9F0418046D21D86
:100B500022F007020025D2E90002F52915A614D0DB
:100B6000011E72F1000106DA0023D0EB030063EBF3
:100B7000020211A608E0D8F800108B0701D50FA6D5
:100B800002E0490701D50EA601251146002408F10F
:100B9000240704E000F05CF830323A55641C50EA57
:100BA0000102F7D12B46324621464046BDE8F041CE
:100BB000FFF7A3BE000000002D0000002B00000086
:100BC0002000000030B4002100F1240408E002F00D
:100BD0000705D208303542EA4372DB086554491CE8
:100BE00052EA0305F3D10468002310A2250708D5B3
:100BF00004F020040C4304D0C46901230CA2641E39
:100C0000C46130BCFFF779BE10B5044621461068B8
:100C1000FFF741FE02462046BDE810400023D1E721
:100C2000D21D22F00701D1E90023CBE7000000002C
:100C3000300000003A2800D2303820F02002412A4B
:100C400001D3A2F13700884201D34FF0FF30704743
:100C500030B5B0F10A0271F100034FEA900E4EEA8E
:100C6000817EB0EB0E0061EB91014FEA101E4EEA5F
:100C7000017E10EB0E0041EB11114FEA102E4EEAEF
:100C8000016E10EB0E0041EB11214FEA104E4EEABF
:100C9000014E10EB0E0041EB1141401841F10001F3
:100CA0004FEAD00040EA41704FEAD1014FEA810497
:100CB00044EA907410EB800544EB01046D1944EB99
:100CC0000404521BA3414FF0000348BF0A3200D571
:100CD00030BD401C41F1000130BD2DE9FF4F0C46F5
:100CE0001E464FF0FF378BB0D2E90001DDF860807F
:100CF0000A908A46C1F30A5505B93D4600210846C7
:100D00004FF00000BAF1000F00F4400005DA00EBEC
:100D100080004FF4400101EA50004FEA9059B9F1C8
:100D2000010F00DDB9460A9850EA4A000ED044F699
:100D30001050A5F2FF3545432F14B8F1000F1ED017
:100D40007542291E1EDDC9F100021CE0B8F1010F39
:100D50004FF0000001D0302103E0F24305E02154C0
:100D6000401CB042FBDB30460022002121540B998D
:100D7000C1F80880C1E900200FB0BDE8F08FBD1BAD
:100D80006D1CDEE74A4600DA694206A800F0F4FB73
:100D900006AB93E8070003AB83E8070050460A99C7
:100DA00004F0D0FF8DE80700A0F500501F38009038
:100DB0000398002D0ADD42F21F014A460844002331
:100DC00003A90390684605F039FA09E0A0F5005040
:100DD0004A461F38002303A90390684605F043FAEA
:100DE0008DE807000004000C03D04FF0FF304108ED
:100DF00000E01046B8F1000F03D000220092154623
:100E00001EE0751E05D4FFF723FF303262556D1EBC
:100E1000F9D5B3460122084302D000227F1C04E02A
:100E20002078302801D100227F1E002A099784D023
:100E30001DE0112D07DAFFF70BFF303262556D1CF4
:100E400050EA0102F5D1084302D00098C8B10EE083
:100E50000021681E05E0235C625C63542254401E3E
:100E6000491C8142F7DBAB46A81B401E09900020BD
:100E700004F80B000B98099AC0F80880C0E9002B11
:100E80007AE711264FF0000857E72DE9F04F884622
:100E90000446D21D22F0070191B0D1E90001CDE94D
:100EA0000A0105F017FB02460B98C00F01D02D2058
:100EB00007E02068810701D52B2002E0202101EA0C
:100EC000C000032A099001D0072A05DB03464146EA
:100ED000204600F011FB0BE12078800601D5E06987
:100EE00000E00620B8F1650F814606D0B8F1660F24
:100EF00018D0B8F1670F70D131E00020B9F1110FAF
:100F0000009001DB112301E009F101030AAA01A904
:100F10000CA8FFF7E2FEDDE90C70002609F10105DF
:100F2000834647E001204B4600904FF000470AAA55
:100F300001A90CA8FFF7D1FEDDE90DB00C995D46C3
:100F4000002610B909F101000D18B9EB050003D412
:100F5000C0F1FF3609F10105A5EB09002BE0B9F15D
:100F6000010F01DA4FF001090020B9F1110F0090D3
:100F7000484601DD112300E003460AAA01A90CA896
:100F8000FFF7ABFEDDE90C704D4600268346207866
:100F900000070AD4AB4500DA5D4601A8012D04DD47
:100FA000411911F8011C302907D04F4502DA17F119
:100FB000040F04DA012082460FE06D1EEEE7002FD9
:100FC00002DCED1B3E4403E0781CA84200DD7D1CE2
:100FD000B81B00F1010A4FF000472078000703D446
:100FE000AA4501DB4FF0FF3A0021B7F1004F0DF1A8
:100FF00043088DF8431024D002202B23002F01DA60
:101000007F422D230A21021EA0F1010000DC5FB106
:1010100097FBF1FC97FBF1F201FB1C7C17460CF1EE
:10102000300C08F801CDEEE7A8F10100037021882B
:10103000090501D5452100E06521A0F1010800F86E
:10104000011C09980FA9A1EB0807FF1D00B10120A1
:10105000411901EBEA70A1693844081A401EA061E9
:101060002078C00602D42046FFF706FA099828B176
:10107000D4E901219047206A401C20622078C006F4
:1010800022D52046FFF7F8F91EE0002E04DBB34519
:1010900002DD01A8805D00E03020D4E90121904705
:1010A000206A401C2062761CAAF101005FEA000A57
:1010B0000AD100F01DFAC0680168405CD4E9012142
:1010C0009047206A401C2062281EA5F10105DCDC47
:1010D00007E0D4E9012118F8010B9047206A401C71
:1010E0002062381EA7F10107F3DC2046FFF7DAF98A
:1010F000032011B041E600002DE9F04F04460D46F3
:10110000D21D22F0070089B0D0E900974846394641
:1011100005F0E0F90246F80F01D02D2307E0206822
:10112000810701D52B2302E0202101EAC0038DF8BD
:1011300020300BB1012000E00020032A824601D0BC
:10114000072A04DB2946204600F0D6F93FE1207843
:10115000800601D40D2500E0E569C7F30A560D2D80
:1011600049DA00214FEA175B08464FF00000002FD4
:1011700000F4400007DA00EB80004FF4400100EB80
:10118000D07001EA60008115012901DD4FF0FF31C7
:1011900000224FEA850CBCF1180F06D31346ACF1C0
:1011A00018004FF08052C24003E04FF4801323FA3E
:1011B0000CF30CF10C0CBCF1200F04D3ACF1200C9F
:1011C00009FA0CF001E007FA0CF000294FF0004892
:1011D00001DD18B90FE00ED140450CD319EB02091F
:1011E0005F4121B9404502D19F4329EA0209BBEB87
:1011F000175F00D0761C2088000502D57B48784414
:1012000002E07A487844193808AA302302F80A30F4
:10121000037C0AF10101002E0AF1020A53546A46C6
:1012200002DC4FF0300101E04FF031014FF00108D6
:101230008DF8001002D0A6F2FF3603E059EA47010C
:1012400000D06B4E002D02DC2178090704D54FF049
:1012500002082E218DF80110C44600210BE0C7F3CF
:1012600003433F01C35C491C6D1E02F80830052989
:1012700008F1010801DA002DF1DC00210CE000EB9F
:101280001973491C1B786D1E082902F808304FEAB3
:10129000091908F1010801DA002DF0DC21688B063C
:1012A00002D516E0A8F10108E04505DD02EB0803D0
:1012B00013F8013C302BF5D0B8F1000F09DD02EB3B
:1012C000080313F8013C2E2B03D1090701D4A8F120
:1012D0000108002D05DD3E2102F808106D1E08F101
:1012E0000108407C002E02F8080008F1010804DA29
:1012F0002D20764202F8080002E02B2002F80800B8
:101300000A214FF47A70864208F101080BDB96FB44
:10131000F0F3303302F8083096FBF0F308F10108DF
:1013200000FB136601E0642E0CDB642096FBF0F3F7
:10133000303302F8083096FBF0F308F1010800FBA7
:10134000136601E00A2E06DB96FBF1F0303002F85E
:10135000080008F1010896FBF1F001FB1060303045
:1013600002F80800A16908F1010808EB050202EB88
:101370000A00081AA0612078C00602D42046FFF7B0
:101380007BF8216A08AE01EB0A00206204E0D4E990
:10139000012116F8010B9047BAF1010AF7D2207823
:1013A000C00602D52046FFF767F86E4609E016F83A
:1013B000010B3E280FD0D4E901219047206A401C40
:1013C0002062B8F10108F2D22046FFF76BF809B0AD
:1013D0000320BDE8F08F206A2844206203E0D4E9AE
:1013E0000121302090476D1EEBD3F8E7E153000058
:1013F00002FCFFFF10B5436913B1AFF3008001E0B9
:10140000FFF752FA012010BD127800F124010A7092
:1014100000224A700122EDE711684FF0FF32E9E740
:1014200010B5436913B1AFF3008001E0FFF72EFB65
:10143000012010BD128800F1240182840022C284A0
:101440000122EDE711684FF0FF32E9E72DE9F041A5
:1014500016460C46054600F043F8036893F8010170
:10146000012807D0FF2C12D8185D80B101202C7004
:10147000BDE8F081D3F807013246214603F2071395
:10148000C7182846BC46BDE8F041002360474FF02E
:10149000FF30EDE7754600F0EBF8AE460500694613
:1014A000534620F00700854618B020B5FEF73CFFF4
:1014B000BDE820404FF000064FF000074FF0000855
:1014C0004FF0000BAC46ACE8C009ACE8C009ACE892
:1014D000C009ACE8C00921F007018D467047000043
:1014E00010B500F005F8001D10BD00BF55500000FC
:1014F00000487047300000202DE9F0411F460446A7
:1015000003260168072A01F4006004DB08B116A570
:1015100005E016A503E008B115A500E015A521F02A
:1015200010002060A069C01EA0610FB1401EA06124
:101530002046FEF7A1FF4FB1D4E90121384690477C
:10154000206A401C2062C01C206206E0206AFAE784
:10155000D4E9012115F8010B9047761EF8D22046F8
:10156000FEF7A0FFBDE8F0814E414E006E616E00B7
:10157000494E4600696E66002DE9F04781461646E1
:101580008AB0354878440DC88DE80D00324878445B
:10159000801C03AC0DC884E80D0041F69B30084464
:1015A000372190FBF1F290FBF1F5A5F1800501FBED
:1015B00012041B3C02D56442012000E00020DFF849
:1015C00098A080460027FA44AAF1BE0A0EE0E00780
:1015D0000AD03246684607EB470101230AEB810136
:1015E00004F041FE8DE8070064107F1C002CEED152
:1015F000194F7F44AE3F19E0E80715D007EB041000
:101600000DF1180A90E80E008AE80E00C068F0425A
:1016100001D1981908903246012306A903A804F0C5
:1016200022FE03AB83E807006D10641C002DE3D19C
:101630004FF0010332466946B8F1000F03A802D00B
:1016400004F0FCFD01E004F00EFEC9E90001C9F858
:1016500008200AB0BDE8F087EC50000010B5044641
:10166000AFF300802046BDE81040FEF748BE000002
:10167000004870471000002030B44FF0013C50F893
:10168000042B51F8043BCCFA52F4D51A20D1FCB902
:1016900050F8042B51F8043BCCFA52F4D51A17D168
:1016A000B4B950F8042B51F8043BCCFA52F4D51AD3
:1016B0000ED16CB950F8042B51F8043BCCFA52F41B
:1016C000D51A05D1002CDAD030BC4FF0000070479D
:1016D00029BAB1FA81F111F01801D1F1200084404A
:1016E000F2D1CA40CB4012F0FF0213F0FF0330BC2E
:1016F000D01A704701491820ABBEFEE72600020051
:1017000070470000FEE7000040F2C820C2F200006F
:1017100000F074B840F28830C2F2000000F06EB8F9
:1017200040F20820C2F2000000F068B840F26820E1
:10173000C2F2000000F062B840F22830C2F20000AD
:1017400000F05CB87047000072B600BFFEE7000012
:1017500070B5866D044600F0F5FA94F8351002294C
:1017600025D105462068216C026822F0160202602D
:10177000426922F08002426109B9A16C19B1016885
:1017800021F008010160016821F00101016000BF42
:1017900020680068C0070ED000F0D4FA401B06286D
:1017A000F6D320206065032084F835000CE080200B
:1017B0006065012008E0E06D3F2101FA00F0B060B3
:1017C000012084F835000020002184F8341070BD19
:1017D00090F83510022909D1052180F835100068EC
:1017E000016821F0010101600020704780214165FE
:1017F0000120704790F8350070470000F0B581B0C7
:1018000004460020009040F20000C2F2000002688E
:10181000D4E9166048F2B51337680821C1F64E3393
:1018200081403942A2FB03250CD0226813685B0774
:1018300008D5136823F004031360B160616D41F0B3
:101840000101616501218140394208D02268526955
:10185000120604D5B160616D41F002016165042199
:101860008140394208D022681268920704D5B160DD
:10187000616D41F00401616510218140394215D04C
:1018800020680268120711D5B1600268016852032E
:1018900006D4C90506D4016821F00801016001E001
:1018A00008033ED4216C09B120468847E16D202011
:1018B00000FA01F23A4240D020680368DB063CD5CA
:1018C000B26094F835300268052B1AD122F0160266
:1018D0000260426922F080024261226C0AB9A26C65
:1018E0001AB1026822F0080202603F208840B0600E
:1018F000012084F83500216D002084F83400D9BB24
:101900003FE00168520310D4C90512D4016821F0E8
:1019100010010160012084F83500002084F83400B3
:1019200007E0A16C0029BFD1C0E7080301D4616CB6
:1019300000E0E16B09B120468847606D08B3606D37
:10194000C00717D0052084F835002068A90A02686E
:1019500022F00102026000BF009A01328A42009226
:1019600002D80268D207F7D1012084F835000020A0
:1019700084F83400E16C21B1204601B0BDE8F040AC
:10198000084701B0F0BD00002DE9F041044600F029
:10199000D9F9C4B10546022084F835000020216839
:1019A00084F83400086820F00100086020680168AD
:1019B000C9070BD000F0C6F9401B0528F6D9032152
:1019C000202203207AE00120BDE8F081016848F27E
:1019D0003F02CFF21002D4E9013501EA020ED4E948
:1019E000032143EA0E032B43D4E9056C1A43D4E9DF
:1019F00007781143314341EA0702616A42EA08026B
:101A0000042942EA0C0303D1D4E90B273A431343D8
:101A100003604269042922F0070241EA02012DD144
:101A2000D4E90A5341EA050143B3BCF5005F08D08D
:101A3000BCF1000F12D1022D16D0012D07D09DB19F
:101A400019E0032D17D8DFE805F00B0F0B02A3F107
:101A5000C072B2FA82F252094AB90FE0032D02D2E3
:101A6000012222B90AE006D1C3F3006232B101219A
:101A70004022012022E00022002AF8D100F0F802E2
:101A80004AF6AB23103ACAF6AA23A2FB033746F262
:101A9000A46341613909C0F60003595C40F2FF3389
:101AA00098435F2A4FF03F0288BF0430C4E9160113
:101AB00002FA01F18160002201210020626584F8B0
:101AC0003510BDE8F081000090F834C0BCF1010F82
:101AD00004BF0220704770B54FF0010C80F834C08D
:101AE000D0F858E090F835C0BCF1010F37D14FF075
:101AF000020C80F835C04FF0000CC0F854C0D0F88C
:101B000000C08468056CC06DDCF80060402C26F4D1
:101B10008026CCF80060CCF804300B4604BF134696
:101B20000A463F2101FA00F0CCF80830CCF80C202E
:101B3000CEF80800DCF8000040F01600CCF80000F9
:101B40002DB1DCF8000040F00800CCF80000DCF813
:101B5000000040F00100CCF80000002070BD002122
:101B600080F83410022070BDB0B5044600F0EAF8E9
:101B7000054640F20500C2F200000078611C18BF63
:101B8000044400BF00F0DEF8401BA042FAD3B0BD11
:101B90002DE9F04F82B000F13E4707F1FF7786054F
:101BA00046EA972741F20006C4F202060722B04235
:101BB00008BF0422042F38BF3A46002400274FF004
:101BC0000009009209E000BF09F101090237B9F1EB
:101BD000100F04F1040400F0A4800D68012202FA41
:101BE00009FC15EA0C08EFD0D1F804B00BF0030A99
:101BF000AAF10105012D12D80322856802FA07FE19
:101C0000CA6825EA0E05BA402A4382604268CBF3CF
:101C1000001522EA0C0205FA09F52A434260BAF1DE
:101C2000030F1CD0C26803238E6803FA07F5AA438A
:101C3000BE403243BAF1020FC26010D16FF003020E
:101C400002EA59020244D2F820C004F01C050F2316
:101C50000E69AB402CEA0303AE40334313620268C3
:101C600003234E68BB409A4306F00303BB401A436C
:101C700016F4403F0260A7D0002243F644030192CD
:101C8000C4F202031A6843F6004E42F480421A601E
:101C90001A68C4F2010E02F480420192019A29F0FE
:101CA00003024FF6084C7244CFF6FF7C52F80C301A
:101CB00004F00C060F25B540AB43009D05FA06F66F
:101CC000334342F80C30DEF808204B6842EA08063D
:101CD00043F60C4CDD0258BF22EA0806CEF8086035
:101CE000C4F2010CDCF800209D0242EA080658BF4D
:101CF00022EA0806CCF80060DEF804209D0342EAE0
:101D0000080658BF22EA0806CEF80460DEF8002074
:101D1000DB0342EA080658BF22EA0806CEF8006054
:101D200052E702B0BDE8F08F426902EA0103914335
:101D300041EA034181617047002A08BF09048161BB
:101D40007047000040F61C20C2F200000068704797
:101D50007047000070470000F0B581B00768044686
:101D60007868E26A94F83E3094F83DE0402B01D068
:101D7000102B0BD1BD697E69F10735D1B2F12A4F25
:101D800002D0B2F52A0F31D101B0F0BD216C00F4C0
:101D9000007300290CBFBD6900257E69B10734D5E9
:101DA0009BB3206C002818BFBD6994F83D0000F07B
:101DB0002800282840F086807868012120F480607F
:101DC000786005F0040081EA900128064FF01800C1
:101DD00058BF0C20225A0023204684F83C3001B022
:101DE000BDE8F040FFF7B6BF810538D4310700F4F5
:101DF000007C3AD5BCF1000F37D0606B616C0028D5
:101E0000C9B2396140F0BD80BDE0F10665D5002B57
:101E100063D094F83D50786820F4E060786000204A
:101E2000009078690090386840F0010038600098B0
:101E3000386820F4806038607868000540F13A81A5
:101E400005F0F7002646222840F0138156F8380F97
:101E50000168496826F80E1C36F80E1C11E1E06A8C
:101E6000B0F52A0F69D101206CE0B10740F19980EB
:101E7000BCF1000F00F0958094F83E30E06A226BD0
:101E800094F83D10222940F0A180216D002908BF5F
:101E9000402B00F09B80216D002940F09181216949
:101EA000B1F5404F40F08C8100200090786900909F
:101EB000B86900900098386840F480703860206DF0
:101EC000013014E20020009079690091B969009115
:101ED000009984F83C0001B0F0BD0EF0F701212913
:101EE0007DD106F08401802940F02D8110F48060BE
:101EF00000F0298194F83D00618D00293FF444AF42
:101F0000616A11F8012B3A616162618D0139618565
:101F1000618D002908BF29287FF436AF7868282111
:101F200020F48060786021202063204684F83D10F2
:101F300001B0BDE8F04000F007BBE06AB0F12A4F05
:101F400001D10820E06294F83E0040280AD1206DBB
:101F5000616C002801F0FE0018BF40F001003861FC
:101F600001B0F0BD2069B0F5804F62D194F83D001A
:101F7000616C212801F0FE0118BF01313961606BED
:101F800008B1C06B38B9A06B00283FF4FDAEC06B40
:101F900000283FF4F9AE786840F40060786001B042
:101FA000F0BD79686A0752D409053FF5EDAE06F039
:101FB0004401402940F01D8110F4806000F0198137
:101FC000204601B0BDE8F04002F0B0B8002000901B
:101FD00078690090B8690090009801B0F0BD06F0F3
:101FE0004401402940F0BE8010F4806000F0BA80C7
:101FF00094F83D00618D00293FF4C6AE3969626AEC
:102000001170616A01316162618D01396185618D93
:10201000002908BF2A287FF4B7AE2068416821F460
:1020200080614160222028212063204684F83D10F1
:10203000C1E0206D002800F0AA80206D01287FF407
:10204000A3AE606C062101EAD010F13087E70905E4
:102050003FF59AAE06F08401802940F0D78010F455
:10206000806000F0D380204601B0BDE8F04002F06F
:1020700025B956F8340F0168496826F80A1C36F865
:102080000A1C19B1216C41F004012164796821F422
:1020900000617960FFF7AEFB01280BD0306843F692
:1020A000F951C0F600010165FFF792FB10B13068ED
:1020B000016D8847608DF8B120684169490708D5EE
:1020C0000069616A0870606A01306062608D013881
:1020D000608520684169490608D50069616A087011
:1020E000606A01306062608D01386085608D18B172
:1020F000206C40F004002064206C28B1204601B020
:10210000BDE8F04001F0EABE2A2D07D1002020638F
:10211000282084F83D00204600F014FA94F83D0091
:1021200028283AD10020CFF6FF70E062002120205D
:10213000216384F83D00204684F83E1001B0BDE8DC
:10214000F04000F095B970077FF51EAE002B3FF40C
:102150001BAE608D00283FF417AE606A10F8011BBB
:1021600039610EE070077FF50FAE002B3FF40CAE27
:10217000608D00283FF408AE3869616A0870606AB3
:1021800001306062608D0138608501B0F0BD606C27
:10219000062101EAD010F030E1E6206B222818BFBA
:1021A000222D7FF4F1AD00212020216384F83D0031
:1021B000204684F83E1001B0BDE8F04000F0C2B9FE
:1021C000618D51B1618D012930D1202818BF0828B7
:1021D00048D1386820F48060386000200090786929
:1021E0000090B86900900098386840F4007038603A
:1021F0007CE070077FF5C8ADBCF1000F3FF4C4ADC3
:10220000204601B0BDE8F04001F016BF70077FF531
:10221000BBADBCF1000F3FF4B7ADBEF1210F14D13F
:10222000204601B0BDE8F04002F008B8618D0229F7
:1022300014D1102838D8012114228140C0F20102A3
:10224000114231D04FF4806234E0402B7FF49CADDA
:10225000204601B0BDE8F04002F088B8396841F48A
:10226000806129E010F5803F0BD1386820F4806050
:10227000386078680005B0D5386820F48060386030
:102280002DE0122A01D10128A3D11028F4D8012170
:1022900001FA00F01421C0F201010842ECD03868C4
:1022A00040F4806038601AE039684FF4006221F42D
:1022B00080613960396811433960796809050ED544
:1022C000421E1F2A16D80121914048F28102C8F20D
:1022D000000211420ED0786840F4805078600020EF
:1022E000009078690090B8690090009800202065FF
:1022F00001B0F0BD10F5803FEDD0F0E77047000071
:10230000002804BF01207047F0B581B0044690F862
:102310003D0028B9002084F83C00204600F0B2F8C7
:10232000242084F83D002068016821F0010101604B
:10233000016841F400410160016821F4004101603D
:1023400000F06EFA636848F2A16CC0F2010C40F62E
:102350000011C0F23D0163453CBF48F28041C0F22C
:102360001E01884202D2012001B0F0BD4DF683610A
:10237000C4F21B31A0FB01122168970CD1F804E0D4
:102380004FF496762EF03F0545EA92454D6077432F
:1023900048F638160D6AC0F24106A7FB067625F00E
:1023A0003F07634538BF960C721C3A430A62CA69FC
:1023B00048F2A0664CF6FF77C0F20106B34222EA6B
:1023C000070C0AD801385A00B0FBF2F001306FF365
:1023D0001F30042898BF042020E0A2681927002A93
:1023E00008BF032701385F43B0FBF7F701373F050C
:1023F00009D052B119225A43B0FBF2F00422013045
:1024000062F31F3008E0012008E003EB4302B0FB59
:10241000F2F001306FF31F3040F4004040EA0C004E
:10242000C8610868D4E9072320F0C00010431843AE
:102430000860886848F2FF3204F10C0790438CCFA3
:1024400018431043A6698860C86820F0FF0038432D
:102450003043C860086840F0010008600020202177
:10246000206484F83D10206384F83E0001B0F0BD84
:102470007047000070470000704700007047000080
:102480007047000070B586B0044645F200402168F0
:10249000C4F20000002681420596CDE9036602964B
:1024A000019601D006B070BD43F630050096C4F227
:1024B0000205296800F5D83041F002012960296839
:1024C00001F0020100910099C02101911221CDE992
:1024D0000216032104910421059101A9FFF758FB7D
:1024E000009628694FF0007140F4001028612869B7
:1024F00040F2082500F400100090009846F2A00079
:10250000C2F20005C4F2020040224FF4806385E865
:1025100047002846C5E90436C5E90666C5E90866E8
:10252000FFF732FA002818BFFFF70EF91F2000212D
:1025300000226563AC6300F087F81F2000F074F898
:1025400006B070BD704700007047000040F2050003
:1025500040F61C21C2F20000C2F2000100780A68B5
:10256000104408607047000080B543F60040C4F294
:102570000200016841F400710160016841F480616A
:102580000160016841F480710160032000F088F867
:102590000F2000F005F800F02BF8002080BD0000AF
:1025A000B0B540F20502C2F2000240F2000112781A
:1025B000C2F200014FF47A730968B3FBF2F20446E9
:1025C000B1FBF2F1084600F073FF0F2C4FF001054C
:1025D0000CD858B94FF0FF3021460022002500F0FA
:1025E00033F840F20800C2F2000004602846B0BD93
:1025F00082B0002043F640010190C4F202014A6813
:1026000042F480424A604A6802F480420192019A90
:102610000090086840F080500860086800F0805022
:102620000090009802B07047002848BF704700F043
:102630001F01012202FA01F14EF200124009CEF20E
:10264000000242F82010704710B54EF60C5CCEF236
:10265000000CDCF80030C3F3022E8EF00704042CCB
:1026600028BF0424BEF103034FF0FF3E0EFA04F42A
:1026700038BF0023A14399400EFA03F39A43114354
:1026800000F1604200F00F03090102F56442043BCF
:102690006344002848BF03F10C02117010BD000014
:1026A0004EF60C51CEF200010A684FF6FF031A40B5
:1026B00060F30A2242F0806040F0FD7008607047CD
:1026C000002804BF012070472DE9F04143F60808B7
:1026D000C4F202080446D8F8F8030D4600F00700DB
:1026E000884207D288F8F853D8F8F80300F00700BA
:1026F000A84276D12068810717D5410705D5D8F8BB
:10270000001041F4E051C8F80010010705D5D8F8D1
:10271000001041F46041C8F80010D8F80010A26819
:1027200021F0F0011143C8F80010C0073FD1D8F8DC
:10273000F80300F00700A84207D988F8F853D8F842
:10274000F80300F00700A8424BD12068410707D5E5
:10275000D8F80010E26821F4E0511143C8F80010E5
:10276000000708D5D8F80000216920F4604040EA4D
:10277000C100C8F8000000F07BF8D8F8001046F25D
:102780008C62C1F30311C0F60002515C40F20002FA
:1027900020FA01F140F20800C2F200000068C2F223
:1027A00000021160FFF7FCFE0020BDE8F0816068C8
:1027B000811E022907D258F8081C89015CBF01203C
:1027C000BDE8F08110E0012807D158F8081C890302
:1027D0005CBF0120BDE8F08106E058F8081C8907BD
:1027E00002D40120BDE8F081D8F8001021F00301E7
:1027F0000843C8F80000FFF7A5FA064641F28837FB
:10280000D8F80000616800F00C00B0EB810F8ED0AA
:10281000FFF798FA801BB842F2D90320BDE8F08197
:1028200040F2000043F60801C2F20000C4F20201C7
:102830000068096846F29C62C1F38221C0F600027A
:10284000515CC8407047000040F2000043F60801A8
:10285000C2F20000C4F202010068096846F29C62FC
:10286000C1F34231C0F60002515CC840704700001D
:1028700010B543F60404C4F20204606800F00C00D2
:1028800008280AD0042819BF42F20040C0F2F40020
:1028900047F64000C0F27D1010BD20682168236813
:1028A000490247F64001C0F27D1100F03F02C3F338
:1028B00088105CBF42F20041C0F2F401A1FB0001AC
:1028C0000023FDF743FD21680222C1F3014102EB21
:1028D0004101B0FBF1F010BD002804BF012070479A
:1028E0002DE9F04182B00446007843F60006C007A7
:1028F000C4F2020647D0B06800F00C00042808D1EA
:10290000306880033FD56068E8BB012002B0BDE8B5
:10291000F081B06800F00C00082802D17068400215
:10292000EED46568B5F5A02F0AD0B5F5803F0BD081
:10293000306820F480303060306820F4802006E079
:10294000306840F480203060306840F4803030607F
:10295000FFF7F8F9002D054612D000BF306880035C
:1029600011D4FFF7EFF9401B6428F7D926E100BF27
:10297000FFF7E8F9401B64284FF0030000F2E28003
:1029800030688003F4D4207880071BD5B06810F03D
:102990000C0F09D0B06800F00C00082840F08780C8
:1029A0007068400200F183803068800703D5E068DA
:1029B000012840F09E803068216920F0F80040EA4C
:1029C000C10030602078000735D42078400748D413
:1029D000A56965B3B06800F00C00082840F09E803F
:1029E000012D00F086807068E16900F480028A425F
:1029F00040F07F80216A00F03F028A4279D147F699
:102A0000C071626A0140B1EB821F72D1A16A4FF6B8
:102A1000FF73C903994300F44032A1F580318A4223
:102A200067D1E16A00F07060B0EB016F61D1002006
:102A300002B0BDE8F0816069002840F20000C4F2F5
:102A400047205AD00121C0F8801EFFF77BF90546C8
:102A5000706F8007B9D4FFF775F9401B0228F7D9CA
:102A6000ACE0306C5FEAC0080AD400200190306C02
:102A700040F080503064306C00F08050019001983C
:102A800047F20007C4F200073868C00524D438684C
:102A900040F480703860FFF755F905463868C00586
:102AA0001AD4FFF74FF9401B0228F7D986E0E068F7
:102AB000002857D00020C4F2472001210160FFF711
:102AC00041F90546306880073FF575AFFFF73AF9E1
:102AD000401B0228F6D971E0A568052D56D0012DBE
:102AE00058D0306F20F001003067306F20F00400C4
:102AF00053E0012002B0BDE8F0810021C0F8801E43
:102B0000FFF720F9054600BF706F80077FF55DAFC6
:102B1000FFF718F9401B0228F6D94FE00027C4F24E
:102B2000472700203866FFF70DF9022D05460DD125
:102B30003068800159D5FFF705F9401B02284FF096
:102B40000300F5D902B0BDE8F08100BF3068800114
:102B50007FF56DAFFFF7F6F8401B02284FF003003A
:102B6000F4D9EFE70020C4F2472000210160FFF70D
:102B7000E9F80546306880077FF524AFFFF7E2F8F3
:102B8000401B02284FF00300F4D9DBE7306F40F020
:102B900004003067306F40F001003067FFF7D2F873
:102BA000002D054641F2883713D000BF306F8007F3
:102BB00012D4FFF7C7F8401BB842F7D9032002B080
:102BC000BDE8F081FFF7BEF8401BB8424FF00300AC
:102BD000B8D8306F8007F5D4B8F1000F3FF5F8AEE4
:102BE000306C20F080503064F2E604F11C052FCDEB
:102BF000084340EA8210D9034FF6FF729143A1F5D2
:102C0000803140EA05600843706001203866FFF7B4
:102C100099F80446306880013FF509AFFFF792F854
:102C2000001B02284FF00300F4D98BE77047000027
:102C3000B0B582B0044600684168826802F0410382
:102C4000012B04D111F0400301D0216C05E0930762
:102C500008D511F0800305D0616C204602B0BDE8B4
:102C6000B040084712F4B07F18BF11F0200301D123
:102C700002B0B0BD530617D594F85130032B08D1DC
:102C800000210191C168019180680190019802B012
:102C9000B0BD636D43F00403636500230193C36813
:102CA000019383680193019B93060CD5636D43F0F8
:102CB000010363650023019383680193036823F094
:102CC00040030360019BD20508D5626D42F0080203
:102CD00062650022019282680192019A626D002A67
:102CE000C6D04268890722F0E00242604FF001023C
:102CF00084F851201FD0416844F29D7521F00301F2
:102D00004160E06CC0F6000538B10565FEF760FD76
:102D100018B1606D40F040006065A06C0028A7D03D
:102D20000565FEF755FD0028A2D0606D40F040001B
:102D3000606502B0B0BD204602B0BDE8B040FFF70C
:102D400075BF000070B538B10446406A30B100204C
:102D5000206104F1140007E0012070BD6068B0F547
:102D6000827F03D004F11C00002101600026A662CE
:102D700094F8510020B9204684F8506000F03CF8E7
:102D8000022084F8510094E80F0001F48271056874
:102D900002F4044225F040050560114403F400628A
:102DA0002369114403F002026369114403F0010234
:102DB000A369E569114403F40072114405F0380277
:102DC000256A114405F08002A56A114305F40052FA
:102DD00011430160626A042101EA134102F010020A
:102DE00011444160C16921F40061C161012066653F
:102DF00084F85100304670BD2DE9F04387B0044699
:102E0000006843F60001C4F2000100268842CDE9C3
:102E10000566CDE9036602965ED043F60041C4F232
:102E20000001884200F09E8043F20001C4F20101DB
:102E3000884240F0E58043F630000196C4F202007B
:102E4000416941F480514161416901F4805101912E
:102E500001990196016841F001010160006802A931
:102E600000F0010001900198A02002900220CDE91D
:102E70000306032005900520069040F60000C4F2EA
:102E80000200A0F50060FEF783FE46F21000C4F2D7
:102E9000020040F2682500F58960C2F200054FF09B
:102EA000C06140224FF4806385E847002846C5E9A9
:102EB0000436C5E90666C5E90866FEF765FD002823
:102EC00018BFFEF741FC232000210022A564AC635B
:102ED000FFF7BAFB232091E043F630000196C4F2DD
:102EE0000200016940F6000441F48041016101697A
:102EF000C4F2020401F48041019101990196016834
:102F000002AD41F00401016001684FF0020801F0D8
:102F1000040101910199019601684FF0030941F004
:102F2000020101600068052700F00200019001988D
:102F30000C20029020462946CDE90386CDF8149056
:102F40000697FEF725FE4FF48060CDE90208A4F550
:102F500080602946CDE904690697FEF719FE07B09F
:102F6000BDE8F08343F630000196C4F20200016927
:102F700041F400410161016901F4004101910199AD
:102F80000196016841F004010160006802A900F0A7
:102F90000400019001984FF4E05002900220CDE926
:102FA0000306032005900620069040F60000C4F2B8
:102FB0000200FEF7EDFD40F2C82546F21000C2F215
:102FC0000005C4F202004FF48061C5E900062846FE
:102FD000C5E90266C5E90416C5E90666C5E90866DD
:102FE000FEF7D2FC002818BFFEF7AEFB332000210D
:102FF0000022E564AC63FFF727FB3320FFF714FBE7
:1030000007B0BDE8F08300002DE9F04182B004462E
:1030100090F85100012817D10E4600294FF0010009
:1030200000F0A0801746002A00F09C8060681D46D2
:10303000B0F5827F02D1A06800284FD0FEF782FE53
:1030400094F85010012903D1022002B0BDE8F081AC
:103050008046012084F85000042084F851000020AC
:103060006065A663A787E7872063A086E086A168DE
:103070002064B1F5004F606408D12068016821F038
:1030800040010160016821F480410160206801680D
:10309000490603D4016841F040010160E168E08F16
:1030A00049B300284BD06E1C0BE000BFC068A16B79
:1030B00021F8020BA163E08F0138E087E08F002840
:1030C0003DD020688168C907F0D1FEF73BFE002E95
:1030D000F4D0A0EB0800A842F0D326E0042084F846
:1030E00051002046314632463B46009500F03EF8FE
:1030F00002B0BDE8F08110B36E1C0AE0007BA16B4A
:103100000870A06B0130A063E08F0138E087E08F8A
:10311000A8B120688168C907F0D1FEF713FE002E20
:10312000F5D0A0EB0800A842F1D3012084F85100AB
:10313000002084F85000032002B0BDE8F081204652
:103140002946424601F0B0FB00281CBF20206065E4
:10315000012084F85100002084F85000606D0028A0
:1031600018BF012002B0BDE8F08100002DE9F04356
:1031700083B01E4615460F460446FEF7E3FD94F85D
:1031800051108146012908D1002F4FF0010018BFCE
:10319000002D0ED103B0BDE8F0836068B0F5827FEA
:1031A0000DD104294FF00200F4D1A1680029EBD021
:1031B000F0E7002EEED094F85000012803D1022051
:1031C00003B0BDE8F083012084F8500094F851006A
:1031D000002104281CBF052084F851006165A56307
:1031E000E687A6872763E6862068A6862164616451
:1031F0000168490603D4016841F04001016061683B
:10320000731EE268B1FA81F1B3FA83F3DDF8288026
:1032100049095B09B2F5006F41EA030137D131B1C9
:1032200037F8021BC1602763E08E0138E086012673
:1032300008F10105E08E10B9E08F00286CD02068FD
:10324000816889070CD5E18E51B1012E08D1216B1F
:10325000002631F8022BC2602163E18E0139E1863C
:103260008168C9070AD0E18F41B1C068A16B01260E
:1032700021F8020BA163E08F0138E087FEF762FDC1
:10328000002DD7D0A0EB09004045D3D33AE039B1A7
:1032900039780173206B01302063E08E0138E086BD
:1032A000012608F1010500BFE08E08B9E08F98B350
:1032B0002068816889070DD5E18E59B1012E09D1A9
:1032C000216B002609780173206B01302063E08EAA
:1032D0000138E08620688168C9070BD0E18F49B1C9
:1032E000C068A16B01260870A06B0130A063E08F5D
:1032F0000138E087FEF726FD002DD5D0A0EB0900B0
:103300004045D1D3012084F85100002084F85000BA
:10331000032003B0BDE8F08320460221012243468A
:10332000CDF8009001F0F0FA60B1606D40F020003F
:10333000606520206065002084F85000012003B003
:10334000BDE8F08340F20000C2F20000006849F6D8
:103350008171C1F25E61A0FB0101480D4FF47A71E9
:10336000484302906068B0F5827F0AD120468021F0
:1033700000224346CDF8009001F0C6FA0028D4D1CF
:1033800008E0029830B10298013802902068806805
:103390000006F6D4A06838B9002001902068C16802
:1033A0000191806801900198012084F8510000206B
:1033B00084F85000606D002818BF012003B0BDE8FC
:1033C000F083000010B5044690F8510001280AD19E
:1033D00000294FF0010018BF002A00D110BD94F859
:1033E0005000012801D1022010BD012084F85000B6
:1033F0000320002384F8510063652163A286E286DE
:10340000A363C4E91033A387E387A068B0F5004F36
:1034100008D12068026822F040020260026842F48B
:1034200080420260A06C44F2C97C44F2D172C0F6C2
:10343000000CC0F60002C0E90F2C44F2A972C0F6DD
:103440000002D4F800E0C0E91323E38E0EF10C0271
:10345000FEF73AFB40B1606D40F01000606500205F
:1034600084F85000012010BD21680868400603D48C
:10347000086840F040000860002084F850004A6866
:1034800042F020024A604A6842F002024A6010BDDF
:1034900040F23C41C2F20001884218BF704740F23E
:1034A0000710C2F200000121017070477047000050
:1034B000411E0020B0EB116F1CBF012070474EF27F
:1034C0001002CEF2000251604EF62351CEF20001FE
:1034D000F0230B7007219060116070477047000067
:1034E00070470000002804BF0120704710B5044653
:1034F00090F83D0028B9002084F83C00204600F0F8
:103500001FF8022084F83D002068211D02F04EF8CB
:10351000012084F8460084F83E0084F83F0084F8D7
:10352000400084F8410084F8420084F8430084F8A5
:10353000440084F8450084F83D00002010BD0000E0
:10354000006844F60001C4F20101884218BF7047C8
:1035500080B582B00020019043F64400C4F202001E
:103560000168002241F4802101600068002100F41C
:103570008020019001981A20FFF766F81A2002B007
:10358000BDE88040FFF750B890F83D1001291CBFFE
:1035900001207047022180F83D10006840F6FF329C
:1035A000C168C4F20002904241F00101C1600FDC29
:1035B000B0F1804F1DD040F20041C4F200018842BA
:1035C00017D040F60001C4F20001884211D017E084
:1035D00040F60041C4F2000188420AD044F20001E2
:1035E000C4F20101884204D00021C4F201018842E2
:1035F00006D1816801F00701062904BF0020704749
:10360000016841F00101016000207047704700002F
:1036100070B504460068C5680669B10716D515F08F
:10362000020113D06FF0020101610121217780694D
:10363000800703D02046FFF7E9FF05E0204600F0B1
:103640008DF8204600F08CF800202077700718D500
:1036500015F0040015D020686FF00401016102210B
:103660002177806910F4407F03D02046FFF7CEFF1A
:1036700005E0204600F072F8204600F071F80020C6
:103680002077300717D515F0080014D020686FF0A8
:103690000801016104212177C069800703D0204619
:1036A000FFF7B4FF05E0204600F058F8204600F090
:1036B00057F800202077F00618D515F0100015D027
:1036C00020686FF01001016108212177C06910F4B2
:1036D000407F03D02046FFF799FF05E0204600F029
:1036E0003DF8204600F03CF800202077F00718BF96
:1036F00015F0010002D1300609D412E020686FF005
:1037000001010161204600F02DF8300609D515F0C1
:10371000800006D020686FF0800101612046FFF72D
:10372000DDFE700609D515F0400006D020686FF068
:1037300040010161204600F017F8B00658BF70BD87
:1037400015F0200008D021686FF0200220460A61A1
:10375000BDE87040FFF7C4BE70BD000070470000B8
:1037600070470000704700007047000070B582B0DD
:10377000044690F84200202822D100294FF001058C
:1037800018BF002A1DD0002620462563666302F07C
:103790001BF9216B012914D1019621680A68019255
:1037A00049680191019900BF216851E8031F22680F
:1037B00041F0100142E80313002BF5D1054600E06B
:1037C0000225284602B070BD006844F20041C4F2F0
:1037D0000001884218BF704780B540F2D45040F2D3
:1037E0001C61C2F20000C2F200014FF48062FFF7D8
:1037F000BDFF40F27000C2F200000121017040F2F2
:103800008830C2F200000068016821F00801016000
:10381000BDE8804070470000006844F20041C4F2F7
:103820000001884218BF704710B540F21C6440F296
:10383000D450C2F20004C2F2000021464FF480626C
:10384000FFF794FF40F28830C2F200000068016880
:1038500021F00801016020464FF48061FCF7E8FF89
:1038600010BD0000B0B582B0044600680168C368AE
:10387000426901F02F05202D03F0200506D12DB15E
:10388000204602B0BDE8B04001F0CABF5FEA017C4B
:103890001EBF02F0010E03F4907212EB0E0240D133
:1038A000226BCD0618D5012A16D113F0100213D0C1
:1038B00000210191016801914168019101994069DC
:1038C000400636D4A08DE18DE28D002A18BF8842D3
:1038D00040F01A8102B0B0BD0A0672D513F0800222
:1038E0006FD094F841102129F4D1A168B1F5805F1F
:1038F00003D12169002900F03C81216A4A1C22621F
:1039000009784160E18C01390A04E184E2D1C1689F
:1039100021F08001C160C16841F04001C16002B086
:10392000B0BDC80718BF13F4807069D148076DD4C3
:1039300073E0E06B016849688AB2002A55D0A38D14
:103940009A4252D2E185C069B0F5807F31D000BF84
:10395000206850E8030F216820F4807041E80302DA
:10396000002AF5D1206850E8050F216820F00100F9
:1039700041E80502002AF5D1206850E8050F2168CA
:1039800020F0400041E80502002AF5D1202084F80B
:1039900042000020206300BF206850E8030F216828
:1039A00020F0100041E80302002AF5D1E06BFDF79A
:1039B000CFFE02206063A08DE18D401A81B22046C7
:1039C000CCE049067FF586AF13F040013FF482AFAB
:1039D000C16821F04001C1602021204684F84110D7
:1039E00002B0BDE8B04000F0FBB9A18D91427FF478
:1039F00071AFC069B0F5807F7FF46CAF0222ABE09D
:103A0000606C40F001006064480706D5BEF1000F0D
:103A100003D0606C40F002006064880706D5BEF1F8
:103A2000000F03D0606C40F004006064BCF1000F34
:103A300006D55EEA050003D0606C40F008006064C3
:103A4000606C00283FF446AF880603D515B12046C8
:103A500001F0E6FE20684069616C00F0400001F072
:103A60000801401849D000BF206850E8030F2168C2
:103A700020F4907041E80302002AF5D1206850E854
:103A8000050F216820F0010041E80502002AF5D168
:103A9000206B01280AD100BF206850E8030F21687D
:103AA00020F0100041E80302002AF5D1202084F81C
:103AB00042000020206320684069400653D500BFC3
:103AC000206850E8050F216820F0400041E8050219
:103AD000002AF5D1E06B002845D045F29161C0F68F
:103AE00000010165FDF774FE00283FF4F3AEE06BC2
:103AF000016D02B0BDE8B04008472046FFF78CFEDC
:103B00000020606402B0B0BD401A00BF216851E8D7
:103B1000031F226821F4907142E80313002BF5D1B2
:103B2000216851E8051F226821F0010142E80513D0
:103B3000002BF5D1202184F842100021216300BF21
:103B4000216851E8031F226821F0100142E80313A5
:103B5000002BF5D1022281B22046626302B0BDE89B
:103B6000B040FFF731BE204602B0BDE8B040FFF7DD
:103B700053BE216A31F8022B6FF35F22426021624B
:103B8000C0E60000002804BF0120704710B50446BD
:103B900090F8410028B9002084F84000204600F049
:103BA00021F8242084F841002068C16821F40051E4
:103BB000C160204601F094FE2068016921F4904123
:103BC0000161416921F02A014161C16841F400515C
:103BD000C16000202021606484F8411084F8421004
:103BE000606310BD70B586B00446006844F20041C1
:103BF000C4F2000100268842CDE90466CDE90266E0
:103C0000019653D041F20001C4F20101884240F014
:103C10009B8043F630000096C4F20200416941F0F7
:103C200010014161416901F0100100910099009675
:103C3000016841F001010160006801A900F0010084
:103C4000009000984FF4C06001900220CDE9020678
:103C500003200490072005900020C4F20200FDF725
:103C600097FF46F28800C4F2020040F2283500F5C2
:103C70008660C2F200054FF0006140224FF480637D
:103C800085E847002846C5E90436C5E90666C5E962
:103C90000866FDF779FE002818BFFDF755FDA563FE
:103CA000AC63252001210022252448E043F63000A2
:103CB0000096C4F20200016941F40031016101691A
:103CC00001F40031009100990096016841F0010172
:103CD0000160006801A900F00100009000980C202C
:103CE00001900220CDE902060320049007200590F0
:103CF0000020C4F20200FDF74BFF40F2883546F287
:103D00008800C2F20005C4F202004FF000614FF4D7
:103D1000806285E843002846C5E90362C5E9056677
:103D2000C5E907666E62FDF72FFE002818BFFDF794
:103D30000BFDE563AC632620002100222624FEF75C
:103D400083FC2046FEF770FC06B070BD7047000093
:103D500070470000B0B5044690F8410020281CBF11
:103D60000220B0BD4FF00100C9B3002A134608BFBE
:103D7000B0BD4FF0000C21202162A384E384C4F87D
:103D800044C084F84100A06B45F2D97E45F6190580
:103D90002268C0F6000EC0F60005C0E90FE545F246
:103DA0009D65C0F600050432C0E9135CFDF78CFE8A
:103DB00030B110206064202084F841000120B0BDA3
:103DC00020686FF040010160206850E8050F21680D
:103DD00040F0800041E80502002AF5D10020B0BD86
:103DE0007047000070470000FEE7000040F2E83036
:103DF000C2F20000FDF7B0BF10B581B00021009104
:103E0000806B40F20001C2F2000190F83DC00968E9
:103E10004BF28952C908C1F2F842A1FB0212110A01
:103E200023225143009100BF009939B10099013913
:103E30000091016809688905F6D403E0016C41F03E
:103E400020010164446B4FF0000E002C1CBF0021C8
:103E5000E163816B00291CBF0022CA630268002C49
:103E6000136823F480631360A0F82AE018BFC4F835
:103E700050E000291CBF00230B65116821F00101EF
:103E8000116090F83D1060290BD1202180F83D1081
:103E9000002180F83E10016401B0BDE81040FDF73C
:103EA00057BF0CF0280128290DD1116841F00101FC
:103EB0001160116841F480611160002101632821C3
:103EC00080F83D1005E0202180F83D10002180F8A9
:103ED0003E1001B0BDE81040FEF710BA10B5044620
:103EE00090F83D0094F83E10B1F1100218BF012285
:103EF000403918BF01210A4208BF222804D1216895
:103F00000A6822F400620A6000F02801282905D11D
:103F100000202063282084F83D000DE021684968D6
:103F2000090507D4602805D0202084F83D00002032
:103F300084F83E00002020632068416809051AD4F7
:103F400094F83D10602935D1202184F83D100021DE
:103F500021644169490605D50069616A0870606A93
:103F6000013060622068016821F001010160204693
:103F7000FDF7EEFE3EE0416821F400614160606BB8
:103F800090F83510012922D1A06B43F6F951C0F603
:103F900000010165FDF71CFC60B32068416949061A
:103FA00005D50069616A0870606A01306062216845
:103FB000A06B16E04169490605D50069616A087081
:103FC000606A013060622046FEF798F912E043F61D
:103FD000F951C0F600010165FDF7FAFB50B1216807
:103FE000606B0A6822F001020A60202184F83D100B
:103FF000016D8847206C000704D02068416821F4D7
:10400000E061416094F83D00216C490758BF10BD44
:1040100028280FD10020CFF6FF70E0620021202079
:10402000216384F83D00204684F83E10BDE810402E
:10403000FEF71EBA10BD0000C16A428D042A07D1E6
:104040000168426A4B6823F480634B60096911E0A0
:10405000428D032A16D102680229536823F4806333
:10406000536005D0042903D0116821F480611160E8
:104070001169426A1170416A01314162418D013911
:1040800041857047428D022A11D14A1E0F2A16D847
:10409000DFE802F008101510151515151515151582
:1040A000151515080268136823F480630BE0016896
:1040B000426ACBE70268136843F4806303E0026856
:1040C000136843F4007313600268436A12691A703C
:1040D000426AD0F800C0531C4362438D013B4385C4
:1040E000DCF810305370426A036801324262428D3C
:1040F000013A42855A6822F440725A60202280F8C0
:104100003D2090F83E300022402B80F83E2002D126
:104110000263FEF7B3B9B1F1080218BF12222039C9
:1041200018BF11460163FEF7A5B9000081B090F8F1
:104130003D10222910D1C16A428D042A0ED3016894
:10414000426A09691170416A01314162418D013948
:104150004185418D032923D001B07047C36A012AEC
:104160001ED8022B1CD00022009240F20002C2F2A4
:10417000000212684BF28953D208C1F2F843A2FB45
:1041800003231A0A02EB8202009200BF009A013A4E
:104190000092009A5AB103681B689B05F6D40AE0A6
:1041A0000068416821F48061416001B07047036C90
:1041B00043F0200303640368F2B11A6822F48062BA
:1041C0001A605A6822F4E0625A601A69436A1A70E7
:1041D000426A01324262428D013A4285202280F8D1
:1041E0003D2090F83E300022402B80F83E2019D12F
:1041F000026301B0FEF742B9596821F4E0615960E9
:104200001969426A1170416A01314162418D013977
:104210004185202180F83D10002180F83E1001B03A
:10422000FEF76CB8B1F1080218BF1222203918BF8E
:104230001146016301B0FEF71DB90000C16A90F894
:104240003D20212A18BF7047428D4AB1416A026859
:1042500011F8013B13614162418D0139418570477D
:1042600011F5803F18BF082917D101684A6822F468
:10427000E0624A600A6842F400720A60002120226B
:10428000016380F83D2090F83E2080F83E10402ADF
:1042900008BFFEF7F5B8FEF7EFB82029E5D00168B2
:1042A0004A6822F4E0624A6011210163002180F82B
:1042B0003E10202180F83D10FEF7DEB890F83D104A
:1042C00090F83EC0C26A038D002B08BF212919D087
:1042D000212905D0BCF1400F08BF222900D070472A
:1042E000418D61B390F83E10402908BF00F03EB800
:1042F000416A026811F8013B13614162418D013945
:104300004185704712F5803F18BF082A1DD101680A
:104310004A6822F4E0624A600A6842F400720A6065
:1043200000212022016380F83D2090F83E2080F893
:104330003E10402A08BFFEF7A3B8FEF79DB80068FC
:10434000416821F4806141607047202ADFD0016814
:104350004A6822F4E0624A6011210163002180F87A
:104360003E10202180F83D10FEF786B890F83D10F1
:10437000026D3AB1026D012A0FD10168826CD2B28E
:104380000A6119E0C26C816C012A11D10268C9B2BC
:104390001161016D023101657047026D022A0FD172
:1043A000222914D101680A6842F480720A6003E08D
:1043B0000268C1F307211161016D01310165704788
:1043C00000684169090644BF002101617047428DC0
:1043D0005AB1212909D1416A026811F8013B1361E0
:1043E0004162418D013941857047428D002A08BFE5
:1043F0002129EBD101684A6822F4E0624A600A6828
:1044000042F400720A6000212022016380F83D20FE
:1044100080F83E10FEF734B880B582B0002043F635
:1044200030010190C4F202010A6842F400120A60ED
:104430000A6802F400120192019A009008680022B2
:1044400040F4800008600868002100F480000090BB
:1044500000980B20FEF7F8F80B20FEF7E5F8102087
:1044600000210022FEF7F0F81020FEF7DDF8112001
:1044700000210022FEF7E8F81120FEF7D5F83B20D6
:1044800000210022FEF7E0F83B20FEF7CDF84620A1
:1044900000210022FEF7D8F8462002B0BDE8804097
:1044A000FEF7C2B82DE9F04F87B0002643F6300082
:1044B0000696CDE90466CDE902660196C4F20200D3
:1044C000016840F6000841F0040101600168C4F28F
:1044D000020801F00401019101990196016800228E
:1044E00041F00101016001684FF4804B01F00101CE
:1044F000019101990196016841F002010160006893
:104500004FF4804100F00200019001984046FDF711
:1045100013FCA8F500673846502101224FF0500ADD
:104520000124FDF709FC40464FF404710122FDF718
:1045300003FCA8F580652846042101224FF00409F8
:10454000FDF7FAFBCDE9044602AE40463146CDE91F
:1045500002B4FDF71DFBCDE902A44FF0030A384673
:1045600031460494CDF814A0FDF712FB1020CDE9DC
:10457000020440463146CDE9044AFDF709FB022713
:1045800028463146CDE9029404940597FDF700FBD7
:104590004FF40070CDE9020440463146CDE90447AE
:1045A000FDF7F6FA07B0BDE8F08F000080B540F2E5
:1045B000E83045F20041C2F20000C4F2000148F2C6
:1045C000A06200234FF4804CC0F2010280E80E008C
:1045D000C0E9033CC0E90533C0E90733FDF790FEAD
:1045E000002808BF80BDBDE88040FDF7ADB80000E1
:1045F00080B540F23C4043F20001C2F20000C4F238
:1046000001014FF4827200234FF4007C80E80E0019
:104610000A21C0E90333C0E9053CC361C0E908339E
:10462000C0E90A31FEF78EFB002808BF80BDBDE857
:104630008040FDF789B8000080B540F2944043F611
:104640000001C2F20000C4F200014FF482720023A4
:104650004FF4007C80E80E000A21C0E90333C0E972
:10466000053CC361C0E90833C0E90A31FEF76AFBC3
:10467000002808BF80BDBDE88040FDF765B8000098
:1046800080B540F2EC4043F60041C2F20000C4F2B3
:1046900000014FF4827200234FF4007C80E80E008A
:1046A0000A21C0E90333C0E9053CC361C0E908330E
:1046B000C0E90A31FEF746FB002808BF80BDBDE80F
:1046C0008040FDF741B8000080B540F2445044F608
:1046D0000001C2F20000C4F2010142F2CF02002345
:1046E0004FF0090C80E80E10802103618161FEF714
:1046F000F9FE002808BF80BDBDE88040FDF724B862
:1047000080B540F28C5041F20001C2F20000C4F2C8
:10471000010100234FF00C0C4FF4E13280E80E0051
:10472000C0E90333C0E905C3C361FFF72BFA0028D2
:1047300008BF80BDBDE88040FDF706B880B540F2F7
:10474000D45044F20041C2F20000C4F20001002340
:104750004FF00C0C4FF4E13280E80E00C0E9033357
:10476000C0E905C3C361FFF70DFA002808BF80BD8B
:10477000BDE88040FCF7E8BFFEE70000FEE7000070
:104780007047000040F23C40C2F20000FEF750BA11
:1047900040F2EC40C2F20000FEF74ABA806B002102
:1047A000C187C186FEF742BA806B01684A6822F071
:1047B00003024A60416D41F010014165012180F81A
:1047C0005110FEF733BA0000806BFEF76FBE000099
:1047D000B0B584B0846B0546FDF7B4FA2968096862
:1047E000C90530D40546206801224168642321F0C0
:1047F00020014160416821F0020141602046022110
:10480000009500F081F820B3606D40F020006065F5
:10481000606D40F020006065A06838B9002002900B
:104820002068C16802918068029002980020E086AA
:10483000012084F85100606D28B1204604B0BDE825
:10484000B040FEF7F3B9204604B0BDE8B040FEF733
:104850001FBE40F20000C2F20000006849F68171FC
:10486000C1F25E61A0FB0101480D4FF47A7148432B
:1048700003906068B0F5827F0AD120468021002233
:104880006423009500F040F80028BDD1C4E700BFC4
:1048900003980028C0D003980138039020688068EE
:1048A0000006F5D4B8E70000B0B582B00446406811
:1048B0000B46B0F5827F12D1A168B1F5004F02D04E
:1048C000B1F5806F04D121680D6825F040050D60B9
:1048D000B0F5827F03D1A068B0F5806F0FD120467C
:1048E000012100920022002500F00EF820B1606D39
:1048F000032540F020006065284602B0B0BD00925C
:1049000020468021EEE700002DE9F04782B00A9CA6
:10491000984615460E468146FDF714FA201A00EB1C
:104920000804FDF70FFA40F20001C2F20001096825
:10493000C1F3CB3161430191D9F80010896831404E
:10494000891BB1FA81F14909A94203D1002002B0C3
:10495000BDE8F087824608F101070CE001980138B4
:104960000190D9F8000080683040801BB0FA80F0D8
:104970004009A842EAD0002FF3D0FDF7E3F9A0EBFD
:104980000A00A04204D201980028E7D10024E8E7F9
:10499000D9E900014268B1F5827F22F0E00242606D
:1049A0000BD1D9F80810B1F5004F02D0B1F5806FE6
:1049B00003D1016821F040010160D9F82810B1F558
:1049C000005F07D1016821F400510160016841F4E2
:1049D00000510160012089F85100002089F8500041
:1049E000032002B0BDE8F0872DE9F04740F208133C
:1049F000010A6FF00102C2F2000300BF9F180232E9
:104A0000FE2AB970F870F9D340F2000800200021A6
:104A100040F23F12EF23C4F202084FF0000900F009
:104A200065FC404610210022FDF786F940464021F2
:104A30000122FDF781F940F2071540F23C4A40F2AD
:104A400008164FF41637C2F20005C2F2000AC2F28D
:104A5000000600BF3C46B7F5807F28BF4FF4807446
:104A600050463146224685F80090FEF7ABFC00BF69
:104A700028780028FCD03F1BECD1404610210122B1
:104A8000BDE8F047FDF758B970B584B000240A209E
:104A9000C4F20204FDF768F836208DF800002046C5
:104AA00010210022FDF748F9204640210022FDF7A1
:104AB00043F940F23C40C2F2000069460122FEF791
:104AC00081FC002818BFFCF73FFE20461021012280
:104AD000FDF732F9A0208DF80000204610210022B9
:104AE000FDF72AF9204640210122FDF725F940F281
:104AF0003C40C2F2000069460122FEF763FC002838
:104B000018BFFCF721FE204610210122FDF714F901
:104B10003A208DF80000204610210022FDF70CF904
:104B2000204640210022FDF707F940F23C40C2F246
:104B3000000069460122FEF745FC002818BFFCF77B
:104B400003FE204610210122FDF7F6F805208DF81E
:104B50000000204610210022FDF7EEF820464021FB
:104B60000122FDF7E9F840F23C40C2F2000069463C
:104B70000122FEF727FC002818BFFCF7E5FD2046C0
:104B800010210122FDF7D8F8B2208DF80000204650
:104B900010210022FDF7D0F8204640210022FDF729
:104BA000CBF840F23C40C2F2000069460122FEF719
:104BB00009FC002818BFFCF7C7FD20461021012280
:104BC000FDF7BAF80C252046102100228DF8005080
:104BD000FDF7B2F8204640210122FDF7ADF840F282
:104BE0003C40C2F2000069460122FEF7EBFB0028C0
:104BF00018BFFCF7A9FD204610210122FDF79CF803
:104C00002046102100228DF800500025FDF794F871
:104C1000204640210122FDF78FF840F23C40C2F2CD
:104C2000000069460122FEF7CDFB002818BFFCF703
:104C30008BFD204610210122FDF77EF82046102131
:104C400000228DF80050FDF777F820464021012220
:104C5000FDF772F840F23C40C2F2000069460122C2
:104C6000FEF7B0FB002818BFFCF76EFD20461021B0
:104C70000122FDF761F833252046102100228DF82E
:104C80000050FDF759F8204640210122FDF754F865
:104C900040F23C40C2F2000069460122FEF792FB5E
:104CA000002818BFFCF750FD204610210122FDF717
:104CB00043F82046102100228DF80050FDF73CF803
:104CC000204640210122FDF737F840F23C40C2F275
:104CD000000069460122FEF775FB002818BFFCF7AB
:104CE00033FD204610210122FDF726F8B7208DF86C
:104CF0000000204610210022FDF71EF8204640212A
:104D00000022FDF719F840F23C40C2F2000069466B
:104D10000122FEF757FB002818BFFCF715FD2046BF
:104D200010210122FDF708F835208DF800002046FB
:104D300010210022FDF700F8204640210122FCF757
:104D4000FBFF40F23C40C2F2000069460122FEF740
:104D500039FB002818BFFCF7F7FC20461021012280
:104D6000FCF7EAFFBB208DF800002046102100224E
:104D7000FCF7E2FF204640210022FCF7DDFF40F275
:104D80003C40C2F2000069460122FEF71BFB0028EE
:104D900018BFFCF7D9FC204610210122FCF7CCFFFC
:104DA00019208DF80000204610210022FCF7C4FFD6
:104DB000204640210122FCF7BFFF40F23C40C2F2F6
:104DC000000069460122FEF7FDFA002818BFFCF733
:104DD000BBFC204610210122FCF7AEFFC0208DF85D
:104DE0000000204610210022FCF7A6FF20464021AB
:104DF0000022FCF7A1FF40F23C40C2F200006946ED
:104E00000122FEF7DFFA002818BFFCF79DFC2046C0
:104E100010210122FCF790FF2C208DF80000204685
:104E200010210022FCF788FF204640210122FCF7D8
:104E300083FF40F23C40C2F2000069460122FEF7C7
:104E4000C1FA002818BFFCF77FFC20461021012280
:104E50000125FCF771FFC2208DF8000020461021CB
:104E60000022FCF769FF204640210022FCF764FF86
:104E700040F23C40C2F2000069460122FEF7A2FA6D
:104E8000002818BFFCF760FC204610210122FCF727
:104E900053FF2046102100228DF80050FCF74CFFF4
:104EA000204640210122FCF747FF40F23C40C2F27D
:104EB000000069460122FEF785FA002818BFFCF7BA
:104EC00043FC204610210122FCF736FFC3208DF859
:104ED0000000204610210022FCF72EFF2046402132
:104EE0000022FCF729FF40F23C40C2F20000694674
:104EF0000122FEF767FA002818BFFCF725FC2046C0
:104F000010210122FCF718FF12208DF80000204626
:104F100010210022FCF710FF204640210122FCF75F
:104F20000BFF40F23C40C2F2000069460122FEF74E
:104F300049FA002818BFFCF707FC2046102101227F
:104F4000FCF7FAFEC4208DF8000020461021002254
:104F5000FCF7F2FE204640210022FCF7EDFE40F275
:104F60003C40C2F2000069460122FEF72BFA0028FD
:104F700018BFFCF7E9FB204610210122FCF7DCFEFC
:104F800020208DF80000204610210022FCF7D4FEDE
:104F9000204640210122FCF7CFFE40F23C40C2F205
:104FA000000069460122FEF70DFA002818BFFCF741
:104FB000CBFB204610210122FCF7BEFEC6208DF857
:104FC0000000204610210022FCF7B6FE20464021BA
:104FD0000022FCF7B1FE40F23C40C2F200006946FC
:104FE0000122FEF7EFF9002818BFFCF7ADFB2046C1
:104FF00010210122FCF7A0FE0F208DF800002046B2
:1050000010210022FCF798FE204640210122FCF7E7
:1050100093FE40F23C40C2F2000069460122FEF7D6
:10502000D1F9002818BFFCF78FFB20461021012280
:10503000FCF782FED0208DF80000204610210022CF
:10504000FCF77AFE204640210022FCF775FE40F274
:105050003C40C2F2000069460122FEF7B3F9002885
:1050600018BFFCF771FB204610210122FCF764FEFB
:10507000A4208DF80000204610210022FCF75CFEE1
:10508000204640210122FCF757FE40F23C40C2F28C
:10509000000069460122FEF795F9002818BFFCF7C9
:1050A00053FB204610210122FCF746FEA1208DF87B
:1050B0000000204610210022FCF73EFE2046402141
:1050C0000122FCF739FE40F23C40C2F20000694682
:1050D0000122FEF777F9002818BFFCF735FB2046C0
:1050E00010210122FCF728FEE0208DF80000204668
:1050F000102100220026FCF71FFE2046402100223E
:10510000FCF71AFE40F23C40C2F200006946012260
:10511000FEF758F9002818BFFCF716FB20461021AF
:105120000122FCF709FE42F21F30ADF80C0041F6F7
:105130004C00C0F60D30029042F61330C5F23F40ED
:10514000019040F2D040C1F20D1000902046102195
:105150000022FCF7F1FD204640210122FCF7ECFD86
:1051600040F2071540F23C40C2F20005C2F20000D6
:1051700069460E222E70FEF725F900BF2878002818
:10518000FCD0204610210122FCF7D6FDE1208DF84D
:1051900000002046102100220026FCF7CDFD20460D
:1051A00040210022FCF7C8FD40F23C40C2F2000062
:1051B00069460122FEF706F9002818BFFCF7C4FA79
:1051C000204610210122FCF7B7FD42F22030ADF855
:1051D0000C0042F65170C1F61F70029042F6134067
:1051E000C4F23F40019040F2D040C1F20C10009058
:1051F000204610210022FCF79FFD2046402101227D
:10520000FCF79AFD40F23C40C2F2000069460E22D3
:105210002E70FEF7D7F800BF28780028FCD0204673
:1052200010210122FCF788FD21208DF80000204686
:1052300010210022FCF780FD204640210022FCF7CF
:105240007BFD40F23C40C2F2000069460122FEF7BD
:10525000B9F8002818BFFCF777FA20461021012280
:10526000FCF76AFD11208DF8000020461021002275
:10527000FCF762FD204640210022FCF75DFD40F274
:105280003C40C2F2000069460122FEF79BF800286C
:1052900018BFFCF759FA204610210122FCF74CFDFB
:1052A00029208DF80000204610210022FCF744FD43
:1052B000204640210022FCF73FFD40F23C40C2F274
:1052C000000069460122FEF77DF8002818BFFCF7B0
:1052D0003BFA204610210122FCF72EFD3220FCF77C
:1052E00043FC0020FFF780FB04B070BD2DE9F043C4
:1052F00083B000240546C4F202042A2017460E4655
:105300008DF8090020461021002298464FF0000930
:10531000FCF712FD204640210022FCF70DFD40F273
:105320003C40C2F200000DF109010122FEF74AF8EB
:10533000002818BFFCF708FA204610210122FCF7CC
:10534000FBFC280A8DF80500380A8DF80700204676
:10535000102100228DF806508DF80870FCF7ECFC47
:10536000204640210122FCF7E7FC40F2071540F2FD
:105370003C40C2F20005C2F200000DF1050104221A
:1053800085F80090FEF71EF828780028FCD020460B
:1053900010210122FCF7D0FC2B208DF80A002046BA
:1053A000102100220027FCF7C7FC204640210022E4
:1053B000FCF7C2FC40F23C40C2F200000DF10A01D1
:1053C0000122FDF7FFFF002818BFFCF7BDF92046BA
:1053D00010210122FCF7B0FC300A8DF801004FEAE1
:1053E00018208DF803002046102100228DF802605D
:1053F0008DF80480FCF7A0FC204640210122FCF738
:105400009BFC40F23C40C2F200000DF1010104227D
:105410002F70FDF7D7FF00BF28780028FCD020466A
:1054200010210122FCF788FC2C208DF80B0020466F
:1054300010210022FCF780FC204640210022FCF7CE
:105440007BFC40F23C40C2F200000DF10B01012256
:10545000FDF7B8FF002818BFFCF776F920461021A9
:105460000122FCF769FC03B0BDE8F0832DE9F04FA1
:1054700081B040F20008C4F202080D4606464046DC
:10548000102100224FF00009FCF756FC4046402155
:105490000122FCF751FCDDB140F2071740F23C4B12
:1054A0004FF6FF7AC2F20007C2F2000B4FF6FF740C
:1054B000554538BF2C4658463146224687F800905D
:1054C000FDF780FF38780028FCD02D1B2644EDD155
:1054D00040461021012201B0BDE8F04FFCF72CBC82
:1054E00070470000FDF732B870B592B006AC2046A8
:1054F0003021FBF79DF9002543F640000595CDE9E5
:105500000355CDE901550095C4F202000168022659
:1055100041F080510160006800F0805000900098D8
:1055200047F200000095C4F20000016866F38F3175
:105530000160006800F4404000900098012009904C
:1055400010200A9008200E905420CDE90F06042068
:10555000119020460696CDE90C65FDF7BDF910B116
:1055600072B600BFFEE70F20CDE901064FF4805070
:10557000CDE9040501A802210395FDF7A1F810B1BA
:1055800072B600BFFEE712B070BD00004EF6885044
:10559000CEF20000016841F4700101607047000024
:1055A00040F24450C2F20000FEF732B8B0B540F20B
:1055B000FF7E0568C4F2000E40F2000C7045C4F294
:1055C000010C0ADD40F60003C4F2000398420DD03E
:1055D00060450BD040F6004304E0B0F1804F05D0A9
:1055E00040F20043C4F20003984204D14B6825F016
:1055F000700243EA02054FF6FF73C4F200039842BB
:1056000009DC704512DCB0F1804F26D040F2004337
:10561000C4F200031FE044F2FF33C4F201039842D6
:105620000FDC604519D044F2000312E040F600039D
:10563000C4F20003984210D040F60043C4F20003C5
:1056400009E044F60003C4F20103984205D044F295
:105650000043C4F20103984204D1CB6825F44072A0
:1056600043EA02050A688C684B696045C46282623D
:1056700002D10969CCF83010026825F0800142F0AF
:10568000040219430260012242610160B0BD0000C2
:10569000806B0021C185FEF7BFB80000806B0168F8
:1056A000496990F84120212A11D111F080010ED0D2
:1056B0000021C184016851E8031F026821F0C00184
:1056C00042E80313002BF5D1202180F84110016836
:1056D000496990F84220222A2BD111F0400128D0AC
:1056E0000021C185016851E8031F026821F490710F
:1056F00042E80313002BF5D1016851E8051F026849
:1057000021F0010142E80513002BF5D1016B0129BD
:105710000AD100BF016851E8031F026821F010019F
:1057200042E80313002BF5D1202180F8421000211C
:105730000163416C41F010014164FEF76DB8000057
:105740000168806B0968C90530D40021C18500BF9C
:10575000016851E8031F026821F4807142E80313D5
:10576000002BF5D1016851E8051F026821F0010105
:1057700042E80513002BF5D1016851E8051F0268C6
:1057800021F0400142E80513002BF5D1202180F8DB
:105790004210016B012909D1016851E8031F026819
:1057A00021F0100142E80313002BF5D100214163E1
:1057B000016B012918BFFEF7C9BA818DFEF704B845
:1057C000806B01214163016B012918BFFEF7C0BA4C
:1057D000818D4908FDF7F8BF0168806B0968C9052C
:1057E00048BFFEF7FDBA0021C18400BF016851E83F
:1057F000051F026821F0800142E80513002BF5D156
:10580000016851E8031F026841F0400142E80313B8
:10581000002BF5D170470000806BFEF7E3BA000063
:1058200090F84210222918BF70478268B2F5805F55
:1058300001D1016991B1816AB2F5805F07D00AB9DF
:10584000026922B10268526802F07F0201E0026838
:1058500052680A70816A0131816207E00168826AD8
:1058600049686FF35F2122F8021B8262C18D013902
:105870000A04C18500D070470168CA6822F020027E
:10588000CA60CA6822F48072CA604A6922F00102C2
:105890004A61202180F8421000214163026B012AF5
:1058A00018BFFEF753BA81B0016300BF016851E829
:1058B000031F026821F0100142E80313002BF5D109
:1058C00001680A68D20606D5002200920A68009292
:1058D000496800910099818D01B0FDF775BF000006
:1058E00010B504460068D4E902C22369016921F4B5
:1058F000405111430161626943EA0C01E3691143BC
:10590000C268194349F20C639A431143C16041696B
:10591000A26921F4407141F20043114340F48062D6
:10592000C4F201039A42416102D1FCF78DFF01E00C
:10593000FCF776FFE16963681922B1F5004FA0FB1F
:10594000020120D15A00DB0FFAF700FD48F21F5187
:10595000C5F2EB11A0FB01235A094FF69C73C0F668
:10596000FF7303F1805302FB0300322303EBC000FB
:10597000A0FB01014FF4F87000EA111000EB0210D7
:10598000C1F342111CE09A009B0FFAF7DFFC48F2CA
:105990001F51C5F2EB11A0FB01235A094FF69C736E
:1059A000C0F6FF7302FB0300322303EB0010A0FBE1
:1059B0000101F02000EA511000EB0210C1F3431185
:1059C00008442168886010BDF0B581B013460027F7
:1059D0000446816283854764222084F84200E06B9C
:1059E00045F2417545F2C1760A462168C0F60005C8
:1059F000C0F60006C0E90F5645F29D66C0F60006E7
:105A00000431C0E91367FCF75FF838B11020606417
:105A1000202084F84200012001B0F0BD00972068EA
:105A200001680091406800900098206950B100BF63
:105A3000206850E8030F216840F4807041E80302B9
:105A4000002AF5D1206850E8050F216840F00100D8
:105A500041E80502002AF5D1206850E8050F2168C9
:105A600040F0400041E80502002AF5D1002001B0D5
:105A7000F0BD000040F28C50C2F20000FDF7F2BE13
:105A800040F2D450C2F20000FDF7ECBEFEE7000089
:105A900080B540F2D45040F21C61C2F20000C2F264
:105AA00000014FF48062FDF761FE40F28830C2F2DF
:105AB00000000068016821F00801016080BD00005D
:105AC0002DE9F04385B040F60008C4F202081546FF
:105AD0000E46074640464FF400710022FCF72CF9B1
